:020000040000fa
:10000000f07f0020490e010057d30000ffdb000005
:1000100000000000000000000000000000000000e0
:10002000000000000000000000000000cbc900003c
:100030000000000000000000cbc90000cbc9000098
:10004000cbc90000cbc90000cbc90000cbc9000060
:10005000251a0100cbc90000a5f00000cbc90000a3
:10006000cbc90000cbc90000cbc90000cbc9000040
:10007000f5830000e1930000e9900000cbc9000087
:10008000cbc90000cbc9000041380100cbc900003a
:10009000cbc900000000000000000000cbc9000038
:1000a000cbc90000cbc90000cbc90000cbc9000000
:020000040000fa
:1000b000f8b5c046f8bc08bc9e467047e51801007c
:1000c000f8b5c046f8bc08bc9e467047bd18010094
:020000040000fa
:0800d00000bb0000010000006c
:020000040000fa
:1000d800f0b516001f00446a9db00490259d069651
:1000e8000797002c08d1102014f0b2f9049b58622d
:1000f800446084600460c460049b5b6a19680029da
:100108000bd05a68012393404a608b60049812f020
:1001180069fe0022049b5b6a1a60079b002b1cdaad
:1001280001232b607b005b080793079cba4b2200d6
:1001380019931a409a421cd1b84b249a1360069a14
:10014800b74b002a03d1240301d100f08cfd269a75
:10015800002a05d109330a9308e000232b60e4e75d
:100168001a0009320a920c33269a13600a981db0b5
:10017800f0bd069e079f00220023300039000ff0d3
:1001880095f8051e0ed00123249a1360a44b1a007b
:100198000d320a92269a002ae8d01a0026990e32c1
:1001a8000a60e3e71aab01931bab009332003b00f4
:1001b80004980df0d7fb630005905b0d00d17fe03c
:1001c8003a03984c120b14432100974a30001895b3
:1001d8009e180022954b01f0f5fd954a954b04f0c9
:1001e8002bfc954a954b02f0c5f8040030000d0031
:1001f8000ff004fc924a934b04f01efc02000b0023
:100208002000290002f0b6f804000d000ff0c4ff2a
:10021800002203900023200029000ff04df8002849
:100228000ed003980ff0eafb0b0002002900200013
:100238000ff03cf8030058425841039b1b1a0393e4
:1002480001231693039b162b0fd87f49db00c9188f
:1002580008684968069a079b0ff042f800284bd0b7
:10026800039b013b0393002316931a9b9e1b0023b9
:100278000b933300013b0c9304d501239b1b0b9379
:1002880000230c93039b002b38db039a0c9b9446aa
:1002980063440c9300230f920893229b0125092b9a
:1002a80000d991e0052b02dd0025043b2293229b17
:1002b800981e032800d991e014f0acf882842976be
:1002c8001a9b1b9a9e18614bf218202a0fdd203bbf
:1002d8000698f318d84040239b1a9c40204310f0fe
:1002e800bff801235a4c013e0919189371e72023de
:1002f80006989b1a9840f2e71690b6e70b9b039a6c
:100308009b1a0b935342089300230f93c5e70123cd
:100318000e93239b002b65dd1f000d93049a546aee
:100328000022626004221100143199425fd9616889
:1003380004980ff045fc049b20605b6a1b680a93d5
:100348000e2f00d9fce0002d00d1f9e0069b079c98
:1003580014931594039b002b00dc7de01a000f21f9
:10036800394b0a40d2009b185c681b6810931194a3
:10037800039b02241d11eb060ad5364b0d401a6a61
:100388005b6a1498159902f07ffd03240690079183
:10039800304e002d30d1109a119b0698079902f023
:1003a80073fd0690079171e00123239a0e939446fa
:1003b800039b63445f1c0d933b1eafdc0123ade739
:1003c8000023a5e70023f0e700230e952293013bc5
:1003d8000d931f000022122323929fe701230e93ff
:1003e800023bf5e701230d931f001a00f4e761684b
:1003f80052000131616096e701231d4208d0109830
:100408001199e4183268736804f016fb1090119182
:100418006d100836bde7c0460000f07f0f270000ca
:10042800c84601000000f03f01fcffff0000f83f54
:1004380061436f63a787d23fb3c8608b288ac63fe2
:10044800fb799f501344d33f78c700003204000063
:10045800000010fe58370100039b0224002b15d022
:10046800149815995d420f23c94a2b40db00d31815
:100478001a685b6804f0e0fa002306900791c54efd
:100488002d11002d00d08be0002b8ad1169b002b5c
:1004980000d191e0069a079b109211931098119938
:1004a8000022bd4b0ef008ff002800d184e0002f89
:1004b80000d181e00d9b002b3edd10981199039b24
:1004c80000225e1eb54b04f0b7fa069007910d9d09
:1004d800013420000ff092fa069a079b04f0acfa58
:1004e8000022af4b01f046ff12901391129b139c10
:1004f800ac4a10931194139b9c181194002d5ed153
:10050800069807990022a84b01f05cfc109a23007a
:10051800069007910ef0e4fe002800d000e3a348ff
:100528001399844661440b0006980799109a0ef0b7
:10053800c3fe002800d0e7e2149b159c069307949d
:100548001b9b002b00da56e1039a0e2a00dd52e1cc
:100558008f4bd2009b185c681b6808930994239bf7
:10056800002b00dbcee0002f00ddcbe000d0cee298
:100578000898099900228c4b04f05efa069a079baa
:100588000ef0b8fe3e000897002800d0a3e20a9bb0
:100598000a9a5d1c31231370039b013303939ee277
:1005a8000122154205d0a4183268736804f044fa91
:1005b80001236d10083664e7039e3d0089e70a9a17
:1005c800691e521917920e9a714bc900002a4ad017
:1005d8005b181a685b680020754902f055fc109a90
:1005e800119b01f0effb0a9b109011911293069852
:1005f80007990ff0d1fd04000ff000fa02000b007c
:100608000698079901f0defb129b30345d1c1c70c4
:10061800109a119b069007910ef04efe002865d1a6
:10062800069a079b00205c4901f0ccfb109a119bad
:100638000ef042fe002800d0bde0179b9d4200d17d
:100648007ae7109811990022544b04f0f5f900222a
:100658001090119106980799504b04f0edf91295f6
:1006680006900791c3e7591808684968109a119bc2
:1006780004f0e2f9109011910a9c179d06980799c9
:100688000ff08afd12900ff0b9f902000b000698de
:10069800079901f097fb129b06900791303323705e
:1006a800179b01340022a34224d1414b1098119981
:1006b80001f060fe02000b00069807990ef010fe8c
:1006c800002800d077e0109a119b0020384901f0eb
:1006d80079fb02000b00069807990ef0edfd002843
:1006e80000d129e76b1e1a78302a01d003963fe023
:1006f8001d00f7e706980799284b04f09df9069026
:100708000791bbe70a9e089a099b0698079902f089
:10071800bbfb0ff041fd04000ff070f9089a099b2c
:1007280004f08af90b0002000698079901f04afbc9
:100738002300303333700a9b751ceb1a9f424bd150
:1007480002000b0001f016fe06000f0002000b006d
:10075800089809990ef0b0fd00282bd1089809993e
:1007680032003b000ef0a2fd002801d0e30721d49f
:100778000599049812f036fb00232b70039b249aea
:1007880001331360269b002b00d1efe41d60ede4dc
:1007980078c70000583701000000f03f00002440ef
:1007a80000001c400000c0fc000014400000c07c99
:1007b8000000e03f039e6b1e1a78392a06d10a9a78
:1007c8009a4207d130231370130001361a78013288
:1007d8001a708be71d00eee70022cf4b04f02cf9ce
:1007e80000220023069007912e000ef05ffd0028de
:1007f80000d188e7bce70e9a002a00d187e0229a48
:10080800012a6edc189a002a67d0c44a9b18089df2
:100818000b9c0b9a0121d2180b920c9a0498d318ae
:100828000c9313f07bfe0600002c0edd0c9b002bb6
:100838000bdd0c9a2300944200dd13000b9ae41a96
:10084800d21a0b920c9ad31a0c93089b002b1ed029
:100858000e9b002b5fd0002d11dd31002a0004987b
:100868000df0bafa059a01000600049809f000fe96
:1008780005991090049812f0b5fa109b0593089bff
:100888005a1b04d0059904980df0a6fa0590012189
:10089800049813f043fe0f9b0890002b3ddd1a00cf
:1008a800010004980df098fa229b08900025012b6e
:1008b8003bdc0025069bab4233d1079b1b03ab42b5
:1008c8002fd1199b079a13422bd00b9b012501337b
:1008d8000b930c9b01330c9323e036231a9a9b1a33
:1008e80095e7089b7d1eab4206db5d1b002f0bdaec
:1008f8000b9bdc1b00238ce7089b0895ea1a0f9bcf
:1009080000259b180f93f1e70b9c3b0081e7089d9e
:100918000b9c0e9e88e7089ab4e7229b0025012bc2
:10092800c7dd0f9b0120002b0bd0089b089a1b6981
:100938000f9303339b00d318586812f01ffa202333
:10094800181a0c9bc0181f23184000d1abe02023b5
:100958001b1a042b00dc9be01c23181a0b9b241881
:100968001b180b930c9b1b180c930b9b002b05dd82
:100978001a00059904980df0edf805900c9b002bd2
:1009880005dd1a00089904980df0e4f80890169b04
:10099800002b00d189e00899059812f03cfa00284c
:1009a80000db82e0039b0a22013b039305990023a5
:1009b80004980ef0d9fd0e9b0590002b00d15be149
:1009c800002331000a2204980ef0cefd0d9b06008c
:1009d800002b02dc229b022b6ddc002c05dd310094
:1009e800220004980df0b6f806003000002d11d052
:1009f800716804980ff0e4f83100040033690c3191
:100a08009a1c92000c3013f080fd012221000498fa
:100a18000df0a0f80d9f0a9b013f0b93db193700df
:100a280006000f93089905980af074fa39000d909a
:100a38000400059812f0eff932000e900899049816
:100a48000bf030fe01230c93c36830340500002bf3
:100a580004d10100059812f0def90c9029000498e1
:100a680012f0c0f90c9b229a134300d089e00123ad
:100a7800069a134200d084e0392c00d1a3e00e9be3
:100a8800002b01dd0d9c31340b9b5d1c1c7027e095
:100a9800042b00d169e70b9a1c33d2180b920c9add
:100aa800e418d31860e70300f5e7002f3cdc229b2d
:100ab800022b39dd0d970d9b002b0cd108990522cf
:100ac80004980ef051fd08900100059812f0a3f962
:100ad800002800dd5be5239b0a9ddb430393002789
:100ae8000899049812f07ef9002e00d140e6002ff4
:100af80005d0b74203d03900049812f073f93100d9
:100b0800049812f06ff933e608952e00e3e7002306
:100b180008931e00dfe7c0460000244033040000ad
:100b2800039608952e0032e50e9b0d97002b00d0fa
:100b380053e70a9d089905980af0ecf90a9b3030aa
:100b48000d9a287001350400eb1a9a4278dc151ebc
:100b580000dc012500270a9b5d19059901220498ec
:100b68000cf0f8ff0899059012f055f900282fdcd1
:100b780001d1e3072cd46b1e1a78302ab0d11d009e
:100b8800f9e70e9b002b07db1d00229b1d4326d196
:100b98000123069a134222d10c9b002b00dc73e739
:100ba8000599012204980cf0d5ff0899059012f0d8
:100bb80032f9002804dc00d066e7e30700d463e7d5
:100bc800392c00d05ee70b9b0b9a5d1c3923137000
:100bd8006b1e1a78392a3bd001321a7080e70b9bba
:100be80001330d930c9b002b05dd392cebd00d9dab
:100bf80001340b9b4ae70b9b0f9a0d9d1c70934287
:100c0800abd000230a22059904980ef0adfc00230e
:100c180005900a2239000498b74206d10ef0a4fcc8
:100c2800070006000d9b0b93fce60ef09dfc3100bf
:100c3800070000230a2204980ef096fc0600f1e74c
:100c480000230a22059904980ef08efc059071e79e
:100c58000a9a9a4205d1039b0133039331231370f7
:100c68003ee71d00b4e7269a0a930833002a01d00c
:100c7800fff77afafff77afa0d9b002b00dd58e7a9
:0c0c8800229b022b00dc54e715e7c0465d
:020000040000fa
:100c9400702000201c00000000000000e41d002063
:100ca4006000000000000000102000202000000070
:100cb400000000007b210020010000000000000073
:100cc4005422002001000000000000007c210020cc
:100cd4000400000000000000802100200400000047
:100ce4000000000055220020010000000000000068
:100cf400842100200400000001000000ffffffff2a
:100d04005622002001000000000000000000002026
:100d140028000000000000008821002004000000da
:100d2400000000008c2100200400000000000000ee
:100d3400902100200400000000000000ea1e0020b2
:100d44000200000000000000572200200100000003
:100d540000000000582200200100000000000000f4
:100d6400592200200100000000000000942100200e
:100d740004000000000000005022002002000000d7
:100d840001000000000100005a22002001000000c0
:100d9400000000005b2200200100000000000000b1
:100da40044210020080000000000000098210020d9
:100db40004000000000000009c210020040000004a
:100dc40000000000a021002004000000000000003a
:100dd400a42100200400000000000000a82100203d
:100de40004000000000000005c220020010000005c
:100df40001000000ff000000ac21002004000000fe
:100e040000000000b02100200400000000000000e9
:100e14005d22002001000000010000000400000029
:100e24005e2200200100000000000000422100209a
:100e340002000000000000005f220020010000000a
:100e440000000000602200200100000000000000fb
:100e540028000020bc00000000000000341a00201c
:100e6400f400000000000000e40000200400000082
:100e740000000000302000202000000000000000de
:100e8400502000202000000000000000e8000020a6
:100e9400200000000000000008010020c000000045
:100ea40000000000c01f0020280000000000000017
:100eb400612200200100000000000000c8010020a1
:100ec4002c00000000000000801c002080000000b6
:100ed400000000003815002000020000000000009f
:100ee400f401002038000000000000002c02002063
:100ef4000800000000000000b421002004000000ed
:100f040000000000001d0020800000000000000020
:100f1400b821002004000000000000004c21002043
:100f24000800000000000000180e0020000400006b
:100f340000000000bc2100200400000000000000ac
:100f4400202100200c00000000000000281b0020cd
:100f5400c800000000000000622200200100000020
:100f640000000000632200200100000000000000d7
:100f74005421002008000000000000002c1f002065
:100f840038000000000000001812002020030000b8
:100f940000000000522200200200000001000000b6
:100fa40001000000e81f00202800000000000000ed
:100fb400f01b00209000000000000000340200201c
:100fc4001000000000000000440200204200000065
:100fd40000000000c0210020040000000000000008
:100fe400880200203400000000000000c42100201a
:100ff40004000000010000002b2f3d40c821002008
:1010040004000000010000002d5f00008c2000207f
:101014001c00000000000000801d0020640000008f
:1010240000000000381700209001000000000000bc
:10103400642200200100000001000000ff00000005
:10104400652200200100000000000000662200204c
:1010540001000000000000006722002001000000e1
:1010640000000000682200200100000000000000d1
:101074006922002001000000000000006a22002014
:101084000100000000000000cc210020040000004a
:1010940000000000d0210020040000000000000037
:1010a4006b2200200100000000000000d421002079
:1010b40004000000000000006c2200200100000079
:1010c400000000006d22002001000000000000006c
:1010d4006e2200200100000000000000941f002088
:1010e4002c00000000000000a82000201c000000cc
:1010f40000000000c42000201c00000000000000cc
:10110400e020002018000000000000006f220020f2
:101114000100000000000000d821002004000000ad
:1011240001000000ffffffffdc210020040000009d
:1011340001000000ffffffffe02100200400000089
:1011440001000000ffffffffe42100200400000075
:1011540001000000ffffffffe82100200400000061
:1011640001000000ffffffffbc020020040000009c
:1011740000000000702200200100000000000000b8
:10118400ec21002004000000000000005c2100208d
:101194000800000001000000e8020020c002002056
:1011a400c00200202c00000000000000712200207a
:1011b4000100000000000000641f00203000000057
:1011c4000100000000030000b0020000a08601003e
:1011d400000000000000000000000000000000000b
:1011e4000000000000000000dc0500001400000006
:1011f40000000000ec0200200900000000000000d4
:10120400742100200700000001000000756e757352
:1012140065640000f8020020540200000000000091
:101224007222002001000000000000007322002050
:1012340001000000000000007422002001000000f2
:1012440000000000752200200100000000000000e2
:101254007622002001000000000000007722002018
:101264000100000000000000f02100200400000044
:1012740001000000fffffffff42100200400000034
:1012840001000000fffffffff82100200400000020
:1012940001000000ffffffff782200200100000092
:1012a40001000000010000004c050020bc0000000b
:1012b400000000007922002001000000000000006e
:1012c4007a22002001000000000000007b220020a0
:1012d40001000000000000007c220020010000004a
:1012e40000000000fc2100200400000000000000b9
:1012f4007d220020010000000000000000220020e8
:101304000400000001000000ffffffff6421002033
:10131400080000000100000053414d2e496f5400a5
:10132400042200200400000001000000ffffffff72
:10133400082200200400000001000000ffffffff5e
:101344007e22002001000000000000007f22002017
:101354000100000000000000180600200008000042
:10136400000000000c220020040000000000000027
:10137400f820002014000000010000003c505245f9
:101384004649583e00000000000000000000000034
:1013940080220020010000000000000081220020c3
:1013a4000100000000000000a41e00204600000010
:1013b40000000000102200200400000000000000d3
:1013c4001422002004000000000000001822002065
:1013d4000400000001000000ffffffff1c220020aa
:1013e4000400000001000000ffffffff0c210020ab
:1013f40014000000010000004241414141414444c5
:10140400314442414141444431440000822200209d
:101414000100000001000000010000000806002097
:101424000c000000000000008322002001000000e6
:1014340000000000842200200100000000000000e1
:101444008522002001000000000000008622002008
:1014540001000000000000008722002001000000bd
:1014640000000000882200200100000000000000ad
:10147400202200200400000001000000ffffffff05
:10148400242200200400000001000000fffffffff1
:10149400282200200400000001000000ffffffffdd
:1014a4002c2200200400000001000000441e002043
:1014b400441e002060000000010000000000000045
:1014c400e43c0100043d0100c43c010000000000b4
:1014d4000000000000000000000000000000000008
:1014e40000000000000000000000000000000000f8
:1014f40000000000000000000000000000000000e8
:1015040000000000000000000000000000000000d7
:101514000000000000000000000000003022002055
:101524000400000000000000342200200400000039
:10153400000000002c2100200b000000000000002f
:10154400372100200b00000000000000382200209a
:1015540004000000000000003c2200200400000001
:1015640000000000402200200400000000000000f1
:101574006c2100200800000001000000384a01002e
:10158400384a0100ec1e0020400000000100000069
:1015940001000000000000004a00000000000000fc
:1015a4000000000000000000000000000000000037
:1015b400000000004a0000000000000000000000dd
:1015c4000000000000000000000000000000000017
:1015d400c81800206c010000010000004300000056
:1015e40000000000000000000000000000000000f7
:1015f40000000000000000000000000043000000a4
:1016040000000000000000000000000000000000d6
:101614000000000000000000000000004300000083
:1016240000000000000000000000000000000000b6
:101634000000000000000000000000004300000063
:101644000000000000000000000000000000000096
:101654000000000000000000000000004300000043
:101664000000000000000000000000000000000076
:101674000000000000000000000000004300000023
:101684000000000000000000000000000000000056
:101694000000000000000000000000004300000003
:1016a4000000000000000000000000000000000036
:1016b4000000000000000000000000001d420100c6
:1016c400a93901000000000034b30000e94801001a
:1016d400e8480100e8480100e8480100e848010042
:1016e400e8480100e8480100e8480100e848010032
:1016f400e8480100ffffffffffffffffffffffffc1
:10170400ffff00000100415343494900000000006d
:1017140000000000000000000000000000000000c5
:10172400000000000000415343494900000000004c
:1017340000000000000000000000000000000000a5
:101744000000000000000000140600200400000057
:1017540000000000442200200400000000000000fb
:101764004822002004000000010000004422002060
:101774004c220020040000000000000000000000d3
:1017840000000000222222222222222222222222bd
:020000040000fa
:10179400c4cac3c95b7370695f636d645d3a2046f4
:1017a40061696c656420636d642077726974652c6b
:1017b40020627573206572726f722e2e2e0d0a00d0
:1017c4005b7370695f636d645f7273705d3a20462a
:1017d40061696c656420636d6420726573706f6efb
:1017e400736520726561642c206275732065727262
:1017f4006f722e2e2e0d0a005b7370695f636d6429
:101804005f7273705d3a204661696c656420636d34
:101814006420726573706f6e736520726561640a0b
:10182400000000005b7370695f646174615f7265de
:1018340061645d3a204661696c6564206461746129
:1018440020726573706f6e736520726561642c20fd
:10185400627573206572726f722e2e2e0d0a00004f
:101864005b7370695f646174615f726561645d3a42
:10187400204661696c6564206461746120726573db
:10188400706f6e736520726561642e2e2e2825306c
:101894003278290d0a0000005b7370695f6461741b
:1018a400615f726561645d3a204661696c656420bc
:1018b4006461746120626c6f636b20726561642c77
:1018c40020627573206572726f722e2e2e0d0a00bf
:1018d4005b7370695f646174615f726561645d3ad2
:1018e400204661696c6564206461746120626c6f78
:1018f400636b2043524320726561642c20627573cc
:10190400206572726f722e2e2e0d0a005b73706941
:101914005f726561645f7265675d3a204661696cf8
:10192400656420636d642c20726561642072656750
:10193400202825303878292e2e2e0d0a000000008c
:101944005b7370695f726561645f7265675d3a209d
:101954004661696c656420636d6420726573706fa1
:101964006e73652c2072656164207265672028257a
:10197400303878292e2e2e0d0a0000005b73706912
:101984005f726561645f7265675d3a204661696c88
:101994006564206461746120726561642e2e2e0d6d
:1019a4000a000000526573657420616e64207265dc
:1019b4007472792025642025780d0a005b737069a0
:1019c4005f77726974655f7265675d3a2046616925
:1019d4006c656420636d642c207772697465207271
:1019e4006567202825303878292e2e2e0d0a000010
:1019f4005b7370695f77726974655f7265675d3a7e
:101a0400204661696c656420636d6420726573703f
:101a14006f6e73652c207772697465207265672018
:101a24002825303878292e2e2e0d0a00526573652c
:101a34007420616e64207265747279202564202597
:101a4400782025780d0a00005b6e6d5f7370695f06
:101a5400696e69745d3a204661696c656420696edb
:101a64007465726e616c20726561642070726f744b
:101a74006f636f6c207769746820435243206f6ee4
:101a84002c207265747279696e6720776974682096
:101a9400435243206f66662e2e2e0d0a000000006e
:101aa4005b6e6d5f7370695f696e69745d3a204641
:101ab40061696c656420696e7465726e616c207214
:101ac4006561642070726f746f636f6c2e2e2e0dbf
:101ad4000a0000005b6e6d5f7370695f696e697404
:101ae4005d3a204661696c656420696e7465726e46
:101af400616c2077726974652070726f746f636fa4
:101b04006c207265672e2e2e0d0a00005b6e6d5fd1
:101b14007370695f696e69745d3a204661696c200f
:101b2400636d642072656164206368697020696410
:101b34002e2e2e0d0a0000005b7370695f726561c2
:101b4400645f626c6f636b5d3a204661696c6564c7
:101b540020636d642c207265616420626c6f636b1a
:101b6400202825303878292e2e2e0d0a000000005a
:101b74005b7370695f726561645f626c6f636b5df8
:101b84003a204661696c656420636d6420726573f4
:101b9400706f6e73652c207265616420626c6f6374
:101ba4006b202825303878292e2e2e0d0a000000af
:101bb4005b7370695f726561645f626c6f636b5db8
:101bc4003a204661696c656420626c6f636b2064c3
:101bd40061746120726561642e2e2e0d0a0000006e
:101be400526573657420616e642072657472792025
:101bf40025642025782025640d0a00005b73706934
:101c04005f77726974655f626c6f636b5d3a2046df
:101c140061696c656420636d642c207772697465f6
:101c240020626c6f636b202825303878292e2e2e85
:101c34000d0a00005b7370695f77726974655f6297
:101c44006c6f636b5d3a204661696c656420636dfb
:101c54006420726573706f6e73652c20777269747b
:101c64006520626c6f636b202825303878292e2e0e
:101c74002e0d0a005b7370695f646174615f777233
:101c84006974655d3a204661696c656420646174b9
:101c94006120626c6f636b20636d6420777269747a
:101ca400652c20627573206572726f722e2e2e0d54
:101cb4000a0000005b7370695f646174615f77722e
:101cc4006974655d3a204661696c65642064617479
:101cd4006120626c6f636b2077726974652c20627b
:101ce4007573206572726f722e2e2e0d0a0000001d
:101cf4005b7370695f646174615f77726974655d59
:101d04003a204661696c6564206461746120626c88
:101d14006f636b204352432077726974652c206291
:101d24007573206572726f722e2e2e0d0a000000dc
:101d34005b7370695f77726974655f626c6f636b04
:101d44005d3a204661696c656420626c6f636b2048
:101d5400646174612077726974652e2e2e0d0a00f9
:101d64005b7370695f77726974655f626c6f636bd4
:101d74005d3a204661696c65642062757320657202
:101d8400726f722e2e2e0d0a000000005b737069b4
:101d94005f77726974655f626c6f636b5d3a20464e
:101da40061696c6564206461746120726573706f2d
:101db4006e736520726561642c2025782025782057
:081dc40025780d0a0000c0465d
:020000040000fa
:101dcc00f7b50d0009036c00ed0f0095490a450f9e
:101ddc0029431d035e00c700d80f6b0a550f2b4318
:101dec00c14d640d760dd200ae4203d11d00844668
:101dfc00154302d101254540ac46009da01bac45c6
:101e0c0000d036e1002861dd002e25d11d001543e0
:101e1c0000d196e2461e002e19d1ba18ba42a4413e
:101e2c00c91864420919170001240b0200d4bee042
:101e3c00ad4b01349c4200d180e2ac487b080140a0
:101e4c00012007401f43c80707434908afe0a64dd0
:101e5c00a84209d1a44caae0a34dac4200d1a6e003
:101e6c00802506002d042b43382e2adc1f2e17dc70
:101e7c0020201d00801b8540ac4615000190f540cc
:101e8c00604605430198f3408240501e8241154341
:101e9c00ed195b18bd428941494259182f00c4e71e
:101eac0030001d002038c5400020202e03d04020db
:101ebc00861bb34018000243501e82411543002379
:101ecc00e6e71a4315006a1e9541f8e7002850d042
:101edc00002c14d10c003c4300d128e2c443002c4c
:101eec0007d1bf189742a441c9186442091934009c
:101efc009be77d48864209d119001700aae77a4c66
:101f0c00a642f9d04442802000040143382c2bdc3b
:101f1c001f2c17dc2025281b01900800019de14097
:101f2c00a840844638006546e0402843019daf40f8
:101f3c007d1eaf413843871897429241c9185242cf
:101f4c008918d4e720000d002038c5402800002552
:101f5c00202c03d040252c1ba1400d002f437d1eaf
:101f6c00af4138430021e6e70f433800471eb84124
:101f7c00f8e7661c75056d0d012d00dd69e00800a4
:101f8c003843002c49d1002800d1d3e1180010436c
:101f9c000dd0ba18ba42b641c918802376428919b5
:101fac001b041700194202d00124504b19407b0727
:101fbc0009d00f233b40042b05d03b1dbb42bf4136
:101fcc007f42c9191f000b0206d5474b01349c42b6
:101fdc0000d1c3e1454b1940434b4807ff08384338
:101fec00c9089c4206d103000b4300d1b9e1802300
:101ffc001b031943002709033b0d1b05090b194350
:10200c003b4b6405194064080c43009b6400d907e2
:10201c0064080c43210003b0f0bd002800d16be72d
:10202c001800104300d115e74807ff08074380202c
:10203c00c9080003014207d0dc08044204d1d208cd
:10204c005b0713431f002100780fc9000143ff00f9
:10205c0000e7254ca64200d16fe1ba18c918ba4264
:10206c009b415b42cb18df075208174359083400d9
:10207c009de700285ddd002e3cd11d00154300d1ed
:10208c005fe1461e002e0ed1ba1a9742bf41c91a03
:10209c007f42c91b012417000b0200d487e74902b9
:1020ac004d0a3e00f9e0104da84200d1d2e6382e80
:1020bc003adc1f2e27dc20201d00801b8540ac46ff
:1020cc0015000190f540604605430198f3408240ad
:1020dc00501e824115437d1bcb1aaf4289414942a8
:1020ec00591a2f00d8e7c046ff070000ffff7ffffb
:1020fc00ffff0f809c4dac4200d158e780252d048a
:10210c002b430600d3e730001d002038c5400020cb
:10211c00202e03d04020861bb34018000243501ed3
:10212c00824115430023d6e71a4315006a1e9541d8
:10213c00f8e700284dd0002c17d10c003c4300d1ff
:10214c0001e1c443002c09d1d71bba429241591a60
:10215c0063465242891a340000939de782488642b6
:10216c000ad119001700804c45e07f4ca642f8d0ec
:10217c004442802000040143382c25dc1f2c11dc48
:10218c002025281b00900800009de140a840050078
:10219c003800e0402843009daf407d1eaf413843de
:1021ac00171ad2e720000d002038c5402800002562
:1021bc00202c03d040252c1ba1400d002f437d1e4d
:1021cc00af4138430021ebe70f433800471eb841bd
:1021dc00f8e7601c4005400d01284cdc18000d0090
:1021ec0010433d43002c24d1002d07d1071e00d1f4
:1021fc00ade01900170063460093d8e6002800d123
:10220c00d5e6bd1aaf42b641c81a7642801b80266d
:10221c003604304206d0d71bba429241591a524268
:10222c00891ae8e72f00074300d190e001002f0046
:10223c00bde6002d07d1071e00d18be019006346c7
:10224c001700009306e6002800d103e64807ff08b4
:10225c0007438020c9080003014200d1f4e6dc08e2
:10226c00044200d0f0e6d2085b0713431f0063461c
:10227c0021000093e8e6be1ab7428041cd1a4042d5
:10228c002d1a8020000405422dd0d61bb242ad4140
:10229c00591a63466d424d1b0093002d29d028001e
:1022ac0010f076f90300083b1f2b27dc20223100ad
:1022bc009e40d21a9d40d14037000d439c4232dce7
:1022cc001c1b661c1f2e1edc20233a0029009b1ba6
:1022dc009940f2409f400a43791e8f412900f140fa
:1022ec001743002463e637002f43d6d139003c0056
:1022fc002ee0300010f04cf92030d3e735002838b0
:10230c0085400027dae72a001f3ce2400023202efc
:10231c0003d040239e1b2b00b3401f437b1e9f41c9
:10232c0000211743dde71149e41a29403fe6190063
:10233c0017009ce61900170039e60b4c00210f0022
:10234c0035e6040033e619001700340053e7390072
:10235c0000972ce68021044cc903f9e700210f00fb
:10236c003ae6190046e6c046ff070000ffff7fff74
:10237c00f7b50d0009036c00ed0f0095490a450fe8
:10238c005e0029431d03db0f9c466b0a550f2b4344
:10239c00009d640d760dc700d200a01b654500d0d2
:1023ac0036e1002861dd002e25d11d00154300d13a
:1023bc0097e2461e002e19d1ba18ba42a441c91888
:1023cc0064420919170001240b0200d4bee0bd4b76
:1023dc0001349c4200d181e2bb487b0801400120c2
:1023ec0007401f43c80707434908afe0b54da84253
:1023fc0009d1b44caae0b34dac4200d1a6e0802583
:10240c0006002d042b43382e2adc1f2e17dc20202f
:10241c001d00801b8540ac4615000190f5406046c0
:10242c0005430198f3408240501e82411543ed193b
:10243c005b18bd428941494259182f00c4e730004e
:10244c001d002038c5400020202e03d04020861bc4
:10245c00b34018000243501e824115430023e6e7a7
:10246c001a4315006a1e9541f8e7002850d0002c3d
:10247c0014d10c003c4300d129e2c443002c07d1f9
:10248c00bf189742a441c9186442091934009be74c
:10249c008c48864209d119001700aae7894ca6423c
:1024ac00f9d04442802000040143382c2bdc1f2c33
:1024bc0017dc2025281b01900800019de140a84055
:1024cc00844638006546e0402843019daf407d1ea0
:1024dc00af413843871897429241c9185242891824
:1024ec00d4e720000d002038c54028000025202c02
:1024fc0003d040252c1ba1400d002f437d1eaf4166
:10250c0038430021e6e70f433800471eb841f8e78f
:10251c00661c75056d0d012d00dd69e00800384362
:10252c00002c49d1002800d1d4e1180010430dd063
:10253c00ba18ba42b641c9188023764289191b04cd
:10254c001700194202d001245f4b19407b0709d0b8
:10255c000f233b40042b05d03b1dbb42bf417f42a8
:10256c00c9191f000b0206d5564b01349c4200d1f1
:10257c00c4e1554b1940534b4807ff083843c90871
:10258c009c4206d103000b4300d1bae180231b030c
:10259c001943002709033b0d1b05090b19434b4b32
:1025ac006405194064080c43009b6400d907640857
:1025bc000c43210003b0f0bd002800d16be71800dc
:1025cc00404c1043c2d04807ff0807438020c9087d
:1025dc000003014207d0dc08044204d1d2085b0797
:1025ec0013431f002100780fc9000143ff0000e7cf
:1025fc00344ca64200d170e1ba18c918ba429b41ba
:10260c005b42cb18df0752081743590834009de78b
:10261c0000285ddd002e35d11d00154300d160e191
:10262c00461e002e0ed1ba1a9742bf41c91a7f42dc
:10263c00c91b012417000b0200d487e749024d0a7d
:10264c003e00fae01f4da84200d1d2e6382e33dc12
:10265c001f2e20dc20201d00801b8540ac46150061
:10266c000190f540604605430198f3408240501eae
:10267c00824115437d1bcb1aaf4289414942591afd
:10268c002f00d8e70f4dac4200d15fe780252d0419
:10269c002b430600dae730001d002038c54000202f
:1026ac00202e03d04020861bb34018000243501e3e
:1026bc00824115430023dde71a4315006a1e95413c
:1026cc00f8e7c046ff070000ffff7fffffff0f800a
:1026dc0000284dd0002c17d10c003c4300d102e156
:1026ec00c443002c09d1d71bba429241591a6346f4
:1026fc005242891a340000939de7834886420ad1de
:10270c0019001700804c45e07f4ca642f8d044429b
:10271c00802000040143382c25dc1f2c11dc2025e3
:10272c00281b00900800009de140a84005003800df
:10273c00e0402843009daf407d1eaf413843171a3f
:10274c00d2e720000d002038c54028000025202ca1
:10275c0003d040252c1ba1400d002f437d1eaf4103
:10276c0038430021ebe70f433800471eb841f8e728
:10277c00601c4005400d01284ddc18000d00104375
:10278c003d43002c24d1002d07d1071e00d1aee013
:10279c001900170063460093d8e6002800d1d5e64f
:1027ac00bd1aaf42b641c81a7642801b8026360449
:1027bc00304206d0d71bba429241591a5242891a5a
:1027cc00e8e72f00074300d191e001002f00bde6a0
:1027dc00002d07d1071e00d18ce0190063461700ad
:1027ec00009306e6484c002800d1afe64807ff08e6
:1027fc0007438020c9080003014200d1f3e6dc083e
:10280c00044200d0efe6d2085b0713431f00634677
:10281c0021000093e7e6be1ab7428041cd1a404230
:10282c002d1a8020000405422dd0d61bb242ad419a
:10283c00591a63466d424d1b0093002d29d0280078
:10284c000ff0a6fe0300083b1f2b27dc20223100d3
:10285c009e40d21a9d40d14037000d439c4232dc41
:10286c001c1b661c1f2e1edc20233a0029009b1b00
:10287c009940f2409f400a43791e8f412900f14054
:10288c001743002462e637002f43d6d139003c00b1
:10289c002ee030000ff07cfe2030d3e735002838d6
:1028ac0085400027dae72a001f3ce2400023202e57
:1028bc0003d040239e1b2b00b3401f437b1e9f4124
:1028cc0000211743dde71149e41a29403ee61900bf
:1028dc0017009be61900170038e60b4c00210f007f
:1028ec0034e6040032e619001700340052e73900d0
:1028fc0000972be68021044cc903f9e700210f0057
:10290c0039e6190045e6c046ff070000ffff7fffd0
:020000040000fa
:10291c00f0b597b00c00089209931c9d079011f02c
:10292c0083fc036818000e9311f0d7fe237e2668f3
:10293c000b930f902b680722f1054bd59b189343f3
:10294c001a0008322a601a685b68a264e3640122e8
:10295c00e76ca36c7d000a936d080c935242c04b3c
:10296c000a98290010f022fa002800d070e2012207
:10297c00bb4b52420a9829000cf0a6fc002800d050
:10298c0066e2002200230c9839000cf093fc00281e
:10299c0003d023002d2243331a70b24b1a1d0a9216
:1029ac000b9a472a00d80a93032300272361042398
:1029bc003d009e432660099b14aa00932100089bae
:1029cc00079809f0c1fa431c00d007e101204042ee
:1029dc0017b0f0bd0733b2e763685a1c00d0ace007
:1029ec000623636080230022db0033432360656889
:1029fc001092974205da802109067b181f002d23bf
:102a0c00109320230b9a9a430d920d9b0322462b75
:102a1c0004d0453b5842584102222d1814ab049364
:102a2c0013ab039312ab029300923b0001950c9aeb
:102a3c000798fdf74bfb0d9b0a90472b02d1f30730
:102a4c0000d418e20a9b5e190d9b462b10d10a9bf1
:102a5c001b78302b0ad1002200230c9839000cf083
:102a6c0023fc002802d101235d1b1295129bf61842
:102a7c00002200230c9839000cf016fc30220028a0
:102a8c0069d01496149b0a9a9f1a0d9b472b0ad156
:102a9c00129bda1c03db6268934200dc8ce00b9b1c
:102aac00023bdbb20b930b9b129a652b68d86946e1
:102abc002c202300091809785033551e0d931970da
:102acc0002330c931295013b002d48da0125ad1a07
:102adc002d221a70092d4bdd27260cabf618731e10
:102aec0028000a2111930af031ff731e303119703e
:102afc0028000a210af0e0fe0500092831dc272114
:102b0c00023e30350caa0c9b357089181a008e4287
:102b1c0029d30d9bd51aeb192361012f02dc2268f6
:102b2c00d20701d501332361109b002b00d142e762
:102b3c0023002d2243331a703de720220b99914339
:102b4c00472900d04ee7002b00d04be7012348e784
:102b5c00591c14911a70149b9e42f9d892e72b229f
:102b6c00b7e7119ebbe7327801361a700133cde717
:102b7c0030230c9a30351370130002325d70c8e7a5
:102b8c000b9b662b1ad16368002a0cdd2261002b8b
:102b9c0002d12168c90702d501339b182361129b0e
:102bac000025a365c0e7002b03d101222168114247
:102bbc0000d09a1c2261f2e767230b93129bbb4255
:102bcc0005db22682361d207e9d50133e6e7012250
:102bdc00002b01dc0222d21ad219ebe72268530532
:102bec0008d423690a9a08990798099da847431c99
:102bfc0029d1ebe60b9b652b00d8d7e0a06ce16ce0
:102c0c00002200230cf050fb002839d0154a012378
:102c1c00103208990798099da847431c00d1d5e6a6
:102c2c00129bbb4202db2368db070cd5099d0f9b73
:102c3c000e9a08990798a8470025431c00d1c5e6b1
:102c4c007b1e9d4210db236800259b0700d5f9e015
:102c5c00149be068984200dbbae61800b8e6c04660
:102c6c00ffffef7f641c0100220001231a32089938
:102c7c000798099eb047431c00d1a7e60135dfe752
:102c8c00129b002b2ddc7e4a0123103208990798e9
:102c9c00099da847431c00d198e6129b002b04d138
:102cac00002f02d12368db07cdd5099d0f9b0e9a0f
:102cbc0008990798a8470025431c00d186e6129b6b
:102ccc005b429d4201db3b008ce7220001231a3260
:102cdc0008990798099eb047431c00d176e6013548
:102cec00ede7a56dbd4200dd3d00002d34dc002379
:102cfc000b93eb43db170c930c9ba66d0b9a2b40a1
:102d0c00f31a9a4231db129bbb423cdb2368db0794
:102d1c0039d4129abb1bbd1a9d4200dd1d00002d3b
:102d2c003adc00230a93eb43db170b93129b0b9ab1
:102d3c00fb1a2a409b1a0a9a9a4284da220001232f
:102d4c001a3208990798099eb047431c00d13de6fa
:102d5c000a9b01330a93e9e72b000a9a0899079812
:102d6c00099eb047431cc2d130e6220001231a321f
:102d7c0008990798099eb047431c00d126e60b9b87
:102d8c0001330b93b8e70f9b0e9a08990798099d8e
:102d9c00a847431cbdd119e60a9b08999a190798b4
:102dac002b00099eb047431cbbd10fe6012f02dc60
:102dbc0001231a4239d001230a9a08990798099ecf
:102dcc00b047431c00d101e60f9b0e9a0899079857
:102ddc00099eb047431c00d1f8e5a06ce16c0023c0
:102dec0000220cf061fa0023002815d10a9a7b1ef0
:102dfc00013208990798099eb047431c11d1e5e5ab
:102e0c00220001231a3208990798099eb047431ce7
:102e1c0000d1dbe50a9b01330a930a9a7b1e9a4286
:102e2c00eedb22002b005032dde60a9ae1e72200ad
:102e3c000123193208990798099eb047431c00d109
:102e4c00c4e50135e368149a9b1a9d42efdbffe65b
:102e5c000c9a3b000c9839000ff0a8ff002800d109
:102e6c00bae5074b1a000c320a920b9a472a00d982
:102e7c009ae5083397e5149b0a9a9f1a08e6c04610
:042e8c00641c0100c1
:020000040000fa
:102e9000f0b58bb0060004930400cb0f0d0348007f
:102ea00000922d0b400d0393029346d0584b98424d
:102eb00067d08023720f1b04ed0013432b431f00c8
:102ec000544bf400c31800260193049b009a1d0381
:102ed0005800db0f2d0b400d069361d04c4b9842f0
:102ee00000d181e08023520f1b041343ed001d43ea
:102ef000484a009b8218db009446002206980399fa
:102f00004140604604910199091ab000104301380c
:102f100005910e2800d981e011f08afa7500490266
:102f2000ed0149023d024902ed01750075003d02c7
:102f3000ed01fc01fc01fc01e2012f00374327d029
:102f4000002d13d028000ff029fb01000b391c299c
:102f500011dc02001d2337003400083a5b1a95404b
:102f6000df4094402f432c4b1b1aace730000ff08e
:102f700015fb2030e9e70300283b9e400024370082
:102f8000f1e72e43371e07d02f00019003269ce760
:102f90003c000197012698e734000190022694e74f
:102fa000009b2b4327d0002d13d028000ff0f6fafa
:102fb00001000b391c2911dc1d2302005b1a00994a
:102fc000083ad940009b954093400d43124a121a8b
:102fd00092e710000ff0e2fa2030e9e70300009dcd
:102fe000283b9d400023f1e7009b2b4307d01300b3
:102ff0008446032282e71d009c4601227ee71d00d5
:10300000844602227ae700252c00014b4ee1c0469f
:10301000ff07000001fcffff0dfcffffaf4204d8db
:1030200000d057e19c4200d254e1f90762081143f5
:10303000e0070c0001907f082d021a0e2a431b02a4
:103040000293130c03936b4600921b88039938007c
:1030500007930bf0c1fc0600079b0690039938000c
:103060005e430bf0f5fc250c09040d43069fae42b0
:1030700009d9009b013fed18ab4204d8ae4202d9fa
:10308000069fed18023fab1b0399180006930bf047
:10309000a3fc079e05004643039906980bf0d8fc55
:1030a000a4b209040c432a00a64208d9009b013aa5
:1030b000e418a34203d8a64201d9aa1ee4183b048f
:1030c00002991343029a0904120c090c0892069102
:1030d000089d06989ab2a61b1c0c514360436a4394
:1030e0006c4312180d0caa18904202d9802040029d
:1030f0002418100c09041204090c04195218a642d1
:1031000005d31f00a64227d10199914224d20298eb
:103110000199844661440191814289410098494264
:10312000091876185f1eb04204d315d16146019884
:10313000814211d8b44203d80ed101998a420bd9e9
:1031400002999f1e8c46019b634401938b429b41d5
:1031500000995b425b18f618019b341b9b1a09937c
:10316000099a019b93429b415b42e41a009ba34254
:1031700000d1d2e0039920000bf02efc079d060041
:103180004543039920000bf063fc099b09041c0cc8
:103190000c430196a5420cd93300013b0193009bdf
:1031a000e418a34205d8a54203d9b31e0193009b9e
:1031b000e418641b039920000bf00efc079d060029
:1031c0004543039920000bf043fc6b460a04998c9d
:1031d000330011438d4208d9009a013b89188a4275
:1031e00003d88d4201d9b31e8918019a089c120494
:1031f0001a43100c93b24d1b16000699069a4143d0
:103200005a43634360435b18140ce318994202d994
:10321000802149024018190c12041b04120c0818d2
:103220009b18854204d3340085421bd1002b1bd050
:10323000009a741e5519aa420fd8a84203d811d17a
:10324000029a9a420bd2029ab41e510091429241c4
:10325000009e52429219ad180291854202d1029a03
:10326000934201d001231c43059b564a9b18002b17
:1032700056dd620709d00f222240042a05d0221d04
:10328000a242a44164423f191400fa0106d58022eb
:10329000d20094464c4b1f40059b63444b4a9342db
:1032a00000dd88e0e40879070c43fd0800212d03c8
:1032b0000a0d12052d0b1543454a5b0515405b08a9
:1032c0002b43049a5b00d2075b08134320001900cc
:1032d0000bb0f0bd059a013a059200220192abe6cf
:1032e0008022120317425ad0154258d12f001c00d9
:1032f000069b029353e02f0016001c00069b0493cc
:10330000022e58d0032e50d0012eadd1002425001e
:103310002300cbe7039b0493f2e701246442a3e775
:103320000122d21a382af1dc1f2a21dc20232000b6
:103330009b1a39009c403d009940d040631e9c413f
:10334000d54001430c43630709d00f232340042bce
:1033500005d0231da342a44164422d191c008023e3
:103360001b042b402ad16907e4080c43ed089de7b4
:103370001f214942cb1a3900d9400b000021202ad5
:1033800003d040218a1a390091400c43611e8c41c0
:1033900000251c43d7e7802700243f0302948025a3
:1033a000029b2d033d4304932fe6049ba1e70025d8
:1033b0002c002b007ae70024250026e600250123b7
:1033c0002c0073e7ff030000fffffffefe07000075
:0433d000ffff0f806c
:020000040000fa
:1033d40070b582b00400d84b1b78dab2012a06d942
:1033e400032b00d171e0d44b187802b070bdd34bdd
:1033f4001b78db07f7d511f077fa20000c3011f0b9
:1034040073facf4d0122290020000df06efa2e1d13
:10341400288d310010f05afa82b2310020000df0ec
:1034240064fa290008310a2220000df05efa29000e
:103434001231022220000df058fa6e69300011f0aa
:1034440050f982b2310020000df04ffa2b8c002b82
:1034540003d1bb4b1b8b002b1ed0b94d2900183157
:10346400022220000df041fa2b8b1a021b0a1a4388
:1034740092b2e96920000df038fa290020310222c5
:1034840020000df032fa2b8c1a021b0a1a4392b256
:10349400696a20000df029fa200010f0bffd002811
:1034a400a1d0a64a137801218b4313700023a54aa7
:1034b4000021a5480df09afca44b186002229e4bf3
:1034c4001a700022a24b1a708de79c4b1b78002bbc
:1034d40000d188e71900db0700d584e70023012524
:1034e4000133dbb218000a001a411542f8d0012357
:1034f4008340dab2082a00d1c7e04dd9dab2102ae3
:1035040000d14de1202a00d06de7924b1b78002baf
:1035140000d168e700258f4b1d7008220021684602
:1035240011f0a8f8200011f0dff920000c3011f0a0
:10353400dbf96b461b780f221a4040235b421a4387
:10354400c723134006229343012293436a46137010
:1035540015710122694620000df0c7f9012201a965
:1035640020000df0c2f9200010f058fd002800d111
:1035740039e7724a137820218b431370764a137803
:1035840010210b43137001236e4a002173480df080
:103594002dfc734b186026e7042a00d023e7714bf7
:1035a40018680ef070fe200011f09ef920000c3017
:1035b40011f09af96c4d0122290020000df095f9c3
:1035c4002e1d288b310010f081f982b231002000c9
:1035d4000df08bf929000831022220000df085f945
:1035e4002b891a021b0a1a4392b2e96820000df0d3
:1035f4007cf92a7806231340022b32d05a4b9a7c4a
:10360400596920000df071f94c4b1b785b0703d40a
:10361400554b1b781b070fd5200010f0fffc00282a
:103624000ad0464a137804218b4313704e4b1a7800
:1036340006231340022b22d0414b1b8a002b00d1be
:10364400d1e61a021b0a1a4392b2013afa239b00ea
:103654005a430023002145480df0c8fb414b186034
:10366400c1e6414d29001131012220000df03df940
:1036740029001031012220000df037f9bee7364a47
:10368400137820210b431370d6e7364b18680ef0dd
:10369400fafd200011f028f920000c3011f024f973
:1036a400334d0122290020000df01ff92e1d288b17
:1036b400310010f00bf982b2310020000df015f941
:1036c40029000931012220000df00ff929000831e9
:1036d400012220000df009f929000c3102222000fa
:1036e4000df003f9ab891a021b0a1a4392b2296935
:1036f40020000df0faf829001431012220000df009
:10370400f4f8200010f08afc002833d10c4b1b8afb
:10371400002b00d167e61a021b0a1a4392b2013a3f
:10372400fa239b005a430023002110480df05efb4e
:103734000c4b186057e6c0466b220020d4210020b1
:10374400941f00203075000085470100d821002017
:103754006a2200206c220020d0210020b5470100fd
:10376400e0210020dc210020a82000209147010056
:10377400c42000203d4a137808218b4313703c4a2f
:10378400137804210b43137000223a4b1a70002360
:10379400394a002139480df029fb394b1860b5e747
:1037a400384b18680ef06ffd200011f09df82000d2
:1037b4000c3011f099f8344d0122290020000df04d
:1037c40094f82e1da88a310010f080f882b23100de
:1037d40020000df08af829000931012220000df0a3
:1037e40084f829000831012220000df07ef8290018
:1037f4000c31022220000df078f8ab891a021b0a62
:103804001a4392b2296920000df06ff8200010f0dd
:1038140005fc002814d11d4b1b8a002b00d1e2e5c6
:103824001a021b0a1a4392b2013afa239b005a4322
:103834000023002116480df0d9fa124b1860d2e586
:103844000a4a137810218b431370094a137808210c
:103854000b43137000220f4b1a700023064a0021f9
:103864000d480df0c3fa0d4b1860d4e7d4210020a5
:10387400d02100206e220020307500009d470100f9
:10388400e4210020dc210020e0200020941f0020ff
:10389400914701006f220020a9470100e821002080
:020000040000fa
:1038a4000d0a202a2a2a2053797374656d205265e3
:1038b400626f6f74202a2a2a0d0a00000d0a204420
:1038c40065766963652049440d0a00000d0a4f4b73
:1038d4000d0a04000d0a20556e6b6e6f776e2e0d67
:1038e4000a0000000d0a20434c4920566572736992
:1038f4006f6e0d0a00000000312e30000d0a2046c4
:1039040069726d776172652056657273696f6e0da9
:103914000a000000312e302e30000000082008007c
:10392400080000000d0a3e000d0a2d2d2d2d2d2d11
:103934002d20537570706f7274656420636f6d6da4
:10394400616e642067726f757073202d2d2d2d2d7f
:103954002d0000000d0a202a2a2a2000202a2a2ac3
:10396400000000000d0a2d2d2d2d2d2d2d2d2d2d7a
:10397400204275696c7420696e20636f6d6d616e91
:103984006473202d2d2d2d2d2d2d2d2d2d0000007a
:103994000d0a00000d0a556e6b6e6f776e20636f13
:1039a4006d6d616e642067726f75702e205472792c
:1039b4002068656c700d0a001b5b256443000000e1
:1039c4001b5b2564440000000d0a202a2a2a20518a
:1039d40075697474696e672074686520436f6d6dd2
:1039e400616e642050726f636573736f722e204230
:1039f4007965202a2a2a0d0a000000000d0a2053a6
:103a04006574204465627567204c6576656c0d0aa3
:103a1400000000000d0a4465627567206c657665d8
:103a24006c206d75737420626520626574776565ba
:103a34006e203020284c656173742920616e6420e7
:103a44003420284d6f737429200d0a000d0a204577
:103a540072726f722067657474696e67206b657922
:103a64002e0d0a002c000000310000002564000027
:103a74000d0a4572726f722e2057692d46692063b4
:103a84006f6d6d616e6420666f726d617420697311
:103a94002077696669203c737369643e5b2c3c70d3
:103aa4006173733e2c5b61757468547970655d5df8
:103ab4000d0a04000d0a4f4b0d0a00000a0d205494
:103ac4006f6f206d616e7920617267756d656e74bc
:103ad400732e204d6178696d756d20617267757301
:103ae40020737570706f7274656420697320256427
:103af400210d0a00202a2a2a20436f6d6d616e640d
:103b04002050726f636573736f723a20756e6b6ebb
:103b14006f776e20636f6d6d616e642e202a2a2a82
:103b24000d0a0000202a2a2a20436f6d6d616e64fd
:103b34002050726f636573736f723a20506c6561c5
:103b44007365207479706520696e206120636f6de0
:103b54006d616e642a2a2a0d0a0000003e000000ee
:103b6400081b5b4b25731b5b25644400081b5b4be4
:103b7400000000001b5b4b25731b5b2564440000a5
:103b840025731b5b25644400202a2a2a20436f6d79
:103b94006d616e642050726f636573736f7220621f
:103ba40075666665722065786365656465642e2054
:103bb40052657472792e202a2a2a0d0a0000000008
:103bc40072657365740000003a2052657365742051
:103bd400686f7374000000007265636f6e6e6563d6
:103be400740000003a204d515454205265636f6ea6
:103bf4006e65637420000000776966690000000048
:103c04003a20536574205769666920637265646558
:103c14006e7469616c73202f2f55736167653a2048
:103c240077696669203c737369643e5b2c3c706100
:103c340073733e2c5b61757468547970655d5d20a7
:103c4400000000006b6579003a2047657420454305
:103c540043205075626c6963204b65792000000035
:103c640064657669636500003a20476574204543be
:103c7400432053657269616c204e6f2e2000000052
:103c8400636c695f76657273696f6e003a2047658d
:103c94007420434c492076657273696f6e2000006e
:103ca40076657273696f6e003a20476574204669c1
:103cb400726d776172652076657273696f6e20002c
:103cc40064656275670000003a205365742044659a
:103cd400627567204c6576656c20000071000000f9
:103ce4003a207175697420636f6d6d616e64207024
:103cf400726f636573736f720000000068656c70a7
:103d0400000000003a2068656c7000001b5b4100f5
:103d14001b5b42001b5b43001b5b44001b5b317e4f
:0c3d2400000000001b5b347e0000c04665
:020000040000fa
:103d3000f0b5d5b00400002253ab1a70b14b1b781c
:103d4000002b07d1b04b1b78002b03d1af4b1b7856
:103d5000002b05d00022ae4b1a70200010f022fb81
:103d6000e38a002b0ad0aa4b1b78022b09d0032b25
:103d700000d16ce0a64b187855b0f0bda44b187874
:103d8000fae7a44b1b78002b5ad1a34b1f8aa34bf5
:103d900018680ef07afa25000c3553ae0122310076
:103da00028000ef0f3f933780f229343202b06d02e
:103db0000022974b1a70200010f0f4fadae721acd9
:103dc00010220021200010f057fc012221002800c1
:103dd0000df090fc012222a928000df08bfc01229d
:103de00023a928000df086fc012224a928000df04b
:103df00081fc237b002b00d0c8e13b023f0a1f431c
:103e0000bfb20322824b1a70002f08d121a80ef0f6
:103e1000fdf821a803f07af8814b1860aae7814adf
:103e2000137820210b431370013ffa2292007a434a
:103e3000002300217c480cf0dbff7c4b1860e5e799
:103e40000022734b1a70200010f0acfa92e70c3489
:103e500053ad0122290020000ef098f92b781b09a0
:103e60001a000d320f231340dab20a2a00d981e773
:103e70009b006f4ad3589f466e4b1b78db0600d4dd
:103e800078e7604b1b78002b00d073e76a4b18680b
:103e90000ef0fbf90822002121a810f0edfb012211
:103ea00021a920000df026fc5b4b1a8a1302120a8e
:103eb00013431bb2002b04d05a4a137820210b4322
:103ec0001370200010f012fd54e75a4b1b785b076b
:103ed00000d44fe74c4b1b78002b00d04ae7574be0
:103ee00018680ef0d2f921ad0c220021280010f044
:103ef000c3fb0122290020000df0fcfb012222a9b6
:103f000020000df0f7fb012223a920000df0f2fba9
:103f100001228d21694420000df0ecfb6a7a484ba8
:103f20001b7a00259a420ad0424a137804218b4317
:103f30001370200010f0dafc354b1d701ae721ab2e
:103f40001a7a3f4b5b7a9a42eed101228e21694464
:103f500020000df0cffb21ab9b7a802b05d0384a97
:103f6000127d9a4203d30325dee70025dce7002516
:103f7000dae7304b1b781b0700d4fbe6234b1b789a
:103f8000002b00d0f6e62f4b18680ef07ef921ad1d
:103f900008220021280010f06ffb012229002000d8
:103fa0000df0a8fb012222a920000df0a3fb2b7924
:103fb0000025022b0ad01f4a137808218b43137067
:103fc000200010f093fc124b1d70d3e601228921d2
:103fd000694420000df08efb01228a2169442000f3
:103fe0000df088fb21ab9a79174b1b7a9a42e2d1ec
:103ff00021ab5a79144b5b7a03259a42dbd000251a
:10400000d9e7c0466d2200206e2200206f220020da
:104010006b2200206a220020941f0020d82100205b
:10402000cc210020d421002091470100dc21002078
:1040300074330100d0210020e0210020e421002081
:10404000c4200020e8210020e02000201c220021c4
:1040500001a810f011fb6422002108a810f00cfb4d
:10406000c822002121a810f007fb012201a920008d
:104070000df040fb012202a920000df03bfb01ab3b
:104080005b797f2b0fd901220a21694420000df0b2
:1040900031fb01ab9b797f2b05d901220b216944b0
:1040a00020000df027fb0025012100227f2001ab1d
:1040b0009b181b7903404b43ed18c9010132002abc
:1040c000f5d001ab9b18db787f2bf0d8022203a937
:1040d00020000df00ffb01ae08a9049133891a02ec
:1040e0001b0a1a4392b220000df004fb338921a968
:1040f00071611a021b0a1a4392b2aa1a023a92b2c8
:1041000020000df0f7fa10f06dfb051e0cd001ab8e
:10411000049e1b891a021b0a1a4392b231000068de
:104120000ff03dfe002803d0200010f0dffb21e659
:104130006b68069930009847f6e70822002121a80d
:1041400010f09afa042221a920000df0d3fa0122de
:1041500022a920000df0cefa01228a216944200014
:104160000df0c8fa01228921694420000df0c2fa3d
:10417000229b1b02074a128a1b0c9a4200d0f9e5c7
:10418000054a137820218b431370f3e50022034b7b
:104190001a70efe5a8200020d02100206b2200201b
:020000040000fa
:1041a000f0b5de4657464e464546e0b5adb0bf4b8e
:1041b0001c68002c00d113e2bd4b78229446634466
:1041c0009a46bc4b48330393d0e000236375b94f44
:1041d00025001235b046039e0322396828000ff0ef
:1041e0006ffc002805d00c37b742f5d1002323829d
:1041f000b8e04646002ff9d0e760d1e06b682900af
:1042000020009847d8e00d283dd00a283bd0082848
:1042100000d117e17f2800d158e11b2800d177e1b8
:10422000e26920239846a0444346d31a4f2b00d975
:1042300077e1a369d31a00d16fe1002b05ddd01a15
:10424000013a117851708242fad1e269511ce16160
:1042500000215170a269013297496031200072300b
:104260000df094fc7123e7542b682100713130006c
:104270009847a3695a1ca2611f70a369e26993421f
:1042800070d9e3616ee020239b46a344e3695b455c
:1042900022d08a49703130002b6898470023e269a8
:1042a00013705b46e361a3614022002107a810f070
:1042b000e3f9636804935122594617a80ff008f9ef
:1042c00017a810f010fa07ab9846002302930022bb
:1042d00017ab002189460ae02b6878490431300089
:1042e00098473fe001330132904200dc30e1197819
:1042f0002029f7d00929f5d0002905d002990131ec
:10430000029141460b6009e0029b9b002caa944657
:104310006344943b00221a601ae13b005f1c597809
:10432000002900d10ce1202901d00929f5d102335f
:104330004946397004218c46e04402990f29d6d1b0
:104340005f4b58880f225f491c310bf099f82368a6
:104350001b6859490431049898472b6856493c31e9
:1043600030009847a468002c00d139e125686668c0
:104370003000eb6898470028f4d030002b6998474c
:1043800007001021635e002b00d13ce7e218907417
:1043900001331eb22682032e00d116e7022ee1dd84
:1043a000e568ab689e42ddd129682000123010f02c
:1043b00067f8002800d121e700232382d2e72300f9
:1043c000cc3300225a60cc23e250d7e02300cc3318
:1043d00042465a60cc23e25043465a601a60e5e0f8
:1043e000b246260044467b6807aa02994046984791
:1043f000b3e744464d46059e7b6807aa02994046ae
:104400009847aae71035304bab4211d06f68002fa8
:10441000f8d02c68002cf5dd00263968019810f0e2
:104420002ff80028e5d001360c37b442f5d1e9e782
:1044300044464d46059e23681b6822495431049822
:1044400098478ae7a0692300203398428ad9e36914
:1044500098421fd2421e1b1a002b06dd591e40181f
:104460005178117001329042fad1a269013aa261e9
:10447000e269013ae26100211170a2690e494031fe
:104480002700713738000df081fb2b6839003000b0
:10449000984767e72b6808494c3130009847a36973
:1044a000013ba361e369013be3615be74c21002031
:1044b00008f40000b41a0100243b00002439000075
:1044c000b4210020a43a0000801d0020e369a06907
:1044d000834200d846e7421c9b1a002b06dd0200ef
:1044e000c0185178117001329042fad1e269013a54
:1044f000e26100211170a2693d49543127007137f2
:1045000038000df043fb2b6839003000984729e74d
:104510001b23a3740123238224e700227223e25485
:10452000a0e6334f3900683130002b689847434686
:10453000e361a36139003c312b683000984711e7f3
:10454000029b9b002caa94466344943b00221a6071
:10455000029b002b00d1fae6cc23e3582200cc3298
:1045600052689046934200d129e751682200cc322c
:1045700051600b60cc23e35852685a6040460830c3
:10458000512259460ef0a4ffcc23e358002b00d152
:104590001ce742461360cc232200cc3241465068cf
:1045a000486052681160e2585160e1500022d42303
:1045b000e250079b01930f4fa046340056463968de
:1045c00001980ff05dff002800d109e70c37b742d2
:1045d000f5d1b2462600084ba94605961d0015e701
:1045e00001202db03cbc90469946a246ab46f0bd9a
:0c45f000243b000008f40000001d002027
:020000040000fa
:1045fc003a204765742073657269616c206e756d25
:10460c00626572206661696c6564202d2d2053747f
:10461c00617475733a20253032580d0a0000000081
:10462c003a2042616420696e707574207061726109
:10463c006d6574657273202d2d20537461747573c0
:10464c003a20253032580d0a000000003a205369f8
:10465c00676e204661696c6564202d2d2053746152
:10466c007475733a20253032580d0a003a2056657d
:10467c0072696679204661696c6564202d2d205322
:10468c0074617475733a20253032580d0a0000009d
:10469c003a20437265617465206b657920666169a7
:1046ac006c6564202d2d205374617475733a20252c
:1046bc003032580d0a0000003a2045434448206629
:1046cc0061696c6564202d2d205374617475733a87
:1046dc0020253032580d0a003a204e554c4c20699a
:1046ec006e70757473202d2d205374617475733a2c
:1046fc0020253032580d0a003a2047656e2070751f
:10470c00626c6963206b6579206661696c656420f5
:10471c002d2d205374617475733a20253032580d49
:10472c000a0000003a204261642061746361746c79
:10473c00735f726561645f7075626b65792829209f
:10474c00696e70757420706172616d6574657273d9
:10475c00202d2d205374617475733a2025303258f6
:10476c000d0a00003a2052656164207075626c6914
:10477c0063206b6579206661696c6564202d2d2042
:10478c005374617475733a20253032580d0a000049
:10479c003a2052616e646f6d20636f6d6d616e6453
:1047ac00206661696c6564202d2d205374617475cd
:1047bc00733a20253032580d0a0000003a20577207
:1047cc0069746520706172656e7420656e637279b0
:1047dc007074696f6e206b6579206661696c6564b5
:1047ec00202d2d205374617475733a202530325866
:1047fc000d0a00003a20536c6f74206c6f636b20b1
:10480c006661696c65642e202d2d2053746174755e
:10481c00733a20253032580d0a0000003a204765c3
:10482c007420656e636b6579204661696c656420e4
:10483c002d2d205374617475733a20253032580d28
:10484c000a0000003a2045434448204661696c65e3
:10485c0064202d2d205374617475733a20253032e9
:10486c00580d0a003a2047657420656e63727970a2
:10487c0074696f6e206b6579206661696c65642064
:10488c002d2d205374617475733a20253032580dd8
:10489c000a0000003a205265616420656e637279eb
:1048ac0070746564206661696c6564202d2d2053dd
:1048bc0074617475733a20253032580d0a0000006b
:1048cc003a20577269746520656e637279707465ed
:1048dc0064206661696c6564202d2d2053746174ad
:1048ec0075733a20253032580d0a00003a20525385
:1048fc0041206b65792062756666657220746f6ff6
:10490c0020736d616c6c202d2d2053746174757344
:10491c003a20253032580d0a000000003a2052652a
:10492c00616420525341206661696c6564202d2db1
:10493c00205374617475733a20253032580d0a0077
:10494c003a205772697465206f66207075626c69c5
:10495c0063206b657920736c6f74206661696c657c
:10496c0064202d2d205374617475733a20253032d8
:10497c00580d0a003a204c6f636b207075626c699d
:10498c0063206b657920736c6f74206661696c654c
:10499c0064202d2d205374617475733a20253032a8
:1049ac00580d0a003a2052656164206f66207075bc
:1049bc00626c6963206b657920736c6f742066611f
:1049cc00696c6564202d2d205374617475733a20c5
:1049dc00253032580d0a00003a204661696c656436
:1049ec0020746f20726561642063657274696669f6
:1049fc0063617465202d2d205374617475733a2096
:104a0c00253032580d0a00003a204661696c656405
:104a1c0020746f2063726561746520435352202d9e
:104a2c002d205374617475733a20253032580d0a59
:044a3c000000c04670
:020000040000fa
:104a4000f0b58bb001920593ca0f0c034b00060022
:104a5000240b5b0d0492039245d0c64a934265d065
:104a60008022410f12040a43e4001443c24ac500e5
:104a70009b1800270293059b019a1e035800db0f29
:104a8000360b400d059360d0ba4b984200d180e0c0
:104a90008023520f1b041343f6001e43b64a019baa
:104aa0008218db0094460022059804994140019148
:104ab0000299b80061441043079101380131069111
:104ac0000e2879d80ff0b4fc740074007b017101da
:104ad0007101bc017b017101bc0171017b016f019e
:104ae0006f016f0164012500054326d0002c13d00f
:104af00020000df053fd01000b391c2910dc1d2393
:104b000002005b1a31003500083a9440d9409540c4
:104b10000c439a4b1b1aace70df040fd2030eae73e
:104b200003003400283b9c400025f2e705002543a4
:104b300007d00500029303279de72c00029501276b
:104b400099e72c000293022795e7019b334327d076
:104b5000002e13d030000df021fd01000b391c296f
:104b600011dc1d2302005b1a0199083ad940019b10
:104b7000964093400e43814a121a93e710000df0bd
:104b80000dfd2030e9e70300019e283b9e400023f5
:104b9000f1e7019b334307d013008446032283e7e8
:104ba0001e009c4601227fe71e00844602227be70e
:104bb00034001d001700f8e0190c9bb20291190097
:104bc0002a0c514318008c46029f0299adb26843eb
:104bd00051436f4304916744010cc91903908c45fc
:104be00006d9049f380080277f02bc4660440490a9
:104bf000684680890f0c090409180991310cb6b276
:104c0000039130003100bc46039f694350437d430c
:104c10007a432d180f0c7d19a84202d9802040023a
:104c20001218280c82182d0489b205926a1808926d
:104c30001800089962468c46029f210ca4b260437a
:104c40004b43674362449446029dff18020cd219fd
:104c50004d43934202d980235b02ed183700130cb9
:104c60005b190293039b67434e435c435943a4196a
:104c70003b0c120480b21c191018a64202d98023e2
:104c80005b02c918049b220463441e00089bbfb248
:104c90009e42ad418619d2198642bf410298059bba
:104ca00084466d42d218ab189c440393059b604622
:104cb0009a429241039b5242ab429b415b427f42ec
:104cc0001a43029b3818240c1219b842bf419c4564
:104cd000a4417f4264423c4314196418c30d64022a
:104ce0001c43099b75021d43691e8d41f60d35431a
:104cf00040020543e30167d501226b0815401d43bf
:104d0000e307d4401d43069b1d4a9b18002b5edd24
:104d10006a0709d00f222a40042a05d02a1daa4278
:104d2000ad416d4264191500e20106d58022d20022
:104d30009446144b1c40069b6344134a934200dd87
:104d40008be06207ed081543e408002124030a0df7
:104d50001205240b14430d4a5b0514405b082343e2
:104d6000019a5b00d2075b081343280019000bb0bf
:104d7000f0bdc046ff07000001fcffff0dfcffff78
:104d8000ff030000fffffffefe070000ffff0f8094
:104d900080221203144257d0164255d134001d0010
:104da000059b039350e0049b0193022f55d0032fe2
:104db00051d0012fa7d100252c002b00c5e71d00e5
:104dc000059b34000193f5e6079b06939be70122c0
:104dd000d21a382aefdc1f2a20dc202321009b1a5c
:104de00028009d409940d0406b1e9d41d440014316
:104df0000d436b0709d00f232b40042b05d02b1d2f
:104e0000ab42ad416d4264191d0080231b04234059
:104e100000d196e700240123250096e71f2149428f
:104e2000cb1a2100d9400023202a03d040239a1a0c
:104e3000230093401d436b1e9d4100240d43d8e782
:104e4000802400252403039580231b031c43039b1c
:104e50000193034b79e7019ba3e700252c00f8e7ba
:044e6000ff07000048
:020000040000fa
:104e6400f0b5de4657464e464546e0b599b00d00ce
:104e74001700412835d0542833d0422850d0432835
:104e840067d0442800d1ace04b2800d1a9e04a28df
:104e940000d1cce0462800d1dfe0482800d109e168
:104ea40006264d2800d1d9e0452800d189e14728bc
:104eb40000d1aae107244c2800d183e1522828d14b
:104ec4000123142207a9380007f006ff002820d187
:104ed400089b002b1dd007a90a7c099907989847bd
:104ee40017e00023042207a9380007f0f5fe002884
:104ef4000fd107ab5a7803ab1a70c54b1b68002b54
:104f040007d0c34b1b6807aa0020105603aa01212f
:104f1400984719b03cbc90469946a246ab46f0bdb2
:104f24000023042207a9380007f0d6fe0028f0d198
:104f340007ab5a7803ab1a70b54b1b68002be8d04b
:104f4400b34b1b6807aa0020105603aa02219847f6
:104f5400dfe700230c2203a9380007f0bdfe002878
:104f6400d7d103ab09229a56002a24db1800082162
:104f74005956a84b09015918c97ac9b214011b1909
:104f8400d972012199724189083989b21981a249da
:104f94000b8801339bb20b800b889bb2002b03d18f
:104fa4000b8801339bb20b809b4b198889b210018b
:104fb400984b1b18d98007ab1a7002229a8003aa57
:104fc4005188d980049a0992914b1b68002ba0d078
:104fd4008f4b1b6803aa0820105607aa0421984780
:104fe40097e70023042207a9380007f075fe00287c
:104ff40000d08ee707ab0020185603aa10705b7828
:105004005bb25370002b07d107ab5b88083b9bb2a4
:105014000101804a521813817d4b1b68002b00d17b
:1050240077e77b4b1b6803aa0521984771e70023a8
:10503400442207a9380007f04ffe002800d068e793
:10504400764b1b68002b00d163e7744b1b68179adf
:105054000092110007a898475be706260023102258
:1050640003a9380007f038fe002800d051e703ab4d
:105074000c241c57da8994460094200165490918c8
:10508400002008730822985e81465889804607a844
:105094005a884281049b0a93cb889bb29c450bd0cf
:1050a400102d00d835e7012300220021002007f04d
:1050b40013fe2ee70926d1e74b46002b01dda94557
:1050c40010db07ab4a469a8000230793504b1b68ba
:1050d400002b00d11de74e4b1b6807aa31002000ae
:1050e400984716e74b466a46d380d588002d00d1f1
:1050f4000fe7230147495b58002b00d109e7210141
:10510400444b5b189b889bb2002b00d101e7414bb9
:105114005b189b7a012b00d0fbe64744c580884688
:105124003c4b43449b465b4600930a229246da4436
:10513400a146b0460e003c000ee02f00012315e00e
:10514400374b1b68002b00d1e3e62900354898470c
:10515400dfe6002d00d1dce65b469b88eb1a1bb230
:10516400002beadd009b9f88bfb20023294ab15877
:105174003a00200007f0b0fd0028e1d1254bf25899
:1051840007ab07929f80da88d21bda80204b1b681a
:10519400002b05d01e4b1b6807aa4146484698477a
:1051a400ed1badb2e41953461b78002bd1d1002d71
:1051b40000d1aee6012300221100100007f08cfd9f
:1051c400a7e607240023082207a9380007f084fd76
:1051d400002800d09de607ab002018569a8859880d
:1051e40003ab198001010b4b5b18db889bb29a421d
:1051f40000d08ee6064b1b68002b00d189e6044bd9
:105204001b6803aa2100984783e60824dae7c0460e
:10521400dc0000202c00002042210020e0000020bf
:08522400e400002080de000020
:020000040000fa
:10522c00f0b5f3b00c000438c3b22e2b00d9b3e0a8
:10523c009800bd4b1b589f46bc4bdb79002b00d113
:10524c00aae00022b94bda710123cb56002b16d100
:10525c000a78b64b5a720b78002b0bd18023b34ac9
:10526c00d458002c00d197e0002300220021af4835
:10527c00a04791e0ad4b187a0ef06dfd8ce000224a
:10528c00aa4b5a7288e0a94d28000b300431062233
:10529c000ff039f92800113026000a36202231008f
:1052ac000ff031f930000ff018fa3123e8540122d5
:1052bc00a2563223ea54a2783323ea54e2783423f8
:1052cc00ea540123ab728023ec58002c64d097482d
:1052dc0003000b33427a017a0131c9b2a04700288e
:1052ec0004d100218023914ad15055e08f4b1c7a78
:1052fc000134e4b21c720ff0f7f9844204d300219c
:10530c0080238a4ad15047e0884c207a0ef023fd46
:10531c000023a37240e00b78012b10d0002b04d19a
:10532c00824b00229a714c215a5484237f4ad358c1
:10533c00002b31d0627821787c4898472ce07b4b4d
:10534c0001229a719a229b5c002beed19c23774a06
:10535c00d358002be9d001219923d154e5e78423bc
:10536c00724ad558002d17d00b785ab2163215d078
:10537c005ab2163209dd59b20122153109d05bb28d
:10538c000622143305d0072203e05bb20522173343
:10539c00f9d100216548a84773b0f0bd0322f8e7a6
:1053ac00624b1b79002b03d1012199235f4ad15405
:1053bc00e1780906a3781b04194323781943637811
:1053cc001b021943594b9c229950b0229b58002b1d
:1053dc00e2d056489847dfe708000cf083fc88239e
:1053ec00524ad358002bd7d0010010009847d3e76e
:1053fc00b8234e4ad558002dced008000ff06df9c9
:10540c000600c3b2202203a98b54202bc4d8002140
:10541c0003a80ff02bf9ff223240210003a80ff054
:10542c0072f86223e35c0eaa1370022b0dd0632377
:10543c00e35c5a425341dbb23c4c0eaa03a9200058
:10544c00a8470022b823e250a6e7260021363000f8
:10545c000ff043f907000eab1871402200213d23d9
:10546c006b4418000ff002f9ff223a4031003d2343
:10547c006b4418000ff047f8d9e708000ff02df92e
:10548c000600c3b26d2229498b54202b00d983e727
:10549c000d000f004d372022002138000ff0e6f8e8
:1054ac00ff223240210038000ff02df82123e65c5a
:1054bc007c23ee542523e35c1b062422a25c1204fd
:1054cc0013432222a25c13432322a25c1202134335
:1054dc002b67280074300622210026310ff013f8b8
:1054ec0001224c23ea548c23ed58002d00d153e7b4
:1054fc000e480200703201004d312c23e35600930c
:10550c003300a84748e700216156084b44229954c0
:10551c0090229b58002b00d13ee7044c200098476a
:10552c0000229023e25037e75cce0000341a0020b2
:10553c0094231a4ad358002b00d12de703a80df061
:10554c0078fea51c28000ff0c8f8c2b2290003a8e9
:10555c000bf0e4ff617803a80df024fb2378012bfa
:10556c0008d0022b10d00d489423c35800220021e0
:10557c00984711e70ea80ff029f808489423c35850
:10558c000eaa03a9984707e7233420000ff0a5f8cb
:10559c00c2b221000ea80cf029ffeee7341a00204d
:020000040000fa
:1055ac00536c6f77696e6720646f776e2e2e2e0aa0
:1055bc000000000028484946294661696c65642052
:1055cc00746f2077616b65757020746865206368f3
:1055dc0069700d0a00000000484946206d65737320
:1055ec00616765206c656e677468202825642920c6
:1055fc0065786365656473206d6178206c656e6792
:10560c00746820282564290d0a0000002868696642
:10561c0029204641494c20746f2077616b65757069
:10562c002074686520636869700d0a0028686966d3
:10563c002920574946495f484f53545f5243565fa0
:10564c004354524c5f3120627573206661696c0d56
:10565c000a00000028686966292061646472657319
:10566c007320627573206661696c0d0a000000007e
:10567c00286869662920436f72727570746564209e
:10568c007061636b65742053697a65203d202575c4
:10569c00203c4c203d2025752c2047203d20257595
:1056ac002c204f50203d20253032583e0d0a000052
:1056bc00574946492063616c6c6261636b20697366
:1056cc00206e6f7420726567697374657265640d02
:1056dc000a000000536f636b65742063616c6c622d
:1056ec0061636b206973206e6f74207265676973d8
:1056fc0074657265640d0a004f74612063616c6c93
:10570c006261636b206973206e6f742072656769c8
:10571c007374657265640d0a000000004372797041
:10572c00746f2063616c6c6261636b206973206eb3
:10573c006f7420726567697374657265640d0a0015
:10574c005369676d612063616c6c6261636b206986
:10575c0073206e6f7420726567697374657265640b
:10576c000d0a000053534c2063616c6c6261636bd7
:10577c00206973206e6f742072656769737465722b
:10578c0065640d0a00000000286869662920696eae
:10579c0076616c69642067726f75702049440d0adc
:1057ac0000000000286869662920686f7374206106
:1057bc007070206469646e2774207365742052586d
:1057cc0020446f6e65203c25753e3c25583e0d0ae5
:1057dc000000000028686966292057726f6e6720e8
:1057ec0073697a650d0a000028686966292046618c
:1057fc006c736520696e7465727275707420256c9b
:10580c00780d0a002868696629204661696c656410
:10581c0020746f207265616420696e746572727594
:10582c007074207265670d0a0000000028686966b4
:10583c0029204661696c20746f2068616e646c6508
:10584c0020696e7465727275707420256420747290
:10585c007920616761696e2e2e0d0a0020686966d9
:10586c005f726563656976653a20496e76616c692d
:10587c006420617267756d656e740d0a000000001e
:10588c00415050205265717565737465642053697d
:10589c007a65206973206c61726765722074686127
:1058ac006e20746865207265636569766564206234
:1058bc0075666665722073697a65203c25753e3c79
:1058cc00256c753e0d0a00004150502052657175d3
:1058dc0065737465642041646472657373206265da
:1058ec00796f6e642074686520726563656976658e
:1058fc006420627566666572206164647265737398
:10590c0020616e64206c656e6774680d0a0000007f
:0c591c00475270203f2025640d0a000057
:020000040000fa
:10592800f0b5c64600b59eb014002c2833d01b280d
:1059380044d0062852d00e283cd032285ed03d28cc
:105948006cd02f2800d179e0342800d18be01128c1
:1059580000d1a8e0132800d1bee0042800d1cde092
:10596800652800d1dce0092800d1ebe02a2800d125
:10597800fae0272800d109e1202800d118e11d28e4
:1059880000d132e1bb4b1b68002b13d00100ba4891
:10599800203098470ee00023042203a9200007f0d6
:1059a80099f9002806d1b54b1b68002b02d003a932
:1059b8002c2098471eb004bc9046f0bd0023082256
:1059c80003a9200007f086f90028f3d1ab4b1b6828
:1059d800002befd003a91b209847ebe701233022c7
:1059e80003a9200007f076f90028e3d1a34b1b6830
:1059f800002bdfd003a906209847dbe700231822f5
:105a080003a9200007f066f90028d3d19b4b1b6837
:105a1800002bcfd003a932209847cbe701230022df
:105a28000021200007f056f90028c3d1934b1b68ca
:105a3800002bbfd000213d209847bbe764220021fe
:105a480003a80ef015fe0023642203a9200007f026
