:10000000A8430020B5450000B1450000B1450000FF
:1000100000000000000000000000000000000000E0
:10002000000000000000000000000000B1450000DA
:100030000000000000000000B1450000B1450000D4
:10004000B1450000B1450000B1450000B1450000D8
:10005000E93A0000B1450000B1450000B14500009B
:10006000B1450000B1450000B1450000B1450000B8
:10007000B1450000B1450000B1450000B1450000A8
:10008000B1450000B1450000B1450000B145000098
:10009000B14500000000000000000000B145000074
:1000A000B1450000B1450000B1450000B145000078
:1000B0000000000010B5064C2378002B07D1054B3B
:1000C000002B02D0044800E000BF0123237010BDC4
:1000D000E009002000000000840F0100084B10B56B
:1000E000002B03D00749084800E000BF0748036819
:1000F000002B00D110BD064B002BFBD09847F9E731
:1001000000000000E4090020840F0100840F0100BA
:1001100000000000F0B51E000023A9B00400029109
:100120001500049302209C4236D09A4234D09E425D
:1001300032D02033009304AA103B0CA920002F4F8B
:10014000B847002828D1029B210000932A003300E1
:1001500005A82B4CA04700281ED1202306000CAD7B
:100160000393049B9E4203D305A8264B984713E0B4
:100170002B78022B12D1AB78002B0FD06878224954
:10018000224B9847002807D129001F4A05A8204B79
:100190009847073500282ED029B0F0BD07227243BA
:1001A0000CAB9A181479D37824021C4393795179B3
:1001B0001B020B431B195B1102936409029BE4B2FF
:1001C000A342E1D907227243039B0CAF69782878D8
:1001D000BA180193D7781279630112023A439B1A35
:1001E000094A0C4FD318009322000023B847002877
:1001F000D2D10134E2E70136B3E7C0463510000042
:10020000C51A000031190000FC090020B1230000CC
:10021000611C0000C5240000F0B5B9B0604C099124
:1002200005000021160018A84022A0474022002106
:1002300028A8A0472022002110A8A047594B099ABE
:100240001A60002D03D0002A01D0002E07D1022110
:100250005548564B98470224200039B0F0BD2C0079
:100260002F004B344A3722783B7812021A43336806
:10027000934205D203214E484C4B98470324EBE7A9
:100280002B004633197801331B7809981B020B4366
:1002900029004831097809040B43290049310978BC
:1002A00009061943434B9847336809980B93237801
:1002B0003A781B02134333603F4910303F4B984755
:1002C000071E1FD00DAC20003D4B98473D49637879
:1002D00040310A91217A22780691E1790A980591B4
:1002E000A17904916179039121790291E1780191D9
:1002F000A178354C00913549A04714220A9938005D
:100300002C4B98472B00EA7813330A929B7818AF4E
:10031000287D3900002B08D02D4B9847041E0BD0A8
:1003200001002C48214B984796E72B4B9847041E19
:1003300002D001002948F5E740232900019321312B
:10034000274C00973368099A2800A047C4B2C1B26D
:100350002448002CE6D10999234C10AB32682800C0
:10036000A047C4B2C1B22148002CDBD16B4628AFF4
:10037000188D3A0010A91E4B9847041E02D00100A8
:100380001C48CFE71C4C00970B9B320009992800B2
:10039000A047C4B2002C00D15EE7C1B21748C1E744
:1003A000DD90000030100020E0FB00009191000083
:1003B00009FC0000B98F000037FC00006D980000B8
:1003C00055250000FC0C00208D9300004CFC000023
:1003D000B123000073FC000099250000A5FC00007B
:1003E00005120000D3FC0000C111000005FD000053
:1003F0006D2700002FFD00009D12000056FD00003B
:10040000F8B50500130030245718981A814208DC0B
:10041000CC430A26E4170C401419002D04D13800EF
:10042000F8BD1C700133F0E72800064B31009847F7
:10043000013C3031217028003100034B9847050002
:10044000EBE7C046A56F0000996E0000F7B50024E9
:100450009446012622004D1E43190193A14207DC58
:100460004118884201D0002A20DA63461A60FEBD96
:10047000019B1F783B00303BDDB2092DF5D8092CDC
:1004800003DD302FF1D10134E8E7092C01D1342FFD
:10049000EBD873439B18934206D30A225643019A22
:1004A000013A01921A00EEE71A00DEE70800DCE7E5
:1004B000354BF7B54B61002301220C0006000B61A0
:1004C0008B604B600B60314F314BCA6065699E4257
:1004D0002FD2C82128004900B84728000191642183
:1004E000B84703222B4F2C482A40BE4236D22B4B12
:1004F0002B4FED1865612B493000B84701302A4D6C
:10050000E06028493000A8470E00E12130000901D1
:10051000B847E121A06009013000A8470E003C2146
:100520003000B8473C2160603000A84720002160BF
:10053000FEBDC8210135656149002800F61AB8479B
:10054000002907D003231D4206D164212800B847A3
:10055000002901D0154BB9E70D4BB7E72369F61B0E
:1005600001332361012B08D1019F002F03D0002A02
:1005700006D1002904D00E4FB7E700270B2BEDDC86
:100580009B001F58B1E7C046B20700007971000018
:100590008033E10180DE280088FD000094F8FFFF31
:1005A000996E000080510100A56F00000085E201F6
:1005B000803B2600F0B5424A476987B0BD183A0033
:1005C000463A030005910520882A50D81C690B2C57
:1005D0004DD8DA680192013A1E2A48D89A680292E8
:1005E000172A44D85A6803923B2A40D81B680493C0
:1005F0003B2B3CD8334B9D4210D1012C37DC0DD125
:10060000019B072B33DC09D1029B062B2FDC05D184
:100610001C2A2CDC02D1049B0E2B28DC00262A4B42
:10062000FF182A4B9F4224D1C8212800284B49009B
:1006300098472800264B0F00642198470323254A3A
:10064000013C1D40631C2AD1E123029A1B01534344
:100650003C22002003994A439B18049A1E499B1888
:10066000019A013A4A439B18059A9B19136007B0F7
:10067000F0BDC82138004900154B9847002908D023
:1006800003231F4209D164213800114B98470029E8
:1006900003D0124BF618013FC3E7114BFAE7013CB8
:1006A000002C05D1002F08D0002D01D1002904D144
:1006B000A300D3185B68F618C4E70A4BFBE7C046F3
:1006C0006C0700003A0800006B070000B10700004B
:1006D0007971000088FD0000805101000085E20171
:1006E0008033E101803B260000B50223002920D0A1
:1006F00004281ED8013803281DD806F0C3FB020DBC
:100700000D1C95234B610B230B611433CB60083B0D
:100710008B6024334B600AE0CE234B61CD3B0B61F1
:100720000633CB60013B8B6016334B600D3B0B6097
:100730000023180000BD014BE4E7C046A31F0000E2
:1007400070B50A0004000220002C08D0002906D051
:1007500063691D4958181D4B984201D9052070BD89
:1007600004211B4DA8472D26067023690B2BF5D8B5
:10077000421C0221581CA84706700200E068431E74
:100780001E2BEBD801320221A8475423037002002C
:10079000A0681728E2D801320221A8470D3606705A
:1007A000020060683B28D9D801320221A8470670B0
:1007B000020020683B28D1D801320221A8475A23E1
:1007C00003700020CBE7C0466C0700000F27000035
:1007D00001040000F8B507000C00022500280FD026
:1007E00000290DD0182200212000274B9847220015
:1007F000042114323800254EB047874202D1042527
:100800002800F8BD6369224A9B18636103782D2B89
:10081000F5D12200471C103229003800B04787422A
:10082000EDD02369013B236103782D2BE7D1220012
:10083000471C0C3229003800B0478742DFD00378CC
:10084000542BDCD12200471C083229003800B04765
:100850008742D4D00378451C3A2BD0D1221D0221E7
:100860002800B0478542CAD00378451C3A2BC6D130
:10087000220002212800B0478542C0D003785A2BBD
:10088000BDD10025BCE7C046DD9000004D0400004E
:1008900094F8FFFF70B50A0004000220002C0AD073
:1008A000002908D060690300323B312B04D9643839
:1008B000312801D9052070BD0221134DA84702003F
:1008C00020690B28F6D802210130A8470200E06811
:1008D000411E1E29EED80221A8470200A068172851
:1008E000E8D80221A847020060683B28E2D802212C
:1008F000A847020020683B28DCD80221A8475A23D9
:1009000003700020D7E7C04601040000F8B50700D7
:100910000C000225002810D000290ED0182200213A
:10092000224B200098472200290014323800204D25
:10093000A8470600874202D104252800F8BD636954
:10094000312B30DCFA22D2009B1863616369194AAB
:1009500002219B182200636110323000A847070073
:100960008642E9D0220023690C32013B2361022137
:10097000A84706008742DFD0220002210832A8479C
:1009800007008642D8D0221D0221A84706008742D0
:10099000D2D022000221A8478642CDD003785A2B1C
:1009A000CAD10025C9E7044ACEE7C046DD90000061
:1009B0004D04000094F8FFFF6C07000070B50A00BA
:1009C00004000220002C08D0002906D063691749D2
:1009D0005818174B984201D9052070BD0421154DB8
:1009E000A847020020690B28F6D802210130A84749
:1009F0000200E068411E1E29EED80221A84702002D
:100A0000A0681728E8D80221A847020060683B28A0
:100A1000E2D80221A847020020683B28DCD8022146
:100A2000A8475A2303700020D7E7C0466C07000090
:100A30000F27000001040000F7B507000C00022595
:100A4000002810D000290ED0182200211F4B2000B2
:100A5000984722000421143238001D4EB0470190FF
:100A6000874202D104252800FEBD6369194A290086
:100A70009B182200636110320198B047019B070068
:100A80008342EFD0220023690C32013B236129000D
:100A9000B04701908742E5D0220029000832B047D4
:100AA000019B07008342DDD0221D2900B047019041
:100AB0008742D7D022002900B047019B8342D1D082
:100AC00003785A2BCED10025CDE7C046DD9000003B
:100AD0004D04000094F8FFFF002313B50C000193B0
:100AE000023300280ED000290CD0074B01A99847EB
:100AF000031E07D1019A110E2170110C6170110AA9
:100B0000A170E270180016BDB5050000020010B516
:100B10000220002A0ED000290CD0137850781B0632
:100B200000040343D0780343907800021843024B3B
:100B30009847002010BDC046B1040000002313B543
:100B400002220C00019398420ED099420CD001A9C8
:100B5000064B9847021E07D1019B190A237061704A
:100B6000190C1B0EA170E370100016BDB505000036
:100B7000F8B505000C0002201100002C0ED0002B4F
:100B80000CD0042D0AD8144AA800002907D0161842
:100B9000366B1F68B74202D203201E60F8BD1218E0
:100BA000126B081E1A60F9D0681E032803D806F0DD
:100BB00069F906090C0F2000084B9847EEE7200062
:100BC000074BFAE72000074BF7E72000064BF4E756
:100BD0002000064BF1E7C04688FD000041070000F9
:100BE00095080000D90A00003D0B0000BD09000077
:100BF000020010B50220002A0ED000290CD0507837
:100C000013780002184393781B040343D07800063E
:100C10001843024B9847002010BDC046B1040000A5
:100C200070B505000C0002201900002C14D0002B18
:100C300012D0042D10D80F4BA8001B181B6B0420DA
:100C4000934209D8681E032803D806F01BF9060949
:100C50000C0F2000084B984770BD2000074BFAE7A7
:100C60002000074BF7E72000064BF4E72000064B77
:100C7000F1E7C04688FD0000D50700000D0900001F
:100C80000D0B0000F10B0000390A0000F8B504005C
:100C90000F0015000220002C43D0002A41D06369C8
:100CA0000330643B1F2B3CD823690B2B39D8E368F6
:100CB000013B1E2B35D8A368172B32D81F2930D8FB
:100CC000032600213200174B28009847636907214B
:100CD000643BB3402A7800200A4013435BB22B7078
:100CE00022698B43013252100A4013432B7023694F
:100CF0006A7801338B4078310A4013435BB26B70E2
:100D0000E268033992000A408B4313436B70A26878
:100D1000B3433241324013436B70A3685B011F43FE
:100D2000AF70F8BDDD900000F7B50400019116002A
:100D30001D000220002C33D0002A31D0002B2FD0F0
:100D400004292DD8194F182200213000B847182245
:100D500000212800B8470E221F272178C9086431D6
:100D6000716123785B0013406278D2091343013B21
:100D70003361627892103A40F260944618226078AB
:100D8000C0001040A27852090243B260A078074028
:100D900007D02B61634600207F186F61EB60AA606B
:100DA000FEBD29000198024B9847F9E7DD9000004D
:100DB000E9060000F7B50192857943792D028C7917
:100DC0001D4307784B7924021C430023072F28D0AA
:100DD0002B1E26D00A780023072A22D0231E20D0DB
:100DE000002397421DD10279C37812020E791A436B
:100DF000CB7836021E43022F09D143784F789C46A8
:100E00000023BC450DD180788978884209D1002320
:100E1000B24206D3AD18A419A54202D8931B019A79
:100E2000D3181800FEBD03094A1C092B08D830331B
:100E30000B700F231840092804D830301070704709
:100E40003733F5E73730F9E700230B7003781A00E2
:100E5000303AD2B2092A0CD812010A7043781A002B
:100E6000303AD2B2092A14D80B78D2180A7000206E
:100E70000CE01A00413A052A03D8373B1B010B70DE
:100E8000ECE71A00613A052A01D904207047573B64
:100E9000F4E71A00413A052A04D8373B0A78D318F8
:100EA0000B70E4E71A00613A052AEED8573BF5E7E4
:100EB00030B503000478002084421ED11C79072C31
:100EC0001BD11C00353425780134247824022C43AE
:100ED000A24212D91A004632085D11780132127806
:100EE000120211431A004832127849331B78120457
:100EF0000A431B0613431B5DC01A30BDF0B587B013
:100F000002901E00029B039105920C9F0220002B71
:100F100000D17EE000297CD0002E7AD0002F78D03E
:100F200033780193072B73D0B57973792D021D4364
:100F30006ED03379F2781B02134300933900180006
:100F4000394CA0477843009B04905D193900280074
:100F5000364B9847002926D039002800A047013099
:100F6000784300250400039B029A1F68BD421ED1EE
:100F7000059B0320AB424CD9072217006F43029B0D
:100F80003100DF1938002A4B98476B46188A013523
:100F9000030A241A3B71A4B2039B7C71240AF870E3
:100FA000BC711D6034E039002800A047D8E71378F1
:100FB00001998B4235D1022907D171785378994232
:100FC0002FD1B178937899422BD11079D378000240
:100FD0001843844225D39179537909021943049B1C
:100FE00041188B421DD8009B834205D26B461B786B
:100FF000D370009B1B0A13711379D0781B02551D07
:1010000003438C4207D9E41AA4B25471240A6C70C9
:10101000002007B0F0BDCB1A9BB253711B0A6B7056
:10102000F6E701350732A1E7996E0000A56F0000D1
:10103000B98F0000F0B589B004000F00039204934B
:101040000225002800D189E0002900D186E0002A8D
:1010500000D183E00E9B434D00930300049A1A33A2
:1010600003993800A847051E78D10E9A3D4D00928D
:10107000631D049A03993800A847051E6ED10E9B84
:10108000384D00932300049A133303993800A8477E
:10109000051E63D1230045331B78002B1FD1227915
:1010A0000F2A5BD8A9231B02D34001229A4355D1B2
:1010B0000B2104A809180A704A700D2109180D2087
:1010C00006AB4A701A705A709A700E9A0870254CC6
:1010D00000920399049A3800A04705003EE02200E0
:1010E00023004232413312781B7812021A43230044
:1010F00043331B781B041A43230044331B781B061D
:1011000013432AD00590230045331B78059A9A4251
:10111000C5D2220023004232127841331B781202DA
:101120001A43230043331B7805991B041A432300F9
:1011300044331B7838001B0613431B224A439B1879
:101140000E9A103300920399049A064EB047002875
:10115000C3D1059B01330593D5E70A25280009B0C3
:10116000F0BDC046FD0E0000F7B51F000C00019257
:101170000223002820D000291ED0002F1CD0089A5E
:10118000002A19D0C37B827B1B0213430093437C4C
:10119000067C1B021E43009B9D192A00074B9847A3
:1011A000019A2D180A23AA4206D3009B3018E4188E
:1011B000089B3C60186000231800FEBDB10E0000C3
:1011C00030B51C00002385B0050002930393022074
:1011D0009D4210D099420ED09C420CD003AB00939C
:1011E000280002AB054DA847002804D1220003992E
:1011F0000298034B984705B030BDC0466911000006
:10120000112D0000F7B515001E00022200283ED067
:1012100000293CD0002D3AD0CB788A781B021343AA
:101220000022934233D0089C0232002C2FD0027847
:10123000002A13D10279072A10D10A784C789446F3
:10124000020035321778013212782402120201921C
:1012500062461443019A3A43944203D0099C072200
:10126000A34214D14C780B7824021C432200094B72
:1012700029009847099B09221B191B189E4206D377
:101280002018099A28180899034B98470022100043
:10129000FEBDC046B10E0000B98F0000F0B589B0A8
:1012A00006000D00140003930220002E20D0002918
:1012B0001ED0002A1CD00E9B002B19D0B31DDF7F3F
:1012C000F31DD87F224B000207433A0030009847B5
:1012D0003378381881B2002B0CD0402331000193B1
:1012E0000E9B2531009323682A003000194CA0473B
:1012F00009B0F0BD26680920B142F9D2039B761AE5
:101300005B1A0593691805AA0E98134B9847002895
:1013100007D00328ECD1059B9E1B23689E192660ED
:10132000E6E7059B681C9A1B236806A9D31823606F
:10133000013B0693094D07ABA8470028D8D1079A6F
:10134000069B9B18226801339342D1D00A30CFE725
:10135000B10E000005120000912100004D20000098
:10136000F0B50D00190014238BB004000392049310
:101370000220002C1FD0002D1DD000291BD02300DF
:1013800000202B331A7801331B781B02134383424E
:1013900011D005AE207B04AB3200084FB8470028BF
:1013A00009D12100049B2000019329310096039B61
:1013B0002A00034CA0470BB0F0BDC046710B0000E3
:1013C00005120000F0B50D00190014238BB00400C5
:1013D000039204930220002C1FD0002D1DD0002961
:1013E0001BD0230000202F331A7801331B781B02F7
:1013F0001343834211D005AE607B04AB3200084F2B
:10140000B847002809D12100049B200001932D3109
:101410000096039B2A00034CA0470BB0F0BDC046CA
:10142000710B000005120000F0B587B004000E003B
:1014300003921D000220002C17D0002915D0002B8C
:1014400013D0187805A90A4FB8470E2102ABC91866
:101450006878B84704232100019305AB009320006E
:101460003131039B3200034CA04707B0F0BDC046AA
:10147000270E000005120000F0B593B004000D0027
:1014800016000393189F0220002C52D0002950D040
:10149000002A4ED0002F4CD03B000F2246331B7841
:1014A00000180293134244D139000C3A4031224BC8
:1014B00005A898473900022243311F4B04A89847DA
:1014C0003B0045331B7861781A090B20914230D1DB
:1014D0000F21A2780B409A422BD1029B22791B0943
:1014E0009A4226D10097039B320029002000134F17
:1014F000B84700281DD1617B0CAB06AA05A8104F88
:10150000B847002815D106AB3268290020000D4FDE
:10151000B84700280DD10CAB3268290020000A4FD3
:10152000B847002805D1200004AB32682900074CD9
:10153000A04713B0F0BDC046B98F00009D12000057
:10154000290D000061130000C513000029140000DC
:10155000F0B589B004000F0016000393002802D1F3
:10156000022009B0F0BD0029FAD0002AF8D00E9B65
:10157000002BF5D00078002866D12379072B63D1A2
:101580002E339C46A44463461A785B781B021343AF
:10159000CD5C2100220047310978463212780902D9
:1015A0000A432100483109780904114322004932D5
:1015B000127812060A43D25CAA1A029237D0029914
:1015C0003268059055180399069007900330A94298
:1015D000C7D360466146C078897800020843C018C6
:1015E000029B121A191879181D4B3818984733683E
:1015F000029A781CD3183360013B059305A906AB0A
:10160000184DA8470028ACD1059A069B3168D3181D
:1016100001330A308B42A4D1901C1B1A079338184F
:101620000023029A07A90F4DA847002899D122004C
:101630003532537811781B020B43FB5C0F9A013350
:101640009A4200D28CE70F9321000F9B3531019312
:101650000E9B3A00009320003368034CA04780E7BC
:101660003D9000004D20000005120000F8B5079ED7
:101670001F0015000223002824D0002922D0002AB0
:1016800020D0069A002A1DD0CA788B7812021A43FD
:101690000823002A16D0013B964213D14C780B78D0
:1016A00024021C432200084B2900984732191218C3
:1016B0000923974206D30119044B69183200069892
:1016C000984700231800F8BDB10E0000B98F000044
:1016D00037B504000220002C0ED000290CD0002BBE
:1016E0000AD02000402521300093019513000A0004
:1016F00001002000014CA0473EBDC0466D16000011
:10170000F0B58BB0040003930220002C1ED00029FA
:101710001CD0002B1AD0237B0138052B16D80C4D7A
:101720009B005D59142D11D813000A00210005AF4C
:101730000195009729312000064EB047002805D1B9
:10174000207B039B2A003900034CA0470BB0F0BD5F
:10175000B8FD00006D160000210C00007FB50500EB
:101760001C000220002D1BD0002919D0002B17D0FF
:1017700028000423313003AE0193009613000A00C1
:1017800001002800074DA847002809D1210030009A
:10179000054DA847002803D10E30611C6844A847B6
:1017A00004B070BD6D160000490E0000F0B50400D5
:1017B0000D00A5B0160019000220002C34D0002D19
:1017C00032D00020227982422ED0072A2CD023004A
:1017D00037331F7801331B781B023B43834223D0EE
:1017E000083A0230072A1FD8100005F04BFB041FEF
:1017F0002E602E602E600220002915D040220BABF7
:101800001A70233002ABC018373A424B98470A236C
:1018100003932100039B200001930BAB0093353110
:1018200033002A003C4CA04725B0F0BD40220BAB52
:101830001A70252302AA9B18290032002000374F76
:10184000B8470028F0D10323E2E70720202BEBD88C
:101850000393320013AB29002000314FB847002812
:10186000E2D105AB3200290020002E4FB8470028F6
:10187000DAD1A17C23AA05A82B4B98470028D3D105
:101880000BAF3A00432113A8284B98470028CBD12F
:101890002279FD2311000A391942BAD17F213B7800
:1018A0000B403B700A2AB4D1402213432FE00220A0
:1018B0000029B9D00530202BB6D803930922154B47
:1018C00013A8984705AB320029002000154FB847F0
:1018D0000028A9D14D2202ABD218A17C05A8124B39
:1018E00098470028A0D10BAF3A000C2113A80F4B4A
:1018F0009847002898D12279FD2311000B3919420D
:1019000000D086E77F213B780B400B2ACCD03B7080
:101910007FE7C046B98F0000051200005D17000088
:10192000D1160000011700008D0C0000112D0000E1
:10193000020070B50220002A26D00023117C9942B3
:1019400001D013001133517A147A09022143947A99
:10195000507924042143D47A000224060C431179DF
:101960005578084391792D0209040843D179090675
:10197000014310780543907800040543D07822682D
:1019800000062843014CA04770BDC046AD170000BB
:1019900073B5069E05000220002D12D0002910D03C
:1019A000002B0ED0002E0CD02C00280038342478C8
:1019B000373000782402044330683460A04201D2FA
:1019C000032076BD2800353001940093034C1300AA
:1019D0000A0001002800A047F3E7C0466D1600008A
:1019E00030B5030093B00D000220002B0FD000296A
:1019F0000DD0190004226B4601AC2270581D3C32F8
:101A0000044B98472A0041212000034B984713B00C
:101A100030BDC046B98F0000DD2C0000F0B58BB0A2
:101A200004000D0003921E000220002C20D000298B
:101A30001ED0002B1CD04023019313000A0021006C
:101A40000096213120000B4FB847002810D105AF78
:101A500039003000084B9847002809D12100142391
:101A6000200001933D310097039B2A00014CA047C1
:101A70000BB0F0BD05120000E1190000F0B5040044
:101A800089B00D0017000220002C14D0002912D0BC
:101A9000002B10D003AE18003100084B98470028E7
:101AA00009D12100142320000193393100963B0015
:101AB0002A00034CA04709B0F0BDC046E119000060
:101AC00005120000F0B5040093B00D0017001E00D1
:101AD0000220002C00D1A6E0002900D1A3E0002ABA
:101AE00000D1A0E0002B00D19DE01A2200214F4B35
:101AF000200098472B0A63702B0CA3702B0EE37009
:101B00003B0A63713B0CA3713B0EE371330A6372B2
:101B1000330CA372330EE372336825701A0A6273B2
:101B20001A0CA2731A0EE273002222742A00277183
:101B3000267223734A32117801321278032012027E
:101B40000A43326093426ED32B0046331978013337
:101B50001B7838001B020B432900483109784935AE
:101B600009040B43297809061943314B98476378D8
:101B700025781B022B43A5782D042B43E5782D06F1
:101B80001D432B78002B29D102AE4022FF21274B89
:101B900030009847627B237B12021A43A37B617A51
:101BA0001B041A43E37B09021B061343227A607964
:101BB0001143A27A000212041143E27A12060A4388
:101BC00021790843A17909040843E17900960906BF
:101BD00001432800174DA847002824D11898002851
:101BE00021D0637A227A1B021343A27A217912044C
:101BF0001343E27A207812061A43637912681B02B3
:101C00000B43A17909040B43E17909061943637871
:101C10001B020343A07800040343E078064C00064F
:101C20001843189BA04713B0F0BDC046DD900000DC
:101C3000B98F00009D1200007D1A000070B50C00E5
:101C40000500064E011D20222000B047290020007B
:101C5000283120222030B04770BDC0463D900000A2
:101C6000F0B595B00400029116000220002C7DD042
:101C700000297BD0002A79D0637825781B022B437A
:101C8000A5782D042B43E5782D061D43681DB14B27
:101C9000984700283DD1637825781B022B43A5780F
:101CA00032002D042B43E57802992D061D432800B0
:101CB000A84F1330B84700285AD1637825781B0203
:101CC0002B43A57832002D042B43E57802992D068D
:101CD0001D4328001A30B847002800D093E06278EE
:101CE000237812021A43A3781B041A43E3781B06D5
:101CF00013431A0045321278002A00D0B0E03200B7
:101D000002999548934B9847051E00D013E1002097
:101D10002CE0627B237B12021A43A37B617A1B04B3
:101D20001A43E37B09021B061343227A67791143A6
:101D3000A27A3F0212041143E27A039312060A4385
:101D400021790F43A17909040F43E1790906394349
:101D5000AF7ABC466346EF7A00903F021F432800EB
:101D60000197039B7D4DA847002894D015B0F0BD86
:101D70006A7E2B7E12021A43482A28D104A9784B86
:101D80009847637A227A1B021343A27A21791204BC
:101D90001343E27A207812061A43637912681B0211
:101DA0000B43A17909040B43E179090619436378D0
:101DB0001B020343A07800040343E07800061843A5
:101DC00004AB684DA847002800D176E7CEE7402A4B
:101DD00001D00A20CAE7637A227A1B021343A27A4F
:101DE000217912041343E27A12061A4363791268C6
:101DF0001B020B43A17909040B43E179090619433E
:101E000003002800DDE76B1CDB7FEA7F1B02134326
:101E1000482BDED1627B237B12021A43A37B617ABB
:101E20001B041A43E37B09021B061343227A6779DA
:101E30001143A27A3F0212041143E27A0090120683
:101E40000A43217928000F43A179474D09040F4324
:101E5000E17909063943A847002800D13FE785E723
:101E60001A004132117801321278120211431A001D
:101E70004332127844331B7812040A431B0613437F
:101E8000A7D000230393637825781B022B43A57802
:101E9000039A2D042B43E5782D061D432B00453373
:101EA0001B789A4200D32AE72B00413359781F78D8
:101EB000090239439F7832003F043943DF78039B9E
:101EC0003F060F431B2159437F18380002991030F9
:101ED000204B98478446002802D1039B0133D1E769
:101EE000BB7D7A7D1B021343BA7E797E12020A43C0
:101EF000934200D06DE7627A207A12020243A07A00
:101F0000617900040243E07A090200061043227955
:101F100001931143A279634612041143E2790093BD
:101F200012060A4339000368173128000F4DA847ED
:101F30000028D2D01AE701232000290023740422AC
:101F40000B4E1130B0472000290005220831153012
:101F5000B047DCE6B50D0000CCFD000051150000D7
:101F60003D1C00001D1A000079140000051200003D
:101F7000B98F0000F0B50223002A12D001337F2868
:101F800003D80023012405E0013B0500DC00E54007
:101F9000FAD09C1C002906D01568AC4203D9032353
:101FA00014601800F0BD146000290BD0661EF21AF0
:101FB000DD008A18002B07DA012C03D980235B424D
:101FC00033430B700023ECE70700EF40013B177031
:101FD000083D0132EEE70000F0B505000220002DBB
:101FE00015D0002913D00C680018002C0FD02B78C6
:101FF0005EB2002E21DA7F2633405F1CBC4206D33E
:102000005C1E032C03D8002A02D10F600020F0BD13
:102010000D4C00201C19E400A4461060681C6446A6
:1020200006780130A6401468A61908246442166098
:10203000A444461BB342F2D2E7E7002A00D0136063
:1020400001230B60E2E7C046FFFFFF1FF0B51E0053
:10205000002387B0029303931500134B03AA01904A
:102060000F009847041E1AD10398002D03DA6B4223
:102070000134834213D82818002E00D03060052385
:1020800002AA029304A9094B9847041E07D13A6893
:10209000029B9A4206D104A90198054B984720005B
:1020A00007B0F0BD0A24FAE7D91F0000751F000031
:1020B000B98F0000F0B589B00093052305000291A7
:1020C0000E9F05930226002831D0002F2FD0002923
:1020D0002DD0002A02D003787F2B34D8029B5A1EC1
:1020E0002B00AA18591B019193422AD01C78002C6E
:1020F00022D159787F291DD9029B05AAE018019B9E
:1021000006A9C01A204B9847061E10D1059A531CE9
:102110000393029B511C5B1801991B195B1A0099D0
:10212000002914D039688B4211D93B600336300046
:1021300009B0F0BD0133D5E7FF2C02D159787F29D2
:10214000F8D80024D8E7002301240193D4E73B60AA
:10215000009B002BEBD0022300990C4F0B70481C06
:1021600006A9B847002C03D00023009A03995354C2
:10217000039B019AE418009B1819029B9A1A019B71
:10218000E918B847D3E7C046751F0000B98F0000B3
:102190000023F0B587B005000C00160004930593EA
:1021A00002209D4221D09A421FD004AA00922021F1
:1021B000012228001F4FB847002816D12B002033DA
:1021C000039305AB00930122030020210398B84735
:1021D00000280AD1049B059A9A180532002C06D0D3
:1021E00033689A4203D93260033007B0F0BD3260E1
:1021F000002CFAD00323D2B22370931E6370002305
:10220000053AA3702271303304AAE37000922800CB
:10221000631D01222021074DA8470028E5D1049B1A
:1022200005AA05330092E318012220210398A8474C
:10223000DBE7C046B520000010B50248024B9847C6
:10224000002010BD580D0020B933000037B5124CE6
:1022500005002368002B01D0104B9847104B280035
:10226000984703002060E120002B13D06A780020FB
:10227000032A0FD11B68023A009201331232010087
:10228000084DA847002805D1072123681A6853780C
:102290008B4353703EBDC046580D002039220000CC
:1022A000413300003126000070B5049DE224002D6A
:1022B0000DD0DF3C2040DF34032808D0002407265F
:1022C0002C803340022804D0D20013432B802000FE
:1022D00070BDC900194312020A432A80F7E70000C3
:1022E0000300E220002A14D01748006840684068C4
:1022F0004078002810D1012B09D0002B03D0022BED
:1023000008D0E22005E058211160002001E04023C0
:10231000136070472023FBE7012B0DD0002B09D061
:10232000022BEED12423072907D9082907D1D0236E
:102330005B0002E08021E7E740231360E5E7E2204D
:1023400048230F29E5D8F8E7580D0020F0B5144EC2
:102350001D003368B3B00F001C686B46111ED870A7
:102360009F8003D0981D03220E4B9847200069469A
:102370000D4B9847041E10D1316868460B4B9847A7
:10238000041E0AD1002D08D06B469A79042A04D97C
:10239000D91D033A2800034B9847200033B0F0BD05
:1023A000580D0020B98F0000E53100007D34000099
:1023B000002210B50B00024C01001000A04710BD18
:1023C0004D230000F0B51A4E1D003368B3B01F68EE
:1023D0000C00032311006A460340D070948014223D
:1023E000012B06D9E224032B1FD12022104200D05A
:1023F00092186B46981D0F4B9847694638000E4B54
:102400009847041E11D1316868460C4B9847041E4A
:102410000BD1002D09D06B469B79222B05D96B4639
:102420002022D91D2800034B9847200033B0F0BD6F
:10243000580D0020B98F0000093200007D340000E3
:102440003F239843030010B50320202A03D0E22045
:10245000402A06D1BF38184300230A00014C190056
:10246000A04710BDC523000070B5124EB2B033684E
:102470006A460500186800236946D37093800E4BA6
:102480009847041E11D1316868460C4B9847041ECA
:102490000BD16B469B79232B0AD1002D05D06B46BF
:1024A0002022D91D2800064B9847200032B070BD6D
:1024B000E624FAE7580D00203D3200007D3400008C
:1024C000B98F0000F0B5BBB0060040A810C8007876
:1024D000049403900498E22400282ED00398042842
:1024E00001D0202829D1164F04AC38680068059027
:1024F0000E2000190090134C3000A047041E1CD180
:10250000039B202B01D160331E4304ABDB8908AD54
:10251000AB80290005980C4BEE709847041E0CD137
:1025200039682800094B9847041E06D1172104ABCF
:10253000C918039A0498064B984720003BB0F0BD99
:10254000580D0020A9220000553200007D34000003
:10255000B98F000070B504008AB0E225002814D0BD
:1025600020230193002302AE094D00961A001900A2
:102570001800A847051E08D1310004222000054E8E
:10258000B047201D052204A9B04728000AB070BD3D
:10259000C5240000B98F0000F0B507008BB00D0016
:1025A000E22400293CD00300083B072B38D8202325
:1025B0000193002302AE01001B4C00961A0002207A
:1025C000A047041E2CD11C2203A9184B28009847B1
:1025D000202300960193012223003900124C02208F
:1025E000A047041E1CD12800042231000F4B1C30D0
:1025F00098472800182204A90C4B20309847202324
:1026000002220193009623003900074C1000A047D6
:10261000041E05D12800082238303100034B9847AA
:1026200020000BB0F0BDC046C5240000B98F0000EB
:10263000F0B593B007930023059006911500099318
:10264000022802D9E22013B0F0BD059B022B02D173
:10265000069B0F2BF6D8189B002B01D10020F2E728
:10266000079B002BEED009AA06990598264B9847A0
:102670000028E8D1189B099A5B199342E2D86B09AC
:1026800003932023040006000493189B9E42E5D286
:10269000049B202B0BD1039B099A5B01D31A1F2BA0
:1026A00005D807237419A4081C40033B04936A4609
:1026B0000499127B01910AA90091E3B20699059849
:1026C000124FB8470028BED1039B0100DB001B1945
:1026D0009B009D4200D9E91A049B189A5B1A971B2C
:1026E0009F4200D91F00079B3A0098190AAB59185E
:1026F000074B9847049BF619202B03D1039B01330A
:102700000393C2E70134C0E7E1220000C5240000C2
:10271000B98F000070B51500B2B0E224002A1AD0BB
:102720006A460E4E33681B68D07091801800694667
:102730000B4B9847041E0ED131686846094B9847E9
:10274000041E08D16B469A79042A04D9D91D033A8C
:102750002800054B9847200032B070BD580D00206E
:102760006D3200007D340000B98F0000F8B505001F
:102770000E4B00200F0016009847002813D10C4B79
:102780001B681B681B78032B0ED1202440302022AD
:102790003900084B9847002805D18030204332008B
:1027A0002900054B9847F8BD0400F0E769240000B4
:1027B000580D0020412400001527000010B504002A
:1027C0005C220021034B9847142203492000034B4D
:1027D000984710BDDD900000D4FD0000B98F0000C7
:1027E000F0B505000300002287B0019040351C7849
:1027F000120214435A78240222439C781202144392
:10280000DA782402224304C39D42F0D100260B68EB
:102810004F688D68CC680A690293F3B29C460F2317
:102820006046034001989B00C3181B2003931B685C
:102830000493029BC34104981B189B18132E43D882
:102840002A0062403A402C4862401218D3180222F3
:102850000F20D741F21E02400198920012580498AE
:1028600005975040370002000F20083F07400198AD
:10287000BF003F580F207A4037000E3F07400198B5
:10288000BF003F581F207A40C241039801360260C2
:10289000029F2200502E13D10A68D3184A680B6099
:1028A00094463B0063444B60059A8B689B188B6091
:1028B000CB685D190B69CD601C190C6107B0F0BDC8
:1028C0002C000293059DA8E76246272A04D83A0007
:1028D0006A4062400948B8E762463B2A07D82A00A6
:1028E0002000224328403A4002430548ADE73A0021
:1028F0006A4062400348A8E79979825AA1EBD96EF1
:10290000DCBC1B8FD6C162CAF7B53F24436D0600FD
:102910001C40402317001C1B0091E4B20193002FC0
:1029200000DCF7BD3000FDB21430A7421CDB402CA8
:1029300019D1019A0099104B9847019D009B7F1B6C
:102940005B190093AC4204D13000310014300B4BC2
:102950009847736DED187565002D02D1B36D013385
:10296000B365019CDBE72500019B2A001B1BC018F7
:102970000099014B9847E1E7B98F0000E12700007B
:10298000F8B53F23426D0600134080221436F254FE
:1029900004000D0000225F1C402F3BD1372B08D9CB
:1029A000210030001D4B98473A00002130001C4B9D
:1029B0009847636D2100DA0023004F315333013B08
:1029C0005A70120A8B42FAD1A26DD100626D520F79
:1029D0000A4321004B31013B5A70120A8B42FAD153
:1029E000210030000D4B98471422210028000D4B88
:1029F00098472A00143223681B0E2B7023681B0C87
:102A00006B7023681B0AAB7008CCEB7004359542E1
:102A1000F1D1F8BDF2550137FFB2BDE7E127000063
:102A2000DD900000B98F00000023F0B5D1B0069012
:102A300007920393039B079A934201D151B0F0BDD3
:102A40000B0010AA4033059313000878D87048781B
:102A5000987088785870C8780431187005980433D5
:102A60008842F2D140AC536807211D001226CD41A7
:102A70001900F141DB0869404B40556A1168906BC1
:102A800049195B1805001121CD4101000136F141C2
:102A9000800A694041405918116404329442E2D1DD
:102AA00000231A00069988328A580192019908AACF
:102AB00099500433202BF4D100250A9B08989C469A
:102AC0000D9B099C01930E9B0C9902930F9B0B9EEF
:102AD00004930B220B000627D3410A00FA415A4007
:102AE0000B001337FB415340274AAF5810AAAA588E
:102AF0000435BA189A18019F029B0F408B437B4004
:102B0000D218049BD31804939F190D2306000222A8
:102B1000DE410300D341020073401626F2416646AF
:102B20005340624666402240064056409E19049B30
:102B3000F218029B6646049380235B009D421BD1E2
:102B4000019B08920E93029B069A0F930023099013
:102B50000A940C970D910B968832106808A9844648
:102B6000C95804330191614402C2202BF5D1039B63
:102B70000599013303935DE7019BA446019104008D
:102B8000029339001000A4E7E8FD000010B504002E
:102B9000A82200210A4B984723000A4A88331A606A
:102BA000094AA4345A60094A9A60094ADA60094A13
:102BB0001A61094A5A61094A9A61094B236010BD9A
:102BC000DD90000067E6096A85AE67BB72F36E3C74
:102BD0003AF54FA57F520E518C68059BABD9831FE8
:102BE00019CDE05BF7B54025040040680F001600E2
:102BF0002D1A954200D915000830164B20182A00CE
:102C0000390098476368F3183F2B01D86360F7BD1C
:102C10002300083301931900200001220E4B98472E
:102C2000731B9E0900937919320020000A4B9847C4
:102C300001362368B6019E193F230099009A9943F3
:102C40001A4049192660626079180198014B98472B
:102C5000DDE7C046B98F0000292A0000F8B504005E
:102C600009253F22406823686D42C6182D1A431C6F
:102C700063601540231841320930266020181A720B
:102C80000F002A1D0021134B98476368F600ED18CA
:102C90006319320E1A73320C5A73320A9A732A006D
:102CA0002100083262602000DE7392090A4B08316D
:102CB00098472300A834883303221978B954196837
:102CC000090A1960013AF8D204330437A342F3D158
:102CD000F8BDC046DD900000292A000070B50E0046
:102CE00005001400A0B06846064B98473200290042
:102CF0006846054B984768462100044B98470020DA
:102D000020B070BDBD270000092900008129000006
:102D100070B50E0005001400B0B06846064B984729
:102D2000320029006846054B984768462100044B4D
:102D30009847002030B070BD8D2B0000E52B0000BF
:102D40005D2C00000078002811D10A4B08620B604E
:102D5000094B4B60094BCB60094B8B60094B8B6176
:102D6000094B0B61094B4B61094BCB617047F0205C
:102D7000FCE7C046FD2D0000652E0000CD2E0000B2
:102D8000692E0000E1300000CD2F000091300000DE
:102D90002D31000010B5002803D10800024B9847E0
:102DA00010BDE120FCE7C0462D310000F7B5104C06
:102DB0000422104F06000D0068462100B847211D6F
:102DC000042201A8B847D023042D0FD12A00694658
:102DD0003000094CA0470023984207D02A0001A9DF
:102DE0003000A047D023002800D107331800FEBDD3
:102DF000E8FE0000B98F00006D8F000070B54B79C0
:102E000005000E00F020052B1ED828245C43104B33
:102E10001C19236A002B18DC2022C96A0D4B2000E4
:102E20009847FA210C4B8900B068984700210200AE
:102E30000A4B200098470A4B200098477379636239
:102E40000123002023622C6270BD0133F9E7C046E4
:102E50005C0D0020B98F0000996E0000ED36000077
:102E6000D536000000207047F0B5134B85B00F0039
:102E700015009847060001AC0C22002120000F4BE2
:102E80009847337928205B0823800D4B01356380F8
:102E90000323A7603B7065607379210043430948B1
:102EA000C018094B984703005A1E9341F0205B421B
:102EB000184005B0F0BDC04669350000DD90000047
:102EC0000088FFFF5C0D0020F9360000F0B5264BAE
:102ED00087B00E0000929847009B03AC1B8800222D
:102EE0000193037900995B082380204B856A6380F6
:102EF00001230A80019A07006360A660002A10D1AE
:102F0000ED2007B0F0BD28227B791948534303A96F
:102F1000C018184B9847421E9041F023404203408E
:102F2000013D002D18DD002BEDD13378E420032B7B
:102F3000E7D9019A9A42E3D3013B6360731CA36013
:102F40007B79BC3843430A482100C018094B984795
:102F5000002805D0F020D4E7D8B2002BD1D1E4E787
:102F60003378009A1380CCE7693500000188FFFFB1
:102F70005C0D0020F9360000F8B50E4B0F009847A5
:102F80002825060040790C4C68430C4B20189847C4
:102F9000FA2138000A4B89009847737902006B4385
:102FA0000021E018074B98477079074B68432018B9
:102FB0009847F8BD693500005C0D0020E13600003F
:102FC000996E0000ED360000D5360000F0B5274BB5
:102FD00087B007009847836A0500019383680093D0
:102FE0001A00234B9A4203D019003800214B98470E
:102FF00003AC2200204B43CB43C228226B791F48ED
:1030000053432100C0181E4B9847A88C1D4B98476E
:103010002B7901205B0823800423636002ABA3604B
:10302000194B019E638028230193002E15DD013E7C
:10303000002809D1009B1A000D4B9A420FD01100B5
:1030400038000C4B98470AE06B79019A0B485343C0
:103050002100C0180A4B9847E7E70028EAD004216E
:1030600002A80A4B984707B0F0BDC046693500007A
:10307000A0860100792F0000F0FE00005C0D00200A
:10308000F9360000193600000188FFFFAD2D000061
:103090001FB50F4B9847037901A95B080B800D4BB7
:1030A0006A464B8001234B606B468B600223137092
:1030B0004379282043430848C018084B9847030029
:1030C0005A1E9341F0205B42184005B000BDC04637
:1030D000693500000088FFFF5C0D0020F936000014
:1030E0001FB50E4B9847037901A95B080B800C4B69
:1030F0006A464B8001238A6013704B604379282015
:1031000043430848C018084B984703005A1E934190
:10311000F0205B42184005B000BDC0466935000094
:103120000088FFFF5C0D0020F936000010B5041E7A
:1031300008D0036A013B0362002B03DC024B984773
:1031400000232362002010BDE136000010B580B2DC
:10315000014B984710BDC046393600000300E220FD
:10316000002902D000200B704870704710B5041E73
:1031700004D0034B006898470023236010BDC0466D
:10318000F18900000B189C460023F7B56046884281
:1031900016D00878082401900120019DDF0B05401E
:1031A0006E1EB5415B009BB2BD4202D0064D6B4026
:1031B0009BB24000013CC0B2002CEED10131E5E7EA
:1031C00013701B0A5370F7BD0580FFFF10B5411C3B
:1031D0004078034B0238C0B20A18984710BDC04669
:1031E0008531000040238B70CB7810B5DB0606D507
:1031F0000A234B700800034B9847002010BD07239B
:10320000F7E7C046CD31000003231620CA7810B579
:1032100013408870012B06D81B234B700800064B07
:103220009847002010BDE220032BFBD1930601D567
:103230004723F2E72723F0E7CD3100001B2310B529
:103240008B70143B4B700800014B9847002010BD59
:10325000CD310000022310B58B7005334B70080090
:10326000014B9847002010BDCD310000412310B51F
:103270008B703A3B4B700800014B9847002010BD03
:10328000CD31000073B50500037801AE023BDCB21E
:1032900032000100074B2000984732782B5DE52073
:1032A0009A4205D12C19727863789A4200D1002095
:1032B00076BDC0468531000003780022042B16D16C
:1032C0004378072B1ED00BD8012B19D093420ED078
:1032D000D232032B0BD00432052B08D0E12206E0BA
:1032E000F4220F2B03D004D80632082BF6D110009D
:1032F0007047F322112BFAD01F3AFF2BF7D0EDE7DE
:10330000D122F4E7D722F2E770B505000C00E220E5
:10331000002D10D000290ED0096800290BD0636859
:10332000002B08D06878044B9847002803D16168C7
:103330002800024B984770BD5D310000E535000064
:10334000F8B5071E02D100242000F8BD0820114E58
:10335000B047041EF7D00420B047051E206003D1FB
:1033600020000D4B9847EEE72820B047606000280A
:1033700005D12800084DA8472000A847E3E7210011
:103380003800064B98470028DED06068024DA847F9
:103390002068F0E7DD890000F189000009330000B2
:1033A000030010B5E220002B02D05868014B98476B
:1033B00010BDC0466D35000070B5041E12D00A4B1A
:1033C000006898472068094B98472368084D58685B
:1033D000002803D0A847002223685A602068A84725
:1033E0000023236070BDC046A13300006D31000092
:1033F000F18900000200087830B5032828D803F0CE
:1034000041FD2A021B1F1320174B38330124800073
:1034100064424C801818834207D01C0004331D1FDF
:103420002D789542F7D163884B804A880F4B002056
:103430009A4200D1F23030BD14200D4B0433E5E741
:103440004B781620282B09D0682B0AD0094BF5E7BA
:1034500000200300DAE70E20034BD7E7064B2C339E
:10346000D4E7034B5433D1E7FCFE0000FFFF00001C
:103470007CFF00007C000100FCFF0000F7B51F4B43
:1034800005000E00807809689847041E2AD1336829
:1034900070685F881A4B9847041E20D16A7829000B
:1034A0007068184B9847041E19D13800164B063522
:1034B00098472100C022154B280098476B469F1D56
:1034C000C0233A003B8029007068114B9847041EC6
:1034D00005D13B88032B07D85C425C41E634706819
:1034E0000C4B98472000FEBD28000B4B9847041E4C
:1034F000F5D12800094B98470400F0E7F5330000A8
:1035000031350000213500004D310000DD90000014
:10351000293500005135000085320000B932000025
:1035200010B50369984710BD10B54369984710BDA1
:1035300010B5836904009847D02805D1B738034BEC
:103540009847A3692000984710BDC0464D31000040
:1035500010B5C36998470400024B0120984720002A
:1035600010BDC0464D31000040687047030010B5E3
:10357000E220002B03D01878596A014B984710BD00
:10358000952D000070B50D0004000A4B4068984767
:103590002B680020A3606B68E360AB682361EB6875
:1035A00063612B69A361AB6923626B69E3612B6A79
:1035B000636270BD452D000010B504008AB001A9FA
:1035C000074B9847616801A8A3689847002804D171
:1035D000099B20006362E36898470AB010BDC046AB
:1035E00085350000030010B5E220002B07D000292C
:1035F00005D01A7808004B600A70014B984710BD3F
:10360000B935000010B5024B1860024B984710BD49
:103610004C0E00205D450000044B10B51C68044BA7
:103620009847044B01002000984710BD4C0E002025
:10363000C139000071450000044B10B51C68044BF3
:103640009847044B01002000984710BD4C0E002005
:10365000DD390000714500001FB514001438828B5D
:1036600001AB1A80054A03915A801900044B029459
:103670009847002800D1200004B010BD0080FFFF53
:10368000F14100001FB514001438828B01AB1A8081
:10369000054A03915A801900044B02949847002868
:1036A00000D1200004B010BD0180FFFFF1410000F7
:1036B00010B5054B04009847002803D1034BA361C4
:1036C000034B636110BDC0465140000085360000C9
:1036D0005936000010B5014B984710BD61400000FD
:1036E00010B5014B984710BD7140000010B5014B5B
:1036F000984710BD8140000010B5014B984710BDA0
:10370000F141000010B50368984710BD10B543683B
:10371000984710BD70B5032100250D4C4B195B1067
:10372000DAB2022B08DCDB00E6187668864204D1A8
:10373000E358002B00D0984770BD864204D2013276
:10374000D5B28D42EAD9F7E7013AD1B2F9E7C046DE
:10375000500E00200121002210B5064B494259604D
:103760001A60D9609A6059611A610348034B9847FF
:1037700010BDC046500E002015370000313A000041
:10378000244BF7B55A68904210D0DA6890420FD0B7
:103790005A6982420ED10222D2009950002900D0EB
:1037A00001211D4B984702001000FEBD0022F3E7E7
:1037B0000122F1E7002902D10D225242F4E71A68F2
:1037C000002A08D09A68002A22D00D221C69524291
:1037D000002CE9D10F32D2001D0099509A1894465E
:1037E00018355060019561465C684D68A5420AD263
:1037F000651C08D01F0065461968009142CD42C77C
:10380000009954601160019908339942EBD1C7E7E0
:103810000122E0E7500E0020A53A000010B5074B4A
:103820000400416004309847002806DB0020044B68
:10383000A382044B2361044BE36010BD45430000A9
:103840000080FFFFA93800008D38000010B504305B
:10385000014B984710BDC046D943000010B5043055
:10386000014B984710BDC046E54300007FB50B688B
:10387000043003934B6804938B6803A90193059369
:10388000014B984707B000BDFD4300001FB5002362
:103890000191029301A9034B0C380392984705B09C
:1038A00000BDC0466D3800001FB500230291019392
:1038B00001A9034B0C380392984705B000BDC046E0
:1038C0006D3800000C30086000207047F7B5040028
:1038D0000F0001922500083528000C4EB047002843
:1038E000F8D00024395D2800094B98472800B047DC
:1038F0000028FBD0019B01349C42F3D32800054BE8
:1039000098470028FAD02000FEBDC0463140000094
:10391000214000003B400000F7B507000E000024E6
:1039200001923D0008352800064B98470028F8D042
:10393000054B28009847019B305501349C42F0D339
:103940002000FEBD454000002940000010B5054B99
:10395000040008309847002803D1034B6360034BF1
:10396000236010BDF93F000019390000CD38000078
:1039700010B50830014B9847002010BD09400000E9
:103980000860002070470000054B020019680029FC
:1039900001D104491960186882181A607047C0463E
:1039A000680E0020A8430020012040427047802379
:1039B0009B0100204B60704701207047002070473A
:1039C0000300F0204000584310B501380A21024B93
:1039D0009847013010BDC046996E0000014B584316
:1039E0007047C04680BB0000042310B5074A5168E9
:1039F0000B435360064B9847064B98470220064CF2
:103A0000A047064B9847FD20A04710BD004000414D
:103A1000D53B0000BD4400007D3B0000FD4400009C
:103A2000024A5378DB09FCD17047C04600180040B9
:103A3000F8B5164C164D0700A847A84723789B07F2
:103A400003D500232370A847A84701232370A84764
:103A50000026A8470723A67063600E4B6661A3612A
:103A60000223E661227813432370A84710230A49F2
:103A70000A4ACB67BFF34F8FBFF36F8FC021490056
:103A800053501360064B30001F60F8BD0018004013
:103A9000213A00002202000004E100E000E100E021
:103AA0006C0E0020002806D0012804D00D235B42B4
:103AB00012280CD110380A4BC000C05CFF280BD074
:103AC0000123084A8340002903D0D3600023180053
:103AD000704793601361F9E70D235B42F7E7C04637
:103AE000D800010000180040F0B501261F4D85B038
:103AF0002B69EA68764213400393039B2B61039B77
:103B0000002B1AD105B0F0BD03200022184F8318F6
:103B10005B10D9B2DB000191D95D8C46A1421AD16C
:103B2000FB185E68731C03D0124B30001B6898476B
:103B30000122A240039B9343039303980E4B9847A3
:103B4000013844B2631CDFD12B69EA681340039348
:103B5000039B2B61D3E70199A44504DA0131CAB272
:103B60009042D4D2DEE70139C8B2F9E7001800402C
:103B7000D80001006C0E0020C5710000C30716D4E8
:103B8000830708D502220F4BFF329A600E4A5A6013
:103B90005A78D209FCD1430708D58122094B52003B
:103BA0009A600A4A5A605A78D209FCD1704780223A
:103BB000044B52009A60064A5A605A78D209FCD1E6
:103BC000DEE7C046000C00400103010002060100D0
:103BD00000070100064B1A7AD2B21A725A7AD2B290
:103BE0005A729A7AD2B29A72DA7AD2B2DA7270478A
:103BF00000040040C3691942FCD17047C3691942EF
:103C0000FCD17047C3691942FCD17047022210B53C
:103C10000368032193430360014B984710BDC046DE
:103C2000F53B0000022210B50368032193430360B3
:103C3000014B984710BDC046053C0000044BC0181E
:103C4000800AC0B20338431E984140427047C046C4
:103C500000F8FFBD012310B5C4691C4008D10268FB
:103C6000DB18134303600321034B9847200010BD6A
:103C700004204042FBE7C046FD3B0000F8B50223AC
:103C800002680321134303600F4D04000427A84773
:103C90000E4E04212000A8470322638B1B0913400A
:103CA000012B01D10020F8BD013E002EF1D1013FD2
:103CB000002F05D01023042163832000A847E7E7E5
:103CC00006204042EFE7C046F53B0000FFFF000042
:103CD000C02310B542689B02134343600421014B8B
:103CE000984710BDF53B0000F7B50500036800914B
:103CF0005B4F042114000193B84701216B8B009E98
:103D00009BB20E400222002E00D166E013420FD07B
:103D100080220B405E425E41297660885201024358
:103D2000628062884F48053E024062803000FEBDDE
:103D300004261E4015D06368002B04DD80236288B2
:103D40005B011343638063881BB2002B02DA2800F7
:103D5000454B98476388434A134063800226764266
:103D6000E4E780236288DB001A40009218D0062224
:103D700023880421DB09134028000093B8478022E0
:103D80006B6AD2011A40F1231343009A04211343B2
:103D90006B622800B8476388344A13406380C5E7E4
:103DA0006668002E09D163881BB2002B02DA280056
:103DB0002D4B984763882B4AEFE7A36804211A78B4
:103DC0002B0028331A702800B847A3680133A3607A
:103DD0006368013B63600026A8E700981042A5D005
:103DE0006268002A38D05B0736D4019B013ADE0EA8
:103DF0000E406260002A0AD1002E0CD180236A682E
:103E0000DB0213436B6004212800B84703E0012A5A
:103E100001D1002EF2D16368002B10D16388114EBE
:103E20001BB2002B08DA6B68280033406B6004215A
:103E3000B84728000C4B9847638833406380A668D6
:103E40000421731CA3602800B8472B0028331B787B
:103E5000337002232B76BEE702232B767EE7C04623
:103E6000F53B0000FFFEFFFFD13C0000FFFBFFFF22
:103E7000F7B50C000090264B08009847E369C7B2DD
:103E8000244EDB071BD418237B43234A0225D31877
:103E90005A681C2303211A4020000192B04723686E
:103EA0002B4205D020001D4B984729002000B04729
:103EB0000123019A0321134323602000B0471825F2
:103EC0007D4320000121B047134B20005D196F682E
:103ED00003212760B047AB68200063600421B0472E
:103EE000EB68BF01E360009BB90F9981676A0C4AD8
:103EF00020003A4001278F42BF417F42BF03174352
:103F000067620421B0476B8A009A0020D381FEBD0E
:103F10003D3C0000F53B0000F00001000D3C0000BE
:103F2000FFBFFFFF304BF7B5C518AD0AEDB2053D39
:103F30006A426A41C3690400D5B22C4FDB071AD428
:103F400014236B432A4A0226D318DA691C2303215F
:103F50001A400192B8472368334205D02000254B10
:103F6000984731002000B8470123019A03211343E9
:103F700023602000B84714266E4301212000B84773
:103F80001B4B03219E19F369200023600193B8475E
:103F9000336A072163602000B847C0230199DB0121
:103FA000B28C19421ED0A389D2045B0BD20C5B03E6
:103FB0001343A38107230736F27F1A40A3895203D4
:103FC000DB04DB0C1343A38114235D43084B002067
:103FD0005D192B000833DB7F2835A3732B78303431
:103FE0002370FEBDA281EFE700F8FFBD053C000095
:103FF000F0000100253C000010B5024B01600800F4
:10400000984710BD253F0000022310B5006803212A
:10401000026813430360014B984710BD053C000044
:10402000036889B2198570470368188DC0B270475C
:104030000368187E0123184070470368187E8007C4
:10404000C00F70470368187E4007C00F704700001C
:1040500010B5024B0161984710BDC046713E00008B
:1040600010B50069014B984710BDC0467D3C00006B
:1040700010B50069014B9847002010BD0D3C0000B1
:10408000F0B5046987B04E4B060003212000009272
:10409000984720688007C30F019300D08BE0B78951
:1040A000002F3AD1E068FF33984301900A20009B2B
:1040B000444D5843444B281A984702900391434B70
:1040C000F0899847424E434A434BB04704900591CC
:1040D00000983D4B6843984702000B0004980599EF
:1040E000B0473E4D02000B0002980399A847009B81
:1040F00005005800344B0E00984702000B002800C2
:104100003100374DA847374B9847FF231840019B94
:104110001843E060380007B0F0BD012F3AD1FF230B
:10412000E068284D984302900A20009B5843264B94
:10413000281A984704900591244BF0899847254AFE
:10414000254B234EB047060000981F4B68430F00D5
:1041500098471F4D02000B0030003900A8471F4D43
:1041600002000B0004980599A847009B0600580020
:10417000154B0F0098471A4D02000B003000390014
:10418000A847184B9847FF231840029B1843E0604C
:104190000198C0E7022F11D11348E568009B054044
:1041A00008485900401A114B9847FF2300041B048C
:1041B00018402843EBE711204042ACE70D20FBE715
:1041C000F53B000085BB00001586000091850000CE
:1041D000FD79000095D626E80B2E113EFD7E0000ED
:1041E00095730000D9710000FFFF00FF996E000079
:1041F0008023F0B585B0019142885B000400066918
:104200001A4200D080E04A881A434A800200A1C9BD
:10421000A1C272680421134373603000434FB84752
:10422000256962682B68012A40D1DB0E13423DD01C
:1042300080236A68DB0213436B6004212800B847BF
:1042400080232288DB00510002911A4232D062881A
:10425000D20702D562881343638004212800B8473F
:10426000334B02996A6A19400B008021C901114041
:10427000802212020A4313436B6228000421B847CC
:104280008023032220695B02017E013BC9B2002B1F
:1042900024D128002200274DA8470327002820D03A
:1042A0006388254A1340638005B0F0BD6B68234ADC
:1042B0001340C1E7638804219BB228001B4F03937E
:1042C000B847FF230299039819400B0001210140D0
:1042D0000B4380216A6AC9010A40CCE71142D3D05E
:1042E000D7E78022638852001342DDD08023226901
:1042F0005B02117E013BC9B2002B07D03942F8D0D6
:1043000022003000A847ECE706200CE0019B5B8808
:104310001BB2002B02DA3000094B98470520638856
:10432000054A134063804042BEE7C046F53B0000AB
:10433000FE070000E93C0000FFFEFFFFFFFFFBFF60
:10434000D13C0000F8B51D4B0700CD18AD0AEDB209
:104350000C00022D02D00D204042F8BDCB69184E52
:10436000DB0713D403212000B04723682B4208D079
:1043700023680321AB4320002360B04729002000BD
:10438000B0470D23032123602000B0472000012106
:10439000B0470C4B3C60200023600321B0478023D2
:1043A0009B02636020000721B04701230020237394
:1043B000303420703B71FF33FB80CEE700F8FFBD47
:1043C000FD3B00000C00300010B50068014B984721
:1043D00010BDC046553C000010B5014B984710BDBC
:1043E000C943000001220368D869104002D1C9B254
:1043F0001973704704204042FBE70000F0B585B018
:1044000001900291056803790720EC690F684E68F6
:104410000393044031D1284B0321280098472B688F
:104420009B072DD5012321009C4604232A7ED2B26E
:104430001A4227D0AB6A002E04D0039833700128AB
:1044400012D80136013152B2002A2DDA012313208D
:104450005B426B8381332B76404203232A7E1A42D0
:10446000FCD02B7605B0F0BD1B0A73700236E9E76D
:104470007B7802371B02034313E004204042F1E73C
:104480001420FBE7A142DED363461A42DBD0019B36
:10449000DB88002F05D0039B3878012BE8D8030078
:1044A00001370134AB62CEE7029B9B68A342BCD8C4
:1044B0008B42BAD82000D0E7FD3B00000D4B0E48E0
:1044C000196A1A6A01400220920F920702430A43B6
:1044D0001F211A629A69104398611A7F0A401A775D
:1044E0000822D9681142FCD08022196A0A431A6254
:1044F0007047C046000800400000FF0F82230221E1
:10450000124ADB015380124B998411001022D868A3
:104510001042FCD00F4ADA62FC22D2019A620E4AA3
:104520009A849A8C520704D41022D8681042FCD086
:1045300004E0D020DA680240D02AFBD14A78D209C0
:10454000FCD102219A698A439A617047000C0040AD
:1045500000080040B905010406080000024B034AA8
:104560005A6005221A60704710E000E0FFFFFF006C
:1045700070B580250B0E0C4A0C4CD8B26D02013878
:10458000C0B2FF280AD118061B1A5918802351609F
:104590005B02916011681942FCD070BD5460946058
:1045A00016682E42FCD0EAE710E000E0FFFFFF00B3
:1045B000FEE700002148224970B5884204D000235C
:1045C000204CCA18A24232D300211F4B1F4A9342EB
:1045D00031D3FF211E4B1F4A8B43936002220C25CF
:1045E000082430261C4B1D485A62C378FC398B4383
:1045F0001343C370C378AB432343C370184B987BFA
:10460000B0430600202030439873987BA8430443AE
:104610009C73987B884302439A738023114A5168A4
:104620000B435360104B9847104B9847FEE7C55813
:1046300004331560C5E702C3C9E7C046840F010013
:1046400000000020E0090020E0090020A82300204D
:104650000000000000ED00E0FC700041005000414F
:104660000048004100400041958900007564000049
:1046700010B50B00002805D118001100034B984716
:10468000002801DA0120404210BDC046DD4600008E
:10469000013810B50C00022805D811002000034B8A
:1046A0009847002801DA0120404210BDFD46000075
:1046B00070B50600064D074C2B6800219868A0478E
:1046C0002B6800215868A047034B1E6070BDC04690
:1046D00034000020D9910000700E0020054B10B569
:1046E0001B680400181E03D08AB2034B21009847B0
:1046F00010BDC046700E00200D370000054B10B5F0
:104700001B680400181E03D08AB2034B210098478F
:1047100010BDC046700E002005370000034B10B5D9
:104720001B68002B00D0984710BDC046740E0020B7
:104730000022074B10B51A60064B1A68D20702D543
:104740001B689B0702D40348034B9847002010BD09
:10475000740E002010E000E00536000010B50400E3
:10476000002C00D110BD0120014B9847013CF7E718
:1047700039360000F8B5C024E405230080278025E1
:1047800094333F01ED001F60044E1D6098342820D3
:10479000B04727602820B0472560F8BD5D4700007E
:1047A00010B5034B034918601220034B984710BD06
:1047B000740E00201D47000081370000411E884113
:1047C00010B5C1B2014B1220984710BDA53A0000A8
:1047D000014B18607047C0463810002010B5074CD8
:1047E00007492068074B98472068074B9847074BB5
:1047F00098470120064B9847002010BD3810002034
:1048000034100020C53800004D3800007547000006
:104810005D470000F7B503282ED16A460E890D6862
:104820004B680021073211708D421ED08B4220D17F
:104830001F0013000131C0248022E405D20162610F
:10484000002905D119000D4B320018680C4B984710
:10485000002F05D1094B320018682900094B9847F1
:1048600080230020DB01A361FEBD29000127150084
:10487000E1E706204042F7E70120FBE73410002083
:104880000D3700000537000000207047002310B5E9
:104890009A4203D0CC5CC4540133F9E710BD8318AD
:1048A000002A03D0017001309842FBD170470023E9
:1048B000C15C9AB201330029FAD1100070470000A0
:1048C000024AD3780133DBB2D37070473C1000202A
:1048D0007047000007B50022094B01209A70094B70
:1048E000984701A90848094B9847002806D102219A
:1048F000019B05481943064B019198470EBDC046E0
:104900003C100020BD47000070100000B9520000AC
:10491000C5520000002010B50A4CA378834207D18D
:104920006378834205D0002063780133DBB2637083
:1049300010BD2378002BF6D0034B98470028F2D007
:10494000F6E7C0463C100020ED4F0000044A5378C3
:10495000002B03D05378013BDBB25370002070472B
:104960003C10002010B5094B5A78002A03D05A7821
:10497000013AD2B25A7000205A78824204D11B7890
:10498000834201D0024B984710BDC0463C10002026
:104990008D4F000010B5064C2C2200212000054B45
:1049A00098470548054B9847054B0020236210BDEA
:1049B0003C1000209F480000C1480000A1470000B3
:1049C000D1480000F0B58BB01F0010AB029204CBB1
:1049D000060000927F221B880A40019312AB1B88BD
:1049E0000D00039306AB5A70082218705A80009A83
:1049F000002A45D001995A88521803998A1892B210
:104A00005A804D4B9847041E37D104AB0890D8808C
:104A10000790079B2D021E430796079B47481D439F
:104A2000079506AB5B88079A1B0413430793079906
:104A3000434EB047041E39D102250790079B4148D9
:104A40002B4307930799B047041E2FD12E0004ABC8
:104A50000890D88004AB9C1D22883B4B9A4205D815
:104A600007A93848394B984700280CD0089B002BE1
:104A700024D1374B03249847644220000BB0F0BD8B
:104A80005A88D219BBE7F4232288FF339A4203D90C
:104A9000238801202F4B9847079D354009D108A94D
:104AA0002D482A4B9847041EE0D008952B4B984779
:104AB000E3E7238801339BB22380CBE7089B06A959
:104AC00009934B8808229BB24B800998244DA84734
:104AD000041EEBD1099B08330993029B002B08D0DD
:104AE00009983A001900A847041EDFD1099BFB185A
:104AF0000993009B002B0ED0039B099ADB1B9B188C
:104B000009930998019A0099A847041ECED1099BE0
:104B1000019AD3180993089B12489B00079302231C
:104B2000079A134307930799054B9847041EBDD175
:104B3000074B98470400A0E7154900008C100000BF
:104B4000C552000078100000E7030000B9520000D1
:104B5000654900005D470000000415004D49000054
:104B6000115300006C100000F8B51D00002803D0A0
:104B7000002901D0002A04D1002D07D00F4B9847FF
:104B80001BE00F4CE3689A4203D9E3680C204042D3
:104B900013E0A3689842F9D3A368E7688618DB1985
:104BA0009E42F3D8074B9847002806D1A368E268D5
:104BB0009B189E42E2D0002DE0D1F8BDD548000000
:104BC0003C100020D1520000013800B5062815D84D
:104BD0000C4B02F057F907040B09110D0F00596136
:104BE000002000BD1961FBE79961F9E71962F7E759
:104BF0005962F5E7D961F3E79962F1E70C20404289
:104C0000EFE7C0463C1000201FB5002289B2019199
:104C10000090029213008421024C0520A04704B0AA
:104C200010BDC046C5490000F0B504009BB00E00A1
:104C300015002C2802D10023042203E01B280ED1EA
:104C400000230822280001A95F4DA847002804D1AD
:104C50005E4B01A91B68002B25D11BB0F0BD0628B7
:104C600002D101233022EDE70E28F6D0322802D1FE
:104C700000231822E6E72F2807D1554B6422002194
:104C800001A8984700236422DCE734280DD101A94C
:104C90002800002304224C4DA847011EDDD14B4BB8
:104CA0001B68002BD9D0200013E0112813D100235A
:104CB000464E01AC280004222100434D3371A84721
:104CC0000028CAD1237873713368002BC5D0210026
:104CD00011309847C1E713280ED100232C2201A9D7
:104CE0002800394CA0470028B7D1384B1B68002B4F
:104CF000B3D001A91330ECE704280ED1002304221D
:104D000001A92800304CA0470028A6D12F4B1B68D2
:104D1000002BA2D001A90430DBE7652800D18AE787
:104D2000092801D10123AEE72A2801D1012383E715
:104D3000202819D101AE0023082231002800224F7B
:104D4000B847002800D088E72800B288083001233F
:104D50000199B847002800D07FE71C4B1B68002B47
:104D600000D17AE731009EE7372800D075E7232984
:104D700000D872E70023242201A92800124FB84767
:104D8000002800D069E73400243CA4B20F4E002C68
:104D900010D0B16800290DD0F389B0891A18944257
:104DA00000DD1C002430401901232200B8470028F0
:104DB00000D052E73369002B00D14EE72200B168E2
:104DC00001A8984749E7C046694B0000780E0020CB
:104DD0009F48000010B5044B9847041E01D1034BB7
:104DE0009847200010BDC04615540000994E0000A1
:104DF00070B58CB06B4601250200D81D0570002AE5
:104E00001FD00026104B1168526819601A611E717C
:104E10000E4B98470400B0420CD10D4B984704004C
:104E2000B0420AD10B490C4B2800984702A80B4B03
:104E30009847040020000CB070BD3000084B984724
:104E4000F8E70C246442F5E7780E0020595400007E
:104E500095490000294C0000C94B00005153000047
:104E6000C554000037B58024A525640004436D01B6
:104E70002100074B28009847002301A9019328002F
:104E8000044B98470028F3D1019B9C42F0D13EBDD2
:104E9000C5520000B9520000002337B50F4801A9E0
:104EA0000F4D0193A847002817D18021019B49008D
:104EB00019430A480B4C0191A04700280DD1D0207E
:104EC00001A94001A847002807D18021D020019BDB
:104ED0004902194340010191A0473EBD081400005A
:104EE000B9520000C552000073B51E4C2568002D54
:104EF0001FD18020210040011B4EB047002803D065
:104F000000232360280076BD01A91848B047002877
:104F1000F6D12368164A93420DD1019B012B01D093
:104F2000144B23602368144A1A40A023DB02134366
:104F300023602568E6E7114A934208D1019B032BC1
:104F4000F0D0042B01D10E4BEBE70E4BE9E70E4AF4
:104F50009342E7D1EC2021008003B0470028CFD155
:104F6000E0E7C0468C0E0020B9520000F4130000A8
:104F7000A0021000A1021000FFFFF0FFB00210001D
:104F8000B1021000B2021000F000100037B5012588
:104F900001A91020134CA047002810D1019B2B42DF
:104FA000F6D101A90130A047002808D102230199B8
:104FB000194205D101A90B20A047002808D03EBD09
:104FC00099430120084B019198470028F2D0F6E759
:104FD000012301991942F2D099430B20024B019110
:104FE0009847ECE7B9520000C55200000023F7B51E
:104FF0000B2069461C4D00930193A847041E08D15D
:105000000121009B0B4206D069460120A847041EDF
:1050100008D02000FEBD19430B20144B9847041EF6
:10502000F2D0F6E70221009B0B4212D0052604279E
:1050300001A90F20A847041EEBD1019B3B420FD1D1
:1050400002200B4B013E9847002EF1D1042464420C
:10505000DFE719430120054B9847041EE6D0D8E747
:10506000044B9847D5E7C046B9520000C55200002E
:105070005D470000A1520000002373B5144D01A943
:1050800014480193A8470121019B040019431148CA
:10509000114E0191B0470419A02001A94001A84771
:1050A000E4B201992418E4B24B0501D460B276BD94
:1050B000A0200A4B400119400191B0470600A020F2
:1050C00001A94001A8473018201840B2EFE7C046B8
:1050D000B952000018110000C5520000FFFBFFFF8D
:1050E000A02010B50021044B400198470400034B59
:1050F00032209847200010BDC55200005D470000D7
:1051000010B5054B9847002805D1044B9847002857
:1051100001D1034B984710BDED4F0000E150000056
:105120007950000070B505002048214CA0470028A8
:1051300003DB01201F4B9847F6E71F48A047C30732
:105140000BD51E4C022D11D11D491E48A0478021B0
:1051500049031D48A047002515E0164B012098473C
:105160001A48A0471A4B9842F7D1EAE7032D04D119
:1051700013491448A0470021EBE716491248042DB3
:10518000E8D1A0477C35144B9847144A0005000D20
:10519000134B904207D902202843984711490B48E6
:1051A000A047002070BD2800F7E7C046141000009B
:1051B000AD5200005D470000BC070200C552000070
:1051C0007DD51C3CAC0702008C1000000C000C00CC
:1051D0009ED0AD1054133013E94E00009F03000021
:1051E000654E0000612F52EF37B5134B134C023858
:1051F00000930194012803D8114B0093114B0193A4
:10520000012500206D42019B984209D1019B002598
:10521000A34203D1290008480B4B984728003EBD04
:1052200002200A4B9847013D0098094B9847002DF2
:10523000E9D105256D42F1E78C10000036265302B6
:10524000AC070200C3C15DD7C55200005D47000036
:10525000AD52000007B50023A020019301A9400131
:10526000064B9847002807D1A020019B0449400124
:105270001940044B019198470EBDC046B952000039
:10528000FFFBFFFFC552000010B5014B984710BD52
:10529000DD47000010B5014B984710BD894800005C
:1052A00010B5014B984710BD6D58000010B5014B6B
:1052B000984710BD9D58000010B5014B984710BD90
:1052C000AD58000010B5014B984710BDC5580000FF
:1052D000F7B50700150006000B4B01911C88083C30
:1052E000A4B2019BF11B5918A54204D8AAB2300000
:1052F000064B9847FEBD22003000044B984700281B
:10530000F8D12D1B3619ECE7000000206959000088
:10531000F7B50700150006000B4B01911C88083CEF
:10532000A4B2019BF11B5918A54204D8AAB23000BF
:10533000064B9847FEBD22003000044B98470028DA
:10534000F8D12D1B3619ECE7000000200D5A0000A3
:105350007FB5002504000822290002A8264B0195EC
:105360009847AC4202D1002004B070BD2900200053
:10537000224B2822984701A92148224B9847002810
:10538000F2D10198002802D10C204042ECE7C02560
:10539000AD022843082202A91B4EB0470028E3D1E2
:1053A000039880B201900028EED0284328222100E3
:1053B000B0470028D8D10F21FF252279A379607941
:1053C00012020B4013430001627A28400A40034353
:1053D000217AE07909010002024329400A43002BA7
:1053E000D2D0002AD0D009498A4202D8084A934232
:1053F000B9D80D20C9E7C046DD9000009F480000E5
:1054000008000C00B9520000D152000054130000F3
:105410005313000070B50020094B9847041E0DD1AE
:10542000084DA847000D032801D0074B9847074BAC
:105430009847A84700210648064B9847200070BDB2
:1054400089520000E94E000001510000DD580000C3
:1054500000030200C552000070B50124002804D0EA
:105460000478631E032B00D9012400200E4B9847BB
:10547000051E17D10D4B98470D4B984720000D4B3B
:105480009847051E0CD120000B4B9847051E07D1ED
:10549000023C012C06D9094B9847002802D0050090
:1054A000074B9847280070BD89520000E94E000064
:1054B000DD58000025510000E9510000994E000020
:1054C0009552000010B5084B9847041E09D1074BB0
:1054D0009847041E05D1064B9847041E01D1054B81
:1054E0009847200010BDC04655520000655D000081
:1054F00095520000915800001FB5002201AB0190A9
:10550000198103201900024B0292984705B000BD93
:10551000154800001FB5002201AB0290198103203D
:105520001900024B0192984705B000BD15480000D4
:10553000F7B56B460700DD1D154ECF2820D00300C0
:105540003B33DBB2012B1BD90B2401212800B047D0
:1055500000281AD12B78BB4203D0013CE4B2002CC6
:10556000F3D10B2401212800B04700280DD12B785E
:10557000002B03D0013CE4B2002CF3D1012005E064
:1055800001212800B0470028DED00020FEBDC04623
:1055900015550000F0B50C00002787B0029003926B
:1055A0008022231C9201944201D91B4B1B880A259F
:1055B0009BB2019304AB0121D81C184EB0470028C0
:1055C00002D0002007B0F0BD04ABDB781B090F2B25
:1055D0000ED0013D2DB26B1CECD1F2E7104B1B78C5
:1055E000002B10D1022105A8B04700280BD0E8E716
:1055F000002DE6D0029B0199D819B0470028E0D1D0
:10560000039B002BEAD0019BE41ADF19A4B23FB23E
:10561000002CC5D10120D5E730010100155500004F
:10562000900E0020F0B585B00AAC257801AC207052
:10563000C1380E2800D976E001F024FC28283E1558
:105640002222323250087575757526000B0C637076
:105650000B0AA370E1700521344B481E1B78002B08
:105660004AD0C1B256E00B0ADBB2002D04D1637000
:105670000023A170E370EEE7802252421343F6E765
:1056800000236370A370F5E7FF23FAE70A0C62704A
:105690000A0AA2701A0AE170227163710721DBE71E
:1056A0000A0C62700A0AA2701A0C22711A0AE170BE
:1056B0006271A3710821CFE70B0ADBB2002D09D17B
:1056C0006370130EE370130C2371130AA1706371DE
:1056D000A271EFE7802040420343F1E70B0C6370B7
:1056E0000B0AA370130E2371130C6371130AE1707C
:1056F000A371E2710921AFE70A007F230C4D661800
:105700005742F75D5B007B40013AEB5C012AF7D121
:105710005B002354074B89B220009847434258410D
:1057200040B205B0F0BD0020FBE7C046900E00205F
:1057300036010100F9540000F0B587B0060005916C
:10574000302832D81A4B1B783022DBB20393002367
:10575000B2425B410A24DBB20493049B154D0093D3
:10576000059A042331000398A8470500012805D1B4
:105770000398114B98470500012813D001200F4BC7
:1057800098470021CF200B0000910A00094FB8472D
:10579000013C094BCF209847E4B20120074B9847C2
:1057A000002CDAD1280007B0F0BD054BCBE7C0468E
:1057B0003201010025560000315500005D47000010
:1057C00033010100F0B589B005000591FF2829D803
:1057D000204B1B78FF22DBB203930023AA425B41DC
:1057E0000A26DBB20493049B1B4C00930022042383
:1057F00029000398A0470400012815D10398174BEE
:105800009847040001280FD1049A042107A8144BDB
:1058100098470400012807D1079B059A13602000D0
:1058200009B0F0BD0F4BD4E701200F4B9847002182
:10583000CF200B0000910A00074FB847013E074BED
:10584000CF209847F6B20120074B9847002ECAD1C7
:10585000E5E7C0463401010025560000315500003F
:1058600095550000350101005D47000037B5002463
:10587000054D2300220021000094CF20A847034BB0
:10588000CF20984720003EBD25560000315500002E
:105890000020014B18707047900E002007B5024B96
:1058A00001A9984701980EBDC5570000044B10B5DB
:1058B00098470023012800D0063B180010BDC046C1
:1058C000C5570000044B10B598470023012800D0AD
:1058D000063B180010BDC04639570000002337B5FD
:1058E0001B4C01A91B481C4D01932370A84700289D
:1058F00013D02378002B19D0802069464001A84797
:10590000002821D0154B1348984770235021984305
:105910000143134B0F48984706E0012301A90D48A6
:105920002370A8470028E4D100203EBD7C235021ED
:10593000019A08489A4311430A4B0191984700285D
:10594000F2D001232370D7E706204042EDE7C0469E
:10595000900E002024E80000C55700009D5800006C
:10596000C5580000395700000A23F0B5140000267E
:1059700089B0059004910393012C01D126000134D4
:105980000025230000952A000599C8201B4FB84721
:10599000012817D001201A4DA8470021CF200B0065
:1059A00000910A00154FB847164BCF2098470120A9
:1059B000A847039B013BDBB20393002BDCD10620FD
:1059C000404212E0C8200F4B98470128E2D1002E38
:1059D0000DD007AF2A000C4B2100380098473B78C8
:1059E000049A13700128D5D1002009B0F0BD32000F
:1059F00021000498044B9847F4E7C0462556000060
:105A00005D4700003155000095550000F0B51600C7
:105A10000A2789B004900591012E00D10136002596
:105A2000330000952A000499C7203B4CA047012869
:105A30005BD1C630394B9847012856D1340007ABAB
:105A40001D8003908023201C9B019C4201D9344B74
:105A5000188883B20293002D3AD18022039B9201D1
:105A6000944200D803230B2004AA8018102252422B
:105A70001343037003992B4B9847002835D1059B9E
:105A800002995819274B984700282ED1264B1B788E
:105A9000002B24D0029BE41A5D19A4B22DB2002C75
:105AA000D0D1214B07A81D786B1E9D410235A9B2AC
:105AB0001E4B9847002818D107AB5D196B1E1B7849
:105AC000002B12D1023D2B78C32B0ED1200021E0F8
:105AD000802200239201A2425B410233C3E70221EC
