:020000040000fa
:10000000f07f0020912c0000db2b0000f33100007a
:1000100000000000000000000000000000000000e0
:10002000000000000000000000000000c3270000e6
:100030000000000000000000c3270000c3270000ec
:10004000c3270000c3270000c3270000c327000008
:100050000d300000c3270000c3270000c3270000a5
:10006000c3270000c3270000c3270000c3270000e8
:10007000c327000079060000d9130000c327000041
:10008000c3270000c327000025370000c327000056
:10009000c32700000000000000000000c32700008c
:1000a000c3270000c3270000c3270000c3270000a8
:020000040000fa
:1000b000f8b5c046f8bc08bc9e467047ed2f00005e
:1000c000f8b5c046f8bc08bc9e467047c52f000076
:020000040000fa
:0800d000ec1300000100000028
:020000040000fa
:1000d800381100201c0000000000000078100020eb
:1000e80060000000000000009011002001000000e6
:1000f8000000000091110020010000000000000035
:1001080064110020040000000000000068110020b5
:10011800040000000000000092110020010000000f
:10012800000000006c110020040000000100000025
:10013800ffffffff931100200100000000000000f6
:10014800000000202800000000000000941100209a
:1001580001000000000000007011002004000000f1
:10016800000000008c1100200200000001000000c7
:1001780000010000951100200100000000000000af
:10018800961100200100000000000000e40e00208d
:10019800f400000000000000280000200400000017
:1001a800000000002c000020c0000000000000003b
:1001b800971100200100000000000000ec00002062
:1001c8002c00000000000000180100203000000092
:1001d80000000000480100200800000000000000a6
:1001e800d81000203800000000000000d80f0020c0
:1001f800a0000000000000008e1100200200000096
:10020800010000000100000010110020280000007b
:10021800000000007c0d00206801000000000000c4
:10022800500100200c0000000000000054110020c4
:1002380010000000000000007c09002000020000ff
:1002480000000000741100200400000000000000fd
:100258007811002004000000000000007c1100203c
:1002680004000000000000007c0b002000020000d9
:1002780000000000801100200400000000000000c1
:1002880084110020040000000000000088110020f4
:100298000400000000000000981100200100000088
:1002a80000000000600100201c08000000000000a1
:1002b8005c010020020000000000000000000000b7
:1002c800000000002222222222222222222222228e
:020000040000fa
:1002d800f0b5de46574680b585b002900c00039114
:1002e800934601930d9b002b19d001235b420d9a75
:1002f800136002f03dfe8246002810d05b46002bba
:1003080012d0002c10d053461e887500ad196d010f
:10031800634f7f19380001f061fb00280bd105b04d
:100328000cbc92469b46f0bd0c9b002bf7d0019b62
:10033800002be8d1f3e753461b889c465b006344d7
:100348005b01574ad3189c69d86900285ad021788c
:10035800230024330022002909d00132904251d0d1
:100368001c0024331900243909780029f5d1012308
:1003780023700023236263465b0063445b014849a2
:10038800cb18988c00045146097809020143ff20d4
:1003980002400a43e2619b8c01339bb2414a93427b
:1003a8002ed062465200624452013d498a18938415
:1003b800002c27d0019b6360039ba3600123637516
:1003c80000232375029ba36173009b195a01344bc8
:1003d8009b182c331b785bb2013317d0304b9b181a
:1003e8002d331b785bb2013310d053469b69002b29
:1003f8000cd05b465b08e3600c9b5b08236109e05b
:100408000123cee7380001f06ffc88e75b46e36024
:100418000c9b23610d9be2691a602035204b5d1906
:100428003b6a002b10d02b68002b09d01a6a002acf
:1004380005d01b6a002b03d01a6a002af9d11c6266
:10044800380001f051fc6ae73c6202236375200022
:1004580001f048fe73009b195a01114b9b182c336d
:100468001b785bb201330dd073009b195a010c4bfa
:100478009b182d331b785bb2013303d0200000f0aa
:1004880061fcdde723696268e168a0687400a4196b
:100498006401034d2c1964696468a047d0e7c0461d
:0804a80078100020ffff0000a6
:020000040000fa
:1004b00030b585b002f0b2ff041e02d0200005b0b6
:1004c00030bd694c03f0cdfa2378002b02d103f044
:1004d000a1faf7e7013b64490b7003f09bfa01a90d
:1004e000624803f06dfb041e02d10199cb070ed4c4
:1004f00003f0b7fa5c4a13780133137003f08afaf9
:10050000002c00d0ace002f0f7ff0400d6e7012396
:1005100099430191554803f057fb041ee8d101228d
:10052000534b9a70019b9d042d0d02d1022464420d
:10053000dee70023039303a94e4803f041fb041eaa
:10054000d6d14b4b039a5a609d60042202a90398ae
:1005500002f084fa041ecbd102ab5b889d4202d02c
:10056000ed1a042d76dc03f07cfa3f4a1378013350
:10057000137003f04ffa02ab1b78012b15d13c4be3
:10058000db68002b09d03a4bdd68039a083202abd6
:100590005988083989b25878a847354b9b78002b81
:1005a000aed002f08fff0400aae7022b0ed1304b31
:1005b0001b69002bf1d02e4b1d69039a083202ab48
:1005c0005988083989b25878a847e6e7042b14d02f
:1005d000062b21d0072b2ed0052b3ed1244b5b6a56
:1005e000002bdad0224b5d6a039a083202ab59889d
:1005f000083989b25878a847cfe71d4b5b69002bb3
:10060000cbd01b4b5d69039a083202ab598808397d
:1006100089b25878a847c0e7154b1b6a002bbcd09d
:10062000134b1d6a039a083202ab5988083989b204
:100630005878a847b1e70e4b9b69002badd00c4b07
:100640009d69039a083202ab5988083989b25878f3
:10065000a847a2e7062464424ae7062464424fe71b
:1006600002f04aff2ae7c0469311002070100000f4
:080670000000002084100000ce
:020000040000fa
:1006780010b5564b9b7d002b78d0544a5168072300
:100688000b40127e520730d5504a906a50494a6949
:10069800c9688a4229d2002b0cd14d4b5968541c89
:1006a8005c618854494b1b7edb073dd50122474bd3
:1006b8001a7523e0464b5968541c5c61520050522d
:1006c800424b1b7edb072fd50122404b1a75404a4f
:1006d80093699268934255d23d4a1168581c9061bb
:1006e8005b005a5a394b9a6214e0384a127ed20794
:1006f8001ad50121354a1175002be8d1344a93697e
:100708009268934233d2324a1168581c9061ca5c8d
:100718002e4b9a622e4b9a699b689a423dd02c4b7d
:100728005a69db689a4244d0284b1b7e9b0716d532
:10073800284b1b78002b19d0254b5a69db689a4245
:1007480011d1234b00221a77072020490875214927
:100758000a701b6a002b09d01d4a506a98471d4b26
:100768001b78002b02d00222184b9a7510bd184b2b
:100778001b69002b23d0ff21144a9162013b144ac4
:100788001361c7e7124b1b69002b18d012490f4a97
:100798009162013b0e4a1361bce70d4b1b69002bac
:1007a800bdd101220b4b1a70084b1b7e9b07c3d48b
:1007b800d9e7064b01229a7504221a75b4e7044b4f
:1007c8009a699b689a42aad1ebe7c0460018004292
:0c07d800ec00002097110020ffff000043
:020000040000fa
:1007e40070b582b0041e00d1a4e00378022b3bd084
:1007f400dab2022a1cd9032b00d197e0042b00d0d3
:1008040098e04d4d405b4d4ea15b091a083020180d
:1008140001f014f8635b181880b26053a35b834241
:1008240000d087e0200000f055fd0123237081e013
:10083400012b00d07ee001216b46d81d00f0feffa5
:10084400002877d06b4607331b78122b08d0dbb215
:10085400a52b6fd1022323700022374be25269e0ab
:100864005b2003f0abf865e0334d405b0c21091ac3
:100874000830201800f0e2ff635b181880b2605360
:100884000c2857d123000833002b46d025001435fb
:10089400002100e01100187802004a40d2b201336e
:1008a400ab42f7d1884238d1217a254be154e27a20
:1008b4001202a37a1a43234be252e37b1b06a07b6a
:1008c40000040343207b0343607b00020343812035
:1008d40000012350e37c1b06a07c00040343207c1e
:1008e4000343607c000203431748235003290fd0bd
:1008f4000022124be252ac2003f060f80f4be35a93
:10090400002b10d00423237000220b4be25211e081
:100914000a4be252183b9a42edd9012323705a2024
:1009240003f04cf806e00323237003e000f0d2fc4c
:100934000123237002b070bd0808000018080000ed
:0c0944000a0800000c0800001408000065
:020000040000fa
:10095000f0b5de46474680b589b0059088460492da
:10096000514b1b78012b06d00620404209b00cbc2d
:1009700090469b46f0bd00224b4b1a70049b012b06
:1009800006d00a239b468027bf016b46df8176e0b5
:1009900002230493f5e70023af425b4102330b20af
:1009a00004aa94466044102252421343037001216a
:1009b00002f09af901235840404240b2002856d133
:1009c00043469819210002f08ff901235840404214
:1009d00040b200284bd1354b1b78002b12d0a61902
:1009e00036b22d1badb2002d21d02c1cbd4201d939
:1009f0006b46dc89a4b2002ecdd10323bd42ced9f3
:100a00000123cce7022107a802f06ef90123584028
:100a1000404240b20028e2d029e00122224b1a7065
:100a2000a4e70122204b1a70062040429ee71f4b8c
:100a30001c78631e9c410234210007a802f0cef806
:100a4000012343405b425bb2002b10d108ab1b1962
:100a5000053b1b78002b0ad108ab9c466444063c3e
:100a60002078c338431e984140420028d5d002f078
:100a700020fe5b46013bdbb29b46002bd1d000231e
:100a80000093049d2b0000220599c72000f094fae2
:100a90000028ecd1c72001f063fc0028e7d1002238
:100aa00007ab1a800026a0e79611002095110020c0
:020000040000fa
:100ab000f0b5c64600b505000c00002800d193e053
:100ac0000020002904d0494b1b780120012b02d0c3
:100ad00004bc9046f0bd0022444b1a7001f056fb56
:100ae000201880239b0098424ad8414b186826184a
:100af00080239b009e4248d91e1a3e4b9846404494
:100b00003200290002f0b6ffa71ba9193a0040469f
:100b100002f0b0ff364b1f60374b1d78002d3dd1e2
:100b2000354b5f682e007b1c03d078b202f01efcb0
:100b30000600314b9868431c03d040b202f016fc0b
:100b400005002e4b1a68a4181c60002e09d07b1ccf
:100b500007d03b0605d41f231f400123bb40284a72
:100b60001360002d2dd0244b9b685a1c29d01a06e7
:100b700027d41f221a4001239340214a136020e00a
:100b800001221a4b1a700020a2e71a4b18182200f3
:100b9000290002f06fff164b1e60bde75e6875b25c
:100ba000280002f0e3fb154a1368e41814600028db
:100bb00007d0002d05db1f231e400123b340104a40
:100bc0001360104bdb699847002804d00122074bc3
:100bd0001a7001207ce70c4b1b680648c018094bb3
:100be0009b6901219847f1e7002071e798110020e7
:100bf000801100207c0b00202c3800008411002084
:0c0c000000e100e05c36000088110020dc
:020000040000fa
:100c0c0070b5050000294dd000284bd04948007f15
:100c1c00002800d08be0484c666807243440012c37
:100c2c0047d04448056042600024446184610461fb
:100c3c00002d47d08160002a48d03e4ad360012164
:100c4c003c4a11773c4a127e520705d53a4a042495
:100c5c00916a117e2142fbd1374a518b042001430a
:100c6c005183117e802001431176324ad1689268fb
:100c7c00914202d9881a2f4c20612f4840684007b6
:100c8c0033d12c4989698a4224d928782a4a90621e
:100c9c000131284a9161002b44d10122264b9a75cf
:100cac00012045e00020002b42d0002aaed10020cc
:100cbc003ee0002901d0cc073ad4002bb1d0dc07a0
:100ccc00afd535e000201b498860b4e70021194af4
:100cdc00d160b4e7174a1269002adcd0ff2016490c
:100cec008862013a13490a61d5e7520811488260bb
:100cfc000469640804614908c16081698a4208d9a1
:100d0c002a88d205d20d0c4882620131094a9161c0
:100d1c00c1e7002cbfd00949074a9162013c054a42
:100d2c001461b8e70422044b9a75012000e00020fe
:100d3c0070bdc046ec00002000180042ff0100000e
:020000040000fa
:100d4c00f8b5050080694b49040aff231c4062007a
:100d5c00121952018a18184083001b18db00d26844
:100d6c009b181c886200121952018a180021d16349
:100d7c0011642969ea6891423ed360000019400170
:100d8c003c4e30188a1ac2639b69002b3cd166001a
:100d9c0036197301374ef61833002d3300201856d0
:100dac00002101f022fb2c3600203056002101f0ee
:100dbc001cfb2b69002b3cd163001b195b012d4ed6
:100dcc00f61833002d33002018560022002100f0b5
:100ddc00e2ff00233364eb68002b38d063001b194f
:100dec005b01244ce4182c34002020560022802176
:100dfc00c90000f0d0fff8bd6000001940011d4e85
:100e0c003018521a0264bfe780277f00660036193b
:100e1c007301184ef61833002d3300201856390084
:100e2c0001f0e3fa2c3600203056390001f0ddfadf
:100e3c00bfe763001b195a010e4b9b182d33002082
:100e4c00185680221201002100f0a5ffc3e7094ebd
:100e5c0065002b195b01f3182c3300201856002267
:100e6c00002100f098ff2d196d0175190023eb631b
:080e7c00c1e7c0467810002018
:020000040000fa
:100e8400f8b507000e002c23454ad45ce4b2002ccc
:100e94007ed1157dedb2002d7bd100683b005a1e3a
:100ea40093410400621e94411c4072d0002900d179
:100eb4003c4e03019e423ad3010b0005320000234d
:100ec40002f0d6f980235b02181a0021002864d0ae
:100ed400354a13680225ab431360d369002bfcd158
:100ee40080b2314b98817b68022b41d02e4a136823
:100ef40049032e48184080235b04034319431160bf
:100f04005168bb68f8680343294801400b4379687a
:100f14000b435360244ad369002bfcd1224a136843
:100f240002210b431360d369002bfcd131e0c300d1
:100f34009e420ad3410bc0043200002302f098f908
:100f440080235b02181a0221c0e743001b189e424b
:100f540021d3c02292020023002102f027f932009b
:100f6400002302f085f980235b02181a0421ade7ff
:100f74000d4a136849030d48034019431160516831
:100f8400bb68f8680343072081430b435360c1e700
:100f940000242000f8bd2c00fbe72c00f9e7c04634
:100fa40018010020006cdc02001c0042ff1ffff04f
:040fb400f8dfffff64
:020000040000fa
:100fb80070b584b008ac257801ac20703d30c4b25f
:100fc8000c2c5dd8a0003d4c2058874601ab0a0c7c
:100fd8005a700a0a9a70d9700521394b1b78002b70
:100fe80051d00139c9b25de00b0adbb2002d07d13f
:100ff80001aa537001ab99700022da700521ece761
:1010080080225242134301aa5370f3e701abff2237
:101018005a709a70da700521dfe701aa080c50703f
:10102800080a9070d170190c1171190a51719371d5
:101038000821d2e70b0adbb2002d0cd101a84370be
:1010480001ab9970110ed970110c1971110a5971ef
:101058009a710821c1e780204042034301a84370e8
:10106800eee701ab080c5870080a9870d970110e99
:101078001971110c5971110a9971da710921ace7ca
:101088000120404218e04e1e01aa95197f230d4cfd
:101098005b0010784340e35c0132aa42f8d15b0060
:1010a80001aa935501a801f01bfe012358404042b4
:1010b80040b2431e9841404204b070bd6035000004
:0810c80095110020d811000071
:020000040000fa
:1010d00030b5002802d00120404230bd5c233c4a9c
:1010e000d35c012b02d001204042f6e713005c22c2
:1010f00098541b7c5bb2022b06d001215c23344a3e
:10110000d15401204042e8e7314b1b78002bf4d04a
:101110002f4b5b78002b06d001215c232c4ad15445
:1011200001204042d9e72a4b5b68002b08d00b070f
:1011300006d501215c23264ad15401204042cce748
:10114000234b9d68002d3bd0db681c00d8782833ea
:10115000002200280ad00132aa4231d01c00180017
:101160002830db78002b01d00300f4e70123e37083
:101170000b0702d50120164b587015484368013300
:101180004360838c1b04d2b21a436262838c0133a6
:101190009bb2104a934211d00d4a938401205c23e4
:1011a000d05404231943a17000236360a360ff227d
:1011b00022772022a3542380606a8ee70123ebe785
:1011c00001215c23024ad1540120404285e7c046f8
:0811d00078100020ffff000071
:020000040000fa
:1011d8000009121b242d363f48415a536c657e770f
:1011e80019100b023d342f265158434a757c676eff
:1011f800323b2029161f040d7a7368615e574c45ef
:101208002b2239300f061d14636a7178474e555cde
:10121800646d767f4049525b2c253e3708011a13ce
:101228007d746f6659504b42353c272e1118030abe
:10123800565f444d727b60691e170c053a332821ae
:101248004f465d546b627970070e151c232a31389e
:101258004148535a656c777e09001b122d243f368e
:1012680058514a437c756e671019020b343d262f7e
:10127800737a6168575e454c3b3229201f160d046e
:101288006a6378714e475c55222b3039060f141d5e
:10129800252c373e0108131a6d647f7649405b524e
:1012a8003c352e2718110a03747d666f5059424b3e
:1012b800171e050c333a21285f564d447b7269602e
:1012c8000e071c152a233831464f545d626b70791e
:020000040000fa
:1012d800f8b5061e00d16de0394bc25c052a00d96d
:1012e8006ae09300374ad3589f4681231b01c058b0
:1012f80002f05efc030e3372030c7372030ab372be
:10130800f072300008300421fff7cefbf8bd2e4bf9
:10131800c158043bc05802f053fc0120f6e72b4ba0
:10132800c25a0d3b9a4213d905000835802424017e
:1013380081273f0122002900f05901f08bfb00288a
:101348003cd121002800fff7affb0028f2d1dde7f0
:101358000120002adad03400083481231b01f05818
:10136800210001f077fb03000020002bced1174ba2
:10137800f15a2000fff798fbc8e704000834134b24
:10138800c25a0433c058210001f094fb002806d14a
:10139800ac23337201212000fff786fbb6e75a23fe
:1013a8003372f7e7084c005901f008fa33597360b3
:1013b8000120abe70020a9e70120a7e70020a5e767
:1013c8000a08000048390000140800000c08000052
:020000040000fa
:1013d80010b5364b9b7d002b0cd0344b1b7edb07a6
:1013e80009d4324b1b7e5b0728d4304b1b7e5bb283
:1013f800002b4adb10bd2e4b1b7d002bf1d02c4b54
:101408009a685b689a4207d2294a106891684c1c0e
:101418009460415c254a1185254a92689342e0d838
:10142800234b00221a755a600121204a1175db6886
:10143800002bd6d01e4a10699847d2e72c231c4aa5
:10144800d35c002bd1d01300126adb699a42ccd24c
:10145800164b198d164b1a6a501c186298698154dc
:101468001a6adb699a42c0d1114b00222c215a54c6
:10147800da610e4a04211175802111755b6a002b0f
:10148800b3d00b4a906a9847afe7084b5b8b5b0772
:10149800b0d08422054b1a75054b5b6a002b02d02d
:1014a800034a906a984702f027f9a3e7001c004214
:0414b80018010020f7
:020000040000fa
:1014bc00f0b5060085b00f0015001c008b4265d8f6
:1014cc0001d1824262d82100280002f067fa39006b
:1014dc000090300002f062fa009b21001b1a1a00e7
:1014ec002800039302f04efa00900191019bbb423d
:1014fc0046d802d1009bb34242d8009b019c039a70
:10150c0001200021f61aa74102f03cfa039b002ba4
:10151c002fd0019b009adb0754081c43019b5d08ec
:10152c00039b9c46bd422ed801d1b4422bd832002d
:10153c003b00121bab41012692185b410027b618e9
:10154c005f4101235b429c446346002bead1801926
:10155c007941039a04000d003000390002f006fabc
:10156c00039a06000f0002f00dfa241a8d41200098
:10157c0029000a9b002b01d01e605f6005b0f0bdf6
:10158c0000200021c2e7b6197f41dae700200021d4
:02159c00efe777
:020000040000fa
:02159e00704794
:020000040000fa
:1015a000f0b5de4657464e464546e0b587b0019059
:1015b000029200239a4680239b019b466a46d38170
:1015c00089461fe0002c52dd019b53441800414620
:1015d00001f004fb01244440644264b2002c49d170
:1015e000029b002b03d1254b1b78002b2fd0534699
:1015f00043441bb29a464b4642469f1abbb2994699
:10160000002b1cd04f46d94501d96b46df89bbb2b0
:1016100098460a2404abdd1c01260f27012128006f
:1016200001f0dcfa7040404240b200281cd12b7817
:10163000bb43f02bc6d0013c24b2631ceed120008a
:1016400007b03cbc90469946a246ab46f0bd02218d
:1016500005a801f0c3fa012343405b425bb2002bb3
:10166000c5d001246442eae701246442e7e701248b
:101670006442e4e701246442e1e7c046951100209a
:020000040000fa
:10168000f0b5de4657464e464546e0b585b0844641
:10169000324b196b00285ed083689a4600290cd023
:1016a0008b6852460392002290469a454bd3002203
:1016b00000238b460092019306e052468260274b3e
:1016c0001863012038e0cb465e46b668340000253a
:1016d000009a019b12196b41009201935e46b66914
:1016e000b146002e13d04e46b66800210f00009a76
:1016f000019bb6185f41474503d8e4d1039b9e4246
:10170000e1d95946009a019b48464c4602e05946a9
:1017100030003400002918d06446a0618c6100209c
:1017200051468a1a63469a609b69002b04d0624630
:1017300091689a68521a9a6005b03cbc90469946e6
:10174000a246ab46f0bd0c0000220448614601638e
:101750008c610120e4e70020eee7c046d8100020ad
:020000040000fa
:10176000f8b5354c266b63689b6998476061606982
:1017700001f0eaff050002f075f8002e53d02e4c60
:101780002c22a35c0133a354280001f07ffe246bbc
:10179000002c06d0a368002b03d101250027264e7c
:1017a00012e0264e00243700350021e0e06901f008
:1017b00081fde368002b01d020699847346b002c31
:1017c000efd0a368002becd125756575a378002bad
:1017d00002d1e368002be9d1200001f02dfaa378b3
:1017e000002be6d16770e4e701342036052c15d0d4
:1017f0006301fb185b7d002bf6d06301eb18002121
:101800005975b378012befd162010c4b9c466244b1
:10181000736893603000fff733ffe5e706492c2239
:101820008b5c013b8b5402f01cf9040000f00cfcb3
:10183000200002f0eff8f8bdd8100020d80f0020eb
:020000040000fa
:10184000f0b5c64600b505000e0001f06bf8041ea9
:1018500056d0b04200d934002b4b19680e198023a2
:101860009b009e422ad95e1a284b9846414432007a
:10187000280002f0fff8a71ba8193a00414602f021
:10188000f9f8214b1f60224b1b78002b1fd1204bf6
:10189000dd686b1c30d06eb2300001f067fd1d4a70
:1018a00013681b1b136000282ad0002e28db1f237f
:1018b0001d400123ab40184a136021e0134b591817
:1018c0002200280002f0d6f80f4b1e60dbe7104b19
:1018d0005e6875b2280001f049fd0e4a13681b1bb3
:1018e000136000280cd0002d0adb1f231e400123ab
:1018f000b340094a136003e0064a13681b1b1360d8
:10190000200004bc9046f0bd7c1100207c09002022
:0c1910002c3800007811002000e100e0fd
:020000040000fa
:10191c00274b5b689b02fe22d20313400622134323
:10192c00244a936111000422cb681a42fcd0214a4c
:10193c00938c80218b43938411001022cb681a4224
:10194c00fcd01d4b1b689b0e3f2b2ed09b021b4ac1
:10195c0012689205920d1343164a936202239384e4
:10196c0011001022cb681a42fcd0154a154b5a6054
:10197c001a0053785bb2002bfbdb134a114b5a60f5
:10198c001a0053785bb2002bfbdb0e4b0f4a5a80cc
:10199c0013325a8001325a8002325a800c4a0d4b53
:1019ac001a620022034b1a6270471f23cee7c0460f
:1019bc0020608000000800402460800028608000c7
:1019cc0001040100000c004000070100054000006c
:0819dc00c008010000040040f6
:020000040000fa
:1019e40070b504002623c35c0125002b04d15d23bc
:1019f400c35c0025012b01d0280070bd00225d23ab
:101a0400c254866d2c23c356013321d02d23c356d3
:101a140001331dd03578002d06d00420305601f056
:101a2400a3fc5623e054e7e702f019f80500102060
:101a3400305601f099fc5423e0541420305601f040
:101a440093fc5323e054280001f0e2ff0125d3e77f
:101a54003578002d1fd102f002f805007068431c90
:101a640004d040b201f080fc5023e054b068431c21
:101a740004d040b201f078fc5123e054f068431cd8
:101a840004d040b201f070fc5223e054280001f06d
:101a9400bfff0125b0e70420305601f065fc552353
:041aa400e054a9e77a
:020000040000fa
:101aa800f8b504000378002b03d01023c356022b8b
:101ab80000d0f8bd066ab369190aff2529404a0013
:101ac8005218520125498a182b409d00ed18ed0047
:101ad800d368ed181c202856431c0ed01f23034042
:101ae800697f4a424a419a40012199404011c00108
:101af8001b4b9c46604402f01ff86b6ab269934224
:101b080015d0200001f063ff256a002dd1d06b7d30
:101b1800012bced1280000f0e5fa02236b752b6962
:101b28006a68e968a86864696468a047c1e701232e
:101b38003375f769200001f04aff6b68002be3d08a
:101b48002626a35d0133a355aa686b6839000120d6
:101b58009847a35d013ba355d6e7c04678100020ff
:041b680000440041f4
:020000040000fa
:101b6c0010b582b0284b1c68002c04d0264b1c6886
:101b7c00200002b010bd19008020400102f01af8bc
:101b8c00002803d00022204b1a60f1e701a91f485e
:101b9c0002f010f8002803d000221b4b1a60e7e774
:101bac00194b1b681a4a93420ed01a4a934212d010
:101bbc00194a93421cd01449184a0b681a40a023a6
:101bcc00db0213430b60d1e7019b012bf3d00132f5
:101bdc000d4b1a60efe7019b032becd0042b03d0c9
:101bec000f4a094b1a60e6e70132074b1a60e2e72d
:101bfc000549ec20800301f0ddff0028dbd000223a
:101c0c00014b1a60b4e7c04670110020f4130000b9
:101c1c00a0021000b0021000f0001000fffff0ff57
:041c2c00b2021000f0
:020000040000fa
:101c3000f0b583b006000d0001921f0008ab1c78c0
:101c400001f0c2fc002804d101246442200003b04a
:101c5000f0bd234b1b785bb2022b04d001246442fd
:101c600001f0ccfcf2e7002d34d0b54235d31d4b4a
:101c70001b78002b0ed01b4b203301221948a030bb
:101c80001978002908d0013220338342f8d3012487
:101c90006442e5e70022134b0121197000215970bd
:101ca000197559759c705d600199d9601f61ad1bf4
:101cb0009d600d4909880c041204120c1443dc6168
:101cc000013189b2094a914202d0074a1180c7e71f
:101cd0000121fae701246442c2e701246442bfe71c
:101ce000d8100020d80f00208e110020ffff000028
:020000040000fa
:101cf00070b504002623c35c002b00d070bd856d39
:101d00002c23c356013320d02d23c35601331cd0be
:101d10002b78002b06d05623c15c0420285601f0f6
:101d200093fd33e001f09dfe06005423e15c10209a
:101d3000285601f089fd5323e15c1420285601f058
:101d400083fd300001f066fe20e02b78002b21d1ce
:101d500001f087fe06006868431c04d05023e15c54
:101d600040b201f071fda868431c04d05123e15c2e
:101d700040b201f069fde868431c04d05223e15ce5
:101d800040b201f061fd300001f044fe01225d230c
:101d9000e254b3e75523e15c0420285601f054fdda
:021da000f4e766
:020000040000fa
:021da200704788
:020000040000fa
:101da400f0b587b007000d00254b1b78012b02d03e
:101db4000620404242e00022214b1a70ff280ad834
:101dc400204b1e78f3b203930023ff22ba425b41f7
:101dd400deb20a240ee01c4b1e78f3e70122184bf6
:101de4001a700620404229e001f061fc013ce4b293
:101df400002cf3d000960423002239000398fff747
:101e0400d9f80028f0d1039800f0a8fa0028ebd103
:101e14003200042105a8fff7c1fb0028e4d105aa7c
:101e240053781b02917809040b4311780b43d27841
:101e3400120613432b600122014b1a7007b0f0bd48
:0c1e440096110020f63b0000f73b000068
:020000040000fa
:101e500070b50c1e43d0002802d00120404270bd56
:101e6000204d01223423ea540b686b60db689847ed
:101e70000100e8601c4800f099fb0100c82000f058
:101e80003df8023028620423e3562b7200232b61b5
:101e9000164aaa61164aea616b62ab622b632c2276
:101ea000ab546b681b680021124898476b681b692c
:101eb000002b02d00b4a108b98470a4ce06980b285
:101ec00063685b69984763685b689847a022002154
:101ed000094801f019fe022323702000bfe701200a
:101ee0004042bce7d8100020006cdc02ffff00007d
:0c1ef000ff7f000061170000d80f0020e9
:020000040000fa
:101efc00002941d010b4041c4c40a44601230022fc
:101f0c00002900d54942002800d5404288422cd3f4
:101f1c0001242407a14204d2814202d209011b01ef
:101f2c00f8e7e400a14204d2814202d249005b00ee
:101f3c00f8e7884201d3401a1a434c08a04202d356
:101f4c00001b5c0822438c08a04202d3001b9c0897
:101f5c002243cc08a04202d3001bdc0822430028f9
:101f6c0003d01b0901d00909e3e7101c6446002cbf
:101f7c0000d5404210bc704701b5002001f038fe7e
:101f8c0002bdc0460029f7d003b5fff7b3ff0ebc66
:081f9c004243891a1847c046b0
:020000040000fa
:101fa40070b5002802d00120404270bd234b1b783d
:101fb400002b02d001204042f7e7204b01205c2295
:101fc40098545d22985418700c685c618a6a9a610e
:101fd4004a6ada6100221a620d69dd604d699d600a
:101fe4005a6098840238986226201a545a7004223f
:101ff4008a562c201a54052008562d2558558d68cc
:102004001d63cd685d638d695d64cd699d640d6af2
:10201400dd64c96a99652023013b002bfcd1531c64
:1020240006d0431c04d00222044b1a740020bce7df
:10203400e368024902489847f5e7c0467810002053
:04204400a91a0000d5
:020000040000fa
:1020480070b5254b1a6b59691961002a3ad0916805
:10205800224b994230d9204b5c69204b9c46644402
:1020680000261d4d6b689b6998470200002329696b
:10207800002b05d1814203d91948002112184b4180
:1020880015490d6a2800002180185941b14202d82b
:102098001fd1a0421dd9aa180f4bda610e4bdb697c
:1020a8001b0402d101220c4bda610b4bd86980b2b8
:1020b8005b685b69984770bd9468074b5b69e41877
:1020c8000026cee7044b5c69044b9c46644400261a
:1020d800c7e7014bdc61e1e7d8100020ff7f000073
:0420e800ffff0000f6
:020000040000fa
:1020ec00f0b5c64600b5050082692349100aff24e5
:1020fc00204043001b185b01cb18200010408400cb
:10210c002418e400db68e418268873009b195b0133
:10211c00cb189b6a9a4229d020000c30164b98465b
:10212c007700bb195b0143445b691b68002198472e
:10213c00ab69bf197f014744bb6200222023e254e4
:10214c001c202056431c0ed01f230340627f511ebf
:10215c008a419a40012199404011c001074b9c468d
:10216c00604401f0e7fc04bc9046f0bd2023e35c26
:10217c00002be5d0d0e7c046781000200044004189
:020000040000fa
:10218c0070b5244b1c78002c23d1224b5e682500a3
:10219c00731c03d070b201f0e3f805001d4b986876
:1021ac00431c28d040b201f0dbf804001a4b18682d
:1021bc00002d24d1002c1dd0164b9b685a1c19d015
:1021cc001a0617d41f221a4001239340134a136096
:1021dc0010e05d686cb2200001f0c2f8031e0e4adc
:1021ec00106807d0002c05db1f231d400123ab40da
:1021fc000a4a136070bd084b1868002dfad0731c86
:10220c00d8d03306d6d41f231e400123b340034a33
:10221c001360cfe72c3800008411002000e100e0af
:020000040000fa
:10222c00f0b5c64600b584b007000391204b1b786f
:10223c00012b06d006256d42280004b004bc904644
:10224c00f0bd00221a4b1a7030280dd8194b1e788d
:10225c00f3b2029300233022ba425b41deb20a246d
:10226c00a0235b01984608e0134b1e78f0e701f0c1
:10227c001afa013ce4b2002c13d000960423039a02
:10228c0039000298fef792fe051ef0d1474504d0a6
:10229c00029800f05ff80028e9d10122044b1a7073
:1022ac00cae70122024b1a7006256d42c4e7c046ec
:0c22bc0096110020f83b0000f93b0000e8
:020000040000fa
:1022c800f0b587b002900391150005ab00221a7093
:1022d8005a70204b1b78012b03d00620404207b0d0
:1022e800f0bd1c4b1a70012d03d00f000a260024e4
:1022f80008e005af0225f9e701f0d7f9013ef6b28b
:10230800002e21d000942b0022000299c820fef74d
:102318004ffe0028f0d1c82000f01ef80028ebd1ad
:10232800220029003800fff737f9431e9841404240
:102338000028e1d10122074b1a7005ab9f42ced18c
:102348001b78039a1370cae70122024b1a70062001
:082358004042c4e79611002089
:020000040000fa
:10236000f0b583b00600cf2815d00a256b46dc1dda
:1023700001270121200000f031fc7840404240b2aa
:1023800000282fd12378b34213d0013d6db26b1cce
:10239000efd1013824e001216b46d81d00f01efc6e
:1023a000012343405b425bb2002bded00120404260
:1023b00016e0002d19db0a256b46dc1d01260121e4
:1023c000200000f00bfc704043425bb2002b0fd1a9
:1023d0002378002b03d0013d6db26b1cefd1e817c1
:1023e00003b0f0bd01204042fae701204042f7e788
:0623f00001204042f4e769
:020000040000fa
:0223f60070472e
:020000040000fa
:1023f80030b583b000230093204a13706946204803
:10240800fff7ccfc002827d11c4b1b78002b0dd1e3
:102418007c23009999435023194300911848fff7ea
:1024280001ff002824d10122144b1a7001a9802031
:102438004001fff7b3fc041e1dd1114d280001f027
:1024480047fb702301009943502001432800fff700
:10245800e9fe200003b030bd0122084b1a7069461e
:102468000748fff79bfc0028ced006246442f0e71b
:1024780006246442ede706246442eae79511002049
:0424880024e8000044
:020000040000fa
:10248c0010b504004378002b07d0022b17d05bb299
:10249c00013301d0ff23437010bd01234370f1229f
:1024ac00835400f0c3fc01f001fa002802d0ff2392
:1024bc006370f1e70123237002236370ece7f123cf
:1024cc00c35c012be8d10022f123c254c378002b4a
:1024dc0003d10122f123e254dee701f0bcfaf02330
:1024ec00e35c002b11d0013bf022a35401f08cfad9
:1024fc0001f054fb0028ecd001f0adfaf022a35c03
:10250c000133a35401f080fae3e701f07dfae0e730
:020000040000fa
:10251c00204a214b70b50021934203d2197001332c
:10252c009342fbd1002503261c4803684168002b0d
:10253c0018d100292dd083680c30002b18d0002323
:10254c000022845c9c5401328a42fad333000b4043
:10255c005a1e93418908591889004018036841682c
:10256c00002be6d082680c30002a07d10029dcd081
:10257c0059181d7001338b42fbd1d6e70029dfd1ee
:10258c0033000b405a1e9341890859188900401892
:10259c00e4e770bd6001002000000020d8000000be
:020000040000fa
:1025ac00002934d00123002210b488422cd30124fa
:1025bc002407a14204d2814202d209011b01f8e78f
:1025cc00e400a14204d2814202d249005b00f8e748
:1025dc00884201d3401a1a434c08a04202d3001b74
:1025ec005c0822438c08a04202d3001b9c082243a7
:1025fc00cc08a04202d3001bdc082243002803d0e5
:10260c001b0901d00909e3e7101c10bc704701b588
:10261c00002001f0edfa02bd0029f8d003b5fff758
:0c262c00c1ff0ebc4243891a1847c0468b
:020000040000fa
:1026380070b50400081e00d11c481d4a1368022109
:102648008b431360d369002bfcd1002c2cd023685a
:102658005900fff7a7ff831e0021fe2b1ad8144b41
:102668001a6814490a401a601968a26865682a43fa
:102678000a431a600138c0b218735a6807218a439e
:102688005a605a68e1680a435a601a00d369002bf5
:10269800fcd10121064a1368022003431360d36961
:1026a800002bfcd1080070bd0021f3e7006cdc02b0
:0826b80000180042ffffffcff4
:020000040000fa
:1026c00010b51d4a137801210b43137053785bb288
:1026d000002bfbdb1849194b8b610023cb610423d2
:1026e000cb60174b10221a721a75022420201c543a
:1026f0002c201a5438201a5444201a5450201a54aa
:102700005c201a5468201a5474201a5480201a54d9
:102710008c201a5498201a54a4201a54b0201a5409
:10272000bc201a540b78022213430b700a00537812
:102730005bb2002bfbdb10bd001800400002020062
:042740002c00002049
:020000040000fa
:1027440070b582b000230193009301a90b2001f01e
:1027540035fa041e25d10199cb0706d40123194368
:102764000b2001f02ffa041e1bd101a9012001f056
:1027740025fa041e15d101998b0715d505250426c4
:1027840069460f2001f01afa041e0ad1009b334255
:1027940012d1022001f002fa013d002df0d10424ef
:1027a4006442200002b070bd02231943012001f0ed
:0e27b40009fa041ee2d0f4e701f0f8f9f1e7ab
:020000040000fa
:0227c200fee730
:020000040000fa
:1027c400f8b50500164b1b68834209d0154b1b78de
:1027d400012b06d0144b1b689847280000f02ef8f4
:1027e400f8bd00220f4b1a700f4bdc690f4e104fcf
:1027f400a0470028fcd13368002b07d00d4b186884
:102804003818094b9b6901219847f1e70a490222cc
:102814000b7e1342fcd00122024b1a70dae7c04649
:1028240054110020981100205c360000841100200f
:0c2834007c0b002088110020001c0042da
:020000040000fa
:1028400070b5124b186000249c6002225a60dc6054
:102850000f4d00211800ab6a984700210d486b69a5
:10286000984700210c486b6898470c4b1c600c4b38
:102870001c600c4b1c600c4b1c600c4b1c600c4b0c
:102880001c60ab6801210b48984770bd54110020b3
:102890005c360000d92e00006d3100008011002050
:1028a0008811002084110020741100207c11002068
:0828b000781100207c090020d2
:020000040000fa
:1028b80070b582b000230193164d01a9280001f0dc
:1028c8007bf904000121019b19430191280001f0c3
:1028d80077f90419e4b201a9a020400101f06cf9cc
:1028e8002418e4b201994b0502d460b202b070bd5d
:1028f800094b19400191a0267601300001f060f9da
:10290800050001a9300001f057f92818201840b235
:0c291800ece7c04618110000fffbffffb9
:020000040000fa
:1029240070b5174b1b78002b14d1154bdc68631c56
:1029340023d065b2280000f017fd031e114a106869
:102944001dd0002d1bdb1f231c400123a3400e4a76
:10295400136014e00a4b5d686cb2200000f004fdc3
:10296400031e084a10680ad0002c08db1f231d40f0
:102974000123ab40044a136001e0024b186870bda8
:0c2984002c3800007811002000e100e079
:020000040000fa
:1029900010b5bff35f8f62b6144bc12189005a583e
:1029a000ff208243c02002435a5010221a60c320e5
:1029b00080001a580e491140c02212020a431a50d0
:1029c000802292011a601a580a4c2240c021090440
:1029d0000a431a508022d2011a6004301a58224049
:1029e000114319508022d2021a6010bd00e100e0ac
:0829f000ff00ffffffff00ffe5
:020000040000fa
:1029f80010b50622134b5a6000f042fafef78aff20
:102a080001f094f8fef7c7fd00f0bef900f08cfc69
:102a1800fff752fe00f0eafb0021002000f0e6fe7e
:102a2800094c206009490020fff7b8fa606008499e
:102a38000020fff709faa06000f0fcfffff7a4fff1
:102a480010bdc04600400041500100202c36000057
:042a5800e83b000057
:020000040000fa
:102a5c00f0b5d6464f4680b583b0060089461500c2
:102a6c00124b1b88083b9bb201931f0004001a1adf
:102a7c0092469d4217d9a11b4944019a2000fff7a9
:102a8c001dfc00280ad1ed1b53461919e419bd424f
:102a9c00f1d8aab249442000fff710fc03b00cbcdb
:102aac0091469a46f0bd0021f3e7c0468c110020f8
:020000040000fa
:102abc00f0b5d6464f4680b583b006008946150062
:102acc00124b1b88083b9bb201931f0004001a1a7f
:102adc0092469d4217d9a11b4944019a2000fdf74b
:102aec0031ff00280ad1ed1b53461919e419bd42d8
:102afc00f1d8aab249442000fdf724ff03b00cbc66
:102b0c0091469a46f0bd0021f3e7c0468c11002097
:020000040000fa
:102b1c0070b5040000f052fd012500281dd02000e6
:102b2c0000f082fb041e1ed043780025002b12d12e
:102b3c008368002b01d1436883602c230b4ad35c40
:102b4c00002b0cd1200000f0e9fa002323756375eb
:102b5c0001236370002500f04bfd280070bd2000a0
:102b6c00fef788fdf1e70125f5e7c046d8100020f7
:020000040000fa
:102b7c0010b582b0012401a9102001f01bf8002827
:102b8c001cd1019b2342f6d101a9012001f012f8be
:102b9c00002813d101998b0707d502239943019182
:102bac00012001f00bf8002808d101a90b2001f03d
:102bbc0001f8002802d10199cb0701d402b010bd55
:0e2bcc000123994301910b2000f0f8fff6e77a
:020000040000fa
:022bda00fee714
:020000040000fa
:102bdc0010b582b003000120002901d102b010bd54
:102bec000e4a10680e4c0194009101220d49fdf71c
:102bfc006dfb236801330fd00b4c00f02cff2378b6
:102c0c00002b02d100f000fff7e7013b06490b70e7
:102c1c0000f0fafe0120e1e70020dfe76c11002054
:0c2c2c0064110020901100209111002084
:020000040000fa
:102c380010b5144b1a6b002a1fd0824202d1002211
:102c480005e01a009369002b19d09842f9d18369dd
:102c5800002b03d081689c6809199960002a06d066
:102c680083699361002300228261180010bd054b1f
:102c78001a6b92691a630123f5e70023f5e700232d
:082c8800f3e7c046d81000205c
:020000040000fa
:102c900010b50e4b002b00d098470d4b002b00d0e9
:102ca0009847fff73bfc0b4aff210b4b8b4393608c
:102cb0000a4b98470a4b002b00d09847094b002b32
:102cc00000d0984700f028fffee7c0460000000053
:102cd0000000000000ed00e0000000009d3000005a
:082ce0000000000000000000ec
:020000040000fa
:102ce80070b50123002901d1180070bd0e4c0f4b9f
:102cf8001d6823000a000100280000f0a5fe2368d3
:102d080001330fd00a4c00f0a8fe2378002b02d123
:102d180000f07cfef7e7013b05490b7000f076fefa
:102d28000123e1e70023dfe7681100206c11002090
:042d380092110020d4
:020000040000fa
:102d3c0000b583b00023019301a9114800f03affbc
:102d4c00002801d003b000bd80214900019b19432c
:102d5c0001910b4800f032ff0028f3d101a9d020db
:102d6c00400100f027ff0028ecd180214902019b93
:102d7c0019430191d020400100f020ffe2e7c0464a
:042d8c000814000027
:020000040000fa
:102d9000104b114a1a60114a9a81c02292025a605d
:102da0001a00d369002bfcd10a4a136802210b4395
:102db0001360d369002bfcd1094b00229a61da61c0
:102dc0001a622c215a545a621a605a609a601a7513
:102dd000da607047001c0042040110402bf6ffff30
:042de00018010020b6
:020000040000fa
:102de40010b582b002000c1e1fd00123002802d1ae
:102df400180002b010bd0e4bd8680023002100f06b
:102e0400d5f9fa229200002300f032fa01000023df
:102e1400009300220020fef709ff20600123421cda
:102e2400e6d0fff779fe0023e2e70123e0e7c0469e
:042e3400d810002092
:020000040000fa
:102e380010b500f012fe00240d4b1c7000f0e6fdea
:102e480000f00bfe0b4b1c7000f0e0fd0a4b1b68fa
:102e5800013306d0084b18680022084900f0befa72
:102e680010bd03210020fef72ff9034b1860f1e78e
:102e780092110020911100206c110020f532000001
:020000040000fa
:102e880010b5124b802212031a6001224c215a54a9
:102e98004d215a544e215a544f215a5452215a54b2
:102ea80002205321585433213620195437201954fd
:102eb800c02000018024185190241851c2201a54af
:102ec800c3201a54b122995410bdc0460044004191
:020000040000fa
:102ed80010b50f4a1368013313600e490a68013aa6
:102ee8000a6080229200934204d00a4b1b68002b90
:102ef80004d110bd0022064b1a60f6e7044b1b688c
:102f08000548c018054b9b6901219847f1e7c04661
:102f180088110020841100207c0b00205c36000002
:020000040000fa
:102f280010b5104b1b78012b08d0002b02d0022bb8
:102f380013d010bd01220b4b1a70fae70a4b186820
:102f480000f052fe0228f4d1e1214902074800f0be
:102f580003fd0222034b1a70ebe70448fdf73efc21
:102f6800e7e7c0465c010020500100206001002016
:020000040000fa
:102f78000100431e033317d803041b0e16d1ff228a
:102f880002400d4b9b689a4212d293009b18db00bb
:102f9800094ad0681818436a99420bd1c3785a1e57
:102fa80093415b42184070470020fce70020fae795
:0c2fb8000020f8e70020f6e77810002069
:020000040000fa
:102fc40010b5064c2378002b07d1054b002b02d0fb
:102fd400044800e000bf0123237010bd3811002015
:102fe4000000000000000000044b10b5002b03d0cb
:102ff4000349044800e000bf10bdc04600000000c3
:083004003c1100200000000057
:020000040000fa
:10300c00f0b5c64600b50e4d00240e4f0123984670
:10301c0004e03e6101340c35102c0ed02a7ae3b258
:10302c009a42f7d13b694646a6401e42f2d02b6825
:10303c00002beed068689847ebe704bc9046f0bdd7
:08304c002c00002000180040d8
:020000040000fa
:1030540000281bd00e4b1a7d0023002a14d10c4be0
:10306400186059609a6001221a750a4b1b7edb07af
:1030740006d5074a9368591c9160c25c054b1a85b2
:103084000122044b9a750123180070470023fbe7c3
:0830940018010020001c00429d
:020000040000fa
:10309c0070b500260c4d0d4c641ba410a64209d132
:1030ac000026fcf7ffff0a4d0a4c641ba410a64235
:1030bc0005d170bdb300eb5898470136eee7b3006d
:1030cc00eb5898470136f2e7bc000000bc0000004a
:0830dc00bc000000c000000070
:020000040000fa
:1030e40070b504000d00002816d000f08ffb2c23cf
:1030f4000a4ad35c0020002b0dd113009461d561e2
:1031040000221a6201212c229954054b80229a75bf
:1031140004229a75012070bd0020fce718010020ec
:04312400001c004249
:020000040000fa
:1031280070b505000e4c63689b69984760616069db
:1031380000f006fb040000f0a5f9200000f08efb6b
:103148002800fef799fa002800d170bd00f085fc30
:103158000400fef775ff200000f058fcf5e7c046b4
:04316800d81000205b
:020000040000fa
:10316c0010b50c4a1368013313600b490a6801321d
:10317c000a6080229200934208d0064b1b680748d5
:10318c00c018074b9b680121984710bd0022014bca
:10319c001a60f2e774110020781100207c090020dd
:0431ac005c3600008d
:020000040000fa
:1031b000f7b5050c019393b21f006b439c46140caa
:1031c00086b277436643654366443c0ca419a34228
:1031d00002d980235b02ed18260cbfb2019b2404a8
:1031e000e41943432000514375195918491903b094
:0231f000f0bd30
:020000040000fa
:0231f200fee7f6
:020000040000fa
:1031f40001220c4b1a801a00d37b5bb2002bfbdb41
:10320400084b60221a80084a1a833b229a730021d1
:10321400064a116020225a731a00d37b5bb2002b3a
:10322400fbdb7047002c004280bbffff48010020fd
:020000040000fa
:10323400431e033311d803041b0c042b0fd859016c
:103244000a4a5218d26990420bd10a000749525ccb
:10325400002a08d05b01c81870470020fce7002052
:10326400fae70020f8e70020f6e7c046d80f002070
:020000040000fa
:10327400002b11d1002a0fd1002900d1002802d03f
:103284000021c943081c07b4024802a14018029057
:1032940003bdc0466509000003b4684601b5029841
:1032a400fef70af9019b9e4602b00cbc7047c0466b
:020000040000fa
:1032b40070b5050000f086f9012400280ed028001e
:1032c400fff7b6ff041e10d04378002b08d100236b
:1032d400237563752370002400f08ef9200070bdff
:0e32e400fff7a8fc00236370f1e70124f4e774
:020000040000fa
:1032f400012807d1094b1b688b4204d0084b1b687b
:10330400994205d07047074a137801331370f9e7df
:10331400054a137801331370f4e7c046681100209e
:0c33240064110020921100209111002083
:020000040000fa
:103330000b4b00221a621a779a60da608822920296
:10334000084b5a601a00d369002bfcd1054b172299
:103350001a73054a1a601a00d369002bfcd1704712
:0c336000ec000020001800420e003000bd
:020000040000fa
:10336c0070b5050000f077fb002d13db0a490a68e5
:10337c001f232b40da400124144001229a401300f1
:10338c0080228b50bff34f8fbff36f8f00f03cfb4d
:0c339c00200070bd0024f9e700e100e013
:020000040000fa
:1033a8001c2101231b04984201d3000c10391b0a6d
:1033b800984201d3000a08391b09984201d3000931
:1033c800043902a2105c40187047c0460403020288
:0c33d800010101010000000000000000e5
:020000040000fa
:1033e400f8b50d001400fff7c5fd071e0ad00288ca
:1033f40053009b185b01074ef6183000fef7f0faf5
:10340400002800d1f8bd7d60bc603000fef76efc82
:08341400f8e7c0467810002023
:020000040000fa
:10341c0010b50c4b9b780020002b0dd1094b5b7821
:10342c00002b03d1074b1b78002b06d1054a537890
:10343c000133dbb25370002010bdfff77df900287b
:08344c00f4d0f9e700000020b4
:020000040000fa
:1034540010b582b00b4b1b78012b02d006204042e2
:103464000ee0084c00232370009300220021cf209b
:10347400fdf7a0fdcf20fef771ff0123237000208c
:0834840002b010bd96110020fa
:020000040000fa
:10348c000c4b1b6b002b11d000280fd0002107e038
:10349c009a68801a99609b69002b07d0002805d088
:1034ac009a688242f4d39a68101a9860014b5a6950
:0834bc001a617047d8100020ce
:020000040000fa
:1034c40000b583b00022094b9a7001a9084800f0a6
:1034d40075fb002801d003b000bd0221019b1943f4
:1034e4000191034800f06efbf5e7c04600000020a0
:0434f4007010000054
:020000040000fa
:1034f80010b50b4b5b78002b04d0094a5378013b7d
:10350800dbb25370064b5b780020002b03d1044bd1
:103518001b78002b00d110bdfff72cfbfbe7c04642
:04352800000000207f
:020000040000fa
:10352c0010b5002000f0cafa041e01d0200010bd16
:10353c0000f0f4fafef714fb000d032801d0fff79e
:10354c00b5f9fef753ff0021014800f037fbede71a
:04355c000003020066
:020000040000fa
:103560003c100000f00f00008810000088100000e0
:1035700022100000221000006a100000d40f00008a
:1035800088100000881000008810000088100000db
:043590001410000013
:020000040000fa
:103594000a4b9b68002b04d1084bdb680020002bee
:1035a4000ad0064b187f002806d1054b187e400828
:1035b40001234340012018407047c046ec0000201e
:0435c40000180042a9
:020000040000fa
:1035c80010b52c230a4ad35c0120002b04d13423e4
:1035d800d35c0020012b00d010bd13000021342241
:1035e800995408201856fff7bdfe0120f4e7c0469d
:0435f800d8100020c7
:020000040000fa
:1035fc00094b1b7a5bb2002b05db1f221a400123ff
:10360c009340064a13602c23034ad35c002b02d14f
:10361c0001213423d1547047d810002000e100e080
:020000040000fa
:10362c00f83a0000ffff000000000000000000005e
:10363c0010110020010000006c370000e03b00007e
:10364c00d83b00000a0000007c0d00201839000057
:020000040000fa
:10365c00912d0000893b0000e5300000e93a0000a4
:10366c007d3b0000713b000055300000593b0000d1
:0c367c00653b000011380000850e0000c6
:020000040000fa
:1036880070b50500fff79cff041e0ad02800fff75d
:10369800cdfd002807d0047de4b200230375fff7b1
:0a36a800a9ff200070bd0024f9e71f
:020000040000fa
:1036b20000b583b0012000f072fa002300930022cb
:1036c2000021cf20fdf777fccf20fef748fe012036
:0836d20000f065fa03b000bd31
:020000040000fa
:1036da0010b500f0ecf900f0d2f9642000f053f8cc
:1036ea0000f0ddf90a2000f04ef800f0d0f90a20c7
:0636fa0000f049f810bdcc
:020000040000fa
:10370000074b80221a7607225a831b7e5b0705d55a
:10371000034b04211a8d1a7e0a42fbd17047c04622
:04372000001c004247
:020000040000fa
:1037240010b5064b987bc0b23b229a73044b1b68be
:10373400002b02d0024a5168984710bd002c004269
:043744004801002018
:020000040000fa
:10374800074b1b69834207d3054b1b69c01a8023ab
:103758005b029c4660447047014b1b69c01afae73c
:04376800d810002055
:020000040000fa
:10376c000000000001000000ffffffffffffffff54
:10377c00ffffffffffffffffffffffffffffffff4d
:04378c00ffffffff3d
:020000040000fa
:1037900000b583b001235b42019301a9fff722fb2f
:1037a000002804d1019800f0abf80028fad003b04b
:0237b00000bd5a
:020000040000fa
:1037b40010b5fff7b9fe041e01d0200010bdfff7bd
:1037c400bbfa0122014b1a70f7e7c046941100209e
:020000040000fa
:1037d400054a064b5a801a00d37b5bb2002bfbdbf5
:1037e400024b188a80b270471080ffff002c004201
:020000040000fa
:1037f400044800230370c370437083708364024ad7
:0c38040013607047e40e00202800002034
:020000040000fa
:1038100010b5054b5c8b07231c4001d1200010bd67
:0c382000fff76efffae7c046001c0042f4
:020000040000fa
:10382c00010000000e00000000000000000000007d
:0c383c0000000000000000000000000080
:020000040000fa
:10384800002907d0002805db1f23184001238340e7
:0c385800014a13607047c04600e100e028
:020000040000fa
:10386400054a536ac0185062834200d87047936a6d
:0c38740001339362fae7c046d810002030
:020000040000fa
:10388000953b0000d1380000e9380000d13b000032
:0c389000ed390000013a0000d5370000bf
:020000040000fa
:10389c0010b500f043f9002000f010f9041e01d01f
:0a38ac00200010bdfef7a2fdfae7b0
:020000040000fa
:1038b80010b5fff7efff002802d10122014b1a7063
:0838c80010bdc0469411002060
:020000040000fa
:1038d000044a138802210b431380d37b5bb2002b75
:0838e000fbdb7047002c0042e5
:020000040000fa
:1038e800044a138802218b431380d37b5bb2002bdd
:0838f800fbdb7047002c0042cd
:020000040000fa
:1039000070b50500fff7c0fe041e01d1200070bd98
:083910002800fff7cffcf9e7e6
:020000040000fa
:10391800010000000d000000000000000000000091
:08392800000000000000000097
:020000040000fa
:1039300010b50122034b1a70e1204002fef780ff10
:0839400010bdc04698110020e3
:020000040000fa
:10394800f212000016130000261300008213000074
:08395800c0130000ac130000d5
:020000040000fa
:1039600010b5002807d00123037041600800fef75e
:0839700029fffff71fff10bd46
:020000040000fa
:10397800d0400b1cd1409c46203ad34018435242b9
:1039880063469340184370479140031c90409c46ff
:10399800203a9340194352426346d3401943704733
:1039a80010b5002903d1fff7fbfc203002e0081c0a
:0839b800fff7f6fc10bdc0464c
:020000040000fa
:1039c00000b583b06b46d871073301211800fdf7ad
:0639d0006ff803b000bd1a
:020000040000fa
:1039d600036a002b05d01a6a026200225a751a621f
:0439e6001a7070479c
:020000040000fa
:1039ec00034b18831a00d37b5bb2002bfbdb7047b5
:0439fc00002c004259
:020000040000fa
:103a0000034b58831a00d37b5bb2002bfbdb704760
:043a1000002c004244
:020000040000fa
:103a1400002803d172b6bff35f8f7047bff35f8f87
:043a240062b6fae7a5
:020000040000fa
:103a280010b5034b1868fef72dfdfff779fa10bda6
:043a38005001002019
:020000040000fa
:103a3c0010b50022024b1a70fff774ff10bdc04680
:043a4c005c010020f9
:020000040000fa
:103a500000b583b0019300230093fcf73dfc03b055
:023a600000bda7
:020000040000fa
:103a6200eff3108072b6bff35f8f43425841c0b28a
:023a720070479b
:020000040000fa
:103a7400002310b59a4200d110bdcc5cc45401336c
:023a8400f8e761
:020000040000fa
:103a88008021c9009423014ad15070470044004165
:020000040000fa
:103a98008021c9009823014ad15070470044004151
:020000040000fa
:103aa800802109019823014ad15070470044004100
:020000040000fa
:103ab800802109019423014ad150704700440041f4
:020000040000fa
:103ac80010b5fff706fe012000f066f8002010bdd3
:020000040000fa
:103ad80000b583b001a9fef761f9019803b000bdf4
:020000040000fa
:103ae8002c23024ad05cc0b27047c046180100209f
:020000040000fa
:103af800392600000d0c0000953500004d3b0000f4
:020000040000fa
:103b080003008218934200d1704719700133f9e716
:020000040000fa
:0e3b180010b50020fef76cfffff782fffce700
:020000040000fa
:0c3b28000122014b1a707047961100201a
:020000040000fa
:0c3b34008222014b5a60704700400041a3
:020000040000fa
:0c3b400003695a40114059400161704770
:020000040000fa
:0c3b4c00014b186259627047ec00002029
:020000040000fa
:0c3b5800014b187dc0b27047180100201e
:020000040000fa
:0c3b6400014b98687047c0461801002013
:020000040000fa
:0c3b7000014bd86019617047180100205b
:020000040000fa
:0c3b7c00014b186a7047c0461801002079
:020000040000fa
:0c3b8800014b5862996270471801002040
:020000040000fa
:0c3b9400014b1860596070474801002088
:020000040000fa
:083ba00010b5fff7f5fd10bda3
:020000040000fa
:083ba80010b5fcf781fc10bd13
:020000040000fa
:083bb00010b5fff74ffc10bd3a
:020000040000fa
:083bb80010b5fff78dff10bdf1
:020000040000fa
:083bc00010b5fef7eff810bd8f
:020000040000fa
:083bc80010b5fef72ffb10bd44
:020000040000fa
:083bd00000487047006cdc02a4
:020000040000fa
:083bd8000000001000000000d5
:020000040000fa
:083be0000000000000000020bd
:020000040000fa
:083be80080380000120000000b
:020000040000fa
:063bf000407840b270476e
:020000040000fa
:043bf600c4cac3c9b1
:020000040000fa
:043bfc007047c04608
:020000040000fa
:0200000400807a
:0440000077c700d8a6
:020000040000fa
:0200000400807a
:044004005c00ffff5e
:00000001FF
