:020000040000fa
:10000000f87f002005bd0200470603004d060300ef
:1000100000000000000000000000000000000000e0
:100020000000000000000000000000005f970000da
:1000300000000000000000005f9700005f970000d4
:100040005f9700005f9700005f9700005f970000d8
:10005000255702005f970000d93a02005f97000021
:100060005f9700005f9700005f9700005f970000b8
:10007000756401003da20100499a02005f970000eb
:100080005f9700005f97000015da02005f9700009d
:100090005f97000000000000000000005f97000074
:1000a0005f9700005f9700005f9700005f97000078
:020000040000fa
:1000b000f8b5c046f8bc08bc9e467047e9cc0200c3
:1000c000f8b5c046f8bc08bc9e467047c1cc0200db
:020000040000fa
:0800d000c6250200010000003a
:020000040000fa
:1000d80082b0b0b5e24ca54404af7861e148cc24c5
:1000e800a400a446bc446044016042600422d021bc
:1000f80089008c46bc44624413607b69002b03d1a1
:100108002ff072ff03009847d74bcc2292009446f9
:10011800bc4463447a6903ca03c30123c72292001b
:10012800ba181360d14bfb1800221a70c7239b0022
:10013800fb181b68002b01da0023e2e0cc4bcc2231
:100148009200ba18d218c84bcc2189008c46bc44fe
:1001580063441000190008231a0030f09ef8c44bbd
:10016800cc2292009446bc4463441b68c52292008a
:10017800ba181360bf4bcc229200ba18d218ba4be7
:10018800cc2189008c46bc44634410001900082324
:100198001a0030f082f8b74bcc2292009446bc4447
:1001a80063445b68c4229200ba181360b24bfb1810
:1001b80000221a70b14bcc2292009446bc4463448e
:1001c800180008231a00002130f0baf8ac4bcc22f2
:1001d8009200ba18d118a94bcc229200ba18d2189a
:1001e8000b0003ca03c3a64bcc2292009446bc441e
:1001f80063441b68c2229200ba1813609b4bfb1819
:100208001b78002b22d0c5239b00fb181b68002bf2
:1002180009d0c5239b00fb181a68c2239b00fb1852
:100228001b689a4207d1c4239b00fb181b685a42db
:100238005341dbb206e0c4239b00fb181b68db4379
:10024800db0fdbb28c4aba1813701fe0c5239b0082
:10025800fb181b68002b11d0c5239b00fb181a68dc
:10026800c2239b00fb181b689a4207d0c4239b003b
:10027800fb181b68002b01db012200e000227e4beb
:10028800fb181a701a7801210a401a7001235b4280
:10029800c1229200ba181360774bfb181b78002b09
:1002a80011d0c1239b00fb181a68c5239b00fb18bb
:1002b8001b68d31a1a00c4239b00fb181b689a42b8
:1002c80001d3012200e000226b4bfb181a701a7848
:1002d80001210a401a70684bfb181b78002b0bd0c1
:1002e800c7239b00fb181a68c4239b00fb181b68d4
:1002f8009a4201dc012300e000231a1c0123134069
:10030800dbb201225340dbb2002b03d02ff06cfe8e
:10031800030098475b4bcc229200ba18d118514b76
:10032800cc229200ba18d2180b0003ca03c30023c8
:10033800c0229200ba181360534bfb1800221a709f
:10034800c0239b00fb181b68002b01da002302e185
:100358004e4bcc229200ba18d2184a4bcc218900b5
:100368008c46bc4463441000190008231a002ff07f
:1003780094ff464bcc2292009446bc4463441b68cd
:10038800be229200ba181360414bcc229200ba18d0
:10039800d2183c4bcc2189008c46bc4463441000e5
:1003a800190008231a002ff078ff394bcc2292004d
:1003b8009446bc4463445b68bd229200ba1813603b
:1003c800344bfb1800221a70334bcc22920094460f
:1003d800bc446344180008231a0000212ff0b0ff22
:1003e8002e4bcc229200ba18d1182b4bcc2292005b
:1003f800ba18d2180b0003ca03c3284bcc229200a8
:100408009446bc4463441b68bb229200ba1813602c
:100418001d4bfb181b78002b42d0be239b00fb18fa
:100428001b68002b09d0be239b00fb181a68bb234e
:100438009b00fb181b689a4207d1bd239b00fb1841
:100448001b685a425341dbb206e0bd239b00fb18f0
:100458001b68db43db0fdbb20e4aba1813703fe0b0
:10046800c0fcffffdcfcffff98fdffff1b03000043
:1004780090fdffff88fdffff0f0300002cfeffff2c
:1004880080fdffffb8fdffffff020000b0fdffff8a
:10049800a8fdfffff302000034feffffa0fdfffff1
:1004a800be239b00fb181b68002b11d0be239b00aa
:1004b800fb181a68bb239b00fb181b689a4207d0dd
:1004c800bd239b00fb181b68002b01db012200e009
:1004d8000022cc4bfb181a701a7801210a401a70b6
:1004e80001235b42ba229200ba181360c54bfb186d
:1004f8001b78002b11d0ba239b00fb181a68be2367
:100508009b00fb181b68d31a1a00bd239b00fb181d
:100518001b689a4201d3012200e00022b94bfb1864
:100528001a701a7801210a401a70b64bfb181b780a
:10053800002b0bd0c0239b00fb181a68bd239b001f
:10054800fb181b689a4201dc012300e000231a1cf7
:1005580001231340dbb201225340dbb2002b03d04e
:100568002ff042fd03009847a74bcc229200ba18ff
:10057800d1180423d0229200ba18d2180b0003ca4b
:1005880003c30023b9229200ba1813609f4bfb18cb
:1005980000221a70b9239b00fb181b68002b01da94
:1005a8000023e2e09a4bcc229200ba18d218964b5c
:1005b800cc2189008c46bc446344100019000823f0
:1005c8001a002ff06afe924bcc2292009446bc444b
:1005d80063441b68b7229200ba1813608d4bcc2273
:1005e8009200ba18d218884bcc2189008c46bc449a
:1005f80063441000190008231a002ff04efe854ba3
:10060800cc2292009446bc4463445b68b6229200b4
:10061800ba181360804bfb1800221a707f4bcc224b
:1006280092009446bc446344180008231a00002131
:100638002ff086fe7a4bcc229200ba18d118774b4d
:10064800cc229200ba18d2180b0003ca03c3744b09
:10065800cc2292009446bc4463441b68b4229200a6
:10066800ba181360694bfb181b78002b22d0b723ec
:100678009b00fb181b68002b09d0b7239b00fb18b5
:100688001a68b4239b00fb181b689a4207d1b6234b
:100698009b00fb181b685a425341dbb206e0b623a5
:1006a8009b00fb181b68db43db0fdbb25a4aba1806
:1006b80013701fe0b7239b00fb181b68002b11d099
:1006c800b7239b00fb181a68b4239b00fb181b6810
:1006d8009a4207d0b6239b00fb181b68002b01db4e
:1006e800012200e000224c4bfb181a701a780121f5
:1006f8000a401a7001235b42b3229200ba181360b1
:10070800454bfb181b78002b11d0b3239b00fb181b
:100718001a68b7239b00fb181b68d31a1a00b62364
:100728009b00fb181b689a4201d3012200e00022bb
:10073800394bfb181a701a7801210a401a70364b87
:10074800fb181b78002b0bd0b9239b00fb181a68e9
:10075800b6239b00fb181b689a4201dc012300e0ca
:1007680000231a1c01231340dbb201225340dbb2e1
:10077800002b03d02ff038fc03009847d3239b00ad
:10078800fb181b68002b03d12ff02efc03009847a1
:10079800244bcc2292009446bc446344224a03caa8
:1007a80003c3224bcc229200ba18d0181d4bcc227e
:1007b8009200ba18d21817230093002311685268c0
:1007c80019f0beff194bcc2292009446bc446344f6
:1007d800174acc218900791889181a685b68086853
:1007e800496820f063ff0300cb229200ba18136017
:1007f800cb239b00fb181b68002b1dd00d4b01f071
:1008080006f9c046f3020000d8fdffffe30200002e
:10081800d0fdffffc8fdffffd70200003cfeffff31
:10082800c0fdffffe0fdffffb84b010014feffff16
:10083800dcfcffff01000580f44bcc2292009446bb
:10084800bc446344f24819685a681af049f804230a
:10085800d02292009446bc446344ee4819685a6812
:100868001af03ef8ec4bcc229200ba18d118eb4b98
:10087800cc229200ba18d2180b0003ca03c3e64b65
:10088800cc2292009446bc4463445968e44bcc2281
:100898009200ba18d018dd4bcc229200ba18d218a0
:1008a8000b00116852682df0fbf900239c225200be
:1008b800ba181360db4bcc2292009446bc446344c4
:1008c800d94a03ca03c3d94bcc229200ba18d41808
:1008d800d44bcc2292009446bc446344d04acc21e9
:1008e80089008c46bc4462449c21490079180291d5
:1008f8009e214900791801916946586808601b686b
:100908001168526820000cf08dfdd3239b00fb1862
:100918001b6808331a00c54bcc2189008c46bc449f
:1009280063441868596812f071fd0300ca229200e6
:10093800ba181360ca239b00fb181b68b2229200e6
:10094800ba181360b2239b00fb181b68db0fdbb2dd
:10095800002b05d0ca239b00fb181b6801f057f831
:10096800b34bcc2292009446bc446344b14a03cab8
:1009780003c3af4bcc2292009446bc446344a84abc
:10098800cc218900791889181a685b680868496851
:1009980020f08cfe0300cb229200ba181360cb2300
:1009a8009b00fb181b68013300d193e0a24bcc22bb
:1009b8009200ba18d2189e4bcc2189008c46bc44b0
:1009c80063441000190008231a002ff066fc9a4ba4
:1009d800cc2292009446bc4463445a68cb239b00c3
:1009e800fb181b68d1188e4bcc229200ba18d41869
:1009f80038008b4bcc229200ba18d2180b00116821
:100a080052682df04df98d4bcc229200ba18d218ad
:100a1800230003ca03c38a4bcc2292009446bc44e9
:100a28006344884a03ca03c3804bcc229200ba1895
:100a3800d4183d00824bcc2292009446bc446344b7
:100a4800774acc2189008c46bc4462449c214900e9
:100a5800791802919e2149007918019169465868d0
:100a680008601b681168526828000cf0dbfc734ba7
:100a7800cc229200ba18d218230003ca03c3d32386
:100a88009b00fb181b680c331a00684bcc218900ab
:100a98008c46bc4463441868596812f0b7fc0300dc
:100aa800c9229200ba181360c9239b00fb181b685f
:100ab800b1229200ba181360b1239b00fb181b687f
:100ac800db0fdbb2002b0bd0c9239b00fb181b6884
:100ad80000f09dffd3239b00fb181b680022da60ff
:100ae800594bcc229200ba18d1180423d022920074
:100af800ba18d2180b0003ca03c3d3239b00fb18f0
:100b08001b68af229200ba1813604f4bcc22920098
:100b1800ba18d2184823f81800231168526823f02d
:100b2800d5f90300ae229200ba181360ae239b00d9
:100b3800fb181b68ad229200ba181360ad239b0006
:100b4800fb181b68db0fdbb2002b05d0ae239b0024
:100b5800fb181b6800f040ff4823fb1818001cf026
:100b680091fc0300ac229200ba181360ac239b00de
:100b7800fb181b68ab229200ba181360ab239b00ca
:100b8800fb181b68db0fdbb2002b05d0ac239b00e6
:100b9800fb181b6800f020ff2c4bcc2292009446d7
:100ba800bc4463441b7a012b02d0294b00f014ff8c
:100bb800284bcc2292009446bc446344180030234e
:100bc8001a0000212ff0bcfbaf239b00fb181b6809
:100bd800204acc2189008c46bc446244103313ca95
:100be80013c313ca13c313ca13c313ca13c31a4ba9
:100bf800fb1800221a70194bfb1800221a70184ba8
:100c0800fb1800221a7000f08afec046dcfcffffc9
:100c18000100060002000600e8fdffff14feffffca
:100c28000cfeffff1cfeffff244c010000feffff2f
:100c3800f8fdffff3c4c0100f0fdffffd0fcffff7b
:100c480024feffff484c010078fdffff18fdffff61
:100c580005000180e8fcffffab020000aa020000cb
:100c6800a9020000e54bcc2292009446bc446344a0
:100c7800e34a03ca03c3e14bcc2292009446bc4426
:100c880063444822b81819685a680af0abfe031e74
:100c980049d04823fb1818001cf0f4fb0300a922d4
:100ca8009200ba181360a9239b00fb181b68a8229e
:100cb8009200ba181360a8239b00fb181b68db0f6f
:100cc800dbb2002b05d0a9239b00fb181b6800f0a2
:100cd80083fecc4bcc2292009446bc4463441b7ade
:100ce800062b02d0c84b00f077feaf239b00fb1801
:100cf8001968c44bcc229200ba18d2180b0003ca48
:100d080003c3c24bfb1801221a70c14bfb18c04a1f
:100d1800ba1812781a70bf4bfb18be4aba18127864
:100d28001a7000f0fcfdbc4bcc2292009446bc44e7
:100d38006344ba4a03ca03c3b74bcc229200944611
:100d4800bc4463444822b81819685a680af04afe35
:100d5800031e68d04823fb1818001cf093fb0300ff
:100d6800a7229200ba181360a7239b00fb181b68e0
:100d7800a6229200ba181360a6239b00fb181b68d2
:100d8800db0fdbb2002b05d0a7239b00fb181b68e9
:100d980000f022fe9b4bcc2292009446bc44634454
:100da8001b7a062b02d0984b00f016feaf239b004f
:100db800fb181b680a331a00924bcc2189008c4619
:100dc800bc4463441868596804f05af80300a52223
:100dd8009200ba181360a5239b00fb181b68a42275
:100de8009200ba181360a4239b00fb181b68db0f42
:100df800dbb2002b05d0a5239b00fb181b6800f075
:100e0800ebfd834bfb1801221a70804bfb187f4abd
:100e1800ba1812781a707f4bfb187e4aba181278e3
:100e28001a7000f07cfd7e4bcc2292009446bc44a4
:100e380063447c4a03ca03c3794bcc22920094468c
:100e4800bc4463444822b81819685a680af0cafdb5
:100e5800031e00d138e34823fb1818001cf012fbce
:100e68000300a3229200ba181360a3239b00fb1867
:100e78001b68a2229200ba181360a2239b00fb18d9
:100e88001b68db0fdbb2002b05d0a3239b00fb18ec
:100e98001b6800f0a1fdaf239b00fb181b681033f3
:100ea8004822ba18a121890079180a60a022920064
:100eb800ba181360a1239b00fb181b681b7a012b2f
:100ec80001d0594bd4e2594bfb1800221a70584be9
:100ed800fb1800221a7081e2a1239b00fb181868f6
:100ee800544bcc2292009446bc446344524a12cae2
:100ef80012c3504bcc2292009446bc4463441968f8
:100f08005a680af06ffd031e3ed0a1239b00fb1810
:100f18001b6818001cf0b6fa03009e229200ba184b
:100f280013609e239b00fb181b689d229200ba1831
:100f380013609d239b00fb181b68db0fdbb2002ba3
:100f480004d09e239b00fb181b6891e2a1239b0001
:100f5800fb181b681b7a062b01d02b4b88e2a023b9
:100f68009b00fb181b68a1229200ba18126803cada
:100f780003c32e4bfb1801221a702d4bfb182c4a69
:100f8800ba1812781a7029e2a1239b00fb18186876
:100f98002a4bcc2292009446bc446344284a12ca85
:100fa80012c3264bcc2292009446bc446344196871
:100fb8005a680af017fd031e63d0a1239b00fb1893
:100fc8001b6818001cf05efa03009c229200ba18f5
:100fd80013609c239b00fb181b689b229200ba1885
:100fe80013609b239b00fb181b68db0fdbb2002bf5
:100ff80028d09c239b00fb181b6839e29cfeffff4e
:101008005c4c010018fdffff04000180ab020000ea
:10101800aa020000a902000094feffff6c4c010028
:101028008cfeffff884c0100050001807f02000054
:101038007e0200004cfeffff9c4c010054feffffa7
:10104800b04c0100a1239b00fb181b681b7a062be0
:1010580001d0d94b0ce2a0239b00fb181b68a122ee
:101068009200ba181268083303ca03c3d34bfb189b
:1010780001221a70d24bfb18d14aba1812781a708a
:10108800ace1a1239b00fb181868ce4bcc22920040
:101098009446bc446344cc4a12ca12c3c94bcc22fe
:1010a80092009446bc44634419685a680af09afc52
:1010b800031e41d0a1239b00fb181b6818001cf0dd
:1010c800e1f903009a229200ba1813609a239b0050
:1010d800fb181b6899229200ba18136099239b0089
:1010e800fb181b68db0fdbb2002b04d09a239b0094
:1010f800fb181b68bce1a1239b00fb181b681b7a2b
:10110800062b01d0ac4bb3e1a0239b00fb181b6856
:10111800a1229200ba181268183303ca03c3a84b55
:10112800fb18a74aba1812781a70a44bfb18a34ade
:10113800ba1812781a7051e1a1239b00fb1818689d
:10114800a24bcc2292009446bc446344a04a12cae3
:1011580012c39e4bcc2292009446bc446344196847
:101168005a680af03ffc031e41d0a1239b00fb18dc
:101178001b6818001cf086f9030098229200ba1820
:10118800136098239b00fb181b6897229200ba18db
:10119800136097239b00fb181b68db0fdbb2002b47
:1011a80004d098239b00fb181b6861e1a1239b00d6
:1011b800fb181b681b7a062b01d07f4b58e1a02334
:1011c8009b00fb181b68a1229200ba1812682833ea
:1011d80003ca03c37a4bfb18794aba1812781a70f3
:1011e800764bfb18754aba1812781a70f6e0a123e4
:1011f8009b00fb181b6896229200ba181360a02364
:101208009b00fb181b6895229200ba18136096235e
:101218009b00fb1818686f4bcc2292009446bc4484
:1012280063446d4a12ca12c36a4bcc229200944698
:10123800bc44634419685a680af0d4fb031e63d09f
:1012480096239b00fb181b6818001cf01bf9030071
:1012580094229200ba18136094239b00fb181b6811
:1012680093229200ba18136093239b00fb181b6803
:10127800db0fdbb2002b04d094239b00fb181b6808
:1012880043e096239b00fb181a6895239b00fb18e4
:101298001b681433190010001bf010f90300922288
:1012a8009200ba18136092239b00fb181b689122c6
:1012b8009200ba18136091239b00fb181b68db0f80
:1012c800dbb2002b04d092239b00fb181b681ce0a8
:1012d80095239b00fb181b685b6990229200ba1843
:1012e800136090239b00fb181a68fa2399001000da
:1012f80027f03af803009ab295239b00fb181b6865
:101308001a8280235b0200e02b4b8f229200ba18ce
:1013180013608f239b00fb181b688e229200ba185b
:1013280013608e239b00fb181b68db0fdbb25a1e71
:101338009341dbb201225340dbb21a1c0123134054
:10134800dbb21f4aba181e497918097811701b4a6e
:10135800ba181a49791809781170002b3ed1a123bf
:101368009b00fb181b68180026f0e4fa03008d2286
:101378009200ba1813608d239b00fb181b688c22ff
:101388009200ba1813608c239b00fb181b68db0fb4
:10139800dbb20b4aba180a49791809781170074a5a
:1013a800ba180649791809781170002b16d08d23c0
:1013b8009b00fb181b685be0040001807e020000b4
:1013c8007f0200005cfeffffc84c010064feffffc7
:1013d800e84c01006cfefffffc4c0100cc4bfb18f5
:1013e8001b7801225340dbb2002b07d1c94bfb18f5
:1013f8001b7801225340dbb2002b2dd0a1239b0088
:10140800fb181b6818001cf03df803008b229200a3
:10141800ba1813608b239b00fb181b688a22920062
:10142800ba1813608a239b00fb181b68db0fdbb21a
:101438005a1e9341dbb201225340dbb21a1c01232e
:101448001340dbb2002b07d0a1239b00fb181b68bd
:101458001b7a022b00d03fe5ad4bfa18ad4bfb18b9
:1014680012781b789a4201d0ab4b01e080235b02d3
:1014780089229200ba18136089239b00fb181b6805
:1014880088229200ba18136088239b00fb181b68f7
:10149800db0fdbb2a14aba18a04979180978117094
:1014a8009f4aba189e497918097811709d4aba1846
:1014b8009c49791809781170002b00d12fe28923f3
:1014c8009b00fb181b6887e2974bcc22920094463e
:1014d800bc446344954a03ca03c3934bcc2292008d
:1014e8009446bc4463444822b81819685a680af0fc
:1014f80079fa031e49d04823fb1818001bf0c2ffd5
:10150800030087229200ba18136087239b00fb18f8
:101518001b6886229200ba18136086239b00fb186a
:101528001b68db0fdbb2002b04d087239b00fb1862
:101538001b6851e27e4bcc2292009446bc44634423
:101548001b7a062b01d0744b46e2af239b00fb1895
:101558001b68774acc2189008c46bc4462443033ee
:1015680003ca03c36d4bfb186c4aba1812781a7079
:101578006b4bfb186a4aba1812781a70694bfb1839
:10158800684aba1812781a70c9e16a4bcc229200dc
:101598009446bc446344684a03ca03c3654bcc22df
:1015a80092009446bc4463444822b81819685a68a3
:1015b8000af018fa031e49d04823fb1818001bf03c
:1015c80061ff030085229200ba18136085239b00ef
:1015d800fb181b6884229200ba18136084239b00ae
:1015e800fb181b68db0fdbb2002b04d085239b00a4
:1015f800fb181b68f0e14e4bcc2292009446bc4489
:1016080063441b7a062b01d0434be5e1af239b00d3
:10161800fb181b68464acc2189008c46bc446244ae
:10162800283303ca03c33d4bfb183c4aba18127847
:101638001a703b4bfb183a4aba1812781a70394b91
:10164800fb18384aba1812781a7068e13b4bcc225a
:1016580092009446bc446344394a03ca03c3374bd7
:10166800cc2292009446bc4463444822b8181968b6
:101678005a680af0b7f9031e64d04823fb1818000b
:101688001bf000ff030083229200ba181360832323
:101698009b00fb181b6882229200ba1813608223f1
:1016a8009b00fb181b68db0fdbb2002b04d08323e5
:1016b8009b00fb181b688fe11d4bcc2292009446bf
:1016c800bc4463441b7a062b01d0134b84e1af233f
:1016d8009b00fb181b68164acc2189008c46bc4429
:1016e8006244383303ca03c30c4bfb180b4aba18bd
:1016f80012781a700a4bfb18094aba1812781a702d
:10170800084bfb18074aba1812781a7007e1c04646
:101718007e0200007f02000004000180ab0200008e
:10172800aa020000a902000084feffff104d01007c
:1017380018fdffff7cfeffff204d010074feffff38
:10174800384d0100af239b00fb181b68103348225b
:10175800ba188121890079180a6080229200ba1883
:10176800136081239b00fb181868ad4bcc229200b4
:101778009446bc446344ab4a12ca12c3a84bcc2259
:1017880092009446bc44634419685a680af02af9de
:10179800031e63d081239b00fb181b6818001bf0f5
:1017a80071fe0300fe225200ba181360fe235b008c
:1017b800fb181b68fc225200ba181360fc235b005c
:1017c800fb181b68db0fdbb2002b04d0fe235b0089
:1017d800fb181b6843e081239b00fb181a688023d1
:1017e8009b00fb181b681433190010001af066fee2
:1017f8000300fa225200ba181360fa235b00fb18a0
:101808001b68f8225200ba181360f8235b00fb1813
:101818001b68db0fdbb2002b04d0fa235b00fb183c
:101828001b681ce080239b00fb181b685b69f62281
:101838005200ba181360f6235b00fb181a68fa23e3
:101848009900100026f090fd03009ab280239b00b7
:10185800fb181b681a8280235b0200e0724bf4229b
:101868005200ba181360f4235b00fb181b68f222bd
:101878005200ba181360f2235b00fb181b68db0fd9
:10188800dbb25a1e9341dbb201225340dbb21a1c71
:1018980001231340dbb2002b10d0644bfb1801224c
:1018a8001a70634bfb18624aba1812781a70614ba7
:1018b800fb18604aba1812781a7030e04823fb18ef
:1018c800180026f037f80300f0225200ba18136007
:1018d800f0235b00fb181b68ee225200ba18136055
:1018e800ee235b00fb181b68db0fdbb2504aba180b
:1018f8004f497918097811704e4aba184d49791824
:1019080009781170494aba18484979180978117044
:10191800002b04d0f0235b00fb181b685ce0482315
:10192800fb1818001bf0aefd0300ec225200ba1899
:101938001360ec235b00fb181b68ea225200ba18fc
:101948001360ea235b00fb181b68db0fdbb25a1e2f
:101958009341dbb201225340dbb21a1c012313402e
:10196800dbb2002b0ad0344bcc2292009446bc4404
:1019780063441b7a022b01d0fff774f92d4bfb1837
:101988001b7801225340dbb2002b07d1284bfb18f0
:101998001b7801225340dbb2002b1bd0af239b00e6
:1019a800fb181b6800221a60af239b00fb181b68fa
:1019b80000225a60af239b00fb181b6803229a720f
:1019c8001a4bfb181b7801225340dbb2002b01d0c5
:1019d800154b01e080235b02c8229200ba181360fd
:1019e800c8239b00fb181b68b0229200ba1813602a
:1019f800b0239b00fb181b68db0fdbb2002b04d065
:101a0800c8239b00fb181b6801e080235b021800b9
:101a1800bd46cc239b009d44b0bc08bc02b018470f
:101a280044fefffffc4c010004000180a9020000f5
:0c1a3800ab020000aa02000018fdffff36
:020000040000fa
:101a4400c03c00201c000000000000003c3c0020c2
:101a5400040000000100000041060300fc3d0020da
:101a64000400000000000000003e0020040000000c
:101a740000000000dc3900206000000000000000cd
:101a84001c3c00202000000000000000043e002058
:101a94000400000001000000ffffffff2d3d0020b7
:101aa4000100000000000000493d0020010000008a
:101ab40000000000083e00200400000000000000b8
:101ac4000c3e002004000000000000000a3f00203b
:101ad40001000000000000000b3f00200100000096
:101ae40000000000000000202800000000000000aa
:101af4000c3f002001000000000000000d3f00200a
:101b040001000000000000000e3f00200100000062
:101b140000000000103e002004000000000000004f
:101b2400143e00200400000000000000183e0020c5
:101b34000400000000000000c23d0020020000007c
:101b4400000000001c3e0020040000000000000013
:101b5400083f002002000000010000000001000016
:101b64000f3f00200100000000000000103f002093
:101b74000100000000000000203e002004000000de
:101b840000000000243e00200400000000000000cb
:101b9400283e002004000000000000002c3e00202d
:101ba4000400000000000000303e0020040000009b
:101bb40000000000c43d00200800000000000000f8
:101bc400113f00200100000001000000ff000000a0
:101bd400343e00200400000000000000383e0020d5
:101be4000400000000000000123f0020010000007b
:101bf4000100000004000000063f00200200000075
:101c040000000000133f002001000000000000005d
:101c1400143f00200100000000000000153f0020d8
:101c2400010000000000000028000020bc000000ab
:101c34000000000010350020f40000000000000047
:101c4400e40000200400000000000000403c0020ec
:101c54002000000000000000603c00202000000084
:101c640000000000e8000020200000000000000048
:101c740008010020c000000000000000a43b002078
:101c84002800000000000000163f002001000000b2
:101c940000000000c80100202c000000000000002b
:101ca4005c3700208000000000000000a42f00200a
:101cb4000002000000000000f401002038000000d1
:101cc400000000002c0200200800000000000000ba
:101cd400cc3d002008000000000000008428002003
:101ce40000040000000000003c3e0020040000004e
:101cf40000000000403e002004000000000000003e
:101d0400dc3700208000000000000000443e00207a
:101d14000400000000000000a03d00200c000000b2
:101d24000000000004360020c8000000000000008d
:101d3400173f00200100000000000000183f0020b1
:101d44000100000000000000d43d00200800000055
:101d540000000000dc3a0020380000000000000011
:101d6400842c002020030000000000002e3d0020f1
:101d7400020000000100000001000000cc3b002034
:101d84002800000000000000cc3600209000000075
:101d940000000000340200201000000000000000d9
:101da400440200204200000000000000483e0020e1
:101db400040000000000000088020020340000003d
:101dc400000000004c3e0020040000000100000060
:101dd4002b2f3d40dc3c00201c00000000000000d4
:101de40024100020300800000000000054180020d7
:101df4003008000000000000193f0020010000002e
:101e040001000000ff000000503e0020040000001c
:101e140000000000543e0020040000000000000008
:101e2400783b00202c00000000000000f83c00205b
:101e34001c00000000000000143b002034000000df
:101e440000000000f43b0020280000000000000017
:101e54001a3f002001000000000000001b3f00208a
:101e640001000000000000001c3f002001000000f1
:101e7400000000001d3f00200100000000000000e1
:101e84001e3f00200100000000000000583e00201a
:101e940004000000000000001f3f002001000000bb
:101ea40000000000203f00200100000000000000ae
:101eb4005c3e00200400000001000000ffffffff63
:101ec400213f00200100000000000000603e0020cf
:101ed4000400000001000000ffffffff223f00207c
:101ee4000100000000000000643e00200400000027
:101ef40001000000ffffffff233f0020010000005e
:101f040000000000683e0020040000000100000002
:101f1400ffffffff243f002001000000000000003d
:101f24006c3e00200400000001000000ffffffffe2
:101f3400253f00200100000000000000bc0200203a
:101f44000400000000000000263f00200100000003
:101f540000000000703e00200400000000000000ab
:101f6400dc3d00200800000001000000e802002021
:101f7400c0020020c00200202c000000000000006d
:101f8400743e00200400000000000000043f002014
:101f9400020000000100000002000000483b002095
:101fa400300000000100000000030000b002000047
:101fb400a0860100000000000000000000000000f6
:101fc400000000000000000000000000dc0500002c
:101fd4001400000000000000273f00200100000062
:101fe40000000000ec0200200900000000000000d6
:101ff4004c3d002018000000010000001d5a0100a3
:102004008df3020081a001003d3d0200f554020061
:1020140000000000f8020020f401000000000000ad
:10202400643d0020180000000100000081ff020050
:10203400b1f3020011cc0100dd760200415102002f
:10204400000000004a3d00200200000000000000e3
:10205400783e00200400000001000000ffffffffa5
:102064007c3e00200400000001000000ffffffff91
:10207400ec040020b805000000000000803e0020b1
:10208400040000000100000068fb0200a40a002014
:10209400c802000000000000283f002001000000ea
:1020a40000000000293f00200100000000000000a3
:1020b400843e002004000000000000002a3f0020ad
:1020c40001000000000000002b3f00200100000080
:1020d400000000002c3f002001000000010000006f
:1020e40001000000883e0020040000000100000000
:1020f400ffffffff8c3e00200400000001000000f1
:10210400ffffffff2d3f0020010000000000000042
:102114002e3f00200100000000000000903e00203f
:102124000400000000000000943e002004000000b1
:1021340001000000ffffffff6c0d002024020000df
:1021440000000000983e0020040000000100000090
:10215400ffffffff9c3e0020040000000100000080
:10216400ffffffffa03e002004000000010000006c
:10217400ffffffff2f3f00200100000000000000d0
:10218400303f00200100000000000000313f00202b
:102194000100000000000000323f002001000000a8
:1021a40000000000333f0020010000000000000098
:1021b400a43e00200400000000000000e43d0020d4
:1021c400080000000100000053414d2e496f5400e7
:1021d400842000200008000000000000a83e002029
:1021e4000400000000000000343f00200100000053
:1021f400000000007c3d00201400000001000000ed
:102204002035020034350200483502005c350200f6
:1022140070350200903d0020100000000100000015
:10222400883502009c350200b0350200c435020036
:10223400353f00200100000000000000143d002094
:1022440019000000010000003c5052454649583e28
:10225400000000000000000000000000000000007a
:1022640000000000303d00201900000001000000c3
:102274004241414141414444314442414141444449
:10228400314400000000000000000000ac3e0020cb
:102294000400000000000000363f002001000000a0
:1022a4000100000001000000b03e00200400000016
:1022b40001000000ffffffff373f00200100000086
:1022c40000000000b43e00200400000001000000f3
:1022d400ffffffff383f0020010000000000000066
:1022e400b83e00200400000000000000ec3d002087
:1022f400080000000000000010330020000100006e
:10230400000000005c380020800000000000000095
:10231400803c002020000000000000001034002059
:102324000001000000000000a03c0020200000008c
:1023340000000000dc3800208000000000000000e5
:102344005c3900208000000000000000393f0020bc
:102354000100000000000000bc3e0020040000005a
:1023640000000000c03e0020040000000000000047
:10237400c43e00200400000000000000c83e00200d
:102384000400000000000000cc3e00200400000017
:1023940000000000d03e0020040000000000000007
:1023a400d43e00200400000000000000900f002034
:1023b40090000000000000003a3f002001000000ef
:1023c400000000003b3f002001000000000000006e
:1023d400d83e00200400000001000000ffffffffc2
:1023e400dc3e00200400000001000000ffffffffae
:1023f4003c3f002001000000000000003d3f0020a1
:1024040001000000000000003e3f00200100000029
:10241400000000003f3f0020010000000000000019
:10242400e03e002004000000010000003c3a0020cf
:102434003c3a0020600000000100000000000000a1
:10244400d0f80200f0f80200b0f80200000000002a
:102454000000000000000000000000000000000078
:102464000000000000000000000000000000000068
:102474000000000000000000000000000000000058
:102484000000000000000000000000000000000048
:10249400000000000000000000000000a431002043
:1024a4006c01000001000000430000000000000077
:1024b4000000000000000000000000000000000018
:1024c40000000000000000004300000000000000c5
:1024d40000000000000000000000000000000000f8
:1024e40000000000000000004300000000000000a5
:1024f40000000000000000000000000000000000d8
:102504000000000000000000430000000000000084
:1025140000000000000000000000000000000000b7
:102524000000000000000000430000000000000064
:102534000000000000000000000000000000000097
:102544000000000000000000430000000000000044
:102554000000000000000000000000000000000077
:102564000000000000000000430000000000000024
:102574000000000000000000000000000000000057
:10258400000000000000000025ff020065f40200c6
:1025940000000000c40d02003d0403003c040300dd
:1025a4003c0403003c0403003c0403003c0403001b
:1025b4003c0403003c0403003c0403003c0403000b
:1025c400ffffffffffffffffffffffffffff000015
:1025d400010041534349490000000000000000008d
:1025e40000000000000000000000000000000000e7
:1025f400000041534349490000000000000000006e
:1026040000000000000000000000000000000000c6
:1026140000000000e43e0020040000000000000070
:10262400e83e00200400000000000000ac3d002053
:102634000b00000000000000b73d00200b0000006c
:1026440000000000ec3e0020040000000000000038
:10265400f03e00200400000000000000f43e0020d2
:102664000400000000000000f43d00200800000009
:10267400010000006c0603006c0603009c3a002075
:102684004000000001000000010000000000000004
:102694004a000000000000000000000000000000ec
:1026a4000000000000000000000000004a000000dc
:1026b4000000000000000000000000000000000016
:1026c40000000000000000002010002004000000b2
:1026d40000000000f83e002004000000000000009c
:1026e400fc3e00200400000001000000f83e002031
:1026f400003f002004000000000000000000000073
:10270400000000002222222222222222222222222d
:020000040000fa
:10271400f0b516001f00446a9db00490259d0696ee
:102724000797002c08d110202df06efd049b5862f1
:10273400446084600460c460049b5b6a1968002977
:102744000bd05a68012393404a608b6004982bf0a5
:1027540017fe0022049b5b6a1a60079b002b1cda9d
:1027640001232b607b005b080793079cba4b220074
:1027740019931a409a421cd1b84b249a1360069ab2
:10278400b74b002a03d1240301d100f08cfd269a13
:10279400002a05d109330a9308e000232b60e4e7fb
:1027a4001a0009320a920c33269a13600a981db053
:1027b400f0bd069e079f002200233000390026f05a
:1027c400d9fc051e0ed00123249a1360a44b1a00d1
:1027d4000d320a92269a002ae8d01a0026990e325f
:1027e4000a60e3e71aab01931bab009332003b0092
:1027f400049824f093f9630005905b0d00d17fe009
:102804003a03984c120b14432100974a3000189550
:102814009e180022954b04f0bdfc954a954b0bf095
:1028240017f8954a954b04f08dff040030000d0015
:1028340027f064fa924a934b0bf00af802000b005b
:102844002000290004f07eff04000d0028f08af91e
:102854000022039000232000290026f091fc002888
:102864000ed0039827f04afa0b000200290020003a
:1028740026f080fc030058425841039b1b1a039323
:1028840001231693039b162b0fd87f49db00c9182d
:1028940008684968069a079b26f086fc00284bd0f6
:1028a400039b013b0393002316931a9b9e1b002357
:1028b4000b933300013b0c9304d501239b1b0b9317
:1028c40000230c93039b002b38db039a0c9b944648
:1028d40063440c9300230f920893229b0125092b38
:1028e40000d991e0052b02dd0025043b2293229bb5
:1028f400981e032800d991e02df068fc8284297683
:102904001a9b1b9a9e18614bf218202a0fdd203b5c
:102914000698f318d84040239b1a9c40204328f083
:10292400e5fb01235a4c013e0919189371e7202352
:1029340006989b1a9840f2e71690b6e70b9b039a09
:102944009b1a0b935342089300230f93c5e701236b
:102954000e93239b002b65dd1f000d93049a546a8c
:102964000022626004221100143199425fd9616827
:10297400049827f087fb049b20605b6a1b680a931a
:102984000e2f00d9fce0002d00d1f9e0069b079c36
:1029940014931594039b002b00dc7de01a000f2197
:1029a400394b0a40d2009b185c681b681093119441
:1029b400039b02241d11eb060ad5364b0d401a6aff
:1029c4005b6a1498159905f0ebfe032406900791b1
:1029d400304e002d30d1109a119b0698079905f0be
:1029e400dffe0690079171e00123239a0e9394462b
:1029f400039b63445f1c0d933b1eafdc0123ade7d7
:102a04000023a5e70023f0e700230e952293013b62
:102a14000d931f000022122323929fe701230e939c
:102a2400023bf5e701230d931f001a00f4e76168e8
:102a340052000131616096e701231d4208d01098cd
:102a44001199e418326873680af002ff109011912a
:102a54006d100836bde7c0460000f07f0f27000068
:102a6400980303000000f03f01fcffff0000f83f63
:102a740061436f63a787d23fb3c8608b288ac63f80
:102a8400fb799f501344d33f5044020032040000aa
:102a9400000010fec8f00200039b0224002b15d096
:102aa400149815995d420f23c94a2b40db00d318b3
:102ab4001a685b680af0ccfe002306900791c54ea5
:102ac4002d11002d00d08be0002b8ad1169b002bfa
:102ad40000d191e0069a079b1092119310981199d6
:102ae4000022bd4b26f04cfb002800d184e0002fcf
:102af40000d181e00d9b002b3edd10981199039bc2
:102b040000225e1eb54b0af0a3fe069007910d9db0
:102b14000134200027f0f2f8069a079b0af098fe89
:102b24000022af4b04f00efe12901391129b139ce3
:102b3400ac4a10931194139b9c181194002d5ed1f0
:102b4400069807990022a84b04f024fb109a23004e
:102b54000690079126f028fb002800d000e3a34844
:102b64001399844661440b0006980799109a26f03d
:102b740007fb002800d0e7e2149b159c06930794fa
:102b84001b9b002b00da56e1039a0e2a00dd52e16a
:102b94008f4bd2009b185c681b6808930994239b95
:102ba400002b00dbcee0002f00ddcbe000d0cee236
:102bb4000898099900228c4b0af04afe069a079b52
:102bc40026f0fcfa3e000897002800d0a3e20a9bf6
:102bd4000a9a5d1c31231370039b013303939ee215
:102be4000122154205d0a418326873680af030fe39
:102bf40001236d10083664e7039e3d0089e70a9ab5
:102c0400691e521917920e9a714bc900002a4ad0b4
:102c14005b181a685b680020754905f0c1fd109abd
:102c2400119b04f0b7fa0a9b109011911293069825
:102c3400079927f097ff040027f060f802000b00c3
:102c44000698079904f0a6fa129b30345d1c1c7098
:102c5400109a119b0690079126f092fa002865d1ec
:102c6400069a079b00205c4904f094fa109a119b81
:102c740026f086fa002800d0bde0179b9d4200d1c3
:102c84007ae7109811990022544b0af0e1fd0022d2
:102c94001090119106980799504b0af0d9fd12959e
:102ca40006900791c3e7591808684968109a119b60
:102cb4000af0cefd109011910a9c179d0698079971
:102cc40027f050ff129027f019f802000b00069825
:102cd400079904f05ffa129b069007913033237032
:102ce400179b01340022a34224d1414b109811991f
:102cf40004f028fd02000b000698079926f054fa08
:102d0400002800d077e0109a119b0020384904f085
:102d140041fa02000b000698079926f031fa0028c0
:102d240000d129e76b1e1a78302a01d003963fe0c0
:102d34001d00f7e706980799284b0af089fd0690cd
:102d44000791bbe70a9e089a099b0698079905f024
:102d540027fd27f007ff040026f0d0ff089a099bff
:102d64000af076fd0b0002000698079904f012faa7
:102d74002300303333700a9b751ceb1a9f424bd1ee
:102d840002000b0004f0defc06000f0002000b0042
:102d94000898099926f0f4f900282bd10898099984
:102da40032003b0026f0e6f9002801d0e30721d4e5
:102db400059904982bf0e4fa00232b70039b249ac2
:102dc40001331360269b002b00d1efe41d60ede47a
:102dd40050440200c8f002000000f03f000024400c
:102de40000001c400000c0fc000014400000c07c37
:102df4000000e03f039e6b1e1a78392a06d10a9a16
:102e04009a4207d130231370130001361a78013225
:102e14001a708be71d00eee70022cf4b0af018fd75
:102e240000220023069007912e0026f0a3f9002823
:102e340000d188e7bce70e9a002a00d187e0229ae5
:102e4400012a6edc189a002a67d0c44a9b18089d90
:102e54000b9c0b9a0121d2180b920c9a0498d3184c
:102e64000c932df025fa0600002c0edd0c9b002b94
:102e74000bdd0c9a2300944200dd13000b9ae41a34
:102e8400d21a0b920c9ad31a0c93089b002b1ed0c7
:102e94000e9b002b5fd0002d11dd31002a00049819
:102ea40024f078f8059a0100060004981cf098fdb7
:102eb4000599109004982bf063fa109b0593089bd6
:102ec4005a1b04d00599049824f064f80590012154
:102ed40004982df0edf90f9b0890002b3ddd1a00ae
:102ee4000100049824f056f8229b08900025012b39
:102ef4003bdc0025069bab4233d1079b1b03ab4253
:102f04002fd1199b079a13422bd00b9b0125013318
:102f14000b930c9b01330c9323e036231a9a9b1ad0
:102f240095e7089b7d1eab4206db5d1b002f0bda89
:102f34000b9bdc1b00238ce7089b0895ea1a0f9b6c
:102f440000259b180f93f1e70b9c3b0081e7089d3c
:102f54000b9c0e9e88e7089ab4e7229b0025012b60
:102f6400c7dd0f9b0120002b0bd0089b089a1b691f
:102f74000f9303339b00d31858682bf0cdf920230b
:102f8400181a0c9bc0181f23184000d1abe0202353
:102f94001b1a042b00dc9be01c23181a0b9b24181f
:102fa4001b180b930c9b1b180c930b9b002b05dd20
:102fb4001a000599049823f0fbfe05900c9b002b46
:102fc40005dd1a000899049823f0f2fe0890169b78
:102fd400002b00d189e0089905982bf0eaf9002824
:102fe40000db82e0039b0a22013b03930599002343
:102ff400049826f03bfc0e9b0590002b00d15be16e
:10300400002331000a22049826f030fc0d9b0600b0
:10301400002b02dc229b022b6ddc002c05dd310031
:103024002200049823f0c4fe06003000002d11d0c5
:103034007168049827f026f83100040033690c31d4
:103044009a1c92000c302df02af9012221000498d8
:1030540023f0aefe0d9f0a9b013f0b93db19370053
:1030640006000f93089905981df01afb39000d907e
:10307400040005982bf09df932000e9008990498ed
:1030840021f07ef901230c93c36830340500002b32
:1030940004d1010005982bf08cf90c9029000498b8
:1030a4002bf06ef90c9b229a134300d089e0012384
:1030b400069a134200d084e0392c00d1a3e00e9b81
:1030c400002b01dd0d9c31340b9b5d1c1c7027e033
:1030d400042b00d169e70b9a1c33d2180b920c9a7b
:1030e400e418d31860e70300f5e7002f3cdc229bcb
:1030f400022b39dd0d970d9b002b0cd1089905226d
:10310400049826f0b3fb0890010005982bf051f9c0
:10311400002800dd5be5239b0a9ddb430393002726
:10312400089904982bf02cf9002e00d140e6002fca
:1031340005d0b74203d0390004982bf021f93100af
:1031440004982bf01df933e608952e00e3e70023dd
:1031540008931e00dfe7c04600002440330400004b
:10316400039608952e0032e50e9b0d97002b00d098
:1031740053e70a9d089905981df092fa0a9b30308e
:103184000d9a287001350400eb1a9a4278dc151e5a
:1031940000dc012500270a9b5d190599012204988a
:1031a40023f006fe089905902bf003f900282fdc84
:1031b40001d1e3072cd46b1e1a78302ab0d11d003c
:1031c400f9e70e9b002b07db1d00229b1d4326d134
:1031d4000123069a134222d10c9b002b00dc73e7d7
:1031e40005990122049823f0e3fd089905902bf03a
:1031f400e0f8002804dc00d066e7e30700d463e7c6
:10320400392c00d05ee70b9b0b9a5d1c392313709d
:103214006b1e1a78392a3bd001321a7080e70b9b57
:1032240001330d930c9b002b05dd392cebd00d9d48
:1032340001340b9b4ae70b9b0f9a0d9d1c70934224
:10324400abd000230a220599049826f00ffb002333
:1032540005900a2239000498b74206d126f006fbed
:10326400070006000d9b0b93fce626f0fffa3100e5
:10327400070000230a22049826f0f8fa0600f1e772
:1032840000230a220599049826f0f0fa059071e7c4
:103294000a9a9a4205d1039b013303933123137095
:1032a4003ee71d00b4e7269a0a930833002a01d0aa
:1032b400fff77afafff77afa0d9b002b00dd58e747
:0c32c400229b022b00dc54e715e7c046fb
:020000040000fa
:1032d000f0b51d0000230e001f00abb00390089353
:1032e0001378002b01d100f09cfc252b7fd1537863
:1032f0000693302b00d185e02b2b00d182e0531cac
:103300000593002306930022059b04921b78313b12
:10331000082b07d80a2222a905982bf05dfe229bd4
:1033200004900593059b1b78452b6ed1059b0133bb
:103330000593059b1c782000253855285ad82cf079
:1033400051ff6904590059005900590059005900aa
:1033500059005900590059005900590059005900a5
:103360005900590059005900590059005900590095
:10337000590059005900590059008000b000e3007d
:10338000380159005301bf0143024f02590059004f
:10339000590074025900590082025900b6025d03b7
:1033a00075038f039403d803e000f003460459002b
:1033b000590059005900590059006a009d00c40085
:1033c00023012301590084019d0059006502430235
:1033d0004f026d027902590082025900da00c102df
:1033e000620380035900d103dd00e0030e04711e67
:1033f0008f4202d3002700f019fc03990132cb550c
:1034000001376de7931c05937de74f3b59425941c6
:10341000059b5b188ce7ab69a44a18339b009c584a
:1034200020002cf0d6ffe41b3818721eb84201d1e0
:10343000070014e0ba42ddd9e15d039bd95501379d
:10344000f4e7ab69994a1e339b00d3185c682000ef
:103450002cf0bfffe41b3818721e874207d1059b72
:103460001b78002b00d1dce3059a013238e7ba4221
:10347000c0d9e15d039bd9550137eee72b698b4a33
:103480009b009c5820002cf0a4ffe41b3818721eef
:10349000b842cdd0ba42add9e15d039bd9550137d1
:1034a000f6e72b69814a0c339b009c5820002cf0d6
:1034b00090ffe41b3818721eb842b9d0ba4299d9ad
:1034c000e15d039bd9550137f6e7784ba0331c68c3
:1034d00020002cf07eff2378002bc0d0039b22001d
:1034e000d819309bf11b00932b00fff7f1fe002849
:1034f00080dd3f18b3e76d4be433e8e76b4b9c335b
:10350000e5e76a4b9833e2e76c69694a0123944224
:1035100000db0023dbb20993002c10db64212000c8
:1035200023f0aafa1330069b624a002b0fd06328bf
:1035300028dd2b2b26d113001033083209e05e4b17
:10354000e0182df055f8642123f096faebe713000c
:1035500001320499022901d20221049103998c4677
:10356000f11b06915249bc448c4201da514b123393
:10357000019009990498411a60460091f11b27f0c7
:1035800027fb0ee01300d8e7039bf11bd819494b2a
:103590001a001932642c01d114331a00eb6827f099
:1035a00017fb002800da25e73f18be4200d956e78e
:1035b00020e7039b6869dc192b6901330493eb68ee
:1035c000069300280bdb642123f0a0fa069b394afe
:1035d000019100931d32049bf11b2000cfe7364b75
:1035e000c0182df005f8eee7252222ab1a70069ad6
:1035f000002a14d06a46127e5a70049b062b1fd2f2
:103600000a2020ab2b49181830312cf0a5fe039b63
:10361000f11bd819309b22aa00932b0065e72b22bf
:103620005a7004230a20234a20ac2c321e21001990
:1036300027f0cefa0028e3dd0a2320aa9b18e1e751
:10364000049b063b002bdbd0ece7280022f0befefb
:103650000400686900281adb642123f057fa002c63
:103660001ada164b6a699a4200da0124601864215a
:1036700023f04cfa64310800642123f047fa0b0070
:10368000039af41bd0190b4a2100143287e70a4b26
:10369000c0182cf0adffdfe7002ce7d06b691a00f3
:1036a000034b9a42e2da01246442dfe7b8150200d4
:1036b00094f8ffff50a702006c07000095f8ffff89
:1036c0006b690a930a9a01231100d24a914200dbe6
:1036d000002328000b9322f079fe0a9b0400002ba4
:1036e0003edb6421180023f0c7f9133009906869a4
:1036f00000283edb642123f009fa002c3edac64b99
:103700006a699a4201da01240b946418631c43d15c
:103710006324099b013b09936420099b0b9a434353
:103720001c1922ab002a3ed02d221a70092320aa90
:103730009b18049a002a43d125221a70069a581c15
:10374000002a02d03022981c5a70b44938312cf02b
:1037500003fe039bf11bd8190094049b22aaaee040
:103760000a9baf4a98182cf043ff642123f084f998
:10377000bce7ab4bc0182cf03bffbbe7002cc4d020
:1037800000230b930a9b1a00a24b9a42bdda012434
:10379000012364420b93b8e7642cbdd1099b00243c
:1037a00001330993b8e7069a2b2ac5d19d4a944262
:1037b000c2d96a46127e1a70049a002a00d138e2f1
:1037c000049b013b0493b9e1039bf11bd819934b74
:1037d0001a0014326b2c01d119331a00ab68dee6e3
:1037e000a8680c23002805d0984203d0190023f0c4
:1037f0008df90b00039af11bd019884a94461932af
:10380000492c00d0cbe662461432c8e6039aeb6935
:10381000d019824a0133f11b3c32c0e62b69039a6e
:103820000133f11bd0197d4aeee7039bf11bd81938
:103830006b68f8e7731e9f4200d3dbe50a23039a07
:10384000d35501370be6aa6801230b2a00dc0023bd
:10385000754a28339b00d3185b683c001800069318
:103860002cf0b7fd3b180993099ba34201d11f001f
:10387000f5e5731ea34200d8bce5059b1a78069bac
:10388000db1b1b5d502a0ed104932cf015fa03228a
:10389000049bc01843781340012b02d1049b2033b2
:1038a00004936b461b7c039a13550134dce7039b9e
:1038b0005a4ad8196b68f11b0093ab68413227f064
:1038c00087f96ee6002304932b6a002b12db089b1a
:1038d000002b01d12cf088fe2cf08efe2a6ad31723
:1038e0009b1a1c22db0f5343c018036a5b420493ec
:1038f000012308936c69e3170f9345225242d317b3
:103900000e940e980f9912184b410321d8170840b6
:103910000021109011911098119912184b4199079c
:10392000900808430c909b10601e64210d9323f0b7
:10393000a3f8c31713931290129813990c9a0d9b26
:10394000121a8b412000c8212c304900ff3006920a
:10395000079323f091f8c31714901593149a159bad
:10396000069807998018594122006e23463aff3382
:1039700053431693db171793169b179cc01861418e
:10398000eb6918221893db171993189b199cc01820
:103990006141002329f0a8fdab683c221a93db1794
:1039a0001b931a9b1b9cc0186141002329f09cfdae
:1039b0006b683c221c93db171d931c9b1d9cc0183d
:1039c0006141002329f090fd2b68144a1e93db17f8
:1039d0001f931e9b1f9cc0186141049b4b32209378
:1039e000db172193209b219cc01aa141039b0090cf
:1039f0000191f11bd81927f0ebf8d2e5039bf11bdd
:103a0000d8192b680fe7731e9f4200d3f2e40923f5
:103a100015e7c04694f8ffff95f8ffff50a7020096
:103a20006c0700000f270000b8150200039b874aaf
:103a3000d8192b68f11b01936b6850320093ab6867
:103a40009de5731e9f4200d3d4e4ab697a1c002b22
:103a500004d137230399cb55170000e53033f9e73c
:103a6000eb69d81dab69c01a0ee0280022f0aefc4d
:103a7000ab690621002b00d0591e0123002827dc4a
:103a8000ec6906d10a34601a072122f0f5ff030021
:103a90001ee00b1b6c690493002c20da6c4b1c1984
:103aa000a30706d16421200023f030f8012000296b
:103ab00006d1c8212000490023f028f84842484197
:103ac000049b04221c1a0020e30fa242434134331a
:103ad000039af11bd4195d4a200014325fe5652377
:103ae0005b42dce7731e9f4200d383e4ab69303353
:103af000a5e6aa690623002a00d0531eea69d01d54
:103b0000b1e76869002807db642122f0ffff039b0f
:103b1000f41bd8190b00b6e54e4bc0182cf068fd0d
:103b2000f2e76c694c4a22ab94420bda2d221a70f0
:103b3000494b1c1b049b002b00d041e6092320aa03
:103b40009b18f9e5434aa418069a2b2a00d0f3e5fe
:103b5000424a944200d872e06a46127ee5e52b6a3a
:103b6000002b00da7be4089b002b01d12cf03cfdfc
:103b70002cf042fd2a6a3c21d3179b1a1c22db0f32
:103b80005343c018046a6442200022f075ff2cf0f1
:103b900037fde12104900901200022f06dff3c2156
:103ba0000400049822f0b2ff284a039800912300f1
:103bb0005f32f11bc01927f00bf8002800da19e476
:103bc0003f18be4200d815e40123089347e42b6a4e
:103bd000002b00da43e4089b002b01d12cf004fdfc
:103be0002a6ad3179b1adb0f1d4a9b009c582000a2
:103bf0002cf0effbe41b3818721eb84201d107000d
:103c0000e2e7ba4201d8fff7f5fbe15d039bd95526
:103c10000137f2e7731e9f4201d3fff7ebfb252329
:103c20000de6002e02d00023039ad35538002bb0a6
:103c3000f0bd25225a70092320aa9b1882e5049a18
:103c4000002a00d178e525221a707be550a70200f2
:103c50006b0700006c07000094f8ffff0f270000bf
:043c6000f43d00200f
:020000040000fa
:103c6400f0b5e84ca54402af02003960e64b802170
:103c740089008c46bc4463441a70e44bfc22520015
:103c8400ba181360e04b802292009446bc4463440b
:103c94001b78043b2e2b01d900f05ffc9a00dc4b0f
:103ca400d3181b689f463b68fa225200ba18136067
:103cb400fc235b00fb181b68db7901225340dbb259
:103cc400002b01d000f04bfcfc235b00fb181b68ad
:103cd4000022da71fa235b00fb181b685b785bb285
:103ce400002b34d1fa235b00fb181b681a78fc23e1
:103cf4005b00fb181b685a72fa235b00fb181b68f5
:103d04001b78002b09d0fc235b00fb181b681b7a73
:103d1400180028f01dfb00f024fcfc235b00fb18ba
:103d24001b6880229b58002b01d100f01afcfc2355
:103d34005b00fb181b6880229c58fc235b00fb186b
:103d44001868002300220021a04700f00afcfc238d
:103d54005b00fb181b6800225a7200f002fc3b68ef
:103d6400f8225200ba181360fc235b00fb181b688e
:103d74000b331800f8235b00fb181b68043306227e
:103d840019002cf08cfafc235b00fb181b68113320
:103d94001800f8235b00fb181b680a332022190063
:103da4002cf07dfaf8235b00fb181b680a3318001b
:103db4002cf00dfb0300d9b2fc235b00fb181b683d
:103dc40031229954f8235b00fb181b6801215956d2
:103dd400fc235b00fb181b6832229954f8235b0018
:103de400fb181b689978fc235b00fb181b683322c3
:103df4009954f8235b00fb181b68d978fc235b00fb
:103e0400fb181b6834229954fc235b00fb181b68c5
:103e140001229a72fc235b00fb181b6880229b58ca
:103e2400002b00d19fe3fc235b00fb181b6880225e
:103e34009d58fc235b00fb181868fc235b00fb18ef
:103e44001b681b7a0133d9b2fc235b00fb181b6887
:103e54005a7afc235b00fb181b680b33f024ff34f5
:103e64003c19a84703002370f023ff33fb181b7889
:103e7400002b2cd0fc235b00fb181b681b7a01333e
:103e8400dab2fc235b00fb181b681a72fc235b008c
:103e9400fb181b681c7a2cf0bdf803009c420ed260
:103ea400fc235b00fb181b681b7a180028f050faef
:103eb400fc235b00fb181b6800229a7253e3fc236b
:103ec4005b00fb181b688022002199504be3fc2304
:103ed4005b00fb181b6880220021995043e33b6878
:103ee400f4225200ba181360f4235b00fb181b6819
:103ef4001b78012b20d1fc235b00fb181b680122db
:103f04009a71fc235b00fb181b689a229b5c0122bc
:103f14005340dbb2002b23d0fc235b00fb181b684f
:103f24009c229b58002b1bd0fc235b00fb181b68b6
:103f340099220121995413e0f4235b00fb181b68b8
:103f44001b78002b0cd1fc235b00fb181b680022a0
:103f54009a71fc235b00fb181b684c2200219954c6
:103f6400fc235b00fb181b6884229b58002b00d1a8
:103f7400fbe2fc235b00fb181b6884229b58fc2299
:103f84005200ba181068f4225200ba181268117854
:103f9400f4225200ba18126852789847e5e23b6856
:103fa400f2225200ba181360fc235b00fb181b6852
:103fb40084229b58002b00d1d9e2f2235b00fb182a
:103fc4001b681b785bb21a00163210d01a00163226
:103fd40002dc173306d024e01a0015320cd0143357
:103fe4001ad01ee00b4bfb1805221a701ee0094b79
:103ff400fb1803221a7019e0064bfb1801221a70f1
:1040040014e0c046f4fdffff07feffff103500205b
:10401400c0520200ff0100009f4bfb1806221a70d9
:1040240004e09d4bfb1807221a70c046fc235b007a
:10403400fb181b6884229b58fc225200ba18106893
:10404400954aba1812780021984790e23b68f0220a
:104054005200ba181360fc235b00fb181b681b7921
:1040640001225340dbb2002b06d0fc235b00fb187b
:104074001b68992201219954f0235b00fb181b68eb
:1040840003331b781a06f0235b00fb181b6802330a
:104094001b781b041a43f0235b00fb181b680133d5
:1040a4001b781b021343f0225200ba1812681278cc
:1040b4001a43fc235b00fb181b689c215a50fc2309
:1040c4005b00fb181b68b0229b58002b00d150e208
:1040d400fc235b00fb181b68b0229b58fc22520097
:1040e400ba181068fc225200ba1812689c2152585f
:1040f400110098473de23b68ee225200ba18136063
:10410400ee235b00fb181b68180024f09ffc0300df
:10411400ec225200ba181360fc235b00fb181b68e6
:1041240088229b58002b00d125e2fc235b00fb185e
:104134001b6888229b58fc225200ba181268ec2192
:104144004900791809681000984714e2fc235b00c1
:10415400fb181b68b8229b58002b00d10de23b686a
:10416400ea225200ba181360ea235b00fb181b68aa
:1041740018002cf02cf90300d9b2484b802292008d
:104184009446bc44634420229954444b80229200b8
:104194009446bc44634420229b5c202b00d9eee16e
:1041a4000c23fb182022002118002cf0cbf8ea2362
:1041b4005b00fb181968394b802292009446bc447a
:1041c400634420229b5c1a000c23fb1818002cf07b
:1041d40066f8ea235b00fb181b6862229a5c304b8a
:1041e400802189008c46bc4463441a70ea235b0036
:1041f400fb181b6862229b5c022b2cd1ea235b0018
:10420400fb181b68213318002cf0e1f80300dab224
:10421400234b802189008c46bc4463441a713823a3
:10422400fb1805334022002118002cf08bf8ea23f8
:104234005b00fb181b6821331900194b8022920084
:104244009446bc4463441b791a003823fb18053395
:1042540018002cf024f8fc235b00fb181b68b82220
:104264009c58fc235b00fb181868ea235b00fb18ce
:104274001b6863229b5c5a425341dbb23822ba1852
:104284000c217918a047fc235b00fb181b68b8229b
:104294000021995071e1c046ff0100000cfeffffb0
:1042a40038feffff3b68e8225200ba181360e82387
:1042b4005b00fb181b6818002cf089f80300d9b2c6
:1042c400fc235b00fb181b686d229954fc235b00e4
:1042d400fb181b686d229b5c202b00d951e1fc2349
:1042e4005b00fb181b684d332022002118002cf0c2
:1042f40029f8fc235b00fb181b684d331800e823e6
:104304005b00fb181968fc235b00fb181b686d221b
:104314009b5c1a002bf0c3ffe8235b00fb181b68af
:104324002122995cfc235b00fb181b687c229954b6
:10433400e8235b00fb181b6825229b5c1a06e82314
:104344005b00fb181b6824215b5c1b041a43e823f5
:104354005b00fb181b6823215b5c1b021343e822f0
:104364005200ba1812682221525c1a43fc235b00e3
:10437400fb181b681a67fc235b00fb181b6874336b
:104384001800e8235b00fb181b682633062219007b
:104394002bf085fffc235b00fb181b684c220121da
:1043a4009954fc235b00fb181b688c229b58002b40
:1043b40000d1e8e0fc235b00fb181b688c229c58ae
:1043c400fc235b00fb181868fc235b00fb181b68cc
:1043d4004d331900fc235b00fb181b6870331d0070
:1043e400fc235b00fb181b687c229e5ce8235b00bb
:1043f400fb181b682c229b56009333002a00a0470d
:10440400c1e03b68e6225200ba181360e6235b0061
:10441400fb181b6800215956fc235b00fb181b6822
:1044240044229954fc235b00fb181b6890229b5880
:10443400002b00d1a9e0fc235b00fb181b68902231
:104444009b58fc225200ba181068fc225200ba1879
:1044540012684421525611009847fc235b00fb1854
:104464001b689022002199508fe03b68e42252009f
:10447400ba181360fc235b00fb181b6894229b583a
:10448400002b00d183e00c23fb18180028f0ccfb90
:10449400e4235b00fb181b689c1ce4235b00fb18f3
:1044a4001b68023318002bf092ff0300dab20c23ce
:1044b400fb182100180025f005fde4235b00fb1820
:1044c4001b685a780c23fb181100180026f0f6ff1d
:1044d400e4235b00fb181b681b78012b02d0022b22
:1044e40006d01ce03823fb1818002bf049f824e010
:1044f400e4235b00fb181b6823331c00e4235b00ec
:10450400fb181b68233318002bf061ff0300dab299
:104514003823fb182100180026f0a0ff0de0fc232f
:104524005b00fb181b6894229b58fc225200ba18ab
:1045340010680022002198472ae0fc235b00fb1846
:104544001b6894229b58fc225200ba181068382227
:10455400ba180c217918984719e0c04618e0c046eb
:1045640016e0c04614e0c04612e0c04610e0c04663
:104574000ee0c0460ce0c0460ae0c04608e0c04673
:1045840006e0c04604e0c04602e0c04600e0c04683
:0c459400bd4681239b009d44f0bdc04645
:020000040000fa
:1045a00090b5e3b004aff860d248bc246400a446e0
:1045b000bc446044016042603b60fb68002b03d157
:1045c0002bf016fd03009847bc23fb18fa6803caba
:1045d00003c30123a8225200ba1813605023ff33eb
:1045e000fb1800221a70a8235b00fb181b68002b25
:1045f00001da0023bce0b423fb18bc22ba1803caba
:1046000003c3b423fb181b68a4225200ba1813601a
:10461000ac23fb18bc22ba1803ca03c3ac23fb1893
:104620005b68a2225200ba1813604423ff33fb18c0
:1046300000221a70f423fb18180008231a00002126
:104640002bf082fea423fb18f422ba1803ca03c37a
:10465000a423fb181b689e225200ba181360502333
:10466000ff33fb181b78002b23d0a4235b00fb181f
:104670001b68002b09d0a4235b00fb181a689e233b
:104680005b00fb181b689a4207d1a2235b00fb1852
:104690001b685a425341dbb206e0a2235b00fb18c1
:1046a0001b68db43db0fdbb24422ff32ba18137006
:1046b00020e0a4235b00fb181b68002b11d0a4236f
:1046c0005b00fb181a689e235b00fb181b689a426c
:1046d00007d0a2235b00fb181b68002b01db012223
:1046e00000e000224423ff33fb181a701a780121de
:1046f0000a401a7001235b429c225200ba181360d0
:104700004423ff33fb181b78002b11d09c235b0044
:10471000fb181a68a4235b00fb181b68d31a1a0045
:10472000a2235b00fb181b689a4201d3012200e020
:1047300000224423ff33fb181a701a7801210a4023
:104740001a704423ff33fb181b78002b0bd0a823cf
:104750005b00fb181a68a2235b00fb181b689a42d7
:1047600001dc012300e000231a1c01231340dbb20b
:1047700001225340dbb2002b03d02bf039fc0300a5
:104780009847dc23f9185b4bbc225200ba18d218a8
:104790000b0003ca03c301239a225200ba18136004
:1047a0003423ff33fb1800221a709a235b00fb1896
:1047b0001b68002b01da0023bee0d423fb18dc22a7
:1047c000ba1803ca03c3d423fb181b6896225200ed
:1047d000ba181360cc23fb18dc22ba1803ca03c32f
:1047e000cc23fb185b6894225200ba18136028236c
:1047f000ff33fb1800221a70fc23fb181800082353
:104800001a0000212bf0a0fdc423fb18fc22ba18cb
:1048100003ca03c3c423fb181b6890225200ba18b2
:1048200013603423ff33fb181b78002b23d096230f
:104830005b00fb181b68002b09d096235b00fb185c
:104840001a6890235b00fb181b689a4207d19423d7
:104850005b00fb181b685a425341dbb206e094230d
:104860005b00fb181b68db43db0fdbb22822ff3247
:10487000ba18137020e096235b00fb181b68002b0e
:1048800011d096235b00fb181a6890235b00fb187d
:104890001b689a4207d094235b00fb181b68002b0f
:1048a00001db012200e000222823ff33fb181a70ed
:1048b0001a7801210a401a7001235b428e225200ad
:1048c000ba1813602823ff33fb181b78002b13d072
:1048d0008e235b00fb181a6896235b00fb181b688d
:1048e000d31a1a0094235b00fb181b689a4203d367
:1048f000012202e08cfeffff00222823ff33fb1879
:104900001a701a7801210a401a702823ff33fb1805
:104910001b78002b0bd09a235b00fb181a6894239a
:104920005b00fb181b689a4201dc012300e00023b6
:104930001a1c01231340dbb201225340dbb2002bcf
:1049400003d02bf055fb030098473b68002b03d1a5
:104950002bf04efb0300984780235b02ba225200e3
:10496000ba181360ca4bcb4abc2149007918891880
:104970001a685b68086849681cf09cfe0300b8224e
:104980005200ba181360b8235b00fb181b68002b99
:1049900000da5be2bf4bbc2252009446bc44634445
:1049a000bd4819685a6815f09fff01235b42b62283
:1049b0005200ba1813609423f918b64bbc22520067
:1049c000ba18d2180b0003ca03c39423fb185b6800
:1049d0009c22b818b8225200ba181168ad4abc24fb
:1049e0006400a446bc44624400930b001168526802
:1049f00015f0aafea94b9c22b9181a685b680868d2
:104a000049681cf057fe0300b6225200ba18136022
:104a1000b6235b00fb181b68002b00da52e1002371
:104a20009022ba1813609e4bbc2252009446bc449c
:104a300063449a4a03ca03c3994bbc22520094466a
:104a4000bc4463445a68b6235b00fb181b68d1184a
:104a5000944bbc225200ba18d0188e4bbc22520084
:104a6000ba18d218030011ca11c38e4bbc225200cf
:104a70009446bc4463445b68e422b818854abc246d
:104a80006400a446bc44624400930b001168526861
:104a900015f05afeec23fb18834a03ca03c3802394
:104aa000fc18ec23fb18e422ba1890217918029123
:104ab0008821791801916946586808601b68116857
:104ac0005268200008f0b2fc0023fb677c23fa1830
:104ad0008023fb18186859680ef09cfc0300b42270
:104ae0005200ba181360b4235b00fb181b688c22b9
:104af0005200ba1813608c235b00fb181b68db0f95
:104b0000dbb2002b04d0b4235b00fb181b68a6e1ca
:104b1000fb6f9ab23b685a819023fb181b680133e4
:104b200001d1624b9be1624bbc2252009446bc44d3
:104b300063448822ba1803ca03c35d4bbc225200e7
:104b40009446bc4463445b685a4abc2149007918c6
:104b500088188822ba18009301231168526815f04a
:104b6000f3fd554bbc225200ba18d118514bbc2250
:104b70005200ba18d2180b0003ca03c34e4bbc2212
:104b800052009446bc44634459684a4bbc225200cc
:104b9000ba18d2186c23f8180b001168526817f075
:104ba000d9f80300b2225200ba181360b2235b0096
:104bb000fb181b688a225200ba1813608a235b0014
:104bc000fb181b68db0fdbb2002b04d0b2235b00a9
:104bd000fb181b6843e13b68384a6c217818116860
:104be00052680af0a5fd0300b0225200ba18136003
:104bf000b0235b00fb181b6888225200ba181360b0
:104c000088235b00fb181b68db0fdbb2002b04d092
:104c1000b0235b00fb181b6821e13b685b89cc2b50
:104c200025d13b6803221a723b680c33244a6c215d
:104c30007818116852680af07bfd0300ae2252001a
:104c4000ba181360ae235b00fb181b688622520063
:104c5000ba18136086235b00fb181b68db0fdbb2fe
:104c6000002b0dd0ae235b00fb181b68f7e03b6800
:104c700001221a723b680022da603b6800221a6146
:104c800080235b02ba225200ba181360e3e0c046e8
:104c9000f00403008cfeffff01000600f80403008f
:104ca000dcfeffffd4feffff30940200060001800f
:104cb000e4feffffecfeffffccfeffffe804030075
:104cc00008050300684b9c22b9181a685b680868dd
:104cd00049681cf0effc0300b6225200ba181360ba
:104ce000b6235b00fb181b68002b00daa8e05f4bc3
:104cf000bc2252009446bc4463445b4a03ca03c3cb
:104d00005a4bbc2252009446bc4463445a68b623b2
:104d10005b00fb181b68d318591c554bbc22520072
:104d2000ba18d018534bbc225200ba18d21803003c
:104d300011ca11c34e4bbc2252009446bc4463447a
:104d40005b684d4abc20400038188018494abc2492
:104d50006400a446bc44624400930b00116852688e
:104d600015f0f2fc454bbc225200ba18d118424b48
:104d7000bc225200ba18d2180b0003ca03c33f4b1f
:104d8000bc2252009446bc44634459683a4bbc224e
:104d90005200ba18d2183423f8180b001168526860
:104da00016f0d8ff0300ac225200ba181360ac23ef
:104db0005b00fb181b6884225200ba18136084231e
:104dc0005b00fb181b68db0fdbb2002b04d0ac23ad
:104dd0005b00fb181b6842e03b680c33284a342117
:104de0007818116852680af0a3fc0300aa22520046
:104df000ba181360aa235b00fb181b687a1dff32e8
:104e000013607b1dff331b68db0fdbb2002b04d06c
:104e1000aa235b00fb181b6821e03b6802221a7280
:104e20003b6800221a603b6800225a603b68c82237
:104e30005a8180235b02ba225200ba1813600ae03a
:104e4000104bba225200ba18136004e00d4bba227c
:104e50005200ba181360ba235b00fb181b681800d5
:104e6000bd465fb090bdc04618050300acfeffff15
:104e7000a4feffff8cfeffffb4feffff9cfeffffc2
:084e8000080503000100058094
:020000040000fa
:104e880090b5e7b000afdc4bcc246400a446bc442a
:104e98006344186059607a60d84bcc225200ba1823
:104ea800d118d54bcc225200ba18d2180b0003ca1d
:104eb80003c30023ca225200ba1813609423ff3395
:104ec800fb1800221a70ca235b00fb181b68002b12
:104ed80001da0023dce0ca4bcc225200ba18d11800
:104ee800c64bcc225200ba18d2180b0003ca03c30f
:104ef800c34bcc2252009446bc4463441b68c62270
:104f08005200ba181360bf4bcc225200ba18d118fd
:104f1800ba4bcc225200ba18d2180b0003ca03c3ea
:104f2800b84bcc2252009446bc4463445b68c4220c
:104f38005200ba1813608823ff33fb1800221a7036
:104f4800a6235b00fb18180008231a0000212bf089
:104f5800f7f9ad4bcc2252009446bc446344a622d8
:104f68005200ba1803ca03c3a74bcc225200944676
:104f7800bc4463441b68c0225200ba1813609423cf
:104f8800ff33fb181b78002b23d0c6235b00fb18cc
:104f98001b68002b09d0c6235b00fb181a68c023c6
:104fa8005b00fb181b689a4207d1c4235b00fb18ff
:104fb8001b685a425341dbb206e0c4235b00fb186e
:104fc8001b68db43db0fdbb28822ff32ba18137091
:104fd80020e0c6235b00fb181b68002b11d0c623fa
:104fe8005b00fb181a68c0235b00fb181b689a4219
:104ff80007d0c4235b00fb181b68002b01db0122d0
:1050080000e000228823ff33fb181a701a78012168
:105018000a401a7001235b42be225200ba1813607c
:105028008823ff33fb181b78002b11d0be235b00ad
:10503800fb181a68c6235b00fb181b68d31a1a00f2
:10504800c4235b00fb181b689a4201d3012200e0cd
:1050580000228823ff33fb181a701a7801210a40ae
:105068001a708823ff33fb181b78002b0bd0ca2338
:105078005b00fb181a68c4235b00fb181b689a4284
:1050880001dc012300e000231a1c01231340dbb2da
:1050980001225340dbb2002b03d02af0a5ff030006
:1050a80098477b68002b03d12af09eff030098479e
:1050b80092235b00fb18554a03ca03c3544bcc2206
:1050c8005200ba18d1184c4bcc225200ba18d21838
:1050d8000b0003ca03c34f4bcc2252009446bc4476
:1050e800634492225200ba1803ca03c34a4bcc2223
:1050f8005200ba18d118464bcc225200ba18d2180e
:105108000b0003ca03c3444bcc2252009446bc4450
:1051180063445b68bc225200ba1813603f4bcc2230
:105128005200ba18d1183b4bcc225200ba18d218e8
:105138000b0003ca03c3394bcc2252009446bc442b
:1051480063445b68ba225200ba181360bc235b0040
:10515800fb181b68002b07d1ba235b00fb181b68e0
:105168005a425341dbb241e0bc235b00fb181a688a
:10517800ba235b00fb181b689a4232d1284bcc2219
:105188005200ba18d118224bcc225200ba18d218a1
:105198000b0003ca03c3224bcc2252009446bc44e2
:1051a800634418681f4bcc225200ba18d118194b07
:1051b800cc225200ba18d2180b0012ca12c3194bcb
:1051c800cc2252009446bc4463441b68bc22520063
:1051d800ba18126819002af0c4fb031e01d1012372
:1051e80000e000231a1c01231340dbb2002b1bd064
:1051f8007b6801221a7039e270feffff94feffff00
:105208008cfeffff84feffff7cfeffffcc4b0100fe
:10521800bcfeffffc4feffffa4feffff9cfeffffd6
:10522800b4feffffacfeffff96235b00fb18e74ac6
:1052380003ca03c3e64bcc225200ba18d118e54b77
:10524800cc225200ba18d2180b0003ca03c3e24b8f
:10525800cc2252009446bc44634496225200ba18a9
:1052680003ca03c3dd4bcc225200ba18d118d84b5d
:10527800cc225200ba18d2180b0003ca03c3d74b6a
:10528800cc2252009446bc4463445b68b822520066
:10529800ba181360d24bcc225200ba18d118ce4b90
:1052a800cc225200ba18d2180b0003ca03c3cc4b45
:1052b800cc2252009446bc4463445b68b622520038
:1052c800ba181360b8235b00fb181b68002b07d1c2
:1052d800b6235b00fb181b685a425341dbb241e01e
:1052e800b8235b00fb181a68b6235b00fb181b6821
:1052f8009a4232d1bb4bcc225200ba18d118b44bc7
:10530800cc225200ba18d2180b0003ca03c3b54bfb
:10531800cc2252009446bc4463441868b24bcc2259
:105328005200ba18d118ac4bcc225200ba18d21875
:105338000b0012ca12c3ac4bcc2252009446bc4498
:1053480063441b68b8225200ba18126819002af080
:1053580008fb031e01d1012300e000231a1c0123ce
:105368001340dbb2002b03d07b6802221a707de168
:105378009a235b00fb189d4a03ca03c3b423f91898
:10538800944bcc225200ba18d2180b0003ca03c39c
:10539800bc23fb189a225200ba1803ca03c39c23e1
:1053a800fb18b422ba1803ca03c39c23fb185b6812
:1053b800b4225200ba1813608d4bcc225200944686
:1053c800bc446344bc22ba1803ca03c3884bcc222a
:1053d80052009446bc4463445b68b2225200ba1837
:1053e8001360b4235b00fb181b68002b07d1b223a2
:1053f8005b00fb181b685a425341dbb22be0b42315
:105408005b00fb181a68b2235b00fb181b689a4202
:105418001cd1ac23fb18b422ba1803ca03c3ac23ab
:10542800fb181868a423fb18bc22ba1812ca12c3a6
:10543800a423fb181b68b4225200ba18126819007a
:105448002af08ffa031e01d1012300e000231a1c61
:1054580001231340dbb2002b03d07b6803221a70b0
:1054680004e19e235b00fb18624a03ca03c3e423da
:10547800f918584bcc225200ba18d2180b0003ca9c
:1054880003c3ec23fb189e225200ba1803ca03c3b5
:10549800cc23fb18e422ba1803ca03c3cc23fb1895
:1054a8005b68b0225200ba181360c423fb18ec22c0
:1054b800ba1803ca03c3c423fb185b68ae225200a0
:1054c800ba181360b0235b00fb181b68002b07d1c8
:1054d800ae235b00fb181b685a425341dbb22be03a
:1054e800b0235b00fb181a68ae235b00fb181b682f
:1054f8009a421cd1dc23fb18e422ba1803ca03c35e
:10550800dc23fb181868d423fb18ec22ba1812ca3b
:1055180012c3d423fb181b68b0225200ba181268b1
:1055280019002af01efa031e01d1012300e000230e
:105538001a1c01231340dbb2002b03d07b68002226
:105548001a7093e0a2235b00fb182b4a03ca03c31b
:105558008a235b00f9181f4bcc225200ba18d218c4
:105568000b0003ca03c38e235b00fb18a222520060
:10557800ba1803ca03c3fc23fb188a225200ba18bc
:1055880003ca03c3fc23fb185b68ac225200ba1899
:105598001360f423fb188e225200ba1803ca03c3ff
:1055a800f423fb185b68aa225200ba181360ac23d4
:1055b8005b00fb181b68002b20d1aa235b00fb189b
:1055c8001b685a425341dbb248e0c046e04b010039
:1055d800ecfeffff70fefffff4feffffd4feffffaf
:1055e800ccfeffffe4feffffdcfefffff04b0100f7
:1055f800fcfeffff044c0100184c0100ac235b00cb
:10560800fb181a68aa235b00fb181b689a4220d172
:1056180086235b00fb188a225200ba1803ca03c308
:1056280086235b00fb1818687b1dff338e2252000f
:10563800ba1812ca12c37b1dff331b68ac22520072
:10564800ba18126819002af08cf9031e01d1012337
:1056580000e000231a1c01231340dbb2002b03d007
:105668007b6804221a7001e0034b01e080235b028f
:0c5678001800bd4667b090bd0500018021
:020000040000fa
:1056840090b5d1b002af78608423fb187a6811001a
:10569400180028f0a7fe00238022ba181360002304
:1056a400fb674823fb188422ba1803ca03c34823a0
:1056b400fb181b681a787b23fb181a707b23fb18d2
:1056c4001b782d2b3ad18023fb181b6801338022d1
:1056d400ba181360fb6f0133fb677c23fa18842329
:1056e400f9187b68180020f041fa03009a2252004e
:1056f400ba1813609a235b00fb181b6890225200af
:10570400ba18136090235b00fb181b68db0fdbb235
:10571400002b04d09a235b00fb181b6870e3502312
:10572400fb188422ba1803ca03c35023fb181b684e
:10573400fa6f9b181a787b23fb181a707b23fb18cb
:105744001b78302b00d0ace08023fb181b6801339e
:105754008022ba181360fb6f0133fb67cb4b9c228a
:1057640052009446bc4463448422ba1803ca03c357
:10577400c64b9c2252009446bc4463445a68fb6f57
:105784009a422fdc8423f9187b680022180020f049
:1057940093f903008e225200ba1813608e235b0023
:1057a400fb181b68db0fdbb2002b19d0fb6f8c22bc
:1057b400b8188422ba18009300231168526814f0b0
:1057c400c1fff96f8023fb181b688c22ba18786814
:1057d40000930b001168526827f0d0fc03000fe31c
:1057e4000023fb673c23fb188422ba1803ca03c3b3
:1057f4003c23fb181b68fa6f9b181a787b23fb1851
:105804001a7080235b027b647b23fb181878942333
:10581400fb189f4a12ca12c34423fb189422ba18d5
:105824001168526822f0e8fd031e00d1fde07b6c94
:105834008c225200ba1813608c235b00fb181b687f
:105844008a225200ba1813608a235b00fb181b6873
:10585400db0fdbb25a1e9341dbb201225340dbb2b1
:105864001a1c01231340dbb2002b18d0fb6f9c22bf
:10587400b8188422ba18009300231168526814f0ef
:1058840061fffa6f8023fb1819689c23fb18786862
:10589400019100921a685b68072123f0dff97b6ca1
:1058a400aee22af007fa02007b23fb181b780133cf
:1058b400d3181b781a000423134003d12af096fb53
:1058c400030098478023fb187c22ba188421791896
:1058d40078681bf077fc6f4b9c2252009446bc44c2
:1058e40063448422ba1803ca03c36a4b9c2252003d
:1058f4009446bc4463445a68fb6f9a422fdc842369
:10590400f9187b680022180020f0d6f803008822da
:105914005200ba18136088235b00fb181b68db0f66
:10592400dbb2002b19d0fb6fa422b8188422ba185a
:10593400009300231168526814f004fff96f802368
:10594400fb181b68a422ba18786800930b0011682e
:10595400526827f013fc030052e20023fb674e4b0e
:105964009c2252009446bc4463448422ba1803ca5d
:1059740003c3494b9c2252009446bc4463441b68b5
:10598400fa6f9b181a787b23fb181a7080235b022a
:105994003b637b23fb181878ac23fb183c4a12cae0
:1059a40012c33023fb18ac22ba181168526822f0d3
:1059b40023fd031e39d03b6b86225200ba181360b4
:1059c40086235b00fb181b6884225200ba181360fc
:1059d40084235b00fb181b68db0fdbb25a1e934168
:1059e400dbb201225340dbb21a1c01231340dbb2a9
:1059f400002b18d0fb6fb422b8188422ba18009375
:105a040000231168526814f09dfefa6f8023fb187e
:105a14001968b423fb187868019100921a685b68ce
:105a2400072123f01bf93b6beae17b23fb181b786e
:105a34002e2b00d0dfe08023fb181b68013380226b
:105a4400ba181360fb6f0133fb677c23fa188423b5
:105a5400f9187b68180020f089f803009822520096
:105a6400ba18136098235b00fb181b687a1dff3279
:105a740013607b1dff331b68db0fdbb2002b0dd0e3
:105a840098235b00fb181b68bae1c046fcfeffffcd
