:020000040000fa
:10000000f07f00209de902008f380300953803003f
:1000100000000000000000000000000000000000e0
:10002000000000000000000000000000d3f100000c
:100030000000000000000000d3f10000d3f1000038
:10004000d3f10000d3f10000d3f10000d3f10000a0
:10005000058c0200d3f10000096f0200d3f100000b
:10006000d3f10000d3f10000d3f10000d3f1000080
:10007000dd77010029bd0100b5c60200d3f1000003
:10008000d3f10000d3f10000090a0300d3f100000e
:10009000d3f100000000000000000000d3f10000d8
:1000a000d3f10000d3f10000d3f10000d3f1000040
:020000040000fa
:1000b000f8b5c046f8bc08bc9e46704761fb02001c
:1000c000f8b5c046f8bc08bc9e46704739fb020034
:020000040000fa
:0800d000b65a02000100000015
:020000040000fa
:1000d80082b0b0b5e34ca54404af7861e248cc24c3
:1000e800a400a446bc446044016042600422d021bc
:1000f80089008c46bc44624413607b69002b03d1a1
:1001080033f026f803009847d84bcc229200944647
:10011800bc4463447a6903ca03c30123c72292001b
:10012800ba181360d24bfb1800221a70c7239b0021
:10013800fb181b68002b01da0023d7e0cd4bcc223b
:100148009200ba18d118c94bcc229200ba18d2180a
:100158000b0003ca03c3c74bcc2292009446bc448d
:1001680063441b68c5229200ba181360c24bcc22a4
:100178009200ba18d118bd4bcc229200ba18d218e6
:100188000b0003ca03c3bc4bcc2292009446bc4468
:1001980063445b68c4229200ba181360b74bfb181b
:1001a80000221a70b64bcc2292009446bc44634499
:1001b80000221a605a60b34bcc229200ba18d118a8
:1001c800af4bcc229200ba18d2180b0003ca03c353
:1001d800ac4bcc2292009446bc4463441b68c222b8
:1001e8009200ba181360a24bfb181b78002b22d080
:1001f800c5239b00fb181b68002b09d0c5239b0057
:10020800fb181a68c2239b00fb181b689a4207d187
:10021800c4239b00fb181b685a425341dbb206e01b
:10022800c4239b00fb181b68db43db0fdbb2934a3c
:10023800ba1813701fe0c5239b00fb181b68002b1e
:1002480011d0c5239b00fb181a68c2239b00fb181a
:100258001b689a4207d0c4239b00fb181b68002b1d
:1002680001db012200e00022844bfb181a701a7887
:1002780001210a401a7001235b42c1229200ba1878
:1002880013607e4bfb181b78002b11d0c1239b00f9
:10029800fb181a68c5239b00fb181b68d31a1a00a1
:1002a800c4239b00fb181b689a4201d3012200e07b
:1002b8000022724bfb181a701a7801210a401a7032
:1002c8006e4bfb181b78002b0bd0c7239b00fb1829
:1002d8001a68c4239b00fb181b689a4201dc01239f
:1002e80000e000231a1c01231340dbb20122534013
:1002f800dbb2002b03d032f02bff03009847624b90
:10030800cc229200ba18d118574bcc229200ba18b6
:10031800d2180b0003ca03c30023c0229200ba18e4
:1003280013605a4bfb1800221a70c0239b00fb185d
:100338001b68002b01da0023f7e0554bcc22920012
:10034800ba18d118504bcc229200ba18d2180b0008
:1003580003ca03c34e4bcc2292009446bc44634468
:100368001b68be229200ba1813604a4bcc22920036
:10037800ba18d118444bcc229200ba18d2180b00e4
:1003880003ca03c3434bcc2292009446bc44634443
:100398005b68bd229200ba1813603f4bfb1800221d
:1003a8001a703e4bcc2292009446bc44634400220f
:1003b8001a605a603a4bcc229200ba18d118374bbf
:1003c800cc229200ba18d2180b0003ca03c3344bcc
:1003d800cc2292009446bc4463441b68bb22920022
:1003e800ba181360294bfb181b78002b22d0be23a8
:1003f8009b00fb181b68002b09d0be239b00fb1831
:100408001a68bb239b00fb181b689a4207d1bd23bf
:100418009b00fb181b685a425341dbb206e0bd2320
:100428009b00fb181b68db43db0fdbb21a4aba18c8
:1004380013703fe0be239b00fb181b68002b31d0d4
:10044800be239b00fb181a68bb239b00fb181b6884
:100458009a4227d0bd239b00fb181b68002b21db89
:10046800012220e0c0fcffffdcfcffff98fdffff3e
:100478001b03000090fdffff88fdffff0f03000036
:100488002cfeffff80fdffffb8fdffffff0200000d
:10049800b0fdffffa8fdfffff302000034feffffe1
:1004a800a0fdffff0022c64bfb181a701a78012125
:1004b8000a401a7001235b42ba229200ba181360ec
:1004c800bf4bfb181b78002b11d0ba239b00fb18dd
:1004d8001a68be239b00fb181b68d31a1a00bd2399
:1004e8009b00fb181b689a4201d3012200e00022fe
:1004f800b34bfb181a701a7801210a401a70b04bd6
:10050800fb181b78002b0bd0c0239b00fb181a6824
:10051800bd239b00fb181b689a4201dc012300e005
:1005280000231a1c01231340dbb201225340dbb223
:10053800002b03d032f00cfe03009847a14bcc22cd
:100548009200ba18d1180423d0229200ba18d218ef
:100558000b0003ca03c30023b9229200ba18136020
:10056800994bfb1800221a70b9239b00fb181b68d3
:10057800002b01da0023d7e0944bcc229200ba1862
:10058800d118904bcc229200ba18d2180b0003ca8b
:1005980003c38e4bcc2292009446bc4463441b6830
:1005a800b7229200ba181360894bcc229200ba186d
:1005b800d118844bcc229200ba18d2180b0003ca67
:1005c80003c3834bcc2292009446bc4463445b68cb
:1005d800b6229200ba1813607e4bfb1800221a70dc
:1005e8007d4bcc2292009446bc44634400221a609e
:1005f8005a607a4bcc229200ba18d118764bcc228a
:100608009200ba18d2180b0003ca03c3734bcc224a
:1006180092009446bc4463441b68b4229200ba1802
:100628001360694bfb181b78002b22d0b7239b0063
:10063800fb181b68002b09d0b7239b00fb181a680e
:10064800b4239b00fb181b689a4207d1b6239b0072
:10065800fb181b685a425341dbb206e0b6239b00e5
:10066800fb181b68db43db0fdbb25a4aba1813705e
:100678001fe0b7239b00fb181b68002b11d0b72382
:100688009b00fb181a68b4239b00fb181b689a424e
:1006980007d0b6239b00fb181b68002b01db012247
:1006a80000e000224b4bfb181a701a7801210a400f
:1006b8001a7001235b42b3229200ba181360454bab
:1006c800fb181b78002b11d0b3239b00fb181a686a
:1006d800b7239b00fb181b68d31a1a00b6239b008c
:1006e800fb181b689a4201d3012200e00022394b13
:1006f800fb181a701a7801210a401a70354bfb183a
:100708001b78002b0bd0b9239b00fb181a68b62363
:100718009b00fb181b689a4201dc012300e00023c0
:100728001a1c01231340dbb201225340dbb2002b19
:1007380003d032f00dfd03009847d3239b00fb182c
:100748001b68002b03d132f003fd03009847244bac
:10075800cc2292009446bc446344224a03ca03c391
:10076800214bcc229200ba18d0181d4bcc229200f3
:10077800ba18d218172300930023116852681cf086
:100788006bfe194bcc2292009446bc446344174a32
:10079800cc218900791889181a685b680868496843
:1007a80024f09af90300cb229200ba181360cb23e5
:1007b8009b00fb181b68002b1cd00d4b01f001f9a6
:1007c800f3020000d8fdffffe3020000d0fdffffa9
:1007d800c8fdffffd70200003cfeffffc0fdffff82
:1007e800e0fdffffa46b010014feffffdcfcffff30
:1007f80001000580f24bcc2292009446bc4463442d
:10080800f04819685a681cf08bfc0423d022920027
:100818009446bc446344ec4819685a681cf080fc50
:10082800ea4bcc229200ba18d118e94bcc2292009c
:10083800ba18d2180b0003ca03c3e44bcc229200a7
:100848009446bc4463445968e24bcc229200ba18df
:10085800d018db4bcc229200ba18d2180b001168c2
:10086800526830f017fa00239c225200ba1813601d
:10087800d94bcc2292009446bc446344d74a03ca5d
:1008880003c3d74bcc229200ba18d418d24bcc222f
:1008980092009446bc446344ce4acc2189008c46dd
:1008a800bc4462449c214900791802919e21490068
:1008b800791801916946586808601b681168526880
:1008c80020000ef08dfad3239b00fb181b68083319
:1008d8001a00c34bcc2189008c46bc446344186879
:1008e800596815f071fb0300ca229200ba18136008
:1008f800ca239b00fb181b68b2229200ba18136027
:10090800b2239b00fb181b68db0fdbb2002b05d062
:10091800ca239b00fb181b6801f053f8b14bcc228b
:1009280092009446bc446344af4a03ca03c3ad4b28
:10093800cc2292009446bc446344a64acc21890048
:10094800791889181a685b680868496824f0c4f837
:100958000300cb229200ba181360cb239b00fb182c
:100968001b68013300d18fe0a04bcc229200ba184b
:10097800d1189c4bcc229200ba18d2180b0003ca8b
:1009880003c39a4bcc2292009446bc4463445a68f1
:10099800cb239b00fb181b68d1188e4bcc229200ee
:1009a800ba18d41838008b4bcc229200ba18d21837
:1009b8000b001168526830f06df98d4bcc22920013
:1009c800ba18d218230003ca03c38a4bcc22920058
:1009d8009446bc446344884a03ca03c3804bcc2270
:1009e8009200ba18d4183d00824bcc22920094464b
:1009f800bc446344774acc2189008c46bc44624499
:100a08009c214900791802919e2149007918019189
:100a18006946586808601b681168526828000ef01b
:100a2800dff9734bcc229200ba18d218230003cafc
:100a380003c3d3239b00fb181b680c331a00684bb5
:100a4800cc2189008c46bc4463441868596815f069
:100a5800bbfa0300c9229200ba181360c9239b008d
:100a6800fb181b68b1229200ba181360b1239b00cf
:100a7800fb181b68db0fdbb2002b0bd0c9239b00d4
:100a8800fb181b6800f09dffd3239b00fb181b6815
:100a98000022da60594bcc229200ba18d1180423ec
:100aa800d0229200ba18d2180b0003ca03c3d3236a
:100ab8009b00fb181b68af229200ba1813604f4bbb
:100ac800cc229200ba18d2184823f81800231168cb
:100ad800526826f079fc0300ae229200ba1813601f
:100ae800ae239b00fb181b68ad229200ba18136056
:100af800ad239b00fb181b68db0fdbb2002b05d076
:100b0800ae239b00fb181b6800f040ff4823fb182e
:100b180018001ff02ffa0300ac229200ba181360d5
:100b2800ac239b00fb181b68ab229200ba18136019
:100b3800ab239b00fb181b68db0fdbb2002b05d037
:100b4800ac239b00fb181b6800f020ff2c4bcc2229
:100b580092009446bc4463441b7a012b02d0294b73
:100b680000f014ff284bcc2292009446bc44634406
:100b7800180030231a00002132f0bafcaf239b0082
:100b8800fb181b68204acc2189008c46bc4462446f
:100b9800103313ca13c313ca13c313ca13c313ca14
:100ba80013c31a4bfb1800221a70194bfb180022aa
:100bb8001a70184bfb1800221a7000f08afec04603
:100bc800dcfcffff0100060002000600e8fdffff55
:100bd80014feffff0cfeffff1cfeffff106c010060
:100be80000fefffff8fdffff286c0100f0fdffff8e
:100bf800d0fcffff24feffff346c010078fdffffef
:100c080018fdffff05000180e8fcffffab020000b4
:100c1800aa020000a9020000e54bcc2292009446eb
:100c2800bc446344e34a03ca03c3e14bcc229200a9
:100c38009446bc4463444822b81819685a680cf0b2
:100c480027fa031e49d04823fb1818001ff092f911
:100c58000300a9229200ba181360a9239b00fb186d
:100c68001b68a8229200ba181360a8239b00fb18df
:100c78001b68db0fdbb2002b05d0a9239b00fb18f8
:100c88001b6800f083fecc4bcc2292009446bc44f7
:100c980063441b7a062b02d0c84b00f077feaf23c3
:100ca8009b00fb181968c44bcc229200ba18d218c2
:100cb8000b0003ca03c3c24bfb1801221a70c14bb5
:100cc800fb18c04aba1812781a70bf4bfb18be4af4
:100cd800ba1812781a7000f0fcfdbc4bcc229200b6
:100ce8009446bc446344ba4a03ca03c3b74bcc22f4
:100cf80092009446bc4463444822b81819685a685c
:100d08000cf0c6f9031e68d04823fb1818001ff022
:100d180031f90300a7229200ba181360a7239b0099
:100d2800fb181b68a6229200ba181360a6239b0022
:100d3800fb181b68db0fdbb2002b05d0a7239b0039
:100d4800fb181b6800f022fe9b4bcc2292009446b5
:100d5800bc4463441b7a062b02d0984b00f016fe65
:100d6800af239b00fb181b680a331a00924bcc2157
:100d780089008c46bc4463441868596803f066fad5
:100d88000300a5229200ba181360a5239b00fb1844
:100d98001b68a4229200ba181360a4239b00fb18b6
:100da8001b68db0fdbb2002b05d0a5239b00fb18cb
:100db8001b6800f0ebfd834bfb1801221a70804b77
:100dc800fb187f4aba1812781a707f4bfb187e4ab4
:100dd800ba1812781a7000f07cfd7e4bcc22920073
:100de8009446bc4463447c4a03ca03c3794bcc226f
:100df80092009446bc4463444822b81819685a685b
:100e08000cf046f9031e00d138e34823fb181800fc
:100e18001ff0b0f80300a3229200ba181360a323ae
:100e28009b00fb181b68a2229200ba181360a22329
:100e38009b00fb181b68db0fdbb2002b05d0a3233c
:100e48009b00fb181b6800f0a1fdaf239b00fb185b
:100e58001b6810334822ba18a121890079180a6042
:100e6800a0229200ba181360a1239b00fb181b68ec
:100e78001b7a012b01d0594bd4e2594bfb180022a5
:100e88001a70584bfb1800221a7081e2a1239b00ac
:100e9800fb181868544bcc2292009446bc44634417
:100ea800524a12ca12c3504bcc2292009446bc44f8
:100eb800634419685a680cf0ebf8031e3ed0a1236e
:100ec8009b00fb181b6818001ff054f803009e22b3
:100ed8009200ba1813609e239b00fb181b689d2282
:100ee8009200ba1813609d239b00fb181b68db0f48
:100ef800dbb2002b04d09e239b00fb181b6891e2f9
:100f0800a1239b00fb181b681b7a062b01d02b4bd7
:100f180088e2a0239b00fb181b68a1229200ba1844
:100f2800126803ca03c32e4bfb1801221a702d4bfb
:100f3800fb182c4aba1812781a7029e2a1239b00d0
:100f4800fb1818682a4bcc2292009446bc44634490
:100f5800284a12ca12c3264bcc2292009446bc449b
:100f6800634419685a680cf093f8031e63d0a123f0
:100f78009b00fb181b6818001ef0fcff03009c2256
:100f88009200ba1813609c239b00fb181b689b22d5
:100f98009200ba1813609b239b00fb181b68db0f99
:100fa800dbb2002b28d09c239b00fb181b6839e27e
:100fb8009cfeffff486c010018fdffff0400018044
:100fc800ab020000aa020000a902000094feffff85
:100fd800586c01008cfeffff746c01000500018055
:100fe8007f0200007e0200004cfeffff886c0100bb
:100ff80054feffff9c6c0100a1239b00fb181b689b
:101008001b7a062b01d0d94b0ce2a0239b00fb18be
:101018001b68a1229200ba181268083303ca03c3d6
:10102800d34bfb1801221a70d24bfb18d14aba18bd
:1010380012781a70ace1a1239b00fb181868ce4bfc
:10104800cc2292009446bc446344cc4a12ca12c3d0
:10105800c94bcc2292009446bc44634419685a6830
:101068000cf016f8031e41d0a1239b00fb181b6847
:1010780018001ef07fff03009a229200ba1813602e
:101088009a239b00fb181b6899229200ba181360d8
:1010980099239b00fb181b68db0fdbb2002b04d0e5
:1010a8009a239b00fb181b68bce1a1239b00fb183b
:1010b8001b681b7a062b01d0ac4bb3e1a0239b0025
:1010c800fb181b68a1229200ba181268183303cac9
:1010d80003c3a84bfb18a74aba1812781a70a44b76
:1010e800fb18a34aba1812781a7051e1a1239b0081
:1010f800fb181868a24bcc2292009446bc44634467
:10110800a04a12ca12c39e4bcc2292009446bc44f9
:10111800634419685a680bf0bbff031e41d0a12332
:101128009b00fb181b6818001ef024ff0300982280
:101138009200ba18136098239b00fb181b6897222b
:101148009200ba18136097239b00fb181b68db0feb
:10115800dbb2002b04d098239b00fb181b6861e1cd
:10116800a1239b00fb181b681b7a062b01d07f4b21
:1011780058e1a0239b00fb181b68a1229200ba1813
:101188001268283303ca03c37a4bfb18794aba1882
:1011980012781a70764bfb18754aba1812781a70ba
:1011a800f6e0a1239b00fb181b6896229200ba1850
:1011b8001360a0239b00fb181b6895229200ba18a5
:1011c800136096239b00fb1818686f4bcc22920083
:1011d8009446bc4463446d4a12ca12c36a4bcc227b
:1011e80092009446bc44634419685a680bf050ff57
:1011f800031e63d096239b00fb181b6818001ef083
:10120800b9fe030094229200ba18136094239b003d
:10121800fb181b6893229200ba18136093239b0053
:10122800fb181b68db0fdbb2002b04d094239b0058
:10123800fb181b6843e096239b00fb181a6895234c
:101248009b00fb181b681433190010001ff0defd0b
:10125800030092229200ba18136092239b00fb1895
:101268001b6891229200ba18136091239b00fb1807
:101278001b68db0fdbb2002b04d092239b00fb180a
:101288001b681ce095239b00fb181b685b69902278
:101298009200ba18136090239b00fb181a68fa236f
:1012a8009900100029f056ff03009ab295239b007d
:1012b800fb181b681a8280235b0200e02b4b8f22ed
:1012c8009200ba1813608f239b00fb181b688e22ac
:1012d8009200ba1813608e239b00fb181b68db0f63
:1012e800dbb25a1e9341dbb201225340dbb21a1c17
:1012f80001231340dbb21f4aba181e49791809782e
:1013080011701b4aba181a49791809781170002bfc
:101318003ed1a1239b00fb181b68180029f000fa96
:1013280003008d229200ba1813608d239b00fb18ce
:101338001b688c229200ba1813608c239b00fb1840
:101348001b68db0fdbb20b4aba180a49791809780f
:101358001170074aba180649791809781170002bd4
:1013680016d08d239b00fb181b685be004000180ee
:101378007e0200007f0200005cfeffffb46c0100eb
:1013880064feffffd46c01006cfeffffe86c0100f7
:10139800cc4bfb181b7801225340dbb2002b07d142
:1013a800c94bfb181b7801225340dbb2002b2dd010
:1013b800a1239b00fb181b6818001ef0dbfd03002f
:1013c8008b229200ba1813608b239b00fb181b68b2
:1013d8008a229200ba1813608a239b00fb181b68a4
:1013e800db0fdbb25a1e9341dbb201225340dbb262
:1013f8001a1c01231340dbb2002b07d0a1239b004a
:10140800fb181b681b7a022b00d03fe5ad4bfa187e
:10141800ad4bfb1812781b789a4201d0ab4b01e018
:1014280080235b0289229200ba18136089239b00eb
:10143800fb181b6888229200ba18136088239b0047
:10144800fb181b68db0fdbb2a14aba18a049791850
:10145800097811709f4aba189e497918097811704d
:101468009d4aba189c49791809781170002b00d147
:101478002fe289239b00fb181b6887e2974bcc223d
:1014880092009446bc446344954a03ca03c3934bf1
:10149800cc2292009446bc4463444822b818196888
:1014a8005a680bf0f5fd031e49d04823fb181800b5
:1014b8001ef060fd030087229200ba18136087238c
:1014c8009b00fb181b6886229200ba1813608623bb
:1014d8009b00fb181b68db0fdbb2002b04d08723b3
:1014e8009b00fb181b6851e27e4bcc22920094466d
:1014f800bc4463441b7a062b01d0744b46e2af23ed
:101508009b00fb181b68774acc2189008c46bc4499
:101518006244303303ca03c36d4bfb186c4aba18d4
:1015280012781a706b4bfb186a4aba1812781a703c
:10153800694bfb18684aba1812781a70c9e16a4be5
:10154800cc2292009446bc446344684a03ca03c34d
:10155800654bcc2292009446bc4463444822b81898
:1015680019685a680bf094fd031e49d04823fb18ec
:1015780018001ef0fffc030085229200ba181360c1
:1015880085239b00fb181b6884229200ba181360fd
:1015980084239b00fb181b68db0fdbb2002b04d0f5
:1015a80085239b00fb181b68f0e14e4bcc22920070
:1015b8009446bc4463441b7a062b01d0434be5e1b7
:1015c800af239b00fb181b68464acc2189008c4638
:1015d800bc446244283303ca03c33d4bfb183c4a4e
:1015e800ba1812781a703b4bfb183a4aba18127894
:1015f8001a70394bfb18384aba1812781a7068e111
:101608003b4bcc2292009446bc446344394a03cafb
:1016180003c3374bcc2292009446bc44634448220f
:10162800b81819685a680bf033fd031e64d04823b4
:10163800fb1818001ef09efc030083229200ba18c3
:10164800136083239b00fb181b6882229200ba1840
:10165800136082239b00fb181b68db0fdbb2002b97
:1016680004d083239b00fb181b688fe11d4bcc2201
:1016780092009446bc4463441b7a062b01d0134b5a
:1016880084e1af239b00fb181b68164acc21890014
:101698008c46bc446244383303ca03c30c4bfb1862
:1016a8000b4aba1812781a700a4bfb18094aba186a
:1016b80012781a70084bfb18074aba1812781a7071
:1016c80007e1c0467e0200007f020000040001809e
:1016d800ab020000aa020000a902000084feffff7e
:1016e800fc6c010018fdffff7cfeffff0c6d010084
:1016f80074feffff246d0100af239b00fb181b68dd
:1017080010334822ba188121890079180a6080228a
:101718009200ba18136081239b00fb181868ad4b20
:10172800cc2292009446bc446344ab4a12ca12c30a
:10173800a84bcc2292009446bc44634419685a686a
:101748000bf0a6fc031e63d081239b00fb181b68cb
:1017580018001ef00ffc0300fe225200ba18136096
:10176800fe235b00fb181b68fc225200ba181360aa
:10177800fc235b00fb181b68db0fdbb2002b04d0db
:10178800fe235b00fb181b6843e081239b00fb18ca
:101798001a6880239b00fb181b681433190010007b
:1017a8001ff034fb0300fa225200ba181360fa2320
:1017b8005b00fb181b68f8225200ba181360f82364
:1017c8005b00fb181b68db0fdbb2002b04d0fa238d
:1017d8005b00fb181b681ce080239b00fb181b6840
:1017e8005b69f6225200ba181360f6235b00fb18f7
:1017f8001a68fa239900100029f0acfc03009ab289
:1018080080239b00fb181b681a8280235b0200e080
:10181800724bf4225200ba181360f4235b00fb18d1
:101828001b68f2225200ba181360f2235b00fb18ff
:101838001b68db0fdbb25a1e9341dbb20122534017
:10184800dbb21a1c01231340dbb2002b10d0644b0f
:10185800fb1801221a70634bfb18624aba181278f7
:101868001a70614bfb18604aba1812781a7030e087
:101878004823fb18180028f053ff0300f0225200f9
:10188800ba181360f0235b00fb181b68ee225200a5
:10189800ba181360ee235b00fb181b68db0fdbb282
:1018a800504aba184f497918097811704e4aba182f
:1018b8004d49791809781170494aba184849791870
:1018c80009781170002b04d0f0235b00fb181b680b
:1018d8005ce04823fb1818001ef04cfb0300ec22c8
:1018e8005200ba181360ec235b00fb181b68ea224d
:1018f8005200ba181360ea235b00fb181b68db0f61
:10190800dbb25a1e9341dbb201225340dbb21a1cf0
:1019180001231340dbb2002b0ad0344bcc229200b7
:101928009446bc4463441b7a022b01d0fff774f938
:101938002d4bfb181b7801225340dbb2002b07d13b
:10194800284bfb181b7801225340dbb2002b1bd01d
:10195800af239b00fb181b6800221a60af239b0073
:10196800fb181b6800225a60af239b00fb181b68fa
:1019780003229a721a4bfb181b7801225340dbb2e0
:10198800002b01d0154b01e080235b02c822920096
:10199800ba181360c8239b00fb181b68b02292007a
:1019a800ba181360b0239b00fb181b68db0fdbb26f
:1019b800002b04d0c8239b00fb181b6801e0802380
:1019c8005b021800bd46cc239b009d44b0bc08bcfc
:1019d80002b0184744feffffe86c010004000180d4
:1019e800a9020000ab020000aa02000018fdffffd8
:020000040000fa
:1019f800b03800201c00000000000000203a002041
:101a08000400000000000000243a00200400000048
:101a180000000000283a0020040000000100000037
:101a28008938030004360020600000000000000030
:101a38002438002020000000000000002c3a00207c
:101a48000400000001000000ffffffff2338002012
:101a58000100000000000000033900200100000020
:101a680000000000303a00200400000000000000e0
:101a7800343a002004000000000000001d39002056
:101a880001000000000000003939002001000000ba
:101a980000000000000000202800000000000000f6
:101aa8003e3b002001000000000000003f3b0020fa
:101ab8000100000000000000403b00200100000081
:101ac80000000000383a0020040000000000000078
:101ad8003c3a00200400000000000000403a0020ca
:101ae8000400000000000000ae38002002000000e2
:101af80000000000443a002004000000000000003c
:101b08003c3b002002000000010000000001000032
:101b1800413b00200100000000000000423b002083
:101b28000100000000000000483a00200400000006
:101b3800000000004c3a00200400000000000000f3
:101b4800503a00200400000000000000543a002031
:101b58000400000000000000583a002004000000c3
:101b680000000000f039002008000000000000001c
:101b7800433b00200100000001000000ff000000be
:101b88005c3a00200400000000000000603a0020d9
:101b98000400000000000000443b00200100000099
:101ba8000100000004000000ee39002002000000df
:101bb80000000000453b002001000000000000007c
:101bc800463b00200100000000000000473b0020c9
:101bd800010000000000000028000020bc000000f8
:101be80000000000f0300020f400000000000000b9
:101bf800e40000200400000000000000643a002017
:101c08000400000000000000e8000020340000008c
:101c180000000000683a00200400000001000000f5
:101c28002b2f3d405038002020000000000000000d
:101c38007038002020000000000000001c01002077
:101c480020000000000000003c010020c00000004f
:101c580000000000ac3700202c000000000000004d
:101c6800483b00200100000000000000fc010020ab
:101c78002c00000000000000043300208000000059
:101c880000000000f427002000020000000000000f
:101c98002802002038000000000000006002002038
:101ca8000800000000000000f839002008000000cb
:101cb80000000000d4200020000400000000000004
:101cc8006c3a00200400000000000000703a002078
:101cd8000400000000000000e43100209000000033
:101ce80000000000443800200c0000000000000044
:101cf800d41800200008000000000000493b002024
:101d080001000000000000004a3b00200100000024
:101d180000000000003a0020080000000000000059
:101d2800443700203800000000000000d4240020c0
:101d380020030000000000003a3b002002000000e1
:101d48000100000001000000743a002004000000b7
:101d580000000000d8370020280000000000000024
:101d6800743200209000000000000000680200208b
:101d7800100000000000000078020020420000006f
:101d880000000000cc3800201c000000000000000b
:101d9800f42b00209001000000000000a410002097
:101da80030080000000000004b3b0020010000004c
:101db80001000000ff000000783a00200400000045
:101dc800000000007c3a0020040000000000000031
:101dd800003800202300000000000000803a0020a6
:101de8000400000000000000843a00200400000005
:101df80000000000903800201e00000000000000d5
:101e0800e83800201b000000000000004c3b0020c8
:101e180001000000000000004d3b00200100000010
:101e2800000000004e3b0020010000000000000000
:101e38004f3b00200100000000000000503b002044
:101e48000100000000000000883a002004000000a3
:101e580000000000513b00200100000000000000cd
:101e6800523b002001000000000000008c3a0020d6
:101e78000400000001000000ffffffff533b0020ab
:101e88000100000000000000903a0020040000005b
:101e980001000000ffffffff543b0020010000008d
:101ea80000000000943a0020040000000100000037
:101eb800ffffffff553b002001000000000000006d
:101ec800983a00200400000001000000ffffffff17
:101ed800563b002001000000000000009c3a002052
:101ee8000400000001000000ffffffff573b002037
:101ef8000100000000000000a03a002004000000db
:101f080000000000bc0200200400000000000000e7
:101f1800583b00200100000000000000a43a002007
:101f28000400000000000000083a0020080000003b
:101f380001000000e8020020c0020020c0020020ca
:101f48002c00000000000000a83a00200400000057
:101f580000000000383b00200200000001000000e3
:101f6800020000007c370020300000000100000063
:101f780000030000b0020000a0860100000000007d
:101f88000000000000000000000000000000000049
:101f980000000000dc050000140000000000000044
:101fa800593b00200100000000000000ec02002066
:101fb8000900000000000000ac3a00200400000006
:101fc80001000000ac2c0300f8020020a001000072
:101fd800000000003c39002018000000010000004b
:101fe8006deb01009520030081380100b5b90100af
:101ff800a51b020000000000c436002040000000bd
:10200800000000001e39002002000000000000004f
:102018009804002018000000000000005439002037
:102028001800000001000000351c030045130300e0
:1020380075140100a5290200755301000000000075
:10204800b43900200c00000001000000306e65313a
:1020580032333435363738003a3900200200000070
:1020680000000000b03a0020040000000100000059
:10207800ffffffffb43a0020040000000100000049
:10208800ffffffffb0040020b405000000000000bf
:102098005a3b002001000000000000005b3b0020cc
:1020a8000100000000000000b83a00200400000011
:1020b800000000005c3b002001000000010000005f
:1020c80001000000bc3a00200400000001000000ec
:1020d800ffffffffc03a00200400000001000000dd
:1020e800ffffffffc43a00200400000001000000c9
:1020f800ffffffff5d3b0020010000000000000023
:102108005e3b002001000000000000005f3b002053
:102118000100000000000000c83a00200400000090
:1021280000000000640a00202402000000000000f3
:10213800cc3a00200400000001000000ffffffff70
:10214800d03a00200400000001000000ffffffff5c
:10215800d43a00200400000001000000ffffffff48
:10216800603b00200100000000000000613b0020ef
:102178000100000000000000623b00200100000098
:1021880000000000633b0020010000000000000088
:10219800643b00200100000000000000d83a002045
:1021a8000400000000000000103a002008000000b1
:1021b8000100000053414d2e496f54006c39002036
:1021c8001400000001000000107a0200247a0200c6
:1021d800387a02004c7a0200607a020094390020b2
:1021e8001000000001000000787a0200887a0200de
:1021f800987a0200a87a0200f42900200002000060
:1022080000000000dc3a002004000000000000008c
:10221800653b00200100000000000000663b002034
:10222800010000000000000004390020190000002f
:1022380001000000736e30303030303030303030d4
:102248003030303030303030000000000000000006
:10225800880c00200004000000000000e03a002084
:102268000400000001000000ffffffffe43a002027
:102278000400000001000000ffffffffe83a002013
:102288000400000001000000ffffffffec3a0020ff
:102298000400000001000000fffffffff03a0020eb
:1022a8000400000001000000ffffffff881000206d
:1022b8000600000000000000c03900200c000000eb
:1022c8000100000048de00004cde000050de000087
:1022d800203900201900000001000000424141415e
:1022e8004141444431444241414144443144000065
:1022f8000000000000000000f43a00200400000084
:1023080000000000673b0020010000000100000001
:1023180001000000f83a002004000000010000005d
:10232800ffffffff683b00200100000000000000e5
:10233800fc3a00200400000001000000ffffffff3e
:10234800693b00200100000000000000003b002065
:102358000400000000000000043b0020040000000e
:10236800010000000a0000006a3b00200100000094
:102378000000000090100020100000000000000085
:102388008039002014000000010000009cc70000f4
:10239800b0c70000c4c70000d8c70000ecc70000e1
:1023a800083b0020040000000000000084330020e7
:1023b80080000000000000000434002080000000bd
:1023c80000000000843400208000000000000000ad
:1023d800f02e00200001000000000000043500205d
:1023e8008000000000000000f02f00200001000025
:1023f800000000000c3b002004000000000000006a
:10240800a43900201000000000000000cc39002092
:102418000c0000000000000084350020800000004f
:1024280000000000103b0020040000000100000034
:10243800ffffffff143b0020040000000100000024
:1024480064360020643600206000000001000000af
:1024580000000000cc290300ec290300ac2903008c
:102468000000000000000000000000000000000064
:102478000000000000000000000000000000000054
:102488000000000000000000000000000000000044
:102498000000000000000000000000000000000034
:1024a8000000000000000000000000000000000024
:1024b800842d00206c010000010000004300000092
:1024c8000000000000000000000000000000000004
:1024d80000000000000000000000000043000000b1
:1024e80000000000000000000000000000000000e4
:1024f8000000000000000000000000004300000091
:1025080000000000000000000000000000000000c3
:102518000000000000000000000000004300000070
:1025280000000000000000000000000000000000a3
:102538000000000000000000000000004300000050
:102548000000000000000000000000000000000083
:102558000000000000000000000000004300000030
:102568000000000000000000000000000000000063
:102578000000000000000000000000004300000010
:102588000000000000000000000000000000000043
:10259800000000000000000000000000d13003002f
:1025a800c125030000000000e8420200ed350300e9
:1025b800ec350300ec350300ec350300ec35030083
:1025c800ec350300ec350300ec350300ec35030073
:1025d800ec350300ffffffffffffffffffffffffdb
:1025e800ffff00000100415343494900000000007b
:1025f80000000000000000000000000000000000d3
:102608000000000000004153434949000000000059
:1026180000000000000000000000000000000000b2
:102628000000000000000000183b0020040000002b
:10263800000000001c3b0020040000000000000017
:10264800d83900200b00000000000000e33900200a
:102658000b00000000000000203b002004000000e8
:1026680000000000243b00200400000000000000df
:10267800283b00200400000000000000183a002059
:102688000800000001000000c0380300c038030043
:102698000437002040000000010000000100000095
:1026a800000000004a0000000000000000000000d8
:1026b8000000000000000000000000000000000012
:1026c8004a000000000000000000000000000000b8
:1026d800000000000000000000000000a010002022
:1026e80004000000000000002c3b00200400000053
:1026f80000000000303b0020040000000100000042
:102708002c3b0020343b00200400000000000000a7
:1027180000000000000000002222222222222222a1
:020000040000fa
:10272800f0b5e84ca54402af02003960e64b8021c1
:1027380089008c46bc4463441a70e44bfc22520066
:10274800ba1813603b68002b01d100f06afcde4b1d
:10275800802292009446bc4463441b78043b2e2b91
:1027680001d900f060fc9a00d94bd3181b689f462a
:102778003b68fa225200ba181360fc235b00fb186e
:102788001b68db7901225340dbb2002b01d000f03b
:102798004cfcfc235b00fb181b680022da71fa234f
:1027a8005b00fb181b685b785bb2002b34d1fa2303
:1027b8005b00fb181b681a78fc235b00fb181b687e
:1027c8005a72fa235b00fb181b681b78002b09d090
:1027d800fc235b00fb181b681b7a18002cf0a6fc76
:1027e80000f025fcfc235b00fb181b6880229b582b
:1027f800002b01d100f01bfcfc235b00fb181b68bd
:1028080080229c58fc235b00fb18186800230022d8
:102818000021a04700f00bfcfc235b00fb181b68a1
:1028280000225a7200f003fc3b68f8225200ba18e2
:102838001360fc235b00fb181b680b331800f8239c
:102848005b00fb181b6804330622190030f0edfd0d
:10285800fc235b00fb181b6811331800f8235b008e
:10286800fb181b680a332022190030f0defdf8231c
:102878005b00fb181b680a33180030f076fe030073
:10288800d9b2fc235b00fb181b6831229954f8234a
:102898005b00fb181b6801215956fc235b00fb18e1
:1028a8001b6832229954f8235b00fb181b6899783f
:1028b800fc235b00fb181b6833229954f8235b0048
:1028c800fb181b68d978fc235b00fb181b683422b3
:1028d8009954fc235b00fb181b6801229a72fc23a5
:1028e8005b00fb181b6880229b58002b00d1a0e3db
:1028f800fc235b00fb181b6880229d58fc235b00af
:10290800fb181868fc235b00fb181b681b7a013353
:10291800d9b2fc235b00fb181b685a7afc235b00c6
:10292800fb181b680b33f024ff343c19a84703003d
:102938002370f023ff33fb181b78002b2cd0fc23cb
:102948005b00fb181b681b7a0133dab2fc235b00bf
:10295800fb181b681a72fc235b00fb181b681c7aa7
:1029680030f000fc03009c420ed2fc235b00fb18f5
:102978001b681b7a18002cf0d9fbfc235b00fb18a2
:102988001b6800229a7254e3fc235b00fb181b6847
:102998008022002199504ce3fc235b00fb181b6844
:1029a80080220021995044e33b68f4225200ba186f
:1029b8001360f4235b00fb181b681b78012b20d1e4
:1029c800fc235b00fb181b6801229a71fc235b0047
:1029d800fb181b689a229b5c01225340dbb2002b38
:1029e80023d0fc235b00fb181b689c229b58002b00
:1029f8001bd0fc235b00fb181b689922012199540a
:102a080013e0f4235b00fb181b681b78002b0cd128
:102a1800fc235b00fb181b6800229a71fc235b00f7
:102a2800fb181b684c2200219954fc235b00fb18ff
:102a38001b6884229b58002b00d1fce2fc235b001e
:102a4800fb181b6884229b58fc225200ba18106895
:102a5800f4225200ba1812681178f4225200ba18f7
:102a6800126852789847e6e23b68f2225200ba1898
:102a78001360fc235b00fb181b6884229b58002b07
:102a880000d1dae2f2235b00fb181b681b785bb20b
:102a98001a00163210d01a00163202dc173306d08c
:102aa80024e01a00153217d014331ad01ee0094b4f
:102ab800fb1805221a701ee0064bfb1803221a7039
:102ac80019e0c046f4fdffff07fefffff0300020cd
:102ad8007c850200ff010000a14bfb1801221a703f
:102ae80009e09f4bfb1806221a7004e09c4bfb1868
:102af80007221a70c046fc235b00fb181b6884225f
:102b08009b58fc225200ba181068954aba181278d5
:102b18000021984791e23b68f0225200ba181360ee
:102b2800fc235b00fb181b681b7901225340dbb2b6
:102b3800002b06d0fc235b00fb181b68992201219f
:102b48009954f0235b00fb181b6803331b781a06a3
:102b5800f0235b00fb181b6802331b781b041a4325
:102b6800f0235b00fb181b6801331b781b0213431f
:102b7800f0225200ba18126812781a43fc235b003c
:102b8800fb181b689c215a50fc235b00fb181b6830
:102b9800b0229b58002b00d151e2fc235b00fb18ac
:102ba8001b68b0229b58fc225200ba181068fc22fd
:102bb8005200ba1812689c215258110098473ee2f8
:102bc8003b68ee225200ba181360ee235b00fb1834
:102bd8001b68180028f0eafd0300ec225200ba181e
:102be8001360fc235b00fb181b6888229b58002b92
:102bf80000d126e2fc235b00fb181b6888229b5847
:102c0800fc225200ba181268ec21490079180968a8
:102c18001000984715e2fc235b00fb181b68b822dc
:102c28009b58002b00d10ee23b68ea225200ba18ea
:102c38001360ea235b00fb181b68180030f095fc52
:102c48000300d9b2474b802292009446bc446344a7
:102c580020229954434b802292009446bc446344fa
:102c680020229b5c202b00d9efe10c23fb182022ab
:102c78000021180030f03cfcea235b00fb181968bf
:102c8800384b802292009446bc44634420229b5ccb
:102c98001a000c23fb18180030f0c7fbea235b006e
:102ca800fb181b6862229a5c2f4b802189008c4696
:102cb800bc4463441a70ea235b00fb181b68622259
:102cc8009b5c022b2cd1ea235b00fb181b68213389
:102cd800180030f04afc0300dab2234b8021890047
:102ce8008c46bc4463441a713823fb1805334022d0
:102cf8000021180030f0fcfbea235b00fb181b687e
:102d080021331900184b802292009446bc44634436
:102d18001b791a003823fb180533180030f085fb9f
:102d2800fc235b00fb181b68b8229c58fc235b0043
:102d3800fb181868ea235b00fb181b6863229b5c7e
:102d48005a425341dbb23822ba180c217918a047ed
:102d5800fc235b00fb181b68b8220021995072e124
:102d6800ff0100000cfeffff38feffff3b68e82272
:102d78005200ba181360e8235b00fb181b681800a0
:102d880030f0f3fb0300d9b2fc235b00fb181b688f
:102d98006d229954fc235b00fb181b686d229b5c19
:102da800202b00d953e1fc235b00fb181b684d3333
:102db80020220021180030f09bfbfc235b00fb184d
:102dc8001b684d331800e8235b00fb181968fc23c7
:102dd8005b00fb181b686d229b5c1a0030f025fb1a
:102de800e8235b00fb181b682122995cfc235b002d
:102df800fb181b687c229954e8235b00fb181b68ae
:102e080025229b5c1a06e8235b00fb181b6824211b
:102e18005b5c1b041a43e8235b00fb181b68232137
:102e28005b5c1b021343e8225200ba181268222185
:102e3800525c1a43fc235b00fb181b681a67fc23cf
:102e48005b00fb181b6874331800e8235b00fb1851
:102e58001b6826330622190030f0e7fafc235b00d2
:102e6800fb181b684c2201219954fc235b00fb18ba
:102e78001b688c229b58002b00d1eae0fc235b00e6
:102e8800fb181b688c229c58fc235b00fb181868f5
:102e9800fc235b00fb181b684d331900fc235b0007
:102ea800fb181b6870331d00fc235b00fb181b68b4
:102eb8007c229e5ce8235b00fb181b682c229b5637
:102ec800009333002a00a047c3e03b68e622520083
:102ed800ba181360e6235b00fb181b6800215956db
:102ee800fc235b00fb181b6844229954fc235b00fd
:102ef800fb181b6890229b58002b00d1abe0fc23e9
:102f08005b00fb181b6890229b58fc225200ba18e1
:102f18001068fc225200ba18126844215256110057
:102f28009847fc235b00fb181b68902200219950ee
:102f380091e03b68e4225200ba181360fc235b005e
:102f4800fb181b6894229b58002b00d185e00c23aa
:102f5800fb1818002cf07cfde4235b00fb181b68b1
:102f68009c1ce4235b00fb181b680233180030f03c
:102f7800fcfa0300dab20c23fb182100180029f030
:102f88009bfde4235b00fb181b685a780c23fb1895
:102f9800110018002af0faffe4235b00fb181b68f5
:102fa8001b78012b02d0022b06d01ce03823fb181b
:102fb80018002ff091fb24e0e4235b00fb181b684a
:102fc80023331c00e4235b00fb181b682333180021
:102fd80030f0cbfa0300dab23823fb1821001800ce
:102fe8002af0a4ff0de0fc235b00fb181b68942269
:102ff8009b58fc225200ba181068002200219847fa
:103008002ce0fc235b00fb181b6894229b58fc22d5
:103018005200ba1810683822ba180c217918984743
:103028001be0c0461ae0c04618e0c04616e0c0469d
:1030380014e0c04612e0c04610e0c0460ee0c046ac
:103048000ce0c0460ae0c04608e0c04606e0c046bc
:1030580004e0c04602e0c04600e0c046bd46812309
:083068009b009d44f0bdc04631
:020000040000fa
:103070001b5b33376d20204e4f4e451b5b33376d46
:103080000000c0461b5b33316d204552524f521b2e
:103090005b33376d0000c0461b5b33336d20205718
:1030a00041524e1b5b33376d0000c0461b5b33360d
:1030b0006d2044454255471b5b33376d0000c046c9
:1030c0001b5b33376d2020494e464f1b5b32376dfb
:1030d0001b5b33376d00c0461b5b33376d20494e99
:1030e000464f1b5b33376d001b5b33326d20474f00
:1030f0004f441b5b33376d001b5b33336d205741ef
:10310000524e1b5b33376d001b5b33316d1b5b37de
:103110006d4552524f521b5b32376d1b5b33376d1f
:103120000000c046696e697469616c5f6765740010
:103130002222000074656d7065726174757265009d
:103140006c6967687400c04674656c656d657472ff
:1031500079496e74657276616c00c04662757474ec
:103160006f6e5f6576656e740000c046627574743c
:103170006f6e5f6e616d65005357300053573100bd
:1031800070726573735f636f756e74006c65645ff6
:103190006200c0466c65645f6700c0466c65645f32
:1031a0007900c0466c65645f7200c0467265626fec
:1031b0006f74000064656c617900c046737461745b
:1031c00075730000537563636573730044656c61c8
:1031d000792074696d65206e6f7420666f756e64fa
:1031e0002e2053706563696679202764656c617968
:1031f0002720696e20706572696f6420666f726d3a
:10320000617420285054355320666f722035207326
:103210006563290044656c61792074696d65206976
:103220007320656d7074792e2053706563696679bb
:10323000202764656c61792720696e20706572694a
:103240006f6420666f726d6174202850543553206e
:10325000666f7220352073656329000044656c61d8
:10326000792074696d6520696e2077726f6e6720b2
:10327000666f726d61742e20537065636966792084
:103280002764656c61792720696e20706572696fab
:103290006420666f726d6174202850543553206627
:1032a0006f722035207365632900c0464572726fc6
:1032b000722070726f63657373696e6720636f6de0
:1032c0006d616e640000c0467b2253746174757337
:1032d000223a22556e737570706f72746564204364
:1032e0006f6d6d616e64227d0000c046415a55527b
:1032f000453a20427574746f6e2053573020436fe7
:10330000756e7420256c751b5b306d00415a5552eb
:10331000453a20427574746f6e2053573120436fc5
:10332000756e7420256c751b5b306d00415a5552cb
:10333000453a204c696768743a2025642054656dcd
:1033400070657261747572653a2025641b5b306d1f
:103350000000c0464661696c656420746f20627528
:10336000696c642073656e736f722074656c656d33
:1033700065747279204a534f4e207061796c6f6189
:10338000641b5b306d00c046415a5552453a2025ba
:10339000732829204c454420537461747573203080
:1033a0007825781b5b306d00415a5552453a2055bf
:1033b0006e61626c6520746f2067657420636f6d49
:1033c0006d616e6420726573706f6e7365207075c9
:1033d000626c69736820746f7069631b5b306d0089
:1033e000415a5552453a20436f6d6d616e642053ca
:1033f00074617475733a2025751b5b306d00c0468f
:10340000415a5552453a205265626f6f74696e6732
:103410002e2e2e1b5b306d00415a5552453a202509
:10342000732829203a205061796c6f6164202573dc
:103430001b5b306d0000c046415a5552453a20464c
:103440006f756e64202764656c6179271b5b306d36
:103450000000c046415a5552453a204572726f727b
:103460002067657474696e67206e65787420746f68
:103470006b656e1b5b306d00415a5552453a2045d5
:1034800072726f722067657474696e6720737472ec
:10349000696e671b5b306d00415a5552453a2052a8
:1034a00065626f6f742044656c6179206e6f742063
:1034b000666f756e641b5b306d00c046415a555295
:1034c000453a205265626f6f742044656c617920c3
:1034d00077726f6e6720666f726d61741b5b306d03
:1034e0000000c046415a5552453a2053636865640e
:1034f000756c696e67207265626f6f7420696e20eb
:103500002564207365631b5b306d0000415a555282
:10351000453a204661696c656420746f2073636866
:103520006564756c65207265626f6f742074696d77
:1035300065721b5b306d0000415a5552453a205070
:10354000726f63657373696e6720436f6d6d616e33
:103550006420272573271b5b306d0000415a5552ac
:10356000453a204661696c65642070726f636573cb
:10357000735f7265626f6f745f636f6d6d616e64b0
:103580002c20737461747573203078253038781b63
:103590005b306d00415a5552453a204661696c20b6
:1035a0006275696c64206572726f722072657370e7
:1035b0006f6e73652e2028307825303878291b5b94
:1035c000306d0000415a5552453a20556e73757062
:1035d000706f7274656420636f6d6d616e642072cc
:1035e000656365697665643a2025732e1b5b306dd3
:1035f0000000c046415a5552453a20556e61626cf2
:103600006520746f2073656e642025642072657375
:10361000706f6e73652c20737461747573202564ec
:103620001b5b306d0000c046415a5552453a20465a
:1036300061696c656420746f2070617273652070bd
:10364000726f706572747920746f7069632030785e
:10365000253038782e1b5b306d00c046415a5552dc
:10366000453a20546f7069633a202725732720500c
:1036700061796c6f61643a20272573271b5b306d7d
:103680000000c046415a5552453a20494e495449d6
:10369000414c204745542052656365697665641b3b
:1036a0005b306d00415a5552453a2050726f70653b
:1036b0007274792047455420526563656976656464
:1036c0001b5b306d0000c046415a5552453a2050b0
:1036d000726f706572747920444553495245442095
:1036e0005374617475732025642056657273696f15
:1036f0006e2025731b5b306d0000c046415a555249
:10370000453a2050726f7065727479205245504f5f
:1037100052544544205374617475732025642056b7
:10372000657273696f6e2025731b5b306d00c04638
:10373000415a5552453a20547970652025642053ea
:1037400074617475732025642049442025732056c4
:10375000657273696f6e2025731b5b306d00c04608
:10376000617a5f6a736f6e5f7265616465725f69cb
:103770006e6974206661696c65641b5b306d000066
:103780004661696c656420746f206765742072659a
:1037900071756573742069641b5b306d0000c046f1
:1037a000415a5552453a556e61626c6520746f20de
:1037b000696e697469616c697a65206a736f6e5f9e
:1037c0006275696c64657220666f722070726f70ca
:1037d000657274792050415443481b5b306d000082
:1037e000415a5552453a20556e61626c6520746f9e
:1037f000206164642070726f706572747920666fe6
:10380000722074656c656d6574727920696e74657b
:103810007276616c2c2072657475726e20636f64b1
:1038200065203078253038781b5b306d0000c0464d
:10383000415a5552453a20556e61626c6520746f4d
:10384000206164642070726f706572747920666f95
:10385000722059656c6c6f77204c45442c20726542
:103860007475726e20636f64652030782530387807
:103870001b5b306d0000c046415a5552453a2055f9
:103880006e61626c6520746f206164642070726f79
:10389000706572747920666f7220426c7565204c79
:1038a00045442c2072657475726e20636f646520c8
:1038b000203078253038781b5b306d00415a5552e6
:1038c000453a20556e61626c6520746f20616464b6
:1038d0002070726f706572747920666f7220477203
:1038e00065656e204c45442c2072657475726e209f
:1038f000636f646520203078253038781b5b306d2d
:103900000000c046415a5552453a20556e61626cde
:103910006520746f20617070656e6420656e642030
:103920006f626a6563742c2072657475726e2063b1
:103930006f646520203078253038781b5b306d004f
:10394000415a5552453a4661696c656420746f204e
:103950006765742070726f7065727479205041547d
:10396000434820746f7069631b5b306d0000c04674
:08397000c43100000700000053
:020000040000fa
:1039780090b5e3b004aff860dd48bc246400a44609
:10398800bc446044016042603b60fb68002b03d18b
:103998002ff0defb03009847bc23fb18fa6803ca24
:1039a80003c30123a8225200ba1813605023ff331f
:1039b800fb1800221a70a8235b00fb181b68002b59
:1039c80001da0023b9e0b423fb18bc22ba1803caf1
:1039d80003c3b423fb181b68a4225200ba1813604f
:1039e800ac23fb18bc22ba1803ca03c3ac23fb18c8
:1039f8005b68a2225200ba1813604423ff33fb18f5
:103a080000221a70f423fb1800221a605a60a423bb
:103a1800fb18f422ba1803ca03c3a423fb181b68b3
:103a28009e225200ba1813605023ff33fb181b78ec
:103a3800002b23d0a4235b00fb181b68002b09d0a4
:103a4800a4235b00fb181a689e235b00fb181b6805
:103a58009a4207d1a2235b00fb181b685a425341c4
:103a6800dbb206e0a2235b00fb181b68db43db0f1d
:103a7800dbb24422ff32ba18137020e0a4235b00a3
:103a8800fb181b68002b11d0a4235b00fb181a68d5
:103a98009e235b00fb181b689a4207d0a2235b0099
:103aa800fb181b68002b01db012200e000224423e5
:103ab800ff33fb181a701a7801210a401a70012383
:103ac8005b429c225200ba1813604423ff33fb1850
:103ad8001b78002b11d09c235b00fb181a68a423c9
:103ae8005b00fb181b68d31a1a00a2235b00fb18a3
:103af8001b689a4201d3012200e000224423ff33cd
:103b0800fb181a701a7801210a401a704423ff33ef
:103b1800fb181b78002b0bd0a8235b00fb181a6836
:103b2800a2235b00fb181b689a4201dc012300e01a
:103b380000231a1c01231340dbb201225340dbb2dd
:103b4800002b03d02ff004fb03009847dc23f9185f
:103b5800674bbc225200ba18d2180b0003ca03c321
:103b680001239a225200ba1813603423ff33fb183a
:103b780000221a709a235b00fb181b68002b01dadd
:103b88000023bce0d423fb18dc22ba1803ca03c301
:103b9800d423fb181b6896225200ba181360cc2352
:103ba800fb18dc22ba1803ca03c3cc23fb185b68d2
:103bb80094225200ba1813602823ff33fb180022fe
:103bc8001a70fc23fb1800221a605a60c423fb18e1
:103bd800fc22ba1803ca03c3c423fb181b6890222b
:103be8005200ba1813603423ff33fb181b78002bdc
:103bf80023d096235b00fb181b68002b09d0962363
:103c08005b00fb181a6890235b00fb181b689a423c
:103c180007d194235b00fb181b685a425341dbb25f
:103c280006e094235b00fb181b68db43db0fdbb269
:103c38002822ff32ba18137020e096235b00fb1885
:103c48001b68002b11d096235b00fb181a68902381
:103c58005b00fb181b689a4207d094235b00fb1893
:103c68001b68002b01db012200e000222823ff3320
:103c7800fb181a701a7801210a401a7001235b4256
:103c88008e225200ba1813602823ff33fb181b78c2
:103c9800002b11d08e235b00fb181a6896235b005b
:103ca800fb181b68d31a1a0094235b00fb181b68c7
:103cb8009a4201d3012200e000222823ff33fb1897
:103cc8001a701a7801210a401a702823ff33fb184a
:103cd8001b78002b0ed09a235b00fb181a689423dc
:103ce8005b00fb181b689a4204dc012303e0c04612
:103cf8008cfeffff00231a1c01231340dbb20122b4
:103d08005340dbb2002b03d02ff022fa0300984770
:103d18003b68002b03d12ff01bfa03009847802340
:103d28005b02ba225200ba181360ca4bca4abc21b5
:103d38004900791889181a685b680868496820f08a
:103d4800cbfe0300b8225200ba181360b8235b00f8
:103d5800fb181b68002b00da5ae2bf4bbc2252004a
:103d68009446bc446344bd4819685a6819f0d8f9a8
:103d780001235b42b6225200ba1813609423f91843
:103d8800b54bbc225200ba18d2180b0003ca03c3a1
:103d98009423fb185b689c22b818b8225200ba1802
:103da8001168ad4abc246400a446bc446244009334
:103db8000b001168526819f04ffba94b9c22b918e7
:103dc8001a685b680868496820f086fe0300b62216
:103dd8005200ba181360b6235b00fb181b68002b4f
:103de80000da51e100239022ba1813609d4bbc22df
:103df80052009446bc446344994a03ca03c3994b8e
:103e0800bc2252009446bc4463445a68b6235b0003
:103e1800fb181b68d118944bbc225200ba18d01852
:103e28008d4bbc225200ba18d218030011ca11c314
:103e38008d4bbc2252009446bc4463445b68e42228
:103e4800b818854abc246400a446bc446244009364
:103e58000b001168526819f0fffaec23fb18834a2b
:103e680003ca03c38023fc18ec23fb18e422ba1806
:103e7800902179180291882179180191694658682a
:103e880008601b681168526820000af0a9ff002327
:103e9800fb677c23fa188023fb181868596812f00e
:103ea80093f80300b4225200ba181360b4235b00dd
:103eb800fb181b688c225200ba1813608c235b0015
:103ec800fb181b68db0fdbb2002b04d0b4235b00ac
:103ed800fb181b68a5e1fb6f9ab23b685a819023d7
:103ee800fb181b68013301d1614b9ae1614bbc227d
:103ef80052009446bc4463448822ba1803ca03c3d8
:103f08005c4bbc2252009446bc4463445b685a4aea
:103f1800bc214900791888188822ba18009301230f
:103f28001168526819f098fa544bbc225200ba181a
:103f3800d118514bbc225200ba18d2180b0003ca30
:103f480003c34e4bbc2252009446bc446344596898
:103f5800494bbc225200ba18d2186c23f8180b002f
:103f6800116852681bf038f80300b2225200ba18e0
:103f78001360b2235b00fb181b688a225200ba1830
:103f880013608a235b00fb181b68db0fdbb2002b76
:103f980004d0b2235b00fb181b6842e13b68384a37
:103fa8006c217818116852680df0fefb0300b022ee
:103fb8005200ba181360b0235b00fb181b688822f4
:103fc8005200ba18136088235b00fb181b68db0fcc
:103fd800dbb2002b04d0b0235b00fb181b6820e188
:103fe8003b685b89cc2b25d13b6803221a723b685e
:103ff8000c33244a6c217818116852680df0d4fbf0
:104008000300ae225200ba181360ae235b00fb18ff
:104018001b6886225200ba18136086235b00fb18bf
:104028001b68db0fdbb2002b0dd0ae235b00fb1847
:104038001b68f6e03b6801221a723b680022da60ce
:104048003b6800221a6180235b02ba225200ba1828
:104058001360e2e0803603008cfeffff01000600db
:1040680088360300dcfeffffd4feffffa4c0020079
:1040780006000180e4feffffecfeffffccfeffff21
:104088007836030098360300684b9c22b9181a68e2
:104098005b680868496820f01ffd0300b6225200db
:1040a800ba181360b6235b00fb181b68002b00daf4
:1040b800a8e05f4bbc2252009446bc4463445b4a70
:1040c80003ca03c35a4bbc2252009446bc446344ff
:1040d8005a68b6235b00fb181b68d318591c554b4c
:1040e800bc225200ba18d018534bbc225200ba183e
:1040f800d218030011ca11c34e4bbc225200944679
:10410800bc4463445b684d4abc20400038188018a2
:10411800494abc246400a446bc44624400930b0092
:104128001168526819f098f9454bbc225200ba1828
:10413800d118424bbc225200ba18d2180b0003ca3d
:1041480003c33f4bbc2252009446bc4463445968a5
:104158003a4bbc225200ba18d2183423f8180b0074
:10416800116852681af038ff0300ac225200ba18de
:104178001360ac235b00fb181b6884225200ba183a
:10418800136084235b00fb181b68db0fdbb2002b7a
:1041980004d0ac235b00fb181b6842e03b680c337f
:1041a800284a34217818116852680df0fdfa030086
:1041b800aa225200ba181360aa235b00fb181b68d6
:1041c8007a1dff3213607b1dff331b68db0fdbb2e8
:1041d800002b04d0aa235b00fb181b6821e03b6876
:1041e80002221a723b6800221a603b6800225a6059
:1041f8003b68c8225a8180235b02ba225200ba184f
:1042080013600ae0104bba225200ba18136004e097
:104218000d4bba225200ba181360ba235b00fb1880
:104228001b681800bd465fb090bdc046a8360300a5
:10423800acfeffffa4feffff8cfeffffb4fefffff6
:0c4248009cfeffff98360300010005807b
:020000040000fa
:1042540090b5e7b000afdb4bcc246400a446bc446b
:104264006344186059607a60d74bcc225200ba1864
:10427400d118d44bcc225200ba18d2180b0003ca5e
:1042840003c30023ca225200ba1813609423ff33d5
:10429400fb1800221a70ca235b00fb181b68002b52
:1042a40001da0023d9e0c94bcc225200ba18d11844
:1042b400c54bcc225200ba18d2180b0003ca03c350
:1042c400c24bcc2252009446bc4463441b68c622b1
:1042d4005200ba181360be4bcc225200ba18d1183f
:1042e400b94bcc225200ba18d2180b0003ca03c32c
:1042f400b74bcc2252009446bc4463445b68c4224e
:104304005200ba1813608823ff33fb1800221a7076
:10431400a6235b00fb1800221a605a60ad4bcc2226
:1043240052009446bc446344a6225200ba1803cafd
:1043340003c3a84bcc2252009446bc4463441b687c
:10434400c0225200ba1813609423ff33fb181b7861
:10435400002b23d0c6235b00fb181b68002b09d05d
:10436400c6235b00fb181a68c0235b00fb181b689c
:104374009a4207d1c4235b00fb181b685a4253417d
:10438400dbb206e0c4235b00fb181b68db43db0fd6
:10439400dbb28822ff32ba18137020e0c6235b0018
:1043a400fb181b68002b11d0c6235b00fb181a688e
:1043b400c0235b00fb181b689a4207d0c4235b0030
:1043c400fb181b68002b01db012200e0002288237c
:1043d400ff33fb181a701a7801210a401a7001235e
:1043e4005b42be225200ba1813608823ff33fb18c5
:1043f4001b78002b11d0be235b00fb181a68c62360
:104404005b00fb181b68d31a1a00c4235b00fb185b
:104414001b689a4201d3012200e000228823ff3363
:10442400fb181a701a7801210a401a708823ff3386
:10443400fb181b78002b0bd0ca235b00fb181a68ef
:10444400c4235b00fb181b689a4201dc012300e0d3
:1044540000231a1c01231340dbb201225340dbb2b8
:10446400002b03d02ef076fe030098477b68002bc8
:1044740003d12ef06ffe0300984792235b00fb18d4
:10448400554a03ca03c3554bcc225200ba18d1185b
:104494004c4bcc225200ba18d2180b0003ca03c3e7
:1044a4004f4bcc2252009446bc44634492225200a7
:1044b400ba1803ca03c34b4bcc225200ba18d11802
:1044c400464bcc225200ba18d2180b0003ca03c3bd
:1044d400444bcc2252009446bc4463445b68bc22e7
:1044e4005200ba181360404bcc225200ba18d118ab
:1044f4003b4bcc225200ba18d2180b0003ca03c398
:10450400394bcc2252009446bc4463445b68ba22c3
:104514005200ba181360bc235b00fb181b68002b05
:1045240007d1ba235b00fb181b685a425341dbb224
:1045340041e0bc235b00fb181a68ba235b00fb183c
:104544001b689a4232d1294bcc225200ba18d11896
:10455400224bcc225200ba18d2180b0003ca03c350
:10456400224bcc2252009446bc4463441868204b2e
:10457400cc225200ba18d118194bcc225200ba18c6
:10458400d2180b0012ca12c3194bcc225200944603
:10459400bc4463441b68bc225200ba181268190058
:1045a4002ef06ffa031e01d1012300e000231a1c30
:1045b40001231340dbb2002b1cd07b6801221a704c
:1045c4003ae2c04670feffff94feffff8cfeffff41
:1045d40084feffff7cfeffffb86b0100bcfeffff03
:1045e400c4feffffa4feffff9cfeffffb4feffff1f
:1045f400acfeffff96235b00fb18e74a03ca03c324
:10460400e64bcc225200ba18d118e54bcc2252000a
:10461400ba18d2180b0003ca03c3e24bcc225200cf
:104624009446bc44634496225200ba1803ca03c396
:10463400dd4bcc225200ba18d118d84bcc225200f0
:10464400ba18d2180b0003ca03c3d74bcc225200aa
:104654009446bc4463445b68b8225200ba181360a1
:10466400d24bcc225200ba18d118ce4bcc225200d5
:10467400ba18d2180b0003ca03c3cc4bcc22520085
:104684009446bc4463445b68b6225200ba18136073
:10469400b8235b00fb181b68002b07d1b6235b0013
:1046a400fb181b685a425341dbb241e0b8235b005c
:1046b400fb181a68b6235b00fb181b689a4232d1b8
:1046c400bb4bcc225200ba18d118b44bcc225200a6
:1046d400ba18d2180b0003ca03c3b54bcc2252003c
:1046e4009446bc4463441868b24bcc225200ba18b6
:1046f400d118ac4bcc225200ba18d2180b0012caf3
:1047040012c3ac4bcc2252009446bc4463441b6895
:10471400b8225200ba18126819002ef0b2f9031e1a
:1047240001d1012300e000231a1c01231340dbb252
:10473400002b03d07b6802221a707de19a235b0070
:10474400fb189d4a03ca03c3b423f918944bcc2223
:104754005200ba18d2180b0003ca03c3bc23fb18b7
:104764009a225200ba1803ca03c39c23fb18b4222a
:10477400ba1803ca03c39c23fb185b68b422520013
:10478400ba1813608d4bcc2252009446bc44634447
:10479400bc22ba1803ca03c3884bcc2252009446e5
:1047a400bc4463445b68b2225200ba181360b42359
:1047b4005b00fb181b68002b07d1b2235b00fb18be
:1047c4001b685a425341dbb22be0b4235b00fb1855
:1047d4001a68b2235b00fb181b689a421cd1ac23f5
:1047e400fb18b422ba1803ca03c3ac23fb18186815
:1047f400a423fb18bc22ba1812ca12c3a423fb18a0
:104804001b68b4225200ba18126819002ef039f944
:10481400031e01d1012300e000231a1c01231340cd
:10482400dbb2002b03d07b6803221a7004e19e23c1
:104834005b00fb18624a03ca03c3e423f918584b0c
:10484400cc225200ba18d2180b0003ca03c3ec23bb
:10485400fb189e225200ba1803ca03c3cc23fb18c8
:10486400e422ba1803ca03c3cc23fb185b68b02242
:104874005200ba181360c423fb18ec22ba1803caf6
:1048840003c3c423fb185b68ae225200ba1813603a
:10489400b0235b00fb181b68002b07d1ae235b0021
:1048a400fb181b685a425341dbb22be0b0235b0078
:1048b400fb181a68ae235b00fb181b689a421cd1d4
:1048c400dc23fb18e422ba1803ca03c3dc23fb1855
:1048d4001868d423fb18ec22ba1812ca12c3d423c2
:1048e400fb181b68b0225200ba18126819002ef087
:1048f400c8f8031e01d1012300e000231a1c012380
:104904001340dbb2002b03d07b6800221a7093e0c3
:10491400a2235b00fb182b4a03ca03c38a235b0050
:10492400f9181f4bcc225200ba18d2180b0003ca34
:1049340003c38e235b00fb18a2225200ba1803cad9
:1049440003c3fc23fb188a225200ba1803ca03c308
:10495400fc23fb185b68ac225200ba181360f423e2
:10496400fb188e225200ba1803ca03c3f423fb189f
:104974005b68aa225200ba181360ac235b00fb18d0
:104984001b68002b20d1aa235b00fb181b685a422a
:104994005341dbb248e0c046cc6b0100ecfeffffa4
:1049a40070fefffff4feffffd4feffffccfeffff0f
:1049b400e4feffffdcfeffffdc6b0100fcfefffffb
:1049c400f06b0100046c0100ac235b00fb181a6857
:1049d400aa235b00fb181b689a4220d186235b0044
:1049e400fb188a225200ba1803ca03c386235b0049
:1049f400fb1818687b1dff338e225200ba1812caa6
:104a040012c37b1dff331b68ac225200ba18126814
:104a140019002ef036f8031e01d1012300e0002313
:104a24001a1c01231340dbb2002b03d07b68042241
:104a34001a7001e0034b01e080235b021800bd46bd
:084a440067b090bd0500018080
:020000040000fa
:104a4c001b5b33376d20204e4f4e451b5b33376d50
:104a5c000000c0461b5b33316d204552524f521b38
:104a6c005b33376d0000c0461b5b33336d20205722
:104a7c0041524e1b5b33376d0000c0461b5b333617
:104a8c006d2044454255471b5b33376d0000c046d3
:104a9c001b5b33376d2020494e464f1b5b32376d05
:104aac001b5b33376d00c0461b5b33376d20494ea3
:104abc00464f1b5b33376d001b5b33326d20474f0a
:104acc004f441b5b33376d001b5b33336d205741f9
:104adc00524e1b5b33376d001b5b33316d1b5b37e9
:104aec006d4552524f521b5b32376d1b5b33376d2a
:104afc000000c04620204d324d3a205b7370695f38
:104b0c00636d645d3a204661696c656420636d6415
:104b1c002077726974652c20627573206572726fd0
:104b2c00722e2e2e0000c04620204d324d3a205bb6
:104b3c007370695f636d645f7273705d3a20466178
:104b4c00696c656420636d6420726573706f6e733d
:104b5c006520726561642c20627573206572726fba
:104b6c00722e2e2e0000c04620204d324d3a205b76
:104b7c007370695f636d645f7273705d3a20466138
:104b8c00696c656420636d6420726573706f6e73fd
:104b9c006520726561640a0020204d324d3a205b1d
:104bac007370695f646174615f726561645d3a2002
:104bbc004661696c65642064617461207265737010
:104bcc006f6e736520726561642c2062757320654d
:104bdc0072726f722e2e2e0020204d324d3a205bb9
:104bec007370695f646174615f726561645d3a20c2
:104bfc004661696c656420646174612072657370d0
:104c0c006f6e736520726561642e2e2e28253032ee
:104c1c007829000020204d324d3a205b7370695f7b
:104c2c00646174615f726561645d3a204661696cb0
:104c3c006564206461746120626c6f636b207265c3
:104c4c0061642c20627573206572726f722e2e2e29
:104c5c000000c04620204d324d3a205b7370695fd6
:104c6c00646174615f726561645d3a204661696c70
:104c7c006564206461746120626c6f636b204352c5
:104c8c004320726561642c20627573206572726fab
:104c9c00722e2e2e0000c04620204d324d3a205b45
:104cac007370695f646174615f77726974655d3a92
:104cbc00204661696c6564206461746120626c6f6c
:104ccc00636b20636d642077726974652c20627548
:104cdc0073206572726f722e2e2e000020204d32c2
:104cec004d3a205b7370695f646174615f777269c0
:104cfc0074655d3a204661696c6564206461746119
:104d0c0020626c6f636b2077726974652c206275fe
:104d1c0073206572726f722e2e2e000020204d3281
:104d2c004d3a205b7370695f646174615f7772697f
:104d3c0074655d3a204661696c65642064617461d8
:104d4c0020626c6f636b20435243207772697465e9
:104d5c002c20627573206572726f722e2e2e0000dd
:104d6c0020204d324d3a205b7370695f7772697405
:104d7c00655f7265675d3a204661696c65642063a6
:104d8c006d642c2077726974652072656720282504
:104d9c00303878292e2e2e0020204d324d3a205bb3
:104dac007370695f77726974655f7265675d3a20cd
:104dbc004661696c656420636d6420726573706f05
:104dcc006e73652c20777269746520726567202874
:104ddc0025303878292e2e2e0000c04620204d324a
:104dec004d3a205b7370695f77726974655f626cb2
:104dfc006f636b5d3a204661696c656420636d641a
:104e0c002c20777269746520626c6f636b20282587
:104e1c00303878292e2e2e0020204d324d3a205b32
:104e2c007370695f77726974655f626c6f636b5dd9
:104e3c003a204661696c656420636d642072657309
:104e4c00706f6e73652c20777269746520626c6f5d
:104e5c00636b202825303878292e2e2e0000c04672
:104e6c0020204d324d3a205b7370695f7772697404
:104e7c00655f626c6f636b5d3a204661696c65645b
:104e8c0020626c6f636b206461746120777269744b
:104e9c00652e2e2e0000c04620204d324d3a205b50
:104eac007370695f77726974655f626c6f636b5d59
:104ebc003a204661696c6564206275732065727274
:104ecc006f722e2e2e00c04620204d324d3a205ba4
:104edc007370695f77726974655f626c6f636b5d29
:104eec003a204661696c6564206461746120726566
:104efc0073706f6e736520726561642c2025782049
:104f0c00257820257800c04620204d324d3a205b74
:104f1c007370695f726561645f7265675d3a2046a4
:104f2c0061696c656420636d642c2072656164201a
:104f3c00726567202825303878292e2e2e00c04621
:104f4c0020204d324d3a205b7370695f726561644d
:104f5c005f7265675d3a204661696c656420636dbc
:104f6c006420726573706f6e73652c20726561645a
:104f7c0020726567202825303878292e2e2e0000c7
:104f8c0020204d324d3a205b7370695f726561640d
:104f9c005f7265675d3a204661696c656420646187
:104fac00746120726561642e2e2e000020204d321b
:104fbc004d3a205b7370695f726561645f626c6f00
:104fcc00636b5d3a204661696c656420636d642c8b
:104fdc00207265616420626c6f636b202825303809
:104fec0078292e2e2e00c04620204d324d3a205bc3
:104ffc007370695f726561645f626c6f636b5d3a5d
:10500c00204661696c656420636d64207265737001
:10501c006f6e73652c207265616420626c6f636bbc
:10502c00202825303878292e2e2e000020204d32b5
:10503c004d3a205b7370695f726561645f626c6f7f
:10504c00636b5d3a204661696c656420626c6f63ca
:10505c006b206461746120726561642e2e2e0000d9
:10506c0020204d324d3a205b6e6d5f7370695f6925
:10507c006e69745d3a204661696c656420696e7472
:10508c0065726e616c20726561642070726f746ff2
:10509c00636f6c207769746820435243206f6e2cc9
:1050ac00207265747279696e672077697468204321
:1050bc005243206f66662e2e2e00c04620204d32a5
:1050cc004d3a205b6e6d5f7370695f696e69745ddc
:1050dc003a204661696c656420696e7465726e6114
:1050ec006c20726561642070726f746f636f6c2ecc
:1050fc002e2e000020204d324d3a205b6e6d5f73da
:10510c0070695f696e69745d3a204661696c6564ab
:10511c0020696e7465726e616c207772697465209b
:10512c0070726f746f636f6c207265672e2e2e0019
:10513c0020204d324d3a205b6e6d5f7370695f6954
:10514c006e69745d3a204661696c20636d642072ef
:10515c0065616420636869702069642e2e2e0000de
:10516c0020204d324d3a205b6e6d5f7370695f6924
:10517c006e69745d3a206368697069642028253013
:10518c003878290020204d324d3a205265736574d1
:10519c0020616e64207265747279202564202578f4
:1051ac000000c04620204d324d3a20526573657484
:1051bc0020616e64207265747279202564202578d4
:1051cc002025780020204d324d3a205265736574ad
:1051dc0020616e64207265747279202564202578b4
:0451ec002025640016
:020000040000fa
:1051f00090b5d1b002af78608423fb187a681100b3
:1052000018002cf005f900238022ba18136000233f
:10521000fb674823fb188422ba1803ca03c3482338
:10522000fb181b681a787b23fb181a707b23fb186a
:105230001b782d2b3ad18023fb181b680133802269
:10524000ba181360fb6f0133fb677c23fa188423c1
:10525000f9187b68180024f055fb03009a225200cd
:10526000ba1813609a235b00fb181b689022520047
:10527000ba18136090235b00fb181b68db0fdbb2ce
:10528000002b04d09a235b00fb181b6870e35023ab
:10529000fb188422ba1803ca03c35023fb181b68e7
:1052a000fa6f9b181a787b23fb181a707b23fb1864
:1052b0001b78302b00d0ace08023fb181b68013337
:1052c0008022ba181360fb6f0133fb67cb4b9c2223
:1052d00052009446bc4463448422ba1803ca03c3f0
:1052e000c64b9c2252009446bc4463445a68fb6ff0
:1052f0009a422fdc8423f9187b680022180024f0de
:1053000059f803008e225200ba1813608e235b00f6
:10531000fb181b68db0fdbb2002b19d0fb6f8c2254
:10532000b8188422ba18009300231168526818f044
:1053300097f8f96f8023fb181b688c22ba187868dd
:1053400000930b00116852682af058fe03000fe327
:105350000023fb673c23fb188422ba1803ca03c34b
:105360003c23fb181b68fa6f9b181a787b23fb18e9
:105370001a7080235b027b647b23fb1818789423cc
:10538000fb189f4a12ca12c34423fb189422ba186e
:105390001168526825f028ff031e00d1fde07b6ce8
:1053a0008c225200ba1813608c235b00fb181b6818
:1053b0008a225200ba1813608a235b00fb181b680c
:1053c000db0fdbb25a1e9341dbb201225340dbb24a
:1053d0001a1c01231340dbb2002b18d0fb6f9c2258
:1053e000b8188422ba18009300231168526818f084
:1053f00037f8fa6f8023fb1819689c23fb1878682c
:10540000019100921a685b68072126f01dfb7b6cf6
:10541000aee22df033fd02007b23fb181b78013335
:10542000d3181b781a000423134003d12df094fee7
:10543000030098478023fb187c22ba18842179182e
:1054400078681ff0d3f96f4b9c2252009446bc44fd
:1054500063448422ba1803ca03c36a4b9c225200d5
:105460009446bc4463445a68fb6f9a422fdc842301
:10547000f9187b680022180023f09cff03008822a3
:105480005200ba18136088235b00fb181b68db0fff
:10549000dbb2002b19d0fb6fa422b8188422ba18f3
:1054a000009300231168526817f0dafff96f802328
:1054b000fb181b68a422ba18786800930b001168c7
:1054c00052682af09bfd030052e20023fb674e4b1b
:1054d0009c2252009446bc4463448422ba1803caf6
:1054e00003c3494b9c2252009446bc4463441b684e
:1054f000fa6f9b181a787b23fb181a7080235b02c3
:105500003b637b23fb181878ac23fb183c4a12ca78
:1055100012c33023fb18ac22ba181168526825f068
:1055200063fe031e39d03b6b86225200ba1813600b
:1055300086235b00fb181b6884225200ba18136094
:1055400084235b00fb181b68db0fdbb25a1e934100
:10555000dbb201225340dbb21a1c01231340dbb241
:10556000002b18d0fb6fb422b8188422ba1800930d
:1055700000231168526817f073fffa6f8023fb183d
:105580001968b423fb187868019100921a685b6867
:10559000072126f059fa3b6beae17b23fb181b78c5
:1055a0002e2b00d0dfe08023fb181b680133802204
:1055b000ba181360fb6f0133fb677c23fa1884234e
:1055c000f9187b68180024f09df903009822520016
:1055d000ba18136098235b00fb181b687a1dff3212
:1055e00013607b1dff331b68db0fdbb2002b0dd07c
:1055f00098235b00fb181b68bae1c046fcfeffff66
:1056000050f00200e8fefffff0feffff8023fb18d2
:105610007c22ba188421791878681ff0e7f8d64bf5
:105620009c2252009446bc4463448422ba1803caa4
:1056300003c3d14b9c2252009446bc4463445a6835
:10564000fb6f9a422ddc8423f9187b680022180036
:1056500023f0b0fe03007a1cff3213607b1cff3383
:105660001b68db0fdbb2002b19d0fb6fbc22b81814
:105670008422ba18009300231168526817f0f0fed4
:10568000f96f8023fb181b68bc22ba187868009356
:105690000b00116852682af0b1fc030068e1002396
:1056a000fb67b64b9c2252009446bc446344842260
:1056b000ba1803ca03c3b14b9c2252009446bc449f
:1056c00063441b68fa6f9b181a787b23fb181a70c7
:1056d00080235b02fb617b23fb181878c423fb1833
:1056e000a74a12ca12c31c23fb18c422ba18116895
:1056f000526825f079fd031e35d0fb69fc22ba18eb
:105700001360fc23fb181b68f822ba181360f823f7
:10571000fb181b68db0fdbb25a1e9341dbb2012280
:105720005340dbb21a1c01231340dbb2002b18d00c
:10573000fb6fcc22b8188422ba180093002311689a
:10574000526817f08dfefa6f8023fb181968cc237e
:10575000fb187868019100921a685b68072126f0af
:1057600073f9fb6904e18023fb181b680133802275
:10577000ba181360fb6f0133fb675823fb188422b0
:10578000ba1803ca03c35823fb185a68fb6f9a421e
:1057900020dc8423f9187b680022180023f00afe1d
:1057a000030096225200ba18136096235b00fb1880
:1057b0001b68f422ba181360f423fb181b68db0f74
:1057c000dbb2002b04d096235b00fb181b68cfe0f4
:1057d0000023fb676023fb188422ba1803ca03c3a3
:1057e0006023fb181b68fa6f9b181a787b23fb1841
:1057f0001a707b23fb181b782d2b04d07b23fb18fe
:105800001b782b2b29d18023fb181b6801338022a6
:10581000ba181360fb6f0133fb677c23fa188423eb
:10582000f9187b68180024f06df8030094225200e8
:10583000ba18136094235b00fb181b68f022ba1897
:105840001360f023fb181b68db0fdbb2002b04d0c6
:1058500094235b00fb181b688ae08023fb187c22e2
:10586000ba188421791878681ef0c0ff6823fb18e5
:105870008422ba1803ca03c36823fb185a68fb6f53
:105880009a422ddc8423f9187b680022180023f04b
:1058900091fd0300ec22ba181360ec23fb181b687f
:1058a000db0fdbb2002b19d0fb6fd422b818842297
:1058b000ba18009300231168526817f0d1fdf96ff0
:1058c0008023fb181b68d422ba18786800930b0059
:1058d000116852682af092fb030049e00023fb673d
:1058e0007023fb188422ba1803ca03c37023fb1861
:1058f0001b68fa6f9b181a787b23fb181a70dc233d
:10590000fb187b22b918012218002af0f1fedc23d3
:10591000fb181c491a685b68086849681ff0e0f8c2
:10592000030092225200ba18136092235b00fb1806
:105930001b68013301d1144b1ae0fb6fe422b81845
:105940008422ba18009300231168526817f088fd6a
:10595000fa6f8023fb181968e423fb18786801911b
:1059600000921a685b68072126f06ef880235b02bc
:105970001800bd464fb090bdd4feffffdcfeffff18
:0c5980005cf002001836030005000180f6
:020000040000fa
:10598c00b0b5c6b000afd74c8c256d00ac46bc444e
:10599c00644420606160d4498c2040008446bc443f
:1059ac0061440a604b6094235b00fb181b68002b5e
:1059bc0003d12df0cbfb030098472c23f918ca4bcd
:1059cc008c225200ba18d2180b0003ca03c300234e
:1059dc00f822ba181360f723fb1801221a70f82367
:1059ec00fb181b68002b01da0023a8e02423fb180a
:1059fc002c22ba1803ca03c32423fb181b68f022f9
:105a0c00ba1813601c23fb182c22ba1803ca03c340
:105a1c001c23fb185b68ec22ba181360eb23fb18f1
:105a2c0000221a70a423fb1800221a605a60af4b94
:105a3c008c2252009446bc446344a422ba1803ca74
:105a4c0003c3aa4b8c2252009446bc4463441b688b
:105a5c00e422ba181360f723fb181b78002b1dd017
:105a6c00f023fb181b68002b07d0f023fb181a68d7
:105a7c00e423fb181b689a4206d1ec23fb181b6825
