:100000009842002005510000F5500000F550000016
:1000100000000000000000000000000000000000E0
:10002000000000000000000000000000F55000008B
:100030000000000000000000F5500000F550000036
:10004000F5500000F5500000F5500000F91C0000CC
:10005000591B0000F5500000F5500000F55000005D
:10006000F5500000F5500000F5500000F55000007C
:10007000F5500000F550000079A70000F550000091
:10008000F5500000F5500000F5500000F55000005C
:10009000F55000000000000000000000F5500000D6
:1000A000F5500000F5500000F5500000F55000003C
:1000B0000000000010B5064C2378002B07D1054B3B
:1000C000002B02D0044800E000BF0123237010BDC4
:1000D000000A002000000000C0BD0100084B10B560
:1000E000002B03D00749084800E000BF0748036819
:1000F000002B00D110BD064B002BFBD09847F9E731
:1001000000000000040A0020C0BD0100C0BD0100C5
:100110000000000030B5030093B00D000220002B5A
:100120000FD000290DD0190004226B4601AC2270BB
:10013000581D3C32044B98472A0041212000034BB4
:10014000984713B030BDC04611DF0000B50B00006A
:1001500010B50248024B9847002010BD1C0A002031
:10016000DD12000037B5124C05002368002B01D0CA
:10017000104B9847104B2800984703002060E1205F
:10018000002B13D06A780020032A0FD11B68023A93
:100190000092013312320100084DA847002805D112
:1001A000072123681A6853788B4353703EBDC046BD
:1001B0001C0A002051010000651200009D0500008E
:1001C00070B5049DE224002D0DD0DF3C2040DF34CB
:1001D000032808D0002407262C803340022804D0AE
:1001E000D20013432B80200070BDC90019431202B6
:1001F0000A432A80F7E700000300E220002A14D017
:1002000017480068406840684078002810D1012BEA
:1002100009D0002B03D0022B08D0E22005E05821A2
:100220001160002001E04023136070472023FBE7AA
:10023000012B0DD0002B09D0022BEED1242307294E
:1002400007D9082907D1D0235B0002E08021E7E726
:1002500040231360E5E7E22048230F29E5D8F8E7BB
:100260001C0A0020F0B5B3B01E006B460C00D8701D
:100270001100981D4022154D9C80A847144F6946D7
:100280003B681868134B9847041E1CD139686846B0
:10029000114B9847041E16D1002E08D06B469B794F
:1002A000222B04D96B462022D91D3000A847389B49
:1002B000002B08D06B469B79422B04D927212022A2
:1002C00069443898A847200033B0F0BD11DF000022
:1002D0001C0A0020BD1000001913000013B5040013
:1002E0000020130000900A002100014CA04716BD19
:1002F00065020000F0B5144E1D003368B3B00F0066
:100300001C686B46111ED8709F8003D0981D032275
:100310000E4B9847200069460D4B9847041E10D19C
:10032000316868460B4B9847041E0AD1002D08D04F
:100330006B469A79042A04D9D91D033A2800034B45
:100340009847200033B0F0BD1C0A002011DF0000E8
:10035000D51000001913000010B50B000022010099
:10036000014C0420A04710BDF5020000002210B58A
:100370000B00024C01001000A04710BDF502000068
:10038000F0B51A4E1D003368B3B01F680C0003238C
:1003900011006A460340D07094801422012B06D9C4
:1003A000E224032B1FD12022104200D092186B466A
:1003B000981D0F4B9847694638000E4B9847041E0E
:1003C00011D1316868460C4B9847041E0BD1002DA3
:1003D00009D06B469B79222B05D96B462022D91D6B
:1003E0002800034B9847200033B0F0BD1C0A0020C2
:1003F00011DF0000F9100000191300003F2398439B
:10040000030010B50320202A03D0E220402A06D1A1
:10041000BF38184300230A00014C1900A04710BD43
:100420008103000070B5124EB2B033686A46050011
:10043000186800236946D37093800E4B9847041EBA
:1004400011D1316868460C4B9847041E0BD16B469E
:100450009B79232B0AD1002D05D06B462022D91D74
:100460002800064B9847200032B070BDE624FAE71A
:100470001C0A00202D1100001913000011DF0000DC
:10048000F0B5BBB0060040A810C8007804940390F3
:100490000498E22400282ED00398042801D02028B4
:1004A00029D1164F04AC3868006805900E20001959
:1004B0000090134C3000A047041E1CD1039B202B3E
:1004C00001D160331E4304ABDB8908ADAB8029004A
:1004D00005980C4BEE709847041E0CD13968280023
:1004E000094B9847041E06D1172104ABC918039A7B
:1004F0000498064B984720003BB0F0BD1C0A002032
:10050000C1010000451100001913000011DF0000B7
:1005100070B504008AB0E225002814D0202301938E
:10052000002302AE094D00961A0019001800A847D2
:10053000051E08D1310004222000054EB047201DC1
:10054000052204A9B04728000AB070BD810400004C
:1005500011DF0000F0B5060085B00C00E220002994
:1005600016D00423002103AD01930095013302222C
:100570000800094FB84700280AD1002E03D0012EE9
:1005800008D0E22004E0EB78553B5A1E93412370DB
:1005900005B0F0BDAB78F7E781040000F0B593B08B
:1005A000079300230590069115000993022802D9AC
:1005B000E22013B0F0BD059B022B02D1069B0F2B4E
:1005C000F6D8189B002B01D10020F2E7079B002BE7
:1005D000EED009AA06990598264B98470028E8D13D
:1005E000189B099A5B199342E2D86B090393202365
:1005F000040006000493189B9E42E5D2049B202B26
:100600000BD1039B099A5B01D31A1F2B05D8072333
:100610007419A4081C40033B04936A460499127B96
:1006200001910AA90091E3B206990598124FB847C3
:100630000028BED1039B0100DB001B199B009D42DB
:1006400000D9E91A049B189A5B1A971B9F4200D99C
:100650001F00079B3A0098190AAB5918074B984797
:10066000049BF619202B03D1039B01330393C2E7AC
:100670000134C0E7F90100008104000011DF00002F
:1006800070B51500B2B0E224002A1AD06A460E4EA8
:1006900033681B68D0709180180069460B4B9847EF
:1006A000041E0ED131686846094B9847041E08D1D4
:1006B0006B469A79042A04D9D91D033A2800054BC0
:1006C0009847200032B070BD1C0A00205D11000068
:1006D0001913000011DF0000F8B505000E4B0020D3
:1006E0000F0016009847002813D10C4B1B681B689D
:1006F0001B78032B0ED12024403020223900084BD8
:100700009847002805D18030204332002900054B4E
:100710009847F8BD0400F0E7250400001C0A0020FB
:10072000FD03000081060000F0B5B5B00E00019396
:100730001100E224002A2FD003250540022D2ED1DE
:10074000002B29D01B4F40223B681C6802ABD8709D
:100750009E80981D184EB047022D25D14022019948
:10076000462002ABC018B047200002A9134B98479F
:10077000041E11D1396802A8114B9847041E0BD1F1
:100780003B9B002B08D002AB9B79222B04D902ABF8
:100790002022D91D3B98B047200035B0F0BD032D75
:1007A000D0D1E2243A9BCBE73A9B002BDCD013223A
:1007B0001900D5E71C0A002011DF000075110000A8
:1007C00019130000F0B585B0039117001E1E03D168
:1007D000E224200005B0F0BD00251D70039BAB4254
:1007E000F6D0A842F4D0AA42F2D0104B1B681B6886
:1007F0001B78032B18D120353D330100202218002F
:100800000B4B9847041EE4D102203B002843039A77
:10081000019400940421074DA8474342434133709B
:10082000D128D6D00400D4E72B00E6E71C0A00202C
:10083000FD03000029070000F0B589B002930EAB5C
:100840001B78039005930FAB1B780491069310ABB4
:100850001B7817000793039BE220002B35D0002A5A
:1008600033D0029B002B30D0002635001B6801934B
:10087000029B1E60049BAB4202D0019BB34217D285
:10088000079B002B4DD1002E4DD03D00BB1903938B
:10089000039BAB4247D0314B2C7898470322001979
:1008A00043781340012B00D120342C700135EFE741
:1008B000002D12D0059B002B24D00F231D4221D1E7
:1008C000019BB41CA34202D2ED2009B0F0BDB819BF
:1008D00002222349234B98472600019BB21C9342D6
:1008E000F2D3039BBE195B5D1909092915D8303174
:1008F00031700F210B40092B11D830337370013543
:100900001600B7E7069B002BE7D0019A731C9A42AA
:10091000DAD32022BA551E00DFE73731E8E7373354
:10092000ECE7002E07D1029B00201E60019BB34222
:10093000CBD9B855C9E73D00BB190393039B9D4232
:10094000F1D0064B2C7898470322001943781340C6
:10095000022B00D1203C2C700135EFE76DD7000051
:1009600020AA010011DF000010B504005C22002164
:10097000034B9847142203492000034B984710BDAE
:1009800035E00000A068010011DF0000F0B50500AF
:100990000300002287B0019040351C7812021443F6
:1009A0005A78240222439C7812021443DA782402F3
:1009B000224304C39D42F0D100260B684F688D6826
:1009C000CC680A690293F3B29C460F236046034049
:1009D00001989B00C3181B2003931B680493029B80
:1009E000C34104981B189B18132E43D82A00624059
:1009F0003A402C4862401218D31802220F20D741E7
:100A0000F21E024001989200125804980597504037
:100A1000370002000F20083F07400198BF003F58F1
:100A20000F207A4037000E3F07400198BF003F5823
:100A30001F207A40C241039801360260029F2200C3
:100A4000502E13D10A68D3184A680B6094463B00B5
:100A500063444B60059A8B689B188B60CB685D196B
:100A60000B69CD601C190C6107B0F0BD2C0002931E
:100A7000059DA8E76246272A04D83A006A406240EA
:100A80000948B8E762463B2A07D82A0020002243DB
:100A900028403A4002430548ADE73A006A406240C8
:100AA0000348A8E79979825AA1EBD96EDCBC1B8F69
:100AB000D6C162CAF7B53F24436D06001C404023EF
:100AC00017001C1B0091E4B20193002F00DCF7BD5E
:100AD0003000FDB21430A7421CDB402C19D1019A22
:100AE0000099104B9847019D009B7F1B5B19009359
:100AF000AC4204D13000310014300B4B9847736D79
:100B0000ED187565002D02D1B36D0133B365019CFD
:100B1000DBE72500019B2A001B1BC0180099014B35
:100B20009847E1E711DF00008D090000F8B53F2389
:100B3000426D0500134080221435EA5404000E0073
:100B400000225F1C402F2DD1372B08D9210028000F
:100B5000164B98473A0000212800154B9847636DC3
:100B60002100DA0023004F315333013B5A70120A3F
:100B70009942FAD1A26DD100626D520F0A43210051
:100B80004B31013B5A70120A9942FAD1074B2100AE
:100B9000280098470023E25812BAF2500433142B6D
:100BA000F9D1F8BDEA550137FFB2CBE78D09000056
:100BB00035E0000070B50E0005001400A0B06846D6
:100BC000064B9847320029006846054B984768460F
:100BD0002100044B9847002020B070BD6909000037
:100BE000B50A00002D0B00000078002811D10A4B37
:100BF00008620B60094B4B60094BCB60094B8B6063
:100C0000094B8B61094B0B61094B4B61094BCB6164
:100C10007047F020FCE7C046A10C00002D0D00003D
:100C2000950D0000310D0000B90F0000A50E000069
:100C3000690F00000510000010B5002803D108005E
:100C4000024B984710BDE120FCE7C04605100000AC
:100C5000F7B5104C0422104F06000D006846210025
:100C6000B847211D042201A8B847D023042D0FD175
:100C70002A0069463000094CA0470023984207D05B
:100C80002A0001A93000A047D023002800D1073353
:100C90001800FEBDB468010011DF0000C5DE0000D1
:100CA000F7B501904A790E00F020052A2BD82C24A4
:100CB0005443174D2C19636A002B25DC032A22D1DB
:100CC0002200144B83CB83C283CB83C203CB03C2EA
:100CD0002B00FA21104AA4331A6089000F4BB06828
:100CE00098470F4902000F4B200098470E4B2000F9
:100CF00098472B007279AC331A600123A8352B601A
:100D00000020019B1C62FEBD01336362F8E7C04610
:100D1000200A00207C2000200080DC02E5A70000E3
:100D200085BB0000CD150000A11500000020704714
:100D3000F0B5134B85B00F0015009847060001ACC5
:100D40000C22002120000F4B984733792C205B08A0
:100D500023800D4B013563800323A7603B706560E2
:100D60007379210043430948C018094B9847030091
:100D70005A1E9341F0205B42184005B0F0BDC046BA
:100D80001514000035E000000088FFFF200A002055
:100D9000D9150000F0B5264B87B00E000092984799
:100DA000009B03AC1B8800220193037900995B0828
:100DB0002380204BC56A638001230A80019A0700C3
:100DC0006360A660002A10D1ED2007B0F0BD2C2290
:100DD0007B791948534303A9C018184B9847421E02
:100DE0009041F02340420340013D002D18DD002BCF
:100DF000EDD13378E420032BE7D9019A9A42E3D36B
:100E0000013B6360731CA3607B79B83843430A4895
:100E10002100C018094B9847002805D0F020D4E7DE
:100E2000D8B2002BD1D1E4E73378009A1380CCE715
:100E3000151400000188FFFF200A0020D9150000CA
:100E4000F7B5124B019198472C2607004079104DB9
:100E50007043104B28189847FA2101980E4B8900CF
:100E60009847FA217C790C4B74432C190190890026
:100E7000206A9847019A0100084B2000984778792A
:100E8000074B704328189847F7BDC046151400005B
:100E9000200A0020AD150000E5A70000CD150000D8
:100EA000A1150000F0B5274B89B0029098478368E0
:100EB000050001931A00244BC66A9A4203D0190018
:100EC0000298224B98470023214A05AC62802C22CD
:100ED00023806360A3606B791E4853432100C018D0
:100EE0001D4B98471D4B0700288D98472B795B08B1
:100EF00023800423636004ABA360194B63802C231D
:100F00000393002E16DD013E002F09D1019B1A002C
:100F10000D4B9A4210D0110002980C4B98470BE0F1
:100F20006B79039A0B4853432100C0180A4B98472A
:100F30000700E6E7002FE9D0042104A8094B9847F1
:100F400009B0F0BD15140000A0860100410E00009C
:100F50000088FFFF200A0020D9150000E5140000DA
:100F60000188FFFF510C00001FB50F4B9847037914
:100F700001A95B080B800D4B6A464B8001234B6037
:100F80006B468B600223137043792C20434308483F
:100F9000C018084B984703005A1E9341F0205B424B
:100FA000184005B000BDC046151400000088FFFFC2
:100FB000200A0020D91500001FB50E4B9847037971
:100FC00001A95B080B800C4B6A464B8001238A60A9
:100FD00013704B6043792C2043430848C018084BDA
:100FE000984703005A1E9341F0205B42184005B019
:100FF00000BDC046151400000088FFFF200A002035
:10100000D915000010B5041E08D0436A013B4362A5
:10101000002B03DC024B984700236362002010BDC5
:10102000AD15000010B580B2014B984710BDC04609
:10103000051500000300E220002902D000200B70FB
:101040004870704710B5041E04D0034B00689847E1
:101050000023236010BDC0469DD800000B189C469D
:101060000023F7B56046884216D00878082401901E
:101070000120019DDF0B05406E1EB5415B009BB258
:10108000BD4202D0064D6B409BB24000013CC0B255
:10109000002CEED10131E5E713701B0A5370F7BD48
:1010A0000580FFFF10B5411C4078034B0238C0B2E9
:1010B0000A18984710BDC0465D100000432310B5C4
:1010C0008B7004334B700800014B9847002010BD13
:1010D000A510000040238B70CB7810B5DB0606D539
:1010E0000A234B700800034B9847002010BD0723CC
:1010F000F7E7C046A510000003231620CA7810B5F4
:1011000013408870012B06D81B234B700800064B38
:101110009847002010BDE220032BFBD1930601D598
:101120004723F2E72723F0E7A51000001B2310B5A3
:101130008B70143B4B700800014B9847002010BD8A
:10114000A5100000022310B58B7005334B7008000A
:10115000014B9847002010BDA5100000412310B599
:101160008B703A3B4B700800014B9847002010BD34
:10117000A5100000452303228B70CB7810B51340D7
:10118000022B0AD093420AD0012B06D047234B7082
:101190000800044B9847002010BD8723F7E75A2327
:1011A000F5E7C046A510000073B50500037801AE51
:1011B000023BDCB232000100074B20009847327836
:1011C0002B5DE5209A4205D12C19727863789A42FA
:1011D00000D1002076BDC0465D10000003780022DB
:1011E000042B16D14378072B1ED00BD8012B19D016
:1011F00093420ED0D232032B0BD00432052B08D0F1
:10120000E12206E0F4220F2B03D004D80632082B8B
:10121000F6D110007047F322112BFAD01F3AFF2BA2
:10122000F7D0EDE7D122F4E7D722F2E770B5050059
:101230000C00E220002D10D000290ED009680029F2
:101240000BD06368002B08D06878044B98470028BF
:1012500003D161682800024B984770BD351000002B
:1012600095140000F8B5071E02D100242000F8BD37
:101270000820114EB047041EF7D00420B047051EC9
:10128000206003D120000D4B9847EEE72820B0479F
:101290006060002805D12800084DA8472000A84715
:1012A000E3E721003800064B98470028DED060684D
:1012B000024DA8472068F0E789D800009DD80000BB
:1012C0002D120000030010B5E220002B02D0586858
:1012D000014B984710BDC0461914000070B5041E9C
:1012E00012D00A4B006898472068094B984723683A
:1012F000084D5868002803D0A847002223685A6088
:101300002068A8470023236070BDC046C5120000B6
:10131000451000009DD80000F0B585B00190224B2B
:1013200048680E009847041E26D1019B70685A78C1
:1013300019001E4B9847041E1ED11D4B01209847D3
:101340001C4B0093019BC0229D1D00211A4B2800BD
:10135000984702AB9F1DC0233A003B80290070686C
:10136000164B9847041E11D0114B02209847009B42
:10137000013B0093002BE5D17068114B984720008A
:1013800005B0F0BD63425C41E634F5E73C88032CD0
:10139000F8D928000B4B9847041EEDD128000A4BC2
:1013A00098470400E8E7C046DD130000CD130000B5
:1013B00025100000E304000035E00000D513000014
:1013C000FD130000A9110000DD11000010B5036934
:1013D000984710BD10B54369984710BD10B5836993
:1013E00004009847D02805D1B738034B9847A36924
:1013F0002000984710BDC0462510000010B5C369F5
:1014000098470400024B01209847200010BDC046B9
:10141000251000004068704710B50400E220002C41
:1014200005D0034B2078616A98470023636210BDA2
:10143000390C000070B50D0004000A4B4068984755
:101440002B680020A3606B68E360AB682361EB68E6
:1014500063612B69A361AB6923626B69E3612B6AEA
:10146000636270BDE90B000010B504008AB001A9E9
:10147000074B9847616801A8A3689847002804D1E2
:10148000099B20006362E36898470AB010BDC0461C
:1014900035140000030010B5E220002B07D000290E
:1014A00005D01A7808004B600A70014B984710BDB0
:1014B00069140000EFF31083036072B6BFF35F8F0F
:1014C0007047BFF35F8F036883F310887047000095
:1014D00010B5024B1860024B984710BD280B002036
:1014E00031260000044B10B51C68044B9847044B90
:1014F00001002000984710BD280B0020311A000081
:1015000045260000044B10B51C68044B9847044B5B
:1015100001002000984710BD280B00204D1A000044
:10152000452600001FB514001438828B01AB1A80C9
:10153000054A03915A801900044B029498470028E9
:1015400000D1200004B010BD0080FFFFAD220000DC
:101550001FB514001438828B01AB1A80054A039121
:101560005A801900044B02949847002800D12000AB
:1015700004B010BD0180FFFFAD22000010B5054B87
:1015800004009847002803D1034BA361034B636118
:1015900010BDC0460D2100005115000025150000AA
:1015A00010B5014B984710BD1D21000010B5014B2F
:1015B000984710BD2D21000080238905DB00890D8F
:1015C0001A400A43828310007047000010B5014B97
:1015D000984710BD3D21000010B5014B984710BD44
:1015E000AD220000143008600020704710B5036879
:1015F000984710BD10B54368984710BD70B50321DA
:1016000000250D4C4B195B10DAB2022B08DCDB0015
:10161000E6187668864204D1E358002B00D098473C
:1016200070BD864204D20132D5B28D42EAD9F7E7C5
:10163000013AD1B2F9E7C0462C0B0020012100226B
:1016400010B5064B494259601A60D9609A605961D9
:101650001A610348034B984710BDC0462C0B00206D
:10166000FD150000A11A0000244BF7B55A689042FE
:1016700010D0DA6890420FD05A6982420ED102220D
:10168000D2009950002900D001211D4B984702003B
:101690001000FEBD0022F3E70122F1E7002902D18C
:1016A0000D225242F4E71A68002A08D09A68002AEC
:1016B00022D00D221C695242002CE9D10F32D200F7
:1016C0001D0099509A18944618355060019561464E
:1016D0005C684D68A5420AD2651C08D01F006546AB
:1016E0001968009142CD42C7009954601160019978
:1016F00008339942EBD1C7E70122E0E72C0B002029
:10170000151B000010B5074B0400416004309847DA
:10171000002806DB0020044BA382044B2361044B0A
:10172000E36010BD012400000080FFFF811700006E
:101730006517000010B50430014B984710BDC04636
:10174000C12400007FB50B68043003934B680493F9
:101750008B6803A901930593014B984707B000BD1F
:10176000CD2400001FB500230191029301A9034B72
:101770000C380392984705B000BDC04645170000DD
:101780001FB500230291019301A9034B0C3803926A
:10179000984705B000BDC046451700000C300860F2
:1017A00000207047F7B50568002D02D1114B98470E
:1017B000F7BD01262C0000278B680093B31A019314
:1017C000A6686368B44693420DD863449B1A009E92
:1017D000B3420CD223682700002B02D13800064BFD
:1017E000E5E71C00ECE7019EF3186344EFE7A54230
:1017F000F4D1DBE7D9190000E1190000F8B503695D
:1018000005005E1C037E44690661DB0702D4037E8B
:101810009B0717D502232A7E13432B76F8BD2F0092
:1018200014370C4B38009847237C012B05D1666098
:10183000320021003800084B98476F69E3682000A8
:1018400098473C00002CE9D06368A268F31A9342E1
:10185000E5D2E3E7E9190000A517000010B5044B35
:10186000040098470020034B2061236010BDC04650
:101870006D1C0000FD17000070B5064B0500984771
:10188000041E04D12800044B9847200070BD11208D
:101890004042FBE7D91C0000A91C0000F0B507007E
:1018A0000125037E14372B43037685B00400144BC7
:1018B00038000E0098470190002806D0237EAB43E5
:1018C0002376133D280005B0F0BD22693100726017
:1018D00002260C4B38009847237EAB432376237EA9
:1018E000019D3342EED003A8074B9847237E20008A
:1018F000B3432376054B984703A8054B9847E1E788
:10190000C9190000A5170000B5140000F11C000063
:10191000C3140000F7B504000F000192250008353C
:1019200028000C4EB0470028F8D00024395D28006C
:10193000094B98472800B0470028FBD0019B013491
:101940009C42F3D32800054B98470028FAD020008A
:10195000FEBDC046ED200000DD200000F7200000A5
:10196000F7B507000E00002401923D00083528005D
:10197000064B98470028F8D0054B28009847019B54
:10198000305501349C42F0D32000FEBD01210000FF
:10199000E520000010B5054B0400083098470028EA
:1019A00003D1034B6360034B236010BDB5200000DF
:1019B000611900001519000010B50830014B984757
:1019C000002010BDC52000000068002800D170472D
:1019D0008842F9D10120FAE703680B600160704783
:1019E00003680B60016070470368002B01D01A6820
:1019F0000260180070470000054B020019680029BA
:101A000001D104491960186882181A607047C046ED
:101A1000440B002098420020012040427047802360
:101A20009B0100204B6070470120704700207047E9
:101A30000300F0204000584310B501380A21024B42
:101A40009847013010BDC046E5A70000014B584340
:101A50007047C04680BB0000042310B5074A516898
:101A60000B435360064B9847064B98470220064CA1
:101A7000A047064B9847FD20A04710BD00400041FD
:101A8000451C00008D250000ED1B0000D125000045
:101A9000024A5378DB09FCD17047C0460018004069
:101AA000F8B5164C164D0700A847A84723789B07A2
:101AB00003D500232370A847A847012300262370DD
:101AC000A847A8470F4BA67066606661A361022312
:101AD000E661227813432370A84710230A490B4A72
:101AE000CB67BFF34F8FBFF36F8FC02149005350B7
:101AF0001360074B30001F60F8BDC046001800405F
:101B0000911A00003302000004E100E000E100E06F
:101B1000480B0020002806D0012804D00D235B428A
:101B200012280CD110380A4BC000C05CFF280BD023
:101B30000123084A8340002903D0D3600023180002
:101B4000704793601361F9E70D235B42F7E7C046E6
:101B5000BC68010000180040F0B501261F4D85B09B
:101B60002B69EA68764213400393039B2B61039B26
:101B7000002B1AD105B0F0BD03200022184F8318A6
:101B80005B10D9B2DB000191D95D8C46A1421AD11C
:101B9000FB185E68731C03D0124B30001B6898471B
:101BA0000122A240039B9343039303980E4B984753
:101BB000013844B2631CDFD12B69EA6813400393F8
:101BC000039B2B61D3E70199A44504DA0131CAB222
:101BD0009042D4D2DEE70139C8B2F9E700180040DC
:101BE000BC680100480B0020E1AB0000C30716D41D
:101BF000830708D502220F4BFF329A600E4A5A60C3
:101C00005A78D209FCD1430708D58122094B5200EA
:101C10009A600A4A5A605A78D209FCD170478022E9
:101C2000044B52009A60064A5A605A78D209FCD195
:101C3000DEE7C046000C004001030100020601007F
:101C400000070100064B1A7AD2B21A725A7AD2B23F
:101C50005A729A7AD2B29A72DA7AD2B2DA72704739
:101C600000040040837ADB09FCD1704770B501267F
:101C70000400C1600A4D0E800800A847E068A8472C
:101C80008023E0680380A847E06883698023DB0045
:101C90008361A847E3680020DE71024B1C6070BDC1
:101CA000651C00004C0B0020082270B5084B050095
:101CB000C0681A6003690023064C0361A047E86806
:101CC000A0470223E868028813430380A04770BD41
:101CD00000E100E0651C000010B5C468034B200063
:101CE000984720888007C00F10BDC046651C0000C3
:101CF000704700207047000070B50125064B1C6836
:101D0000E3681B7A2B4206D02368002B01D0200009
:101D10009847E3681D7270BD4C0B0020C3691942DF
:101D2000FCD17047C3691942FCD17047C36919429D
:101D3000FCD17047022210B503680321934303606E
:101D4000014B984710BDC0461D1D0000022210B572
:101D50000368032193430360014B984710BDC046BD
:101D60002D1D0000044BC018800AC0B20338431E6A
:101D7000984140427047C04600F8FFBD012310B5AE
:101D8000C4691C4008D10268DB18134303600321B7
:101D9000034B9847200010BD04204042FBE7C0469B
:101DA000251D0000F8B502230268032113430360D8
:101DB0000F4D04000427A8470E4E04212000A84719
:101DC0000322638B1B091340012B01D10020F8BDB6
:101DD000013E002EF1D1013F002F05D01023042138
:101DE00063832000A847E7E706204042EFE7C046AC
:101DF0001D1D0000FFFF0000C02310B542689B02BC
:101E0000134343600421014B984710BD1D1D000082
:101E1000F7B50500036800915B4F0421140001939E
:101E2000B84701216B8B009E9BB20E400222002E10
:101E300000D166E013420FD080220B405E425E412B
:101E40002976608852010243628062884F48053ECD
:101E5000024062803000FEBD04261E4015D063683B
:101E6000002B04DD802362885B0113436380638859
:101E70001BB2002B02DA2800454B98476388434A7F
:101E80001340638002267642E4E780236288DB0009
:101E90001A40009218D0062223880421DB0913403F
:101EA00028000093B84780226B6AD2011A40F123C0
:101EB0001343009A042113436B622800B8476388D8
:101EC000344A13406380C5E76668002E09D16388F1
:101ED0001BB2002B02DA28002D4B984763882B4A4F
:101EE000EFE7A36804211A782B0028331A70280022
:101EF000B847A3680133A3606368013B63600026B1
:101F0000A8E700981042A5D06268002A38D05B0785
:101F100036D4019B013ADE0E0E406260002A0AD1DF
:101F2000002E0CD180236A68DB0213436B6004210E
:101F30002800B84703E0012A01D1002EF2D16368DE
:101F4000002B10D16388114E1BB2002B08DA6B688E
:101F5000280033406B600421B84728000C4B984799
:101F6000638833406380A6680421731CA360280043
:101F7000B8472B0028331B78337002232B76BEE73B
:101F800002232B767EE7C0461D1D0000FFFEFFFFEB
:101F9000F91D0000FFFBFFFFF7B50C000090264B7A
:101FA00008009847E369C7B2244EDB071BD4182307
:101FB0007B43234A0225D3185A681C2303211A4065
:101FC00020000192B04723682B4205D020001D4B12
:101FD000984729002000B0470123019A03211343A9
:101FE00023602000B04718257D4320000121B04721
:101FF000134B20005D196F6803212760B047AB6861
:10200000200063600421B047EB68BF01E360009BE0
:10201000B90F9981676A0C4A20003A4001278F4224
:10202000BF417F42BF03174367620421B0476B8AF9
:10203000009A0020D381FEBD651D00001D1D00001B
:10204000D4680100351D0000FFBFFFFF70B5C369F4
:102050000400154DDB0710D402260321A84723688E
:10206000334205D02000114B984731002000A8478B
:102070000523032123602000A84720000121A84751
:102080000B4B200023600321A847C0239B02636001
:1020900020000721A847D22300205B42A381A07320
:1020A0003034207070BDC0462D1D00004D1D000055
:1020B0000400104010B5024B01600800984710BDA5
:1020C0004D200000022310B500680321026813436D
:1020D0000360014B984710BD2D1D0000036889B2B5
:1020E000198570470368188DC0B270470368187E61
:1020F0000123184070470368187E8007C00F70479F
:102100000368187E4007C00F7047000010B5024BEF
:102110000161984710BDC046991F000010B50069C5
:10212000014B984710BDC046A51D000010B50069C1
:10213000014B9847002010BD351D0000F0B5046923
:1021400087B04E4B0600032120000092984720687C
:102150008007C30F019300D08BE0B789002F3AD1DD
:10216000E068FF33984301900A20009B444D584398
:10217000444B281A984702900391434BF0899847A3
:10218000424E434A434BB0470490059100983D4B63
:102190006843984702000B0004980599B0473E4DEC
:1021A00002000B0002980399A847009B0500580005
:1021B000344B0E00984702000B0028003100374DC9
:1021C000A847374B9847FF231840019B1843E0600E
:1021D000380007B0F0BD012F3AD1FF23E068284D49
:1021E000984302900A20009B5843264B281A984790
:1021F00004900591244BF0899847254A254B234E9E
:10220000B047060000981F4B68430F0098471F4DCA
:1022100002000B0030003900A8471F4D02000B00E0
:1022200004980599A847009B06005800154B0F001D
:1022300098471A4D02000B0030003900A847184B90
:102240009847FF231840029B1843E0600198C0E7BD
:10225000022F11D11348E568009B0540084859003A
:10226000401A114B9847FF2300041B0418402843D1
:10227000EBE711204042ACE70D20FBE71D1D0000FD
:1022800085BB00001DCB000099CA000005BF0000FF
:1022900095D626E80B2E113E05C400009DB6000021
:1022A000F5AB0000FFFF00FFE5A700008023F0B5BD
:1022B00085B0019142885B00040006691A4200D093
:1022C00080E04A881A434A800200A1C9A1C272680C
:1022D0000421134373603000434FB8472569626897
:1022E0002B68012A40D1DB0E13423DD080236A685F
:1022F000DB0213436B6004212800B8478023228847
:10230000DB00510002911A4232D06288D20702D516
:1023100062881343638004212800B847334B029935
:102320006A6A19400B008021C90111408022120203
:102330000A4313436B6228000421B8478023032219
:1023400020695B02017E013BC9B2002B24D1280029
:102350002200274DA8470327002820D06388254A5C
:102360001340638005B0F0BD6B68234A1340C1E79A
:10237000638804219BB228001B4F0393B847FF23B7
:102380000299039819400B00012101400B43802161
:102390006A6AC9010A40CCE71142D3D0D7E780224C
:1023A000638852001342DDD0802322695B02117ED4
:1023B000013BC9B2002B07D03942F8D022003000CF
:1023C000A847ECE706200CE0019B5B881BB2002BC2
:1023D00002DA3000094B984705206388054A13400C
:1023E00063804042BEE7C0461D1D0000FE0700009E
:1023F000111E0000FFFEFFFFFFFFFBFFF91D0000A5
:10240000274BF7B5CB189B0ADBB206000C00002B5C
:1024100004D00D204042022B41D1013B0193E369DE
:10242000204DDB0714D4022703212000A84723688E
:102430003B4208D023680321BB4320002360A84708
:1024400039002000A8470D23032123602000A8475E
:1024500020000121A847144B346020002360032191
:10246000A84780239B02636020000721A84711230F
:10247000019A002053430D4AD3185A1DD27F197F69
:10248000227307220A40511E8A4120330132303420
:10249000207032719A79DB791B021343F380FEBD01
:1024A00000F8FFBD251D00000C003000D4680100BD
:1024B00010B50068014B984710BDC0467D1D000057
:1024C00010B5014B984710BDB1240000F0B585B0A0
:1024D00001900291056803790720EC690F684E6846
:1024E0000393044031D1284B0321280098472B68DF
:1024F0009B072DD5012321009C4604232A7ED2B2BE
:102500001A4227D0AB6A002E04D0039833700128FA
:1025100012D80136013152B2002A2DDA01231320DC
:102520005B426B8381332B76404203232A7E1A421F
:10253000FCD02B7605B0F0BD1B0A73700236E9E7BC
:102540007B7802371B02034313E004204042F1E78B
:102550001420FBE7A142DED363461A42DBD0019B85
:10256000DB88002F05D0039B3878012BE8D80300C7
:1025700001370134AB62CEE7029B9B68A342BCD813
:102580008B42BAD82000D0E7251D00000D4B0E4825
:102590001A6A196A0240890F0C48890701430A43E5
:1025A0001A62022299690A431F219A611A7F0A401E
:1025B0001A770822D9681142FCD08022196A0A438E
:1025C0001A627047000800400000FF0F020300007D
:1025D00082230221124ADB015380124B998411009D
:1025E0001022D8681042FCD00F4ADA62FC22D201D5
:1025F0009A620E4A9A849A8C520704D41022D868A0
:102600001042FCD004E0D020DA680240D02AFBD18E
:102610004A78D209FCD102219A698A439A617047AB
:10262000000C004000080040B90501040608000045
:10263000024B034A5A6005221A60704710E000E01E
:10264000FFFFFF0070B580250B0E0C4A0C4CD8B272
:102650006D020138C0B2FF280AD118061B1A59189A
:10266000802351605B02916011681942FCD070BDFB
:102670005460946016682E42FCD0EAE710E000E057
:10268000FFFFFF007FB56B460F4E0C00DD1DD871BC
:1026900003A930000D4B984780220D4B300019786C
:1026A00012010C4B98472900012202AD03980A4BF6
:1026B0009847290002220398084B98472A786B789C
:1026C00012029B1823807FBD7C200020E5150000AE
:1026D00000000020B9150000ED150000F515000000
:1026E000F8B5030AC4B2214D214EDA0623D50F20D6
:1026F0001840A8478321C905B0471E4B98470600DC
:1027000020000F00A8471B4B984700221A4B1B4C78
:10271000A0471B4C02000B0030003900A047194CA9
:1027200002000B0000201849A047184B984780234F
:102730001B06C018F8BD1F201840A8478321C905F3
:10274000B0470C4B9847060020000F00A847094BE4
:1027500098470A4C0022084BA047094C02000B0086
:1027600030003900A047094B9847E3E7F1AF00007C
:10277000B1AD00008DCB00000000B03F05BF0000F0
:102780007DB0000005C400000000704031CC0000A6
:1027900013B56B469C1D002305482380054B9847C5
:1027A00021000520044B98472088044B984716BD0C
:1027B0007C200020A115000085260000E1260000F5
:1027C000C02210B5920000210148024B984710BD6D
:1027D000281C002035E0000070B5094B0400984724
:1027E0000021084B1D680B00984201D8080070BDFD
:1027F000E25C0133AA181C3A1278DBB28918F3E7BD
:10280000D1E9000004000020014B18607047C04669
:102810000400002010B55F2820D83F291ED8164B91
:102820005B68012B0FD0022B19D0002B16D160232F
:10283000CA10534318180723012219408A400F4C2D
:10284000235C934309E06022CC10624310180722F6
:1028500011408B40094C225C1343235410BD60236C
:10286000CA105343181807231940063B8B40034AEC
:10287000115C4B401354F1E704000020281C002099
:1028800010B55F2821D83F291FD8164B5A68012A56
:1028900010D0022A1AD0002A17D16023CA1053433D
:1028A000181807231940063B8B400F4A115C0B4355
:1028B00013540AE06023CC1063431818072319400F
:1028C0008A40094C235C9343235410BD6023CA10F3
:1028D0005343181807231940063B8B40024A115CEA
:1028E0004B40E5E704000020281C002010B5054BF4
:1028F00005489847C0230822DB059A6138329A615F
:1029000010BDC046351700006420002010B5014BF3
:10291000984710BD0515000030B585B06B460D0019
:10292000DC1DD87103A9054B054898472A002100F2
:102930000398044B984705B030BDC0469D17000072
:1029400064200020ED15000070B58023C0244025D0
:10295000E405DB00656101216361024B9847A561D5
:1029600070BDC0461929000070B58023C0244025E1
:10297000E405DB0065610121A361024B9847A56175
:1029800070BDC04619290000F8B5C024FA274025BB
:102990000823E4057F00A5611A4E63613800B04743
:1029A00008233800A361B047174CAE20A047D520BC
:1029B000A0478020A047A820A0472720A047D320D9
:1029C000A0470020A0472800A0478D20A047142042
:1029D000A047C820A047DA20A0471220A0478120A6
:1029E000A047AF20A047D920A0472520A047DB2043
:1029F000A0472020A047A420A047A620A047AF20A2
:102A0000A047F8BD0515000049290000B02310B506
:102A10001843014B984710BD49290000F8B5002420
:102A20000B4D0C4B200098470B4E1020B0472F0049
:102A30004020B0472E00603F3078084B013E984759
:102A4000BE42F9D10134E4B26035082CE9D1F8BDB9
:102A5000871C00200D2A0000492900006929000078
:102A6000F0B51400514A060012685148D57885B077
:102A7000057050784F4A504D107000224F482A6020
:102A800001604F490A6093420ED12E604D4B2000E9
:102A90009847231800940393039B009A934218D1FC
:102AA000494B984705B0F0BD012B0AD1474B200098
:102AB000984760231B1AD80FC0184010801928604F
:102AC000E4E7022BE2D1414B200098476023181A1B
:102AD000F5E7009B3E4A19783E4B20391960334B8D
:102AE0003D481D682C006B181B791360304A127822
:102AF000043202602F4A1778621B914212D87B433E
:102B00000027DB082E4A013353602D4B5A68974249
:102B100011D32F4A196812688A181A60009B013372
:102B20000093B9E7227906687A430136D2109219E8
:102B300002600134E0E700241C4B274A1B6812683E
:102B4000DB199A5C254B1A70FB000293029B1E193D
:102B5000234B30001E601E4B1B6801931900214B54
:102B60009847214B300019600D00204B0199984780
:102B70001F4B01261860194B10491B780E4A234140
:102B800009684118106833420AD00D4B1B68C01801
:102B9000184B401901349847082CD7D10137B4E7B6
:102BA000074B1B68C0184019134BF3E704000020C3
:102BB000281F0020381F00203C1F0020201C002060
:102BC000500B0020D1E900001D2A0000D927000089
:102BD000341F0020241C0020401F0020181C00204F
:102BE000301F0020F1A800001C1C0020E5A70000F9
:102BF0002C1F002015280000812800005F30F8B548
:102C0000050000240B4B200098470B4E1020B047C6
:102C10002F004020B0472E00603F3078074B013E28
:102C20009847BE42F9D10134E4B26035052CE9D1B0
:102C3000F8BDC0460D2A000049290000692900009E
:102C400070B50500024C8120A0472800A04770BD48
:102C500049290000F8B5A720114EB0471148124B82
:102C60005F309847FA20114DA847AF24E0B2104FCB
:102C7000B847013C0520A847002CF7D1E0B2B8477F
:102C800001340520A847AF2CF8D1C02200219200C2
:102C9000084B09489847094B9847A620B047F8BD0C
:102CA000492900008E710100FD2B00000515000070
:102CB000412C000035E00000281C00201D2A0000E7
:102CC000F0B505000E00002485B00192B4421BDA75
:102CD0000198124B9847002810D12F6D01987B68FE
:102CE00002932B691B1903930D4B98473200030085
:102CF00003993800029FB847002803DA01204042B8
:102D000005B0F0BD2418E1E7B442F7D12800A96965
:102D10005430044B98470020F2E7C046613D000064
:102D2000393E0000013E000010B50361029B0165C1
:102D30008360039B00214361049B4162C3600123C4
:102D4000C16203604163C163416442600162017713
:102D5000C164024B5430984710BDC046553D000039
:102D60000300F0B50400012507000E0087B04C33C6
:102D70000192243402936D422168002937D030003B
:102D8000244B984700280CD1B368726821689A18C0
:102D90000091511E039100990978002920D19A428F
:102DA00025D16368002B22D0019A0596049204A8CD
:102DB000984700251BE02B2909D023290ED08842F3
:102DC00015D10099013301310091E4E701330399F2
:102DD0008B42F6D059782F29F8D1F2E7531EF0E74D
:102DE0009A4204D918782F28E5D12F29E9D0029BDF
:102DF0000834A342C0D16B1C07D1FB6C002B05D05B
:102E0000019A0596049204A898470025280007B067
:102E1000F0BDC0463D39000013B504000020A36991
:102E200083421ED02000114B54309847002819D0FF
:102E3000237F002B16D168460D4B9847FA21684630
:102E400089000C4B9847A16820690B4B9847011EDD
:102E500008DD6A462000094B9847002801D101236C
:102E6000237716BD01204042FBE7C046613D0000CC
:102E7000553D0000A53D00003D360000C12C00007E
:102E8000F0B5056D93B04769624B040008002E68E9
:102E9000079198470122030039002800B047060037
:102EA00001284ED001235B425B4A9BB21380052B65
:102EB00000D18EE00D2B00D1A7E0032B00D0A7E0BE
:102EC00029222A20E36804A90493636904AF0393C9
:102ED00011AB02930BAE10AB01935218C0190096C0
:102EE0000FAB0AA94D4F0EADB847012824D104AB52
:102EF0001B7E2A002B703100494B200098472B780D
:102F0000002B00D184E0012B59D1AB88042200931F
:102F10000023A1682069434DA847002851DD010026
:102F2000079A2000404B98470500431C49D02000D9
:102F30003E4B9847002D01D1374B1D88280013B018
:102F4000F0BD344B07989847052300270990089354
:102F5000089B013B0893002B14D0206D01220368CD
:102F60000EA91D00099BA84701280BD1282204ABFC
:102F70009B181B7857321A4072435BB2BF18F60198
:102F8000002BE5DB63693900581C294B9847002F5B
:102F900003DC63691B781B0986E7266D451C3368D3
:102FA0000798089363695D191A4B98472900030035
:102FB0003A003000089DA847B842EAD072E7022BD9
:102FC00002D001256D42B9E7AB88052200930023AA
:102FD0009FE7E3680EAD00932A0063690AA90BA876
:102FE000144EB0470128ECD12B88A168009306222B
:102FF000002320690B4DA847011EE2DD079A20003F
:10300000094B9847051EDCD191E7002525778EE70F
:1030100000258CE7393E0000441F00204D3600009B
:10302000612D0000553A0000C12C0000192E00004F
:1030300059370000DD36000037B50D000A4B04009B
:103040006846984729006846084B9847084B6946E8
:1030500020009847431C05D06846064B9847002837
:10306000F4D000203EBDC046553D0000A53D000007
:10307000812E0000613D0000F8B5012407000E001C
:10308000150064422800064B9847002806D1290005
:103090003800044B98470400B042F3D12000F8BD3B
:1030A000613D0000812E000070B504009AB0254BF0
:1030B0000D005822244904A89847236A002B02D007
:1030C00001256D4234E002A8204B9847616802A8B0
:1030D0001F4B9847002D00D104AD2000298B5430A0
:1030E000A1611C4B9847A1682A0020691A4B984798
:1030F000011EE5DD02AA2000184B9847051E17D1D6
:1031000002AA02212000164B9847022813D16B46D1
:103110009E1DFF2333706B46D81D0570E3686269FE
:103120003100104DA8470128CAD13578002D06D0AE
:1031300028001AB070BD0C4B0C489847C0E72062BD
:10314000F6E7C04611DF0000B0910100553D0000D8
:10315000A53D0000013E000085340000C12C0000A8
:1031600079300000B1350000E9E00000089201006C
:10317000F0B591B0059300230DAC6360A360036AC2
:1031800005000E000D910892002B04D10124644229
:10319000200011B0F0BD0BA8254B984769680BA81B
:1031A000244B9847244F2A682869A9680123BA420A
:1031B00000D0D318012708AA2B60029201949BB279
:1031C000009700221D4CA047011EDFDD0BAA28003E
:1031D0001B4B9847041EDBD10BAA09212800194B71
:1031E00098470928D2D101235B420A93EB68390042
:1031F00001936B6902AF0D300093C0190AAB09AAA5
:10320000114F0994B847012802D10A9C802CBFD0E5
:103210000022D300EB18596A002904D1059A5E6296
:103220009A620C00B4E70132052AF2D1B0E7C04639
:10323000553D0000A53D0000FFFF0000E13A000001
:10324000C12C000079300000813B0000002370B5E4
:1032500088B005AD6B60AB60036A04000591002B7C
:1032600004D101256D42280008B070BD03A8164B9B
:103270009847616803A8154B9847154E2268206946
:10328000A1680123B24200D0D31801222360019526
:1032900000929BB200220F4DA847011EE1DD03AA58
:1032A00020000D4B9847051EDDD103AA0B212000FD
:1032B0000A4B98470B28D4D10138E2686169684409
:1032C000074B9847CFE7C046553D0000A53D00009D
:1032D000FFFF00002D3C0000C12C000079300000F1
:1032E000BD3C00000023F0B58FB00BAE7360B3603F
:1032F000036A040015000B91002B03D1012040420A
:103300000FB0F0BD09A8294B9847294B616809A85F
:1033100098472B785A1E012A07D821682548012290
:10332000814200D08A182260AA80EA680692AA68C0
:10333000059202AA83CE83C2AA881F4E01926A78A0
:103340000092A16800222069B047011ED6DD09AABB
:1033500020001A4B98470028D2D12B78012B14D18A
:1033600009AA04212000164B98470428C6D122221E
:10337000E3686A440093636908A91D306844114CEE
:10338000A0470138431E9841B9E7022BB8D109AADA
:10339000072120000A4B98470728AFD12222E36873
:1033A0006A440093636908A91A30E7E7553D0000B5
:1033B000A53D0000FFFF0000A1390000C12C000066
:1033C00079300000DD36000013B504000B4B684671
:1033D0009847616868460A4B9847A1682069094B7D
:1033E0009847011E06DD6A462000074B98470023D8
:1033F000236216BD01204042F9E7C046553D00005A
:10340000A53D00002D360000C12C0000F8B5037A60
:1034100004000C27032B03D00027042B00D10A370C
:10342000E06821696269164EB047E37E851CED199C
:10343000002B0BD0A16AE26A606AB047616B07009B
:10344000A26B206BB0473F180437ED19236C002B9B
:1034500002D1A36C002B05D0206C616CA26CB0472C
:1034600002302D18E36C002B02D1636D002B04D0C9
:103470004C3407CCB04702302D182800F8BDC046A8
:1034800025390000F7B5414B0190050010000E00F2
:10349000140098473E4B07009847B04200DD71E0AA
:1034A000102101A83B4EB04739003B4B019898478B
:1034B000019B18180190277A384B042F5DD13849A9
:1034C00001A89847390001A8B0470122E37EA17EF8
:1034D000581E83411140914013409B001943002B1B
:1034E0000CD0230003203D331B7803408340200091
:1034F0003C3000781943024052011143236C002BE9
:1035000002D1A36C002B01D080231943E36C002B64
:1035100002D1636D002B01D040231943CEB231009C
:1035200001A81C4B9847218B01A81E4B9847636943
:10353000E168226901A81C4FB847E37E002B09D03F
:10354000616AA26AE36A01A8B847216B626BA36B48
:1035500001A8B84773B2002B05DA216C626CA36C2A
:1035600001A8114FB847730604D54C340ECC01A8FE
:103570000D4CA047019B581BFEBD0C4901A8984764
:103580000321A0E702204042F6E7C0460D340000C8
:10359000D53700003738000059370000793800006F
:1035A0000B92010045380000AD3800001092010078
:1035B00073B506000E4C68460D000092A047F0233C
:1035C00003400020202B12D10A4B01A900989847F4
:1035D000009B1B180093019B012B08DD6846A04748
:1035E0000006C00F30706846A0472870012076BDE5
:1035F0002B380000FD37000013B5040001900129AD
:103600000DDD0F211140090101A8064B9847064B1B
:10361000002101989847019B1818001B16BD022035
:103620004042FBE7373800005937000010B50E2242
:10363000014B984710BDC046F935000010B50C226B
:10364000014B984710BDC046F9350000F0B5002485
:1036500085B001930D9B0700029302A81B4B0D0040
:10366000160003949847F0230340302B2BD1030717
:10367000DB0F3B704307C0079B0FC00F2B6003A9F4
:103680003070134B02989847029B04001E18039B4E
:103690000296F618320002A90A980E4B98470028A5
:1036A00011D0029BF31A0ED42B68002B04DD0A4BB9
:1036B00002A89847019B18800124029B0C9AF61AD5
:1036C00016600B9A1360200005B0F0BD2B38000087
:1036D000FD370000F13800001938000073B505000F
:1036E000009368460C4B0E00140098470307000631
:1036F000DB0F000F337001A92870084B0098984722
:10370000009B1B180093019B012B04DD6846044BB2
:1037100098472080012076BD2B380000FD3700003F
:1037200019380000F0B50B4C0025236801271A005A
:10373000D61AB14208DCCA43D2170A409B18002DA2
:1037400000D023600800F0BD1578013205703D00FF
:10375000EEE7C046600B0020F0B5802400227F26F3
:103760000B4D64420B002B4002D5013B2343013338
:10377000CF1737407918DBB2C911002901DD234387
:10378000DBB20132571EC3550029EBDC1000F0BD3F
:103790007F000080F0B500240E00012585B0019067
:1037A0000C600134052C12D002ABDF1D0121380062
:1037B000019B984701280AD17F223B7831681A4043
:1037C0006A435BB28A183260ED01002BE9DB20000E
:1037D00005B0F0BD421C030002307F2A08DD054918
:1037E000D81C8A4204DD0449581D8A4200DC181D99
:1037F0007047C046FF3F0000FEFF1F0010B5034B9F
:1038000018600348034B984710BDC046600B00206A
:1038100025370000953700000100026813785078C2
:103820001B02023218180A607047020003681878F9
:103830000133136070470368197003680133036034
:1038400070470000CB17DBB202685B181B121370C5
:1038500003685A1C0260064A114003D5054A013923
:103860001143013159700368013303607047C0464A
:10387000FF00008000FFFFFF70B5094B0400080047
:103880000E00984705000100064B200098472A00CB
:1038900031002068044B984723685D19256070BD8E
:1038A000D1E900004538000011DF000030B585B0D7
:1038B000040001910393151E0CDD1100094B98477C
:1038C0002A00094B03992068984723685D192560F1
:1038D00005B030BD0199054B002900D1014B984737
:1038E000F6E7C0464538000011DF000079380000D7
:1038F0000B6870B5D31A05000C001600012B03DC11
:10390000002000232B6070BD054B080098472368FA
:10391000686018188642F3D3AB6020600120F0E79E
:10392000193800001FB50291002803D0024B9847B8
:1039300005B000BD0298FBE7D1E90000F8B50468C6
:103940000E000C4F002C11D02000B84705003000AD
:10395000B847030000209D4207D1074B2A003100E1
:103960002000984743425841C0B2F8BD846845687A
:10397000EDE7C046D1E9000035EA00001FB50400BC
:10398000080011001A00054B9847069B0230C0182A
:10399000002C00DD023004B010BDC0462539000007
:1039A000F0B51D0089B00EAB1B78039105930FABEA
:1039B0001C88149B0492079000931099119A129BF3
:1039C0001D4F06002800B8471C4B07009847039B73
:1039D00098422DDC0321012229404B00302104981C
:1039E0001040C00001431943059B07A81340194329
:1039F000134B98473900134B07989847079B10992A
:103A000018180790119A129B07A80F4FB847002D5E
:103A100003DD210007A80D4B9847149A0C4B13990E
:103A200007989847079B149A9C18A01B09B0F0BDF3
:103A300002204042FAE7C0467D390000D537000039
:103A40003738000059370000AD3800004538000015
:103A500011DF000037B5040006A80588019403298A
:103A60001CDD0F2101201140063A03405042424123
:103A7000DB00090152001943114301A8094B984783
:103A80000221094B01989847019B290018180190C1
:103A9000064B01A89847019B181B3EBD02204042DF
:103AA000FBE7C046373800005937000045380000B2
:103AB000F8B507000E0002250024BC4201DB2800F7
:103AC000F8BD0C2363439859F31859689A68034B5F
:103AD000984703302D180134EFE7C0462539000020
:103AE000F0B585B00F00039004001E000B991E4B2B
:103AF0000A98019298471D4B05009847B8422FDC61
:103B00000121019B03A80B40D90082231943184BC4
:103B100098472900174B03989847039B31001818C2
:103B20000390154B03A8984700250C270A9B9D423C
:103B300003DB039B181B05B0F0BD3B006B430B9AE6
:103B400003A89958D3185A680C4E9B68B0470C9A32
:103B5000AB00D15803A8C9B2054B98470135E5E73A
:103B600002204042E7E7C046B13A0000D5370000E6
:103B7000373800005937000045380000AD380000E4
:103B8000F0B585B001930A9B0400029302A8184B7C
:103B9000009116009847F02303400020902B14D189
:103BA000144B03A902989847029B039F1D18029586
:103BB000012F0ADD104B02A89847002320803360B4
:103BC000029AEB199A4202D3012005B0F0BD346885
:103BD000009B9C4209DC631C3360019BA4001C1900
:103BE00002A8034B98472060EAE701204042ECE737
:103BF0002B380000FD37000019380000F8B5070029
:103C00000E0002250024BC4201DB2800F8BD0C2375
:103C100063439859F31859689A68034B98470230E0
:103C20002D180134EFE7C04625390000F0B585B006
:103C30000F00039004001E000B991A4B0A98019282
:103C40009847194B05009847B84228DC0121019B91
:103C500003A80B40D900A2231943144B984729000D
:103C6000134B03989847039B310018180390114B8E
:103C700003A8984700250C270A9B9D4203DB039B62
:103C8000181B05B0F0BD3B006B430B9A03A8995875
:103C9000D3185A68084E9B68B0470135ECE70220FC
:103CA0004042EEE7FD3B0000D5370000373800000A
:103CB0005937000045380000AD38000030B50B0022
:103CC0000E240F21002585B06C44694425700D70C9
:103CD0000092054D02002000A84723780B2B00D14D
:103CE000012005B030BDC046DD36000010B508002B
:103CF00011001A00014B984710BDC04645920000C4
:103D000010B5080011001A00014B984710BDC046BD
:103D10003193000070B5041E12D0FA210A4B8900BD
:103D20001D680A4B28009847FA212060084B89003B
:103D300028009847FA2300209B005943616070BD1A
:103D400001204042FBE7C046481F0020E5A70000D5
:103D5000F1A80000002802D00023036043607047F0
:103D600013B504000120002C16D00C4B6846984770
:103D70002368009A01989A1A63681B1A02D50849A9
:103D8000013A5B180120002A05DB0020824202D1A3
:103D9000581E1843C00FC0B216BDC046153D0000E6
:103DA00040420F0073B504000E0000281DD00F4BD9
:103DB00068469847FA210E4B890030009847FA214F
:103DC000009B8900C51825600A4B30009847FA23EC
:103DD0009B005943019BC918074B6160994204DD60
:103DE000064B0135C9182560616073BD153D0000A3
:103DF000E5A70000F1A800003F420F00C0BDF0FFA2
:103E000037B505000C0000280FD0084B68469847CE
:103E1000009B074AE118019B29606B60934204DD17
:103E2000044A01319B1829606B6037BD153D0000C5
:103E30003F420F00C0BDF0FF13B5041E01D10020AA
:103E400016BD0B4B68469847009A236860689B1A1A
:103E5000019A801A02D5074A013B8018002BEEDB3D
:103E6000FA2189004B431C00034B98472018E7E7D1
:103E7000153D000040420F00F9A80000054B10B5A9
:103E80001B68040010209847002802D00223846099
:103E9000036010BD0C000020F7B50268040001911A
:103EA0004368002A04D1002B04D001204042FEBD0B
:103EB000002BFAD0019B002BF7D0154D9F00380046
:103EC0002B689847061EF0D038002B689847216869
:103ED000070000290FD06368002B0CD0A268002ACD
:103EE00009D092000B4B30009847A36861689A0094
:103EF0003800084B984720686B6898476B68606883
:103F00009847019B26606760E3600020CFE7C046CA
:103F10000C00002011DF0000F8B504000D1E02D1D6
:103F200001204042F8BD0B4F88003B689847061EB1
:103F3000F6D02168002905D06268002A02D09200DC
:103F4000054B984720687B6898472660A56000204D
:103F5000E8E7C0460C00002011DF000070B54368A0
:103F60000D00816804008B4207D20020636821683D
:103F70009A0001335550636070BD49000F2900D28B
:103F80000F21F0235B02994202D901204042F3E75E
:103F9000024B20009847431CE7D1F6E7193F000089
:103FA000084B70B51B680600481C0D009847041E9E
:103FB00005D000232A0043553100034B98472000C9
:103FC00070BDC0460C000020C9EA000010B5044BCB
:103FD00004009847034B01002000984710BDC046DD
:103FE000D1E90000A13F0000F7B50400160000254C
:103FF0000191002C1BD0A3689D4201D3002013E047
:10400000AB0000932368AA009F580A4B38009847DA
:10401000B0420AD1320001993800074B9847002876
:1040200003D16368009A9858FEBD0135E1E720008E
:10403000FAE7C046D1E9000035EA000010B50A00F1
:10404000002803D10800034B984710BD0249034BD9
:104050009847FAE7D1E9000068AC010029E70000C1
:10406000F8B5002405000F002600BE4201DB200049
:10407000F8BD07492800074B9847002805DB002DAD
:1040800000D02D1824180136EFE701246442EEE732
:1040900043A901003D400000F7B5254B0C00070087
:1040A000984724490190244E2000B047051E02DAAB
:1040B00001204042FEBD002C00D02418019BFB18BB
:1040C0000193019B9F4206D11A492000B047002866
:1040D000EEDB2818EEE73B780C2B1DD007D8092B18
:1040E0001ED00A2B1AD0082B1CD1144908E0222B11
:1040F00005D05C2B0ED00D2B14D1114900E01149D5
:104100002000B0470028D3DB002C00D024182D1845
:104110000137D6E70C49F3E70C49F1E70C49EFE723
:104120000C49EDE7002C01D0237001340135EFE795
:10413000D1E90000189201003D4000001D920100ED
:1041400026920100179201001A92010020920100AC
:10415000239201002992010070B505000E4EB04770
:1041600044242B78C0184378234201D1002070BD2D
:10417000B0476B78C01843782342F7D0B047AB788C
:10418000C01843782342F1D0B047EB78C01840788C
:104190002040431E9841EAE76DD70000F0B5026861
:1041A00087B0531C0293036003681D78222D02D14F
:1041B000013303600BE0002D2FD05C2D02D003688B
:1041C0000133F0E7591C01605B78002BF7D1002523
:1041D00000680378AB4220D0801A831E03936E4B95
:1041E00001381B6898470400029E01903378002B29
:1041F00000D0B4E000232370019B674EE41A013421
:10420000200033689847051E00D1BEE0634B2200B2
:1042100001999847736801989847280007B0F0BD46
:104220005C2B03D0622B00D0AFE008232370013455
:10423000561CDBE7722B21D004D86E2B00D0A4E0F3
:104240000A23F3E7742B1BD0752B00D09DE0B71C1D
:104250003800534B9847002800D196E0514B04AAF0
:10426000514938009847431C00D18EE0049D7F2DB2
:1042700008D82570FA1CDAE70C23D7E70D23D5E719
:104280000923D3E7494A95420DD840233F225B4298
:10429000AD091D432570049B01341A4080235B4205
:1042A00013432370E6E7424BEB18934213D92D04D6
:1042B0002B0F20253F2180226D421D432570049B3A
:1042C00052429B090B4013436370049B0234194014
:1042D0000A432270CEE7374A934256D8B3795C2B13
:1042E00053D13700F3790837752B4ED138002C4B5A
:1042F0009847002849D02B4B05AA2B4938009847EE
:10430000431C42D0059B2C4A2A499A188A423CD821
:104310002A4AAD029B0515409B0D1D4380235B027D
:10432000ED1810233F21802204955B42AD0C1D4304
:104330002570049B52421B0B0B4013436370049B7C
:104340009B090B401343A370049B033419400A4399
:1043500022708FE71F2B18D92370320067E7029A6B
:104360000399B21A914200D844E75C2BF2D17378DA
:10437000721C662B80D000D95CE72F2B00D155E74B
:1043800000D94DE7222B00D150E7034B01985B6821
:104390009847002541E7C0460C00002011DF0000CF
:1043A000594100006DE700002C920100FF0700005A
:1043B0000028FFFFFF0300000024FFFF00FC0F00A8
:1043C00070B505000C00002808D0081E06D0044B6C
:1043D000984721000200034B2800984770BDC04653
:1043E000D1E90000E93F0000F7B504000F0000929A
:1043F000002802D101204042FEBD0029FAD0009BD6
:10440000002BF7D0C16883688B421BD23900200093
:10441000134B9847051EEDD1A36838009E00236812
:104420009B1901930F4B9847019B186023689B5978
:10443000002BDFD06368009A28009A51A3680133EB
:10444000A360D9E749000F2900D20F21F0239B0078
:104450009942CFD8044B20009847431CD6D1C9E7D6
:10446000C1430000CD3F0000993E0000031E06D06E
:104470009A6800208A4202D91B688900C858704790
:10448000031E06D05A6800208A4202D91B688900A0
:10449000C8587047031E04D01A680020042A00D1AF
:1044A0009868704710B5024B9847024B984710BD6B
:1044B000C143000095440000031E04D01A68002088
:1044C000052A00D198687047031E04D01A6800209E
:1044D000022A00D19868704710B5024B9847024BEA
:1044E000984710BDC1430000C9440000002805D012
:1044F0000368032B02D1C168806870470020002147
:10450000FBE7002804D00368062B01D180687047C0
:1045100001204042FBE70000F0B587B004000F0027
:1045200003920293002802D10120404280E00368F8
:10453000581E0528F8D806F04BF954011D012E012C
:104540007D00060024012000A84B9847061E049019
:1045500001D043680493A6493800A64DA847041E1D
:10456000E2DB002F00D03F18049B002B58D0029BA9
:10457000002B08D0A0493800A8470028D4DB002F22
:1045800000D03F1824180025029B002B0AD0039B63
:104590003800591C994B98470028C5DB002F00D0E4
:1045A0003F1824182900964B30009847039B390088
:1045B0005A1C0C9B0093029BFFF7AEFF0028B3DB55
:1045C000002F00D03F18049B2418013BAB4209D9AF
:1045D0008C493800874B98470028A5DB002F00D076
:1045E0003F182418029B002B09D083493800814BC7
:1045F0009847002898DB002F00D03F182418049B10
:1046000001359D42C0D1029B002B09D0039938008F
:104610007A4B9847002887DB002F00D03F182418DA
:1046200079493800734B9847002800DA7CE7201856
:1046300007B0F0BD2000754B9847061E049001D0CE
:1046400083680493724938006A4DA847041E00DA53
:104650006AE7002F00D03F18049B002B00D187E0B1
:10466000029B002B09D064493800A847002800DAD3
:104670005AE7002F00D03F1824180025654B290069
:1046800030009847029B0590002B0BD0039B38000D
:10469000591C5A4B9847002800DA45E7002F00D0F4
:1046A0003F182418390005985B4B9847002800DA1A
:1046B0003AE7002F00D03F182418584938004D4BD6
:1046C0009847002800DA2FE7002F00D03F18029B00
:1046D0002418002B0AD052493800464B984700282E
:1046E00000DA21E7002F00D03F18241805994D4B20
:1046F00030009847039B39005A1C0C9B0093029B87
:10470000FFF70AFF002800DA0EE7002F00D03F185D
:10471000049B2418013BAB420AD93A493800354B77
:104720009847002800DAFFE6002F00D03F18241831
:10473000029B002B0AD0304938002E4B98470028A6
:1047400000DAF1E6002F00D03F182418049B013551
:10475000AB4293D1029B002B0AD003993800274B20
:104760009847002800DADFE6002F00D03F18241811
:104770002D4956E72D4B200098473900264B984786
:1047800025E02B4B200098471A4B2A49002800D1DE
:1047900029493800F3E72000284B984704000D0012
:1047A000002F00D10C9F2900254B20009847254B56
:1047B00002909847244E02000B0020002900B047C9
:1047C000224E002807D0029A21493800B04700281D
:1047D00000DB2DE7A8E622002B001E493800B04779
:1047E000F5E71D493800034BC9E7C046B94400004E
:1047F000309201003D40000021AA0100614000000C
:10480000814400003292010088920100954400002A
:10481000349201006D4400009940000014AE010084
:1048200046A90100C143000036920100C9440000BE
:1048300003450000389201003D920100ED44000064
:1048400031CA000099CA0000F1AA000029E700005F
:1048500043A60100439201004692010070B5051E77
:104860000CD00368042B0ED0052B28D0022B05D1C9
:104870008068002802D0194B5B689847174B2800C6
:104880005B68984770BD8468A268144E531EA3608D
:10489000002A08D120687368984760687368984751
:1048A00073682000E9E721689B00585872689047B8
:1048B000A36862689B009858FFF7D0FFE4E784681C
:1048C0006268531E6360002A02D1044E2068E5E747
:1048D00022689B009858FFF7C1FFF1E70C00002009
:1048E00070B50D4E102033689847051E12D0042372
:1048F0000360102033689847041E04D0002303602F
:104900004360C3608360AC60002C03D128007368EF
:1049100098472500280070BD0C00002070B50D4E92
:10492000102033689847051E11D0052303600C2022
:1049300033689847041E03D00023036083604360FC
:10494000AC60002C03D1280073689847250028002C
:1049500070BDC0460C000020F7B5051E02D1002432
:104960002000FEBD484B98472F003F262B18009093
:104970000193019BBB420ED828000099434B9847F6
:10498000051EECD0424B9847041EE9D1414B28004C
:104990005B689847E4E73C7823004033DBB2012BA7
:1049A000DDD9F42CDBD82300B343802BD7D063B2FE
:1049B0000120002B5FDA23001F229343C02B45D038
:1049C0000F2023008343E02B2BD0072322009A43A0
:1049D000F02AC4D17A781300B343802BBFD1B878C2
:1049E0000300B343802BBAD1FB781900B14380296F
:1049F000B5D179390C40A4013240334022431C0028
:104A00009201304010438001044304202AE0224BED
:104A10009C4202D80428A2D02DE0204B9C429ED874
:104A200029E07B781A00B243802A98D1BA78110025
:104A3000B143802900D092E7324020401400800129
:104A4000334003439B011C4303200BE078780300B1
:104A5000B343802B00D082E71F231C403040A401C9
:104A6000044302207F2C00D879E70D4B9C42CED81E
:104A7000022800D073E70B4B094AE418944200D88F
:104A80006DE73F1875E7C046D1E90000A13F00007F
:104A90007D3E00000C000020FFFF0000FFFF100023
:104AA000FF0700000028FFFF064B70B51B680400DD
:104AB00010200D009847002803D003238460C560B0
:104AC000036070BD0C000020064B10B51B6804008D
:104AD00010209847002804D006230360631E9C41E1
:104AE000846010BD0C000020044B10B51B68102022
:104AF0009847002801D00123036010BD0C0000205E
:104B0000F0B504000F0089B0AD4EB047082125680C
:104B10002B78C01842780A420BD15B2B00D1D9E028
:104B200030D82D2B0BD007D8222B00D12DE1002718
:104B30005AE001352560E7E7303B092BF7D828001C
:104B4000A04B07A99847079B266802900391019301
:104B50009D1B012D13D93378302B03D17378002797
:104B60002E2B41D1022D0AD0022297493000974BBB
:104B70009847002803D1B37807002E2B34D1013D8C
:104B8000934F4DE16E2B00D153E110D8662BCED15F
:104B9000042229008F488D4EB047002800D004E140
:104BA0000435256001308C4B984707001CE0742BBE
:104BB000EED07B2BBBD17B1C0493884B9847884B52
:104BC000070098470190002FB1D0082523680133D2
:104BD0002360B04723681A7880184178294206D1AB
:104BE0007D2A5AD101332360380009B0F0BD01336A
:104BF0002360EEE70133236057E001332360049B19
:104C0000784D132B03D930006B6898475BE004990B
:104C10002000FFF775FF02900028F4D00200724BCD
:104C2000310001989847431C05D130006B689847C4
:104C30006B680298E9E76B6830009847604B9847CB
:104C400023681A78801841780820014217D12C2A4D
:104C500018D008255A4B984723681A78801841784D
:104C6000294234D17D2A2ED10199002900D08968AA
:104C700001985E4B9847431C25D02368B2E7013367
:104C80002360DBE7013323604D4B984708212368FD
:104C90001A78801842780A42F4D123681B78002BD6
:104CA000D7D02000524B98470600454B98472368C1
:104CB0001A78801841780820084005909AD1002E73
:104CC00001D03A2A99D038004A4B98472FE7013350
:104CD0002360BFE77B1C0293474B9847474B070075
:104CE00098470500002F00D121E723680133236096
:104CF000B04723681A788018417808200142F5D11E
:104D00005D2A00D16EE723681B78002B0FD1B047D6
:104D100023681A78801841780820014232D15D2A30
:104D2000D1D1291E00D069682800354BA2E7029B2B
:104D3000132BC8D802992000FFF7E2FE019000284B
:104D4000C1D001002F4B28009847431C05D1254BAB
:104D500001985B6859E701332360B04723681A78EC
:104D60008018417808200142F5D12C2ACFD1013397
:104D70002360B047082123681A78801842780A42D5
:104D8000F5D1C0E701332360C1E72000184B9847F5
:104D9000041E00D1CBE61C4B9847071E00D023E72A
:104DA000104B20005B6898471EE705222900174832
:104DB000B047002800D0BAE605352560F3E6C046C6
:104DC0006DD7000029FA00004B92010035EA00007F
:104DD0004E92010038920100C94A0000E1480000EB
:104DE000954400000C000020E9430000993E0000BB
:104DF0009D4100005D4800001D490000B9440000CD
:104E0000193F00005D3F00007D3E00003D92010023
:104E1000715D38000D4B9847013D002800D086E6B3
:104E20006B1CF5D1019B029803992360084B9847AE
:104E3000BBE6042229000748074B9847002800D00A
:104E400075E604352560054B9847AEE65DE8000041
:104E5000A94A00004692010035EA0000E94A000034
:104E600013B508240190002803D1002016BD01329B
:104E70000192084B9847019A1378C0184178214055
:104E8000F5D1202293435B2BEFD101A8024B984729
:104E9000ECE7C0466DD70000014B000010B5094C8F
:104EA000A54403AB00930023074C1A001900A04748
:104EB0000023984200DB431C18008B23DB009D4439
:104EC00010BDC046A8FBFFFF1945000073B50A4B93
:104ED00004000D001600984700280AD0B04208D8F8
:104EE00000222000009213002900044CA047C017A4
:104EF00076BD01204042FBE79D4E000019450000B1
:104F0000F7B504000D001700002825D0002923D094
:104F1000002A21D0124B9847002805D13A002900D9
:104F20002000104B9847FEBD00260F4B9847A36802
:104F30000193019B9E42F1D0B30000932368B2001D
:104F400098582900094B9847002803D16368009AB4
:104F50009F50E8E70136ECE701204042E3E7C04616
:104F6000C1430000E94300005D48000039E900004A
:104F7000F0B506000D0085B00392039B002B43D0D3
:104F8000002D41D02E212800214B98470190002868
:104F900008D1039A290030001E4B984704002000D6
:104FA00005B0F0BD019B2800591B1B4B98471B4BBC
:104FB0000100050030009847194F041E1DD1194B00
:104FC00098470290002804D17B6828009847013C4C
:104FD000E5E7029A29003000134B98470400431C70
:104FE00006D10298114B98477B6828009847D6E76E
:104FF00029003000094B9847040028007B68984737
:10500000019D26000135B8E701246442C7E7C04688
:105010005DE80000014F0000A13F0000A544000032
:105020000C000020E1480000E94300005D4800005A
:1050300070B50C4B040010000E009847051E0CD0F4
:10504000020031002000084B98470400431C07D1A0
:105050002800064B9847200070BD01246442FAE7FF
:105060000024F8E759490000714F00005D48000036
:1050700070B504000E00100019000B4B9847051E78
:105080000CD0020031002000084B98470400431C5C
:1050900007D12800064B9847200070BD01246442C8
:1050A000FAE70024F8E7C046A94A0000714F000063
:1050B0005D48000070B50C4B04000E009847051EBB
:1050C0000CD0020031002000084B98470400431C1C
:1050D00007D12800064B9847200070BD0124644288
:1050E000FAE70024F8E7C046E94A0000714F0000E3
:1050F0005D480000C0238022DB0592045A619A615A
:10510000704700002148224970B5884204D000232E
:10511000204CCA18A24232D300211F4B1F4A93428F
:1051200031D3FF211E4B1F4A8B43936002220C2573
:10513000082430261C4B1D485A62C378FC398B4327
:105140001343C370C378AB432343C370184B987B9E
:10515000B0430600202030439873987BA843044353
:105160009C73987B884302439A738023114A516849
:105170000B435360104B9847104B9847FEE7C558B8
:1051800004331560C5E702C3C9E7C046C0BD0100CE
:1051900000000020000A0020000A002094220020C5
:1051A0000000000000ED00E0FC70004100500041F4
:1051B0000048004100400041FDD6000099A50000D4
:1051C00010B50B00002805D118001100034B9847BB
:1051D000002801DA0120404210BDC0462D520000D7
:1051E000013810B50C00022805D811002000034B2F
:1051F0009847002801DA0120404210BD4D520000BE
:1052000070B50600064D074C2B6800219868A04732
:105210002B6800215868A047034B1E6070BDC04634
:105220005000002075E50000640B0020054B10B510
:105230001B680400181E03D08AB2034B2100984754
:1052400010BDC046640B0020F5150000054B10B5DD
:105250001B680400181E03D08AB2034B2100984734
:1052600010BDC046640B0020ED150000F0B585B000
:105270000290019103920093002835D0002933D089
:105280000025009BAB4209D00A9B5C1C20002D4BE3
:105290009847220020212C4B050098470026039BAD
:1052A000002B03D031002948294B984700240A9B42
:1052B000A3421BD8009B002B40D000240A9B29004E
:1052C000EC542448224B98470A9A210028001E4B90
:1052D00098470A9BF618019BB342E0D8009B002B2D
:1052E00002D028001C4B984705B0F0BD002C05D01B
:1052F00007231C4202D12020184B9847019B3719E5
:10530000BB4217D9029B1648DF193978104B9847D2
:10531000009B002B08D0134B984768213A788018DF
:1053200043788B4303D02A550134E4B2BFE72E23E0
:105330002B55F9E7064B0C489847F5E70B4B0C4803
:105340009847C6E789D8000035E000005C9201006C
:10535000E9E00000A8A501009DD800000DE10000D3
:10536000649201006DD7000044A90100C1E1000072
:105370009BB00100034B10B51B68002B00D0984771
:1053800010BDC046680B00200022074B10B51A6004
:10539000064B1A68D20702D51B689B0702D4034844
:1053A000034B9847002010BD680B002010E000E080
:1053B000D114000010B50400002C00D110BD012054
:1053C000014B9847013CF7E705150000F8B5C024EC
:1053D000E40523008027082294333F011F606261A7
:1053E00080222500D2001A60064E98350120B04771
:1053F0002F600520B0470823A3618023DB002B60CA
:10540000F8BDC046B553000010B5034B0349186002
:105410001220034B984710BD680B00207553000005
:1054200069160000411E884110B5C1B2014B12201F
:10543000984710BD151B0000014B18607047C0460F
:10544000501F002010B5074C07492068074B9847AC
:105450002068074B9847074B98470120064B984711
:10546000002010BD501F00204C1F00209D17000081
:1054700035170000CD530000B5530000F7B50328E1
:105480002ED16A460E890D684B68002107321170D3
:105490008D421ED08B4220D11F0013000131C02449
:1054A0008022E405D2016261002905D11900134B65
:1054B00032001868124B9847002F05D10F4B32006D
:1054C000186829000F4B984780230020DB01A36157
:1054D000FEBD290001271500E1E706204042F7E75D
:1054E00080220949094B0A4898470A4B0A489847BD
:1054F0000D200A4B98470120F0E7C0464C1F0020C2
:10550000F5150000ED1500006A920100E9E00000C9
:1055100077920100C1E100008A9201000DE10000D4
:1055200000207047002310B59A4203D0CC5CC454CD
:105530000133F9E710BD8318002A03D00170013050
:105540009842FBD170470023C15C9AB20133002915
:10555000FAD1100070470000024AD3780133DBB261
:10556000D3707047541F00207047000007B5002219
:10557000094B01209A70094B984701A90848094B2B
:105580009847002806D10221019B05481943064B84
:10559000019198470EBDC046541F002025540000BD
:1055A00070100000B16D0000BD6D0000002010B54E
:1055B0000A4CA378834207D16378834205D0002048
:1055C00063780133DBB2637010BD2378002BF6D013
:1055D000034B98470028F2D0F6E7C046541F00203E
:1055E00099690000044A5378002B03D05378013B9B
:1055F000DBB2537000207047541F002010B5094BD8
:105600005A78002A03D05A78013AD2B25A70002050
:105610005A78824204D11B78834201D0024B9847CA
:1056200010BDC046541F002039690000F0B58DB090
:105630001F0012AB049204CB08AD1B8801920293A9
:1056400014AB1B88060005937F230B406B70019BF6
:1056500003912870002B48D0029B059A0833D31879
:105660006B80634C6B88A34200D9B2E0614B9847D2
:10567000041E00D09EE006AB0A90D8800990099BDA
:105680005D481E430996039B099A1B021343099325
:105690006B88099A1B04134309930999574DA8472E
:1056A000041E44D102230990099A554813430993D3
:1056B0000999A847041E3AD1FA2606AB0A9076004B
:1056C000D88006AB9C1D22884E4B9A4205D809A96A
:1056D0004B484D4B984700280AD00A9B002B2ED1EF
:1056E0004A4B98470324644270E03B000833B7E715
:1056F000F4232288FF339A420ED92388B34208D874
:10570000434B44489847444B444898470D20444BEA
:1057100098470120434B98470223099D1D4009D11A
:105720000AA94148384B9847041ED6D00A953F4BEA
:1057300098474BE0238801339BB22380C1E70A9B43
:1057400008220B930B9808A9394DA847041EEED1E7
:105750000B9B08330B93049B002B08D00B983A004B
:105760001900A847041EE2D10B9BFB180B93019B69
:10577000002B0ED0059B0B9ADB1B9B180B930B98F1
:10578000029A0199A847041ED1D10B9B029AD31803
:105790000B930A9B27489B0009930223099A134302
:1057A00009930999154B9847041EC0D1174B984788
:1057B00004000BE0CB2220495200154B1F489847AC
:1057C000154B1F4898470D20154B984720000DB0EA
:1057D000F0BDCE22184952000D4E1848B0472200A5
:1057E00069881848B0470D200D4B984701247AE787
:1057F0003C060000AD5500008C100000BD6D00009F
:1058000078100000E7030000B16D0000FD550000B6
:10581000E9E00000D9920100C1E10000E592010039
:105820000DE10000B553000000041500E55500002F
:10583000096E00006C1000009D920100779201003B
:10584000F592010014930100F0B50025A84E89B02F
:105850003571F378002B03D03079C0B2002802D024
:10586000280009B0F0BDA34CA047F3780120013B0C
:10587000DBB2F370A0470423039305A99E489F4B16
:105880009847051E00D01CE101240599214200D152
:1058900009E1A14398489A4B05919847051E76D196
:1058A000059BB4709F043F0D00D1EEE0079007A95F
:1058B0009448924B9847051E0DD0CE229249FF3254
:1058C00009319248924B98479248934B9847934B93
:1058D0000D2098475BE0079B06ACB36018000422DC
:1058E0008F4B2100F7609847638805009BB2638067
:1058F000002808D0EB228449520009318348844BA8
:1059000098478848E1E763889F4219D06388FB1A6B
:10591000042B15DDEF227C49520009317B487C4D78
:10592000A84762882378617892B20091DBB239008F
:105930007D48A8470D20794B984706256D4226E003
:105940002378012B42D13369002B31D03369607841
:105950006188079A0839C0B2083289B29847B3788B
:10596000002B00D1ABE06849694D704A09316748A6
:10597000A84721786278C9B2D2B26D48A847674B70
:105980000D2098476B4B9847051E00D197E0039B6D
:105990005D495E48002B00D09BE0674A5C4C1131AA
:1059A000A04729006548A0475C4B0D20984750E769
:1059B000EA225549FF3209315448554B984760480F
:1059C000554B9847554B0D209847C8E72378022B35
:1059D0000DD17369002B01D07369B8E7F8224A49E9
:1059E0005200093149484A4B98475648E8E723781E
:1059F000042B0DD1B369002B01D0B369A7E7F822BE
:105A00004149FF3209314148414B98474E48D7E759
:105A10002378062B0DD1736A002B01D0736A96E7A9
:105A2000FF223949520009313848394B98474748D5
:105A3000C6E72378072B0CD1F369002B01D0F3695B
:105A400085E73149424A09313048314B984741484E
:105A5000B6E72378052B0DD1B36A002B01D0B36ACA
:105A600075E783222849920009312848284B984736
:105A70003948A5E78422244992000931244B234860
:105A80009847254B3548984754E71F49344A093110
:105A90001F4B1E489847204B324898470D201F4BFC
:105AA000984702254AE718492F4A0931184C1748E8
:105AB000A04705992D48A0470D20184B9847002571
:105AC000C7E611492A4A09311048114B984729481D
:105AD000FBE61131284A0E4CA047039A29002748BB
